{
  "_format": "hh-sol-artifact-1",
  "contractName": "LiquidityAmplifier",
  "sourceName": "contracts/LiquidityAmplifier.sol",
  "abi": [
    {
      "inputs": [
        {
          "internalType": "address",
          "name": "_maxxVault",
          "type": "address"
        },
        {
          "internalType": "uint256",
          "name": "_launchDate",
          "type": "uint256"
        },
        {
          "internalType": "address",
          "name": "_maxx",
          "type": "address"
        }
      ],
      "stateMutability": "nonpayable",
      "type": "constructor"
    },
    {
      "inputs": [],
      "name": "AlreadyInitialized",
      "type": "error"
    },
    {
      "inputs": [],
      "name": "AmplifierComplete",
      "type": "error"
    },
    {
      "inputs": [],
      "name": "AmplifierNotComplete",
      "type": "error"
    },
    {
      "inputs": [],
      "name": "AmplifierNotStarted",
      "type": "error"
    },
    {
      "inputs": [],
      "name": "ClaimExpired",
      "type": "error"
    },
    {
      "inputs": [
        {
          "internalType": "uint256",
          "name": "day",
          "type": "uint256"
        }
      ],
      "name": "InvalidDay",
      "type": "error"
    },
    {
      "inputs": [
        {
          "internalType": "address",
          "name": "referrer",
          "type": "address"
        }
      ],
      "name": "InvalidReferrer",
      "type": "error"
    },
    {
      "inputs": [],
      "name": "LaunchDatePassed",
      "type": "error"
    },
    {
      "inputs": [],
      "name": "StakingNotInitialized",
      "type": "error"
    },
    {
      "anonymous": false,
      "inputs": [
        {
          "indexed": true,
          "internalType": "address",
          "name": "user",
          "type": "address"
        },
        {
          "indexed": false,
          "internalType": "uint256",
          "name": "amount",
          "type": "uint256"
        }
      ],
      "name": "Claim",
      "type": "event"
    },
    {
      "anonymous": false,
      "inputs": [
        {
          "indexed": true,
          "internalType": "address",
          "name": "user",
          "type": "address"
        },
        {
          "indexed": false,
          "internalType": "uint256",
          "name": "amount",
          "type": "uint256"
        },
        {
          "indexed": true,
          "internalType": "address",
          "name": "referrer",
          "type": "address"
        }
      ],
      "name": "Deposit",
      "type": "event"
    },
    {
      "anonymous": false,
      "inputs": [
        {
          "indexed": true,
          "internalType": "address",
          "name": "previousOwner",
          "type": "address"
        },
        {
          "indexed": true,
          "internalType": "address",
          "name": "newOwner",
          "type": "address"
        }
      ],
      "name": "OwnershipTransferred",
      "type": "event"
    },
    {
      "inputs": [],
      "name": "AMPLIFIER_PERIOD",
      "outputs": [
        {
          "internalType": "uint16",
          "name": "",
          "type": "uint16"
        }
      ],
      "stateMutability": "view",
      "type": "function"
    },
    {
      "inputs": [],
      "name": "CLAIM_PERIOD",
      "outputs": [
        {
          "internalType": "uint16",
          "name": "",
          "type": "uint16"
        }
      ],
      "stateMutability": "view",
      "type": "function"
    },
    {
      "inputs": [],
      "name": "MAX_LATE_DAYS",
      "outputs": [
        {
          "internalType": "uint16",
          "name": "",
          "type": "uint16"
        }
      ],
      "stateMutability": "view",
      "type": "function"
    },
    {
      "inputs": [
        {
          "internalType": "uint256",
          "name": "_day",
          "type": "uint256"
        },
        {
          "internalType": "uint256",
          "name": "_maxxAmount",
          "type": "uint256"
        }
      ],
      "name": "changeDailyAllocation",
      "outputs": [],
      "stateMutability": "nonpayable",
      "type": "function"
    },
    {
      "inputs": [
        {
          "internalType": "uint256",
          "name": "_launchDate",
          "type": "uint256"
        }
      ],
      "name": "changeLaunchDate",
      "outputs": [],
      "stateMutability": "nonpayable",
      "type": "function"
    },
    {
      "inputs": [],
      "name": "claim",
      "outputs": [],
      "stateMutability": "nonpayable",
      "type": "function"
    },
    {
      "inputs": [],
      "name": "claimReferrals",
      "outputs": [],
      "stateMutability": "nonpayable",
      "type": "function"
    },
    {
      "inputs": [
        {
          "internalType": "uint16",
          "name": "_daysToStake",
          "type": "uint16"
        },
        {
          "internalType": "uint256",
          "name": "_tokenId",
          "type": "uint256"
        },
        {
          "internalType": "enum IStake.MaxxNFT",
          "name": "_maxxNFT",
          "type": "uint8"
        }
      ],
      "name": "claimToStake",
      "outputs": [],
      "stateMutability": "nonpayable",
      "type": "function"
    },
    {
      "inputs": [
        {
          "internalType": "uint16",
          "name": "_daysToStake",
          "type": "uint16"
        }
      ],
      "name": "claimToStake",
      "outputs": [],
      "stateMutability": "nonpayable",
      "type": "function"
    },
    {
      "inputs": [],
      "name": "deposit",
      "outputs": [],
      "stateMutability": "payable",
      "type": "function"
    },
    {
      "inputs": [
        {
          "internalType": "address",
          "name": "_referrer",
          "type": "address"
        }
      ],
      "name": "deposit",
      "outputs": [],
      "stateMutability": "payable",
      "type": "function"
    },
    {
      "inputs": [
        {
          "internalType": "address",
          "name": "",
          "type": "address"
        },
        {
          "internalType": "uint256",
          "name": "",
          "type": "uint256"
        }
      ],
      "name": "effectiveUserDailyDeposits",
      "outputs": [
        {
          "internalType": "uint256",
          "name": "",
          "type": "uint256"
        }
      ],
      "stateMutability": "view",
      "type": "function"
    },
    {
      "inputs": [
        {
          "internalType": "address",
          "name": "",
          "type": "address"
        },
        {
          "internalType": "uint256",
          "name": "",
          "type": "uint256"
        }
      ],
      "name": "effectiveUserReferrals",
      "outputs": [
        {
          "internalType": "uint256",
          "name": "",
          "type": "uint256"
        }
      ],
      "stateMutability": "view",
      "type": "function"
    },
    {
      "inputs": [],
      "name": "getDay",
      "outputs": [
        {
          "internalType": "uint8",
          "name": "day",
          "type": "uint8"
        }
      ],
      "stateMutability": "view",
      "type": "function"
    },
    {
      "inputs": [
        {
          "internalType": "uint8",
          "name": "_day",
          "type": "uint8"
        }
      ],
      "name": "getEffectiveMaticDailyDeposit",
      "outputs": [
        {
          "internalType": "uint256",
          "name": "",
          "type": "uint256"
        }
      ],
      "stateMutability": "view",
      "type": "function"
    },
    {
      "inputs": [
        {
          "internalType": "uint8",
          "name": "_day",
          "type": "uint8"
        }
      ],
      "name": "getMaticDailyDeposit",
      "outputs": [
        {
          "internalType": "uint256",
          "name": "",
          "type": "uint256"
        }
      ],
      "stateMutability": "view",
      "type": "function"
    },
    {
      "inputs": [
        {
          "internalType": "uint8",
          "name": "_day",
          "type": "uint8"
        }
      ],
      "name": "getMaxxDailyAllocation",
      "outputs": [
        {
          "internalType": "uint256",
          "name": "",
          "type": "uint256"
        }
      ],
      "stateMutability": "view",
      "type": "function"
    },
    {
      "inputs": [],
      "name": "getParticipants",
      "outputs": [
        {
          "internalType": "address[]",
          "name": "",
          "type": "address[]"
        }
      ],
      "stateMutability": "view",
      "type": "function"
    },
    {
      "inputs": [],
      "name": "getParticipantsSlice",
      "outputs": [
        {
          "internalType": "address[]",
          "name": "",
          "type": "address[]"
        }
      ],
      "stateMutability": "view",
      "type": "function"
    },
    {
      "inputs": [],
      "name": "launchDate",
      "outputs": [
        {
          "internalType": "uint256",
          "name": "",
          "type": "uint256"
        }
      ],
      "stateMutability": "view",
      "type": "function"
    },
    {
      "inputs": [],
      "name": "maxx",
      "outputs": [
        {
          "internalType": "contract IERC20",
          "name": "",
          "type": "address"
        }
      ],
      "stateMutability": "view",
      "type": "function"
    },
    {
      "inputs": [],
      "name": "maxxVault",
      "outputs": [
        {
          "internalType": "address",
          "name": "",
          "type": "address"
        }
      ],
      "stateMutability": "view",
      "type": "function"
    },
    {
      "inputs": [],
      "name": "owner",
      "outputs": [
        {
          "internalType": "address",
          "name": "",
          "type": "address"
        }
      ],
      "stateMutability": "view",
      "type": "function"
    },
    {
      "inputs": [
        {
          "internalType": "uint256",
          "name": "",
          "type": "uint256"
        }
      ],
      "name": "participants",
      "outputs": [
        {
          "internalType": "address",
          "name": "",
          "type": "address"
        }
      ],
      "stateMutability": "view",
      "type": "function"
    },
    {
      "inputs": [
        {
          "internalType": "address",
          "name": "",
          "type": "address"
        }
      ],
      "name": "participated",
      "outputs": [
        {
          "internalType": "bool",
          "name": "",
          "type": "bool"
        }
      ],
      "stateMutability": "view",
      "type": "function"
    },
    {
      "inputs": [],
      "name": "renounceOwnership",
      "outputs": [],
      "stateMutability": "nonpayable",
      "type": "function"
    },
    {
      "inputs": [
        {
          "internalType": "uint256[60]",
          "name": "_dailyAllocation",
          "type": "uint256[60]"
        }
      ],
      "name": "setDailyAllocations",
      "outputs": [],
      "stateMutability": "nonpayable",
      "type": "function"
    },
    {
      "inputs": [
        {
          "internalType": "address",
          "name": "_stake",
          "type": "address"
        }
      ],
      "name": "setStakeAddress",
      "outputs": [],
      "stateMutability": "nonpayable",
      "type": "function"
    },
    {
      "inputs": [],
      "name": "stake",
      "outputs": [
        {
          "internalType": "contract IStake",
          "name": "",
          "type": "address"
        }
      ],
      "stateMutability": "view",
      "type": "function"
    },
    {
      "inputs": [
        {
          "internalType": "address",
          "name": "newOwner",
          "type": "address"
        }
      ],
      "name": "transferOwnership",
      "outputs": [],
      "stateMutability": "nonpayable",
      "type": "function"
    },
    {
      "inputs": [
        {
          "internalType": "address",
          "name": "",
          "type": "address"
        },
        {
          "internalType": "uint256",
          "name": "",
          "type": "uint256"
        }
      ],
      "name": "userDailyDeposits",
      "outputs": [
        {
          "internalType": "uint256",
          "name": "",
          "type": "uint256"
        }
      ],
      "stateMutability": "view",
      "type": "function"
    },
    {
      "inputs": [
        {
          "internalType": "address payable",
          "name": "_to",
          "type": "address"
        },
        {
          "internalType": "uint256",
          "name": "_amount",
          "type": "uint256"
        }
      ],
      "name": "withdraw",
      "outputs": [],
      "stateMutability": "nonpayable",
      "type": "function"
    },
    {
      "inputs": [],
      "name": "withdrawMaxx",
      "outputs": [],
      "stateMutability": "nonpayable",
      "type": "function"
    }
  ],
  "bytecode": "0x603c60808181526108206040529060a061078080368337505081516200002d9260019250602001906200015b565b5060408051603c8082526107a0820190925290602082016107808036833750508151620000629260029250602001906200015b565b5060408051603c8082526107a0820190925290602082016107808036833750508151620000979260039250602001906200015b565b50348015620000a557600080fd5b50604051620024a0380380620024a0833981016040819052620000c891620001df565b620000d3336200010b565b600480546001600160a01b039485166001600160a01b0319918216179091556006929092556008805491909316911617905562000220565b600080546001600160a01b038381166001600160a01b0319831681178455604051919092169283917f8be0079c531659141344cd1fd0a4f28419497f9722a3daafe3b4186f6b6457e09190a35050565b82805482825590600052602060002090810192821562000199579160200282015b82811115620001995782518255916020019190600101906200017c565b50620001a7929150620001ab565b5090565b5b80821115620001a75760008155600101620001ac565b80516001600160a01b0381168114620001da57600080fd5b919050565b600080600060608486031215620001f557600080fd5b6200020084620001c2565b9250602084015191506200021760408501620001c2565b90509250925092565b61227080620002306000396000f3fe6080604052600436106101ee5760003560e01c80635aa68ac01161010d578063c194bf35116100a0578063f2fde38b1161006f578063f2fde38b14610540578063f340fa0114610560578063f3fef3a314610573578063f8eeed6214610593578063fd1c24ed146105a957600080fd5b8063c194bf3514610503578063c777ea23146103f9578063d0e30db014610523578063efb1274c1461052b57600080fd5b80638da5cb5b116100dc5780638da5cb5b1461047057806396cf70261461048e578063a6fc7ff3146104a3578063b3bd870a146104c357600080fd5b80635aa68ac0146103f9578063656f25251461041b578063715018a61461043b57806386285fb81461045057600080fd5b806323471d18116101855780633a851826116101545780633a851826146103845780633c64dab3146103a4578063493518ee146103c45780634e71d92d146103e457600080fd5b806323471d18146102ec57806329897a891461030c57806335c1d3491461032c5780633a4b66f11461036457600080fd5b806315bb8347116101c157806315bb834714610295578063177b7db0146102aa5780631e3219fc146102ca57806321241dfe146101f357600080fd5b806303ac8dc6146101f35780630609f12d14610220578063082b9cec1461024e57806314ba5c091461026e575b600080fd5b3480156101ff57600080fd5b50610208603c81565b60405161ffff90911681526020015b60405180910390f35b34801561022c57600080fd5b5061024061023b366004611e0f565b6105c9565b604051908152602001610217565b34801561025a57600080fd5b50610240610269366004611e3b565b6105ee565b34801561027a57600080fd5b50610283610665565b60405160ff9091168152602001610217565b3480156102a157600080fd5b50610208606481565b3480156102b657600080fd5b506102406102c5366004611e0f565b6106c0565b3480156102d657600080fd5b506102ea6102e5366004611e5e565b6106dc565b005b3480156102f857600080fd5b506102ea610307366004611e77565b610718565b34801561031857600080fd5b50610240610327366004611e0f565b610742565b34801561033857600080fd5b5061034c610347366004611e5e565b61075e565b6040516001600160a01b039091168152602001610217565b34801561037057600080fd5b5060075461034c906001600160a01b031681565b34801561039057600080fd5b5061024061039f366004611e3b565b610788565b3480156103b057600080fd5b5060085461034c906001600160a01b031681565b3480156103d057600080fd5b506102ea6103df366004611e94565b6107e7565b3480156103f057600080fd5b506102ea61084f565b34801561040557600080fd5b5061040e610b0a565b6040516102179190611eb6565b34801561042757600080fd5b506102ea610436366004611f1a565b610b6c565b34801561044757600080fd5b506102ea610c66565b34801561045c57600080fd5b5061024061046b366004611e3b565b610c7a565b34801561047c57600080fd5b506000546001600160a01b031661034c565b34801561049a57600080fd5b506102ea610cd9565b3480156104af57600080fd5b506102ea6104be366004611f5e565b610dc7565b3480156104cf57600080fd5b506104f36104de366004611e77565b600c6020526000908152604090205460ff1681565b6040519015158152602001610217565b34801561050f57600080fd5b506102ea61051e366004611feb565b610e1d565b6102ea610f15565b34801561053757600080fd5b506102ea611269565b34801561054c57600080fd5b506102ea61055b366004611e77565b61135d565b6102ea61056e366004611e77565b6113d3565b34801561057f57600080fd5b506102ea61058e366004611e0f565b611680565b34801561059f57600080fd5b5061024060065481565b3480156105b557600080fd5b5060045461034c906001600160a01b031681565b600a60205281600052604060002081603c81106105e557600080fd5b01549150829050565b6000806105f9610665565b9050603c60ff841610158061061457508060ff168360ff1610155b1561063c57604051631e80226f60e01b815260ff841660048201526024015b60405180910390fd5b60038360ff168154811061065257610652612006565b9060005260206000200154915050919050565b600060065442101561068a5760405163cc55756d60e01b815260040160405180910390fd5b6018603c806006544261069d9190612032565b6106a79190612049565b6106b19190612049565b6106bb9190612049565b905090565b600960205281600052604060002081603c81106105e557600080fd5b6106e4611727565b600654421015806106f55750804210155b156107135760405163fcdcc8fd60e01b815260040160405180910390fd5b600655565b610720611727565b600780546001600160a01b0319166001600160a01b0392909216919091179055565b600b60205281600052604060002081603c81106105e557600080fd5b6005818154811061076e57600080fd5b6000918252602090912001546001600160a01b0316905081565b600080610793610665565b9050603c60ff84161015806107ae57508060ff168360ff1610155b156107d157604051631e80226f60e01b815260ff84166004820152602401610633565b60018360ff168154811061065257610652612006565b6107ef611727565b6107fc826201518061206b565b600654610809919061208a565b421061082b57604051631e80226f60e01b815260048101839052602401610633565b806001838154811061083f5761083f612006565b6000918252602090912001555050565b61085d603c620151806120a2565b62ffffff1660065461086f919061208a565b421161088e57604051630319c02f60e11b815260040160405180910390fd5b6007546001600160a01b0316158061091b5750600760009054906101000a90046001600160a01b03166001600160a01b031663f8eeed626040518163ffffffff1660e01b8152600401602060405180830381865afa1580156108f4573d6000803e3d6000fd5b505050506040513d601f19601f8201168201806040525081019061091891906120cd565b42105b156109395760405163bf6c2f2960e01b815260040160405180910390fd5b6000610943611781565b9050610953603c620151806120a2565b62ffffff16600760009054906101000a90046001600160a01b03166001600160a01b031663f8eeed626040518163ffffffff1660e01b8152600401602060405180830381865afa1580156109ab573d6000803e3d6000fd5b505050506040513d601f19601f820116820180604052508101906109cf91906120cd565b6109d9919061208a565b421115610acc5760006109f0603c620151806120a2565b62ffffff16600760009054906101000a90046001600160a01b03166001600160a01b031663f8eeed626040518163ffffffff1660e01b8152600401602060405180830381865afa158015610a48573d6000803e3d6000fd5b505050506040513d601f19601f82011682018060405250810190610a6c91906120cd565b610a76919061208a565b610a809042612032565b905060648110610aa3576040516341524ecf60e11b815260040160405180910390fd5b60006064610ab1838561206b565b610abb9190612049565b9050610ac78184612032565b925050505b600854610ae3906001600160a01b0316338361182f565b604051818152339060008051602061221b833981519152906020015b60405180910390a250565b60606005805480602002602001604051908101604052809291908181526020018280548015610b6257602002820191906000526020600020905b81546001600160a01b03168152600190910190602001808311610b44575b5050505050905090565b610b7a603c620151806120a2565b62ffffff16600654610b8c919061208a565b4211610bab57604051630319c02f60e11b815260040160405180910390fd5b6000610bb5611781565b600754600854919250610bd5916001600160a01b03908116911683611892565b60075460405163da06643f60e01b81526001600160a01b039091169063da06643f90610c0b9087908590889088906004016120e6565b600060405180830381600087803b158015610c2557600080fd5b505af1158015610c39573d6000803e3d6000fd5b505060405183815233925060008051602061221b833981519152915060200160405180910390a250505050565b610c6e611727565b610c7860006119a7565b565b600080610c85610665565b9050603c60ff8416101580610ca057508060ff168360ff1610155b15610cc357604051631e80226f60e01b815260ff84166004820152602401610633565b60028360ff168154811061065257610652612006565b610ce7603c620151806120a2565b62ffffff16600654610cf9919061208a565b4211610d1857604051630319c02f60e11b815260040160405180910390fd5b6000610d226119f7565b600754600854919250610d42916001600160a01b03908116911683611892565b600754604051636809a35160e11b8152600e6004820152602481018390526001600160a01b039091169063d01346a290604401600060405180830381600087803b158015610d8f57600080fd5b505af1158015610da3573d6000803e3d6000fd5b505060405183815233925060008051602061221b8339815191529150602001610aff565b610dcf611727565b600854600160a01b900460ff1615610df95760405162dc149f60e41b815260040160405180910390fd5b610e06600182603c611da3565b50506008805460ff60a01b1916600160a01b179055565b610e2b603c620151806120a2565b62ffffff16600654610e3d919061208a565b4211610e5c57604051630319c02f60e11b815260040160405180910390fd5b6000610e66611781565b600754600854919250610e86916001600160a01b03908116911683611892565b600754604051636809a35160e11b815261ffff84166004820152602481018390526001600160a01b039091169063d01346a290604401600060405180830381600087803b158015610ed657600080fd5b505af1158015610eea573d6000803e3d6000fd5b505060405183815233925060008051602061221b833981519152915060200160405180910390a25050565b610f23603c620151806120a2565b62ffffff16600654610f35919061208a565b4210610f54576040516378839fe360e01b815260040160405180910390fd5b610f7e604051806040016040528060098152602001686669727374206c6f6760b81b815250611aa1565b60408051808201909152600a8152697365636f6e64206c6f6760b01b60208201523490610faa90611aa1565b6000610fb4610665565b9050610fe0604051806040016040528060098152602001687468697264206c6f6760b81b815250611aa1565b336000908152600c602052604090205460ff1661105457336000818152600c60205260408120805460ff191660019081179091556005805491820181559091527f036b6384b5eca791c62761152d0c79bb0604c104a5fb6f4eb0703f3154bb3db00180546001600160a01b03191690911790555b61107f6040518060400160405280600a815260200169666f75727468206c6f6760b01b815250611aa1565b6110a8604051806040016040528060048152602001633230bc9d60e11b8152508260ff16611ae4565b336000908152600960205260409020829060ff8316603c81106110cd576110cd612006565b0160008282546110dd919061208a565b90915550506040805180820190915260098152686669667468206c6f6760b81b602082015261110b90611aa1565b336000908152600a60205260409020829060ff8316603c811061113057611130612006565b016000828254611140919061208a565b90915550506040805180820190915260098152687369787468206c6f6760b81b602082015261116e90611aa1565b8160038260ff168154811061118557611185612006565b90600052602060002001600082825461119e919061208a565b909155505060408051808201909152600b81526a736576656e7468206c6f6760a81b60208201526111ce90611aa1565b8160028260ff16815481106111e5576111e5612006565b9060005260206000200160008282546111fe919061208a565b909155505060408051808201909152600a815269656967687468206c6f6760b01b602082015261122d90611aa1565b60405182815260009033907fe31c7b8d08ee7db0afa68782e1028ef92305caeea8626633ad44d413e30f6b2f9060200160405180910390a35050565b611271611727565b61127f603c620151806120a2565b62ffffff16611292603c620151806120a2565b62ffffff166006546112a4919061208a565b6112ae919061208a565b42116112cd57604051630319c02f60e11b815260040160405180910390fd5b6008546040516370a0823160e01b81523060048201526000916001600160a01b0316906370a0823190602401602060405180830381865afa158015611316573d6000803e3d6000fd5b505050506040513d601f19601f8201168201806040525081019061133a91906120cd565b60045460085491925061135a916001600160a01b0390811691168361182f565b50565b611365611727565b6001600160a01b0381166113ca5760405162461bcd60e51b815260206004820152602660248201527f4f776e61626c653a206e6577206f776e657220697320746865207a65726f206160448201526564647265737360d01b6064820152608401610633565b61135a816119a7565b6001600160a01b03811615806113f157506001600160a01b03811633145b1561141a576040516316fb166f60e01b81526001600160a01b0382166004820152602401610633565b611428603c620151806120a2565b62ffffff1660065461143a919061208a565b4210611459576040516378839fe360e01b815260040160405180910390fd5b346000611467600a83612049565b9050611473818361208a565b91506000611482601434612049565b90506000611490828561208a565b9050600061149c610665565b336000908152600c602052604090205490915060ff1661151357336000818152600c60205260408120805460ff191660019081179091556005805491820181559091527f036b6384b5eca791c62761152d0c79bb0604c104a5fb6f4eb0703f3154bb3db00180546001600160a01b03191690911790555b336000908152600960205260409020859060ff8316603c811061153857611538612006565b016000828254611548919061208a565b9091555050336000908152600a60205260409020859060ff8316603c811061157257611572612006565b016000828254611582919061208a565b90915550506001600160a01b0386166000908152600b60205260409020839060ff8316603c81106115b5576115b5612006565b0160008282546115c5919061208a565b925050819055508460038260ff16815481106115e3576115e3612006565b9060005260206000200160008282546115fc919061208a565b925050819055508160028260ff168154811061161a5761161a612006565b906000526020600020016000828254611633919061208a565b90915550506040518581526001600160a01b0387169033907fe31c7b8d08ee7db0afa68782e1028ef92305caeea8626633ad44d413e30f6b2f9060200160405180910390a3505050505050565b611688611727565b6000826001600160a01b03168260405160006040518083038185875af1925050503d80600081146116d5576040519150601f19603f3d011682016040523d82523d6000602084013e6116da565b606091505b50509050806117225760405162461bcd60e51b81526020600482015260146024820152732330b4b632b2103a379039b2b7321022ba3432b960611b6044820152606401610633565b505050565b6000546001600160a01b03163314610c785760405162461bcd60e51b815260206004820181905260248201527f4f776e61626c653a2063616c6c6572206973206e6f7420746865206f776e65726044820152606401610633565b6000805b603c8160ff16101561182b5760028160ff16815481106117a7576117a7612006565b6000918252602080832090910154338352600a909152604090912060ff8316603c81106117d6576117d6612006565b015460018360ff16815481106117ee576117ee612006565b9060005260206000200154611803919061206b565b61180d9190612049565b611817908361208a565b9150806118238161212c565b915050611785565b5090565b6040516001600160a01b03831660248201526044810182905261172290849063a9059cbb60e01b906064015b60408051601f198184030181529190526020810180516001600160e01b03166001600160e01b031990931692909217909152611b2d565b80158061190c5750604051636eb1769f60e11b81523060048201526001600160a01b03838116602483015284169063dd62ed3e90604401602060405180830381865afa1580156118e6573d6000803e3d6000fd5b505050506040513d601f19601f8201168201806040525081019061190a91906120cd565b155b6119775760405162461bcd60e51b815260206004820152603660248201527f5361666545524332303a20617070726f76652066726f6d206e6f6e2d7a65726f60448201527520746f206e6f6e2d7a65726f20616c6c6f77616e636560501b6064820152608401610633565b6040516001600160a01b03831660248201526044810182905261172290849063095ea7b360e01b9060640161185b565b600080546001600160a01b038381166001600160a01b0319831681178455604051919092169283917f8be0079c531659141344cd1fd0a4f28419497f9722a3daafe3b4186f6b6457e09190a35050565b6000805b603c8160ff16101561182b5760028160ff1681548110611a1d57611a1d612006565b6000918252602080832090910154338352600b909152604090912060ff8316603c8110611a4c57611a4c612006565b015460018360ff1681548110611a6457611a64612006565b9060005260206000200154611a79919061206b565b611a839190612049565b611a8d908361208a565b915080611a998161212c565b9150506119fb565b61135a81604051602401611ab591906121a7565b60408051601f198184030181529190526020810180516001600160e01b031663104c13eb60e21b179052611bff565b611b298282604051602401611afa9291906121ba565b60408051601f198184030181529190526020810180516001600160e01b03166309710a9d60e41b179052611bff565b5050565b6000611b82826040518060400160405280602081526020017f5361666545524332303a206c6f772d6c6576656c2063616c6c206661696c6564815250856001600160a01b0316611c209092919063ffffffff16565b8051909150156117225780806020019051810190611ba091906121dc565b6117225760405162461bcd60e51b815260206004820152602a60248201527f5361666545524332303a204552433230206f7065726174696f6e20646964206e6044820152691bdd081cdd58d8d9595960b21b6064820152608401610633565b80516a636f6e736f6c652e6c6f67602083016000808483855afa5050505050565b6060611c2f8484600085611c39565b90505b9392505050565b606082471015611c9a5760405162461bcd60e51b815260206004820152602660248201527f416464726573733a20696e73756666696369656e742062616c616e636520666f6044820152651c8818d85b1b60d21b6064820152608401610633565b6001600160a01b0385163b611cf15760405162461bcd60e51b815260206004820152601d60248201527f416464726573733a2063616c6c20746f206e6f6e2d636f6e74726163740000006044820152606401610633565b600080866001600160a01b03168587604051611d0d91906121fe565b60006040518083038185875af1925050503d8060008114611d4a576040519150601f19603f3d011682016040523d82523d6000602084013e611d4f565b606091505b5091509150611d5f828286611d6a565b979650505050505050565b60608315611d79575081611c32565b825115611d895782518084602001fd5b8160405162461bcd60e51b815260040161063391906121a7565b828054828255906000526020600020908101928215611dde579160200282015b82811115611dde578251825591602001919060010190611dc3565b5061182b9291505b8082111561182b5760008155600101611de6565b6001600160a01b038116811461135a57600080fd5b60008060408385031215611e2257600080fd5b8235611e2d81611dfa565b946020939093013593505050565b600060208284031215611e4d57600080fd5b813560ff81168114611c3257600080fd5b600060208284031215611e7057600080fd5b5035919050565b600060208284031215611e8957600080fd5b8135611c3281611dfa565b60008060408385031215611ea757600080fd5b50508035926020909101359150565b6020808252825182820181905260009190848201906040850190845b81811015611ef75783516001600160a01b031683529284019291840191600101611ed2565b50909695505050505050565b803561ffff81168114611f1557600080fd5b919050565b600080600060608486031215611f2f57600080fd5b611f3884611f03565b925060208401359150604084013560028110611f5357600080fd5b809150509250925092565b6000610780808385031215611f7257600080fd5b83601f840112611f8157600080fd5b60405181810181811067ffffffffffffffff82111715611fb157634e487b7160e01b600052604160045260246000fd5b604052908301908085831115611fc657600080fd5b845b83811015611fe0578035825260209182019101611fc8565b509095945050505050565b600060208284031215611ffd57600080fd5b611c3282611f03565b634e487b7160e01b600052603260045260246000fd5b634e487b7160e01b600052601160045260246000fd5b6000828210156120445761204461201c565b500390565b60008261206657634e487b7160e01b600052601260045260246000fd5b500490565b60008160001904831182151516156120855761208561201c565b500290565b6000821982111561209d5761209d61201c565b500190565b600062ffffff808316818516818304811182151516156120c4576120c461201c565b02949350505050565b6000602082840312156120df57600080fd5b5051919050565b61ffff851681526020810184905260408101839052608081016002831061211d57634e487b7160e01b600052602160045260246000fd5b82606083015295945050505050565b600060ff821660ff81036121425761214261201c565b60010192915050565b60005b8381101561216657818101518382015260200161214e565b83811115612175576000848401525b50505050565b6000815180845261219381602086016020860161214b565b601f01601f19169290920160200192915050565b602081526000611c32602083018461217b565b6040815260006121cd604083018561217b565b90508260208301529392505050565b6000602082840312156121ee57600080fd5b81518015158114611c3257600080fd5b6000825161221081846020870161214b565b919091019291505056fe47cee97cb7acd717b3c0aa1435d004cd5b3c8c57d70dbceb4e4458bbd60e39d4a2646970667358221220997133b43cbf4a8b01ee908f8791511f0131a033fd66d5a1fdc147d20222aea964736f6c634300080f0033",
  "linkReferences": {},
  "deployedLinkReferences": {}
}