{
  "_format": "hh-sol-artifact-1",
  "contractName": "MaxxStake",
  "sourceName": "contracts/MaxxStake.sol",
  "abi": [
    {
      "inputs": [
        {
          "internalType": "address",
          "name": "_maxxVault",
          "type": "address"
        },
        {
          "internalType": "address",
          "name": "_maxx",
          "type": "address"
        },
        {
          "internalType": "uint256",
          "name": "_launchDate",
          "type": "uint256"
        }
      ],
      "stateMutability": "nonpayable",
      "type": "constructor"
    },
    {
      "inputs": [],
      "name": "AlreadyMaxDuration",
      "type": "error"
    },
    {
      "inputs": [],
      "name": "FreeClaimsAlreadyMigrated",
      "type": "error"
    },
    {
      "inputs": [],
      "name": "IncorrectOwner",
      "type": "error"
    },
    {
      "inputs": [],
      "name": "InsufficientMaxx",
      "type": "error"
    },
    {
      "inputs": [
        {
          "internalType": "address",
          "name": "_nft",
          "type": "address"
        }
      ],
      "name": "InterfaceNotSupported",
      "type": "error"
    },
    {
      "inputs": [],
      "name": "InvalidAmount",
      "type": "error"
    },
    {
      "inputs": [],
      "name": "LaunchDatePassed",
      "type": "error"
    },
    {
      "inputs": [],
      "name": "NftNotAccepted",
      "type": "error"
    },
    {
      "inputs": [],
      "name": "NotAuthorized",
      "type": "error"
    },
    {
      "inputs": [],
      "name": "StakeAlreadyWithdrawn",
      "type": "error"
    },
    {
      "inputs": [],
      "name": "StakeNotComplete",
      "type": "error"
    },
    {
      "inputs": [],
      "name": "StakeTooLong",
      "type": "error"
    },
    {
      "inputs": [],
      "name": "StakeTooShort",
      "type": "error"
    },
    {
      "inputs": [],
      "name": "TransferFailed",
      "type": "error"
    },
    {
      "inputs": [],
      "name": "UsedNFT",
      "type": "error"
    },
    {
      "inputs": [],
      "name": "ZeroAddress",
      "type": "error"
    },
    {
      "anonymous": false,
      "inputs": [
        {
          "indexed": false,
          "internalType": "address",
          "name": "nft",
          "type": "address"
        }
      ],
      "name": "AcceptedNftAdded",
      "type": "event"
    },
    {
      "anonymous": false,
      "inputs": [
        {
          "indexed": false,
          "internalType": "address",
          "name": "nft",
          "type": "address"
        }
      ],
      "name": "AcceptedNftRemoved",
      "type": "event"
    },
    {
      "anonymous": false,
      "inputs": [
        {
          "indexed": true,
          "internalType": "address",
          "name": "owner",
          "type": "address"
        },
        {
          "indexed": true,
          "internalType": "address",
          "name": "approved",
          "type": "address"
        },
        {
          "indexed": true,
          "internalType": "uint256",
          "name": "tokenId",
          "type": "uint256"
        }
      ],
      "name": "Approval",
      "type": "event"
    },
    {
      "anonymous": false,
      "inputs": [
        {
          "indexed": true,
          "internalType": "address",
          "name": "owner",
          "type": "address"
        },
        {
          "indexed": true,
          "internalType": "address",
          "name": "operator",
          "type": "address"
        },
        {
          "indexed": false,
          "internalType": "bool",
          "name": "approved",
          "type": "bool"
        }
      ],
      "name": "ApprovalForAll",
      "type": "event"
    },
    {
      "anonymous": false,
      "inputs": [
        {
          "indexed": false,
          "internalType": "string",
          "name": "baseUri",
          "type": "string"
        }
      ],
      "name": "BaseURISet",
      "type": "event"
    },
    {
      "anonymous": false,
      "inputs": [
        {
          "indexed": false,
          "internalType": "address",
          "name": "freeClaim",
          "type": "address"
        }
      ],
      "name": "FreeClaimSet",
      "type": "event"
    },
    {
      "anonymous": false,
      "inputs": [
        {
          "indexed": false,
          "internalType": "uint256",
          "name": "newLaunchDate",
          "type": "uint256"
        }
      ],
      "name": "LaunchDateUpdated",
      "type": "event"
    },
    {
      "anonymous": false,
      "inputs": [
        {
          "indexed": false,
          "internalType": "address",
          "name": "liquidityAmplifier",
          "type": "address"
        }
      ],
      "name": "LiquidityAmplifierSet",
      "type": "event"
    },
    {
      "anonymous": false,
      "inputs": [
        {
          "indexed": false,
          "internalType": "address",
          "name": "nft",
          "type": "address"
        },
        {
          "indexed": false,
          "internalType": "uint256",
          "name": "bonus",
          "type": "uint256"
        }
      ],
      "name": "NftBonusSet",
      "type": "event"
    },
    {
      "anonymous": false,
      "inputs": [
        {
          "indexed": true,
          "internalType": "address",
          "name": "previousOwner",
          "type": "address"
        },
        {
          "indexed": true,
          "internalType": "address",
          "name": "newOwner",
          "type": "address"
        }
      ],
      "name": "OwnershipTransferred",
      "type": "event"
    },
    {
      "anonymous": false,
      "inputs": [
        {
          "indexed": false,
          "internalType": "address",
          "name": "account",
          "type": "address"
        }
      ],
      "name": "Paused",
      "type": "event"
    },
    {
      "anonymous": false,
      "inputs": [
        {
          "indexed": true,
          "internalType": "uint256",
          "name": "stakeId",
          "type": "uint256"
        },
        {
          "indexed": true,
          "internalType": "address",
          "name": "user",
          "type": "address"
        },
        {
          "indexed": false,
          "internalType": "uint256",
          "name": "numDays",
          "type": "uint256"
        },
        {
          "indexed": false,
          "internalType": "uint256",
          "name": "amount",
          "type": "uint256"
        }
      ],
      "name": "Stake",
      "type": "event"
    },
    {
      "anonymous": false,
      "inputs": [
        {
          "indexed": false,
          "internalType": "uint256",
          "name": "stakeId",
          "type": "uint256"
        },
        {
          "indexed": false,
          "internalType": "string",
          "name": "name",
          "type": "string"
        }
      ],
      "name": "StakeNameChange",
      "type": "event"
    },
    {
      "anonymous": false,
      "inputs": [
        {
          "indexed": true,
          "internalType": "address",
          "name": "from",
          "type": "address"
        },
        {
          "indexed": true,
          "internalType": "address",
          "name": "to",
          "type": "address"
        },
        {
          "indexed": true,
          "internalType": "uint256",
          "name": "tokenId",
          "type": "uint256"
        }
      ],
      "name": "Transfer",
      "type": "event"
    },
    {
      "anonymous": false,
      "inputs": [
        {
          "indexed": false,
          "internalType": "address",
          "name": "account",
          "type": "address"
        }
      ],
      "name": "Unpaused",
      "type": "event"
    },
    {
      "anonymous": false,
      "inputs": [
        {
          "indexed": true,
          "internalType": "uint256",
          "name": "stakeId",
          "type": "uint256"
        },
        {
          "indexed": true,
          "internalType": "address",
          "name": "user",
          "type": "address"
        },
        {
          "indexed": false,
          "internalType": "uint256",
          "name": "amount",
          "type": "uint256"
        }
      ],
      "name": "Unstake",
      "type": "event"
    },
    {
      "inputs": [],
      "name": "BASE_INFLATION",
      "outputs": [
        {
          "internalType": "uint256",
          "name": "",
          "type": "uint256"
        }
      ],
      "stateMutability": "view",
      "type": "function"
    },
    {
      "inputs": [],
      "name": "BASE_INFLATION_FACTOR",
      "outputs": [
        {
          "internalType": "uint256",
          "name": "",
          "type": "uint256"
        }
      ],
      "stateMutability": "view",
      "type": "function"
    },
    {
      "inputs": [],
      "name": "BPB_FACTOR",
      "outputs": [
        {
          "internalType": "uint256",
          "name": "",
          "type": "uint256"
        }
      ],
      "stateMutability": "view",
      "type": "function"
    },
    {
      "inputs": [],
      "name": "DAYS_IN_YEAR",
      "outputs": [
        {
          "internalType": "uint256",
          "name": "",
          "type": "uint256"
        }
      ],
      "stateMutability": "view",
      "type": "function"
    },
    {
      "inputs": [],
      "name": "LATE_DAYS",
      "outputs": [
        {
          "internalType": "uint256",
          "name": "",
          "type": "uint256"
        }
      ],
      "stateMutability": "view",
      "type": "function"
    },
    {
      "inputs": [],
      "name": "MAGIC_NUMBER",
      "outputs": [
        {
          "internalType": "uint256",
          "name": "",
          "type": "uint256"
        }
      ],
      "stateMutability": "view",
      "type": "function"
    },
    {
      "inputs": [],
      "name": "MAX_STAKE_DAYS",
      "outputs": [
        {
          "internalType": "uint256",
          "name": "",
          "type": "uint256"
        }
      ],
      "stateMutability": "view",
      "type": "function"
    },
    {
      "inputs": [],
      "name": "MIN_STAKE_DAYS",
      "outputs": [
        {
          "internalType": "uint256",
          "name": "",
          "type": "uint256"
        }
      ],
      "stateMutability": "view",
      "type": "function"
    },
    {
      "inputs": [],
      "name": "PERCENT_FACTOR",
      "outputs": [
        {
          "internalType": "uint256",
          "name": "",
          "type": "uint256"
        }
      ],
      "stateMutability": "view",
      "type": "function"
    },
    {
      "inputs": [
        {
          "internalType": "address",
          "name": "_nft",
          "type": "address"
        }
      ],
      "name": "addAcceptedNft",
      "outputs": [],
      "stateMutability": "nonpayable",
      "type": "function"
    },
    {
      "inputs": [
        {
          "internalType": "address",
          "name": "_owner",
          "type": "address"
        },
        {
          "internalType": "uint256",
          "name": "_numDays",
          "type": "uint256"
        },
        {
          "internalType": "uint256",
          "name": "_amount",
          "type": "uint256"
        }
      ],
      "name": "amplifierStake",
      "outputs": [
        {
          "internalType": "uint256",
          "name": "stakeId",
          "type": "uint256"
        },
        {
          "internalType": "uint256",
          "name": "shares",
          "type": "uint256"
        }
      ],
      "stateMutability": "nonpayable",
      "type": "function"
    },
    {
      "inputs": [
        {
          "internalType": "address",
          "name": "to",
          "type": "address"
        },
        {
          "internalType": "uint256",
          "name": "tokenId",
          "type": "uint256"
        }
      ],
      "name": "approve",
      "outputs": [],
      "stateMutability": "nonpayable",
      "type": "function"
    },
    {
      "inputs": [
        {
          "internalType": "address",
          "name": "owner",
          "type": "address"
        }
      ],
      "name": "balanceOf",
      "outputs": [
        {
          "internalType": "uint256",
          "name": "",
          "type": "uint256"
        }
      ],
      "stateMutability": "view",
      "type": "function"
    },
    {
      "inputs": [
        {
          "internalType": "uint256[]",
          "name": "stakeIds",
          "type": "uint256[]"
        }
      ],
      "name": "burnDeadStakes",
      "outputs": [],
      "stateMutability": "nonpayable",
      "type": "function"
    },
    {
      "inputs": [
        {
          "internalType": "uint256",
          "name": "_launchDate",
          "type": "uint256"
        }
      ],
      "name": "changeLaunchDate",
      "outputs": [],
      "stateMutability": "nonpayable",
      "type": "function"
    },
    {
      "inputs": [
        {
          "internalType": "uint256",
          "name": "_stakeId",
          "type": "uint256"
        },
        {
          "internalType": "string",
          "name": "_stakeName",
          "type": "string"
        }
      ],
      "name": "changeStakeName",
      "outputs": [],
      "stateMutability": "nonpayable",
      "type": "function"
    },
    {
      "inputs": [
        {
          "internalType": "uint256",
          "name": "",
          "type": "uint256"
        }
      ],
      "name": "endTimes",
      "outputs": [
        {
          "internalType": "uint256",
          "name": "",
          "type": "uint256"
        }
      ],
      "stateMutability": "view",
      "type": "function"
    },
    {
      "inputs": [],
      "name": "freeClaim",
      "outputs": [
        {
          "internalType": "address",
          "name": "",
          "type": "address"
        }
      ],
      "stateMutability": "view",
      "type": "function"
    },
    {
      "inputs": [
        {
          "internalType": "address",
          "name": "_owner",
          "type": "address"
        },
        {
          "internalType": "uint256",
          "name": "_numDays",
          "type": "uint256"
        },
        {
          "internalType": "uint256",
          "name": "_amount",
          "type": "uint256"
        }
      ],
      "name": "freeClaimStake",
      "outputs": [
        {
          "internalType": "uint256",
          "name": "stakeId",
          "type": "uint256"
        },
        {
          "internalType": "uint256",
          "name": "shares",
          "type": "uint256"
        }
      ],
      "stateMutability": "nonpayable",
      "type": "function"
    },
    {
      "inputs": [],
      "name": "getAllStakes",
      "outputs": [
        {
          "components": [
            {
              "internalType": "string",
              "name": "name",
              "type": "string"
            },
            {
              "internalType": "address",
              "name": "owner",
              "type": "address"
            },
            {
              "internalType": "uint256",
              "name": "amount",
              "type": "uint256"
            },
            {
              "internalType": "uint256",
              "name": "shares",
              "type": "uint256"
            },
            {
              "internalType": "uint256",
              "name": "duration",
              "type": "uint256"
            },
            {
              "internalType": "uint256",
              "name": "startDate",
              "type": "uint256"
            },
            {
              "internalType": "bool",
              "name": "withdrawn",
              "type": "bool"
            }
          ],
          "internalType": "struct IStake.StakeData[]",
          "name": "",
          "type": "tuple[]"
        }
      ],
      "stateMutability": "view",
      "type": "function"
    },
    {
      "inputs": [
        {
          "internalType": "uint256",
          "name": "tokenId",
          "type": "uint256"
        }
      ],
      "name": "getApproved",
      "outputs": [
        {
          "internalType": "address",
          "name": "",
          "type": "address"
        }
      ],
      "stateMutability": "view",
      "type": "function"
    },
    {
      "inputs": [],
      "name": "getDaysSinceLaunch",
      "outputs": [
        {
          "internalType": "uint256",
          "name": "day",
          "type": "uint256"
        }
      ],
      "stateMutability": "view",
      "type": "function"
    },
    {
      "inputs": [],
      "name": "getShareFactor",
      "outputs": [
        {
          "internalType": "uint256",
          "name": "shareFactor",
          "type": "uint256"
        }
      ],
      "stateMutability": "view",
      "type": "function"
    },
    {
      "inputs": [
        {
          "internalType": "uint256",
          "name": "index",
          "type": "uint256"
        },
        {
          "internalType": "uint256",
          "name": "count",
          "type": "uint256"
        }
      ],
      "name": "getStakes",
      "outputs": [
        {
          "components": [
            {
              "internalType": "string",
              "name": "name",
              "type": "string"
            },
            {
              "internalType": "address",
              "name": "owner",
              "type": "address"
            },
            {
              "internalType": "uint256",
              "name": "amount",
              "type": "uint256"
            },
            {
              "internalType": "uint256",
              "name": "shares",
              "type": "uint256"
            },
            {
              "internalType": "uint256",
              "name": "duration",
              "type": "uint256"
            },
            {
              "internalType": "uint256",
              "name": "startDate",
              "type": "uint256"
            },
            {
              "internalType": "bool",
              "name": "withdrawn",
              "type": "bool"
            }
          ],
          "internalType": "struct IStake.StakeData[]",
          "name": "result",
          "type": "tuple[]"
        }
      ],
      "stateMutability": "view",
      "type": "function"
    },
    {
      "inputs": [],
      "name": "idCounter",
      "outputs": [
        {
          "internalType": "uint256",
          "name": "_value",
          "type": "uint256"
        }
      ],
      "stateMutability": "view",
      "type": "function"
    },
    {
      "inputs": [
        {
          "internalType": "address",
          "name": "",
          "type": "address"
        }
      ],
      "name": "isAcceptedNft",
      "outputs": [
        {
          "internalType": "bool",
          "name": "",
          "type": "bool"
        }
      ],
      "stateMutability": "view",
      "type": "function"
    },
    {
      "inputs": [
        {
          "internalType": "address",
          "name": "owner",
          "type": "address"
        },
        {
          "internalType": "address",
          "name": "operator",
          "type": "address"
        }
      ],
      "name": "isApprovedForAll",
      "outputs": [
        {
          "internalType": "bool",
          "name": "",
          "type": "bool"
        }
      ],
      "stateMutability": "view",
      "type": "function"
    },
    {
      "inputs": [],
      "name": "launchDate",
      "outputs": [
        {
          "internalType": "uint256",
          "name": "",
          "type": "uint256"
        }
      ],
      "stateMutability": "view",
      "type": "function"
    },
    {
      "inputs": [],
      "name": "liquidityAmplifier",
      "outputs": [
        {
          "internalType": "address",
          "name": "",
          "type": "address"
        }
      ],
      "stateMutability": "view",
      "type": "function"
    },
    {
      "inputs": [],
      "name": "maxx",
      "outputs": [
        {
          "internalType": "contract IMaxxFinance",
          "name": "",
          "type": "address"
        }
      ],
      "stateMutability": "view",
      "type": "function"
    },
    {
      "inputs": [],
      "name": "maxxVault",
      "outputs": [
        {
          "internalType": "address",
          "name": "",
          "type": "address"
        }
      ],
      "stateMutability": "view",
      "type": "function"
    },
    {
      "inputs": [
        {
          "internalType": "uint256",
          "name": "amount",
          "type": "uint256"
        }
      ],
      "name": "migrateUnstakedFreeClaims",
      "outputs": [],
      "stateMutability": "nonpayable",
      "type": "function"
    },
    {
      "inputs": [],
      "name": "name",
      "outputs": [
        {
          "internalType": "string",
          "name": "",
          "type": "string"
        }
      ],
      "stateMutability": "view",
      "type": "function"
    },
    {
      "inputs": [
        {
          "internalType": "address",
          "name": "",
          "type": "address"
        }
      ],
      "name": "nftBonus",
      "outputs": [
        {
          "internalType": "uint256",
          "name": "",
          "type": "uint256"
        }
      ],
      "stateMutability": "view",
      "type": "function"
    },
    {
      "inputs": [],
      "name": "owner",
      "outputs": [
        {
          "internalType": "address",
          "name": "",
          "type": "address"
        }
      ],
      "stateMutability": "view",
      "type": "function"
    },
    {
      "inputs": [
        {
          "internalType": "uint256",
          "name": "tokenId",
          "type": "uint256"
        }
      ],
      "name": "ownerOf",
      "outputs": [
        {
          "internalType": "address",
          "name": "",
          "type": "address"
        }
      ],
      "stateMutability": "view",
      "type": "function"
    },
    {
      "inputs": [],
      "name": "paused",
      "outputs": [
        {
          "internalType": "bool",
          "name": "",
          "type": "bool"
        }
      ],
      "stateMutability": "view",
      "type": "function"
    },
    {
      "inputs": [
        {
          "internalType": "address",
          "name": "_nft",
          "type": "address"
        }
      ],
      "name": "removeAcceptedNft",
      "outputs": [],
      "stateMutability": "nonpayable",
      "type": "function"
    },
    {
      "inputs": [],
      "name": "renounceOwnership",
      "outputs": [],
      "stateMutability": "nonpayable",
      "type": "function"
    },
    {
      "inputs": [
        {
          "internalType": "address",
          "name": "from",
          "type": "address"
        },
        {
          "internalType": "address",
          "name": "to",
          "type": "address"
        },
        {
          "internalType": "uint256",
          "name": "tokenId",
          "type": "uint256"
        }
      ],
      "name": "safeTransferFrom",
      "outputs": [],
      "stateMutability": "nonpayable",
      "type": "function"
    },
    {
      "inputs": [
        {
          "internalType": "address",
          "name": "from",
          "type": "address"
        },
        {
          "internalType": "address",
          "name": "to",
          "type": "address"
        },
        {
          "internalType": "uint256",
          "name": "tokenId",
          "type": "uint256"
        },
        {
          "internalType": "bytes",
          "name": "data",
          "type": "bytes"
        }
      ],
      "name": "safeTransferFrom",
      "outputs": [],
      "stateMutability": "nonpayable",
      "type": "function"
    },
    {
      "inputs": [
        {
          "internalType": "address",
          "name": "operator",
          "type": "address"
        },
        {
          "internalType": "bool",
          "name": "approved",
          "type": "bool"
        }
      ],
      "name": "setApprovalForAll",
      "outputs": [],
      "stateMutability": "nonpayable",
      "type": "function"
    },
    {
      "inputs": [
        {
          "internalType": "string",
          "name": "baseURI_",
          "type": "string"
        }
      ],
      "name": "setBaseURI",
      "outputs": [],
      "stateMutability": "nonpayable",
      "type": "function"
    },
    {
      "inputs": [
        {
          "internalType": "address",
          "name": "_freeClaim",
          "type": "address"
        }
      ],
      "name": "setFreeClaim",
      "outputs": [],
      "stateMutability": "nonpayable",
      "type": "function"
    },
    {
      "inputs": [
        {
          "internalType": "address",
          "name": "_liquidityAmplifier",
          "type": "address"
        }
      ],
      "name": "setLiquidityAmplifier",
      "outputs": [],
      "stateMutability": "nonpayable",
      "type": "function"
    },
    {
      "inputs": [
        {
          "internalType": "address",
          "name": "_nft",
          "type": "address"
        },
        {
          "internalType": "uint256",
          "name": "_bonus",
          "type": "uint256"
        }
      ],
      "name": "setNftBonus",
      "outputs": [],
      "stateMutability": "nonpayable",
      "type": "function"
    },
    {
      "inputs": [
        {
          "internalType": "uint256",
          "name": "_numDays",
          "type": "uint256"
        },
        {
          "internalType": "uint256",
          "name": "_amount",
          "type": "uint256"
        },
        {
          "internalType": "uint256",
          "name": "_tokenId",
          "type": "uint256"
        },
        {
          "internalType": "address",
          "name": "_maxxNFT",
          "type": "address"
        }
      ],
      "name": "stake",
      "outputs": [],
      "stateMutability": "nonpayable",
      "type": "function"
    },
    {
      "inputs": [
        {
          "internalType": "uint256",
          "name": "_numDays",
          "type": "uint256"
        },
        {
          "internalType": "uint256",
          "name": "_amount",
          "type": "uint256"
        }
      ],
      "name": "stake",
      "outputs": [],
      "stateMutability": "nonpayable",
      "type": "function"
    },
    {
      "inputs": [
        {
          "internalType": "uint256",
          "name": "",
          "type": "uint256"
        }
      ],
      "name": "stakes",
      "outputs": [
        {
          "internalType": "string",
          "name": "name",
          "type": "string"
        },
        {
          "internalType": "address",
          "name": "owner",
          "type": "address"
        },
        {
          "internalType": "uint256",
          "name": "amount",
          "type": "uint256"
        },
        {
          "internalType": "uint256",
          "name": "shares",
          "type": "uint256"
        },
        {
          "internalType": "uint256",
          "name": "duration",
          "type": "uint256"
        },
        {
          "internalType": "uint256",
          "name": "startDate",
          "type": "uint256"
        },
        {
          "internalType": "bool",
          "name": "withdrawn",
          "type": "bool"
        }
      ],
      "stateMutability": "view",
      "type": "function"
    },
    {
      "inputs": [
        {
          "internalType": "bytes4",
          "name": "interfaceId",
          "type": "bytes4"
        }
      ],
      "name": "supportsInterface",
      "outputs": [
        {
          "internalType": "bool",
          "name": "",
          "type": "bool"
        }
      ],
      "stateMutability": "view",
      "type": "function"
    },
    {
      "inputs": [],
      "name": "symbol",
      "outputs": [
        {
          "internalType": "string",
          "name": "",
          "type": "string"
        }
      ],
      "stateMutability": "view",
      "type": "function"
    },
    {
      "inputs": [
        {
          "internalType": "uint256",
          "name": "index",
          "type": "uint256"
        }
      ],
      "name": "tokenByIndex",
      "outputs": [
        {
          "internalType": "uint256",
          "name": "",
          "type": "uint256"
        }
      ],
      "stateMutability": "view",
      "type": "function"
    },
    {
      "inputs": [
        {
          "internalType": "address",
          "name": "owner",
          "type": "address"
        },
        {
          "internalType": "uint256",
          "name": "index",
          "type": "uint256"
        }
      ],
      "name": "tokenOfOwnerByIndex",
      "outputs": [
        {
          "internalType": "uint256",
          "name": "",
          "type": "uint256"
        }
      ],
      "stateMutability": "view",
      "type": "function"
    },
    {
      "inputs": [
        {
          "internalType": "uint256",
          "name": "stakeId",
          "type": "uint256"
        }
      ],
      "name": "tokenURI",
      "outputs": [
        {
          "internalType": "string",
          "name": "",
          "type": "string"
        }
      ],
      "stateMutability": "view",
      "type": "function"
    },
    {
      "inputs": [],
      "name": "totalShares",
      "outputs": [
        {
          "internalType": "uint256",
          "name": "",
          "type": "uint256"
        }
      ],
      "stateMutability": "view",
      "type": "function"
    },
    {
      "inputs": [],
      "name": "totalStakesActive",
      "outputs": [
        {
          "internalType": "uint256",
          "name": "_value",
          "type": "uint256"
        }
      ],
      "stateMutability": "view",
      "type": "function"
    },
    {
      "inputs": [],
      "name": "totalStakesAlltime",
      "outputs": [
        {
          "internalType": "uint256",
          "name": "_value",
          "type": "uint256"
        }
      ],
      "stateMutability": "view",
      "type": "function"
    },
    {
      "inputs": [],
      "name": "totalStakesWithdrawn",
      "outputs": [
        {
          "internalType": "uint256",
          "name": "_value",
          "type": "uint256"
        }
      ],
      "stateMutability": "view",
      "type": "function"
    },
    {
      "inputs": [],
      "name": "totalSupply",
      "outputs": [
        {
          "internalType": "uint256",
          "name": "",
          "type": "uint256"
        }
      ],
      "stateMutability": "view",
      "type": "function"
    },
    {
      "inputs": [
        {
          "internalType": "address",
          "name": "_to",
          "type": "address"
        },
        {
          "internalType": "uint256",
          "name": "_stakeId",
          "type": "uint256"
        }
      ],
      "name": "transfer",
      "outputs": [],
      "stateMutability": "nonpayable",
      "type": "function"
    },
    {
      "inputs": [
        {
          "internalType": "address",
          "name": "from",
          "type": "address"
        },
        {
          "internalType": "address",
          "name": "to",
          "type": "address"
        },
        {
          "internalType": "uint256",
          "name": "tokenId",
          "type": "uint256"
        }
      ],
      "name": "transferFrom",
      "outputs": [],
      "stateMutability": "nonpayable",
      "type": "function"
    },
    {
      "inputs": [
        {
          "internalType": "address",
          "name": "newOwner",
          "type": "address"
        }
      ],
      "name": "transferOwnership",
      "outputs": [],
      "stateMutability": "nonpayable",
      "type": "function"
    },
    {
      "inputs": [
        {
          "internalType": "uint256",
          "name": "_stakeId",
          "type": "uint256"
        }
      ],
      "name": "unstake",
      "outputs": [],
      "stateMutability": "nonpayable",
      "type": "function"
    }
  ],
  "bytecode": "0x60806040523480156200001157600080fd5b506040516200453838038062004538833981016040819052620000349162000284565b604051806040016040528060098152602001684d6178785374616b6560b81b815250604051806040016040528060058152602001640a69a82b0b60db1b81525081600090816200008591906200036a565b5060016200009482826200036a565b505050620000b1620000ab6200020860201b60201c565b6200020c565b600a805460ff60a01b191690556001600b55601080546001600160a01b03199081166001600160a01b038681169190911790925560138054909116918416919091179055600f8190556200011260156200025e602090811b620024b017901c565b6040805161010081018252600060e08201818152825260208201819052918101829052606081018290526080810182905260a0810182905260c08101829052601980546001810182559252805190916007027f944998273e477b495144fb8794c914197f3ccb46be2900f4698fd0ef743c9695019081906200019590826200036a565b5060208201516001820180546001600160a01b0319166001600160a01b0390921691909117905560408201516002820155606082015160038201556080820151600482015560a0820151600582015560c0909101516006909101805460ff19169115159190911790555062000436915050565b3390565b600a80546001600160a01b038381166001600160a01b0319831681179093556040519116919082907f8be0079c531659141344cd1fd0a4f28419497f9722a3daafe3b4186f6b6457e090600090a35050565b80546001019055565b80516001600160a01b03811681146200027f57600080fd5b919050565b6000806000606084860312156200029a57600080fd5b620002a58462000267565b9250620002b56020850162000267565b9150604084015190509250925092565b634e487b7160e01b600052604160045260246000fd5b600181811c90821680620002f057607f821691505b6020821081036200031157634e487b7160e01b600052602260045260246000fd5b50919050565b601f8211156200036557600081815260208120601f850160051c81016020861015620003405750805b601f850160051c820191505b8181101562000361578281556001016200034c565b5050505b505050565b81516001600160401b03811115620003865762000386620002c5565b6200039e81620003978454620002db565b8462000317565b602080601f831160018114620003d65760008415620003bd5750858301515b600019600386901b1c1916600185901b17855562000361565b600085815260208120601f198616915b828110156200040757888601518255948401946001909101908401620003e6565b5085821015620004265787850151600019600388901b60f8161c191681555b5050505050600190811b01905550565b6140f280620004466000396000f3fe608060405234801561001057600080fd5b50600436106103c55760003560e01c806362f7e51d116101ff578063a9059cbb1161011a578063d6d20fa2116100ad578063eb08ab281161007c578063eb08ab2814610810578063f2fde38b1461081a578063f8eeed621461082d578063fd1c24ed1461083657600080fd5b8063d6d20fa2146107c5578063dee18dbf146107d8578063e88d3b3e146107ea578063e985e9c5146107fd57600080fd5b8063b9cc9dd1116100e9578063b9cc9dd114610770578063c741eae914610783578063c87b56dd1461078c578063d5a44f861461079f57600080fd5b8063a9059cbb14610724578063b223420514610737578063b6263efb1461074a578063b88d4fde1461075d57600080fd5b80638c3c51d81161019257806395d89b411161016157806395d89b41146106ee5780639812dce2146106f6578063a22cb465146106fe578063a29541751461071157600080fd5b80638c3c51d8146106a05780638da5cb5b146106b3578063932b37e0146106c4578063933abacd146106e457600080fd5b806370a08231116101ce57806370a082311461065f578063715018a6146106725780637b0472f01461067a578063871793de1461068d57600080fd5b806362f7e51d14610617578063631537d11461063a5780636352211e146106445780636e8cc7f11461065757600080fd5b80632e17de78116102ef5780633c64dab3116102825780634f6ccce7116102515780634f6ccce7146105d557806354d37db2146105e857806355f804b3146105f25780635c975abb1461060557600080fd5b80633c64dab31461057c5780633d3875e91461058f57806342842e0e146105af5780634506a393146105c257600080fd5b80633992fba5116102be5780633992fba5146105495780633a98ef39146105525780633c3d5adb1461055b5780633c611e051461056757600080fd5b80632e17de78146104fd5780632f1efc9b146105105780632f745c591461052357806330815e561461053657600080fd5b80631658516f116103675780632051043e116103365780632051043e146104b15780632363da20146104b957806323b872dd146104e157806326986d3f146104f457600080fd5b80631658516f1461047957806318160ddd1461048c57806319597bbc146104945780631e3219fc1461049e57600080fd5b8063081812fc116103a3578063081812fc1461041e578063095ea7b3146104495780630e7d97d21461045e57806311ad34e01461046657600080fd5b806301ffc9a7146103ca57806302378932146103f257806306fdde0314610409575b600080fd5b6103dd6103d83660046136e9565b610849565b60405190151581526020015b60405180910390f35b6103fb61016d81565b6040519081526020016103e9565b61041161085a565b6040516103e99190613756565b61043161042c366004613769565b6108ec565b6040516001600160a01b0390911681526020016103e9565b61045c610457366004613797565b610913565b005b6103fb610a2d565b61045c6104743660046137c3565b610a83565b61045c610487366004613838565b610efb565b6008546103fb565b6017546103fb9081565b61045c6104ac366004613769565b610f58565b6103fb610fc4565b6104cc6104c7366004613855565b610fe7565b604080519283526020830191909152016103e9565b61045c6104ef36600461388a565b611039565b6103fb610d0581565b61045c61050b366004613769565b61106a565b61045c61051e366004613797565b611694565b6103fb610531366004613797565b6116f4565b61045c6105443660046138cb565b61178a565b6103fb61045781565b6103fb60145481565b6103fb6402540be40081565b61056f6119c8565b6040516103e9919061390c565b601354610431906001600160a01b031681565b6103fb61059d366004613838565b600d6020526000908152604090205481565b61045c6105bd36600461388a565b611b09565b61045c6105d0366004613838565b611b24565b6103fb6105e3366004613769565b611b7a565b6103fb620186a081565b61045c610600366004613a7f565b611c0d565b600a54600160a01b900460ff166103dd565b6103dd610625366004613838565b600c6020526000908152604090205460ff1681565b6018546103fb9081565b610431610652366004613769565b611c51565b6103fb600e81565b6103fb61066d366004613838565b611cb1565b61045c611d37565b61045c610688366004613ab4565b611d4b565b61045c61069b366004613838565b611d90565b61056f6106ae366004613ab4565b611de9565b600a546001600160a01b0316610431565b6103fb6106d2366004613769565b600e6020526000908152604090205481565b6016546103fb9081565b610411611f4e565b6103fb600781565b61045c61070c366004613ae4565b611f5d565b61045c61071f366004613769565b611f6c565b61045c610732366004613797565b6120c6565b601254610431906001600160a01b031681565b6104cc610758366004613855565b612107565b61045c61076b366004613b1d565b61216f565b61045c61077e366004613838565b6121a1565b6103fb61470981565b61041161079a366004613769565b6121fd565b6107b26107ad366004613769565b612264565b6040516103e99796959493929190613b9d565b61045c6107d3366004613bec565b61234e565b6103fb6a01a784379d99db4200000081565b601154610431906001600160a01b031681565b6103dd61080b366004613c33565b612409565b6015546103fb9081565b61045c610828366004613838565b612437565b6103fb600f5481565b601054610431906001600160a01b031681565b6000610854826124b9565b92915050565b60606000805461086990613c61565b80601f016020809104026020016040519081016040528092919081815260200182805461089590613c61565b80156108e25780601f106108b7576101008083540402835291602001916108e2565b820191906000526020600020905b8154815290600101906020018083116108c557829003601f168201915b5050505050905090565b60006108f7826124de565b506000908152600460205260409020546001600160a01b031690565b600061091e82611c51565b9050806001600160a01b0316836001600160a01b0316036109905760405162461bcd60e51b815260206004820152602160248201527f4552433732313a20617070726f76616c20746f2063757272656e74206f776e656044820152603960f91b60648201526084015b60405180910390fd5b336001600160a01b03821614806109ac57506109ac8133612409565b610a1e5760405162461bcd60e51b815260206004820152603e60248201527f4552433732313a20617070726f76652063616c6c6572206973206e6f7420746f60448201527f6b656e206f776e6572206e6f7220617070726f76656420666f7220616c6c00006064820152608401610987565b610a28838361253d565b505050565b600080610a38610fc4565b9050610d058110610a4b57600091505090565b610d05633b9aca00610a5b610fc4565b610a659190613cb1565b610a6f9190613cde565b610a7d90633b9aca00613cf2565b91505090565b610a8b6125ab565b6000805b82811015610cdf5760006019858584818110610aad57610aad613d05565b9050602002013581548110610ac457610ac4613d05565b90600052602060002090600702016040518060e0016040529081600082018054610aed90613c61565b80601f0160208091040260200160405190810160405280929190818152602001828054610b1990613c61565b8015610b665780601f10610b3b57610100808354040283529160200191610b66565b820191906000526020600020905b815481529060010190602001808311610b4957829003601f168201915b505050918352505060018201546001600160a01b03166020820152600282015460408201526003820154606082015260048201546080820152600582015460a08083019190915260069092015460ff16151560c0909101528101519091506000906201518090610bd69042613cf2565b610be09190613cde565b90506000610bf78360600151838560800151612605565b90506000818460400151610c0b9190613d1b565b90506000620151808560800151610c229190613cde565b610c2c9085613cf2565b905061016d811115610cc757610c59898988818110610c4d57610c4d613d05565b905060200201356126b7565b610c638288613d1b565b965084602001516001600160a01b0316898988818110610c8557610c85613d05565b905060200201357f15e1b1e6a67db05b5e4e898cc13f87b8485df622bfebf03d1508efa026a2e15c6000604051610cbe91815260200190565b60405180910390a35b50505050508080610cd790613d2e565b915050610a8f565b506013546040516370a0823160e01b81523060048201526000916001600160a01b0316906370a0823190602401602060405180830381865afa158015610d29573d6000803e3d6000fd5b505050506040513d601f19601f82011682018060405250810190610d4d9190613d47565b905080821115610dd2576013546001600160a01b03166340c10f1930610d738486613cf2565b6040516001600160e01b031960e085901b1681526001600160a01b0390921660048301526024820152604401600060405180830381600087803b158015610db957600080fd5b505af1158015610dcd573d6000803e3d6000fd5b505050505b8115610ef5576013546010546001600160a01b039182169163a9059cbb9116610dfc600286613cde565b6040516001600160e01b031960e085901b1681526001600160a01b03909216600483015260248201526044016020604051808303816000875af1158015610e47573d6000803e3d6000fd5b505050506040513d601f19601f82011682018060405250810190610e6b9190613d60565b610e88576040516312171d8360e31b815260040160405180910390fd5b6013546001600160a01b03166342966c68610ea4600285613cde565b6040518263ffffffff1660e01b8152600401610ec291815260200190565b600060405180830381600087803b158015610edc57600080fd5b505af1158015610ef0573d6000803e3d6000fd5b505050505b50505050565b610f036125ab565b601180546001600160a01b0319166001600160a01b0383169081179091556040519081527f7cd85068c6889ed3a9315f01daa39e442f4b20d74adfd2c676f19dcc4e25b449906020015b60405180910390a150565b610f606125ab565b600f5442101580610f715750804210155b15610f8f5760405163fcdcc8fd60e01b815260040160405180910390fd5b600f8190556040518181527f6e23cc4d033baf0ba37878efdabaf083a78deb3277b4ddc2294e20c1bb50227890602001610f4d565b600062015180600f5442610fd89190613cf2565b610fe29190613cde565b905090565b60115460009081906001600160a01b031633146110175760405163ea8e4eb560e01b815260040160405180910390fd5b611021848461275e565b905061102f8585858461283e565b9150935093915050565b6110433382612cdc565b61105f5760405162461bcd60e51b815260040161098790613d7d565b610a28838383612d3a565b60006019828154811061107f5761107f613d05565b90600052602060002090600702016040518060e00160405290816000820180546110a890613c61565b80601f01602080910402602001604051908101604052809291908181526020018280546110d490613c61565b80156111215780601f106110f657610100808354040283529160200191611121565b820191906000526020600020905b81548152906001019060200180831161110457829003601f168201915b505050918352505060018201546001600160a01b03166020820152600282015460408201526003820154606082015260048201546080820152600582015460a082015260069091015460ff16151560c09091015290506111813383612cdc565b61119e5760405163ea8e4eb560e01b815260040160405180910390fd5b8060c00151156111c15760405163190507cd60e21b815260040160405180910390fd5b6001601983815481106111d6576111d6613d05565b60009182526020909120600790910201600601805460ff191691151591909117905560188054600101905561120b6017612ee1565b611214826126b7565b6000806000620151808460a001514261122d9190613cf2565b6112379190613cde565b9050600061124e8560600151838760800151612605565b905060008186604001516112629190613d1b565b90506201518086608001516112779190613cde565b8310156112bd576201518086608001516112919190613cde565b838388604001516112a29190613d1b565b6112ac9190613cb1565b6112b69190613cde565b9450611397565b600e6201518087608001516112d29190613cde565b6112dc9190613d1b565b831115611384576000600e6201518088608001516112fa9190613cde565b6113049086613cf2565b61130e9190613cf2565b9050600061016d611324836402540be400613cb1565b61132e9190613cde565b90506402540be400811115611346576000965061137d565b6402540be4006113568282613cf2565b858a604001516113669190613d1b565b6113709190613cb1565b61137a9190613cde565b96505b5050611397565b8186604001516113949190613d1b565b94505b6113a18582613cf2565b6013546040516370a0823160e01b81523060048201529195506000916001600160a01b03909116906370a0823190602401602060405180830381865afa1580156113ef573d6000803e3d6000fd5b505050506040513d601f19601f820116820180604052508101906114139190613d47565b905080821115611498576013546001600160a01b03166340c10f19306114398486613cf2565b6040516001600160e01b031960e085901b1681526001600160a01b0390921660048301526024820152604401600060405180830381600087803b15801561147f57600080fd5b505af1158015611493573d6000803e3d6000fd5b505050505b85156115305760135460405163a9059cbb60e01b8152336004820152602481018890526001600160a01b039091169063a9059cbb906044016020604051808303816000875af11580156114ef573d6000803e3d6000fd5b505050506040513d601f19601f820116820180604052508101906115139190613d60565b611530576040516312171d8360e31b815260040160405180910390fd5b8415611653576013546010546001600160a01b039182169163a9059cbb911661155a600289613cde565b6040516001600160e01b031960e085901b1681526001600160a01b03909216600483015260248201526044016020604051808303816000875af11580156115a5573d6000803e3d6000fd5b505050506040513d601f19601f820116820180604052508101906115c99190613d60565b6115e6576040516312171d8360e31b815260040160405180910390fd5b6013546001600160a01b03166342966c68611602600288613cde565b6040518263ffffffff1660e01b815260040161162091815260200190565b600060405180830381600087803b15801561163a57600080fd5b505af115801561164e573d6000803e3d6000fd5b505050505b604051868152339089907f15e1b1e6a67db05b5e4e898cc13f87b8485df622bfebf03d1508efa026a2e15c9060200160405180910390a35050505050505050565b61169c6125ab565b6001600160a01b0382166000818152600d6020908152604091829020849055815192835282018390527f7cc50acc58c8287583807ce34cbd5efe1822e7e281c43ac0b370327668b6b738910160405180910390a15050565b60006116ff83611cb1565b82106117615760405162461bcd60e51b815260206004820152602b60248201527f455243373231456e756d657261626c653a206f776e657220696e646578206f7560448201526a74206f6620626f756e647360a81b6064820152608401610987565b506001600160a01b03919091166000908152600660209081526040808320938352929052205490565b690a968163f0a57b4000008310156117b55760405163162908e360e11b815260040160405180910390fd5b6001600160a01b0381166000908152600c602052604090205460ff166117ee5760405163eb9e83e160e01b815260040160405180910390fd5b6040516331a9108f60e11b8152600481018390526001600160a01b03821690636352211e90602401602060405180830381865afa158015611833573d6000803e3d6000fd5b505050506040513d601f19601f820116820180604052508101906118579190613dcb565b6001600160a01b0316336001600160a01b03161461188857604051633a6bbed360e01b815260040160405180910390fd5b60405163754cf80960e01b8152600481018390526001600160a01b0382169063754cf80990602401602060405180830381865afa1580156118cd573d6000803e3d6000fd5b505050506040513d601f19601f820116820180604052508101906118f19190613d60565b1561190f57604051630e635e7560e21b815260040160405180910390fd5b604051632150c05b60e21b8152600481018390526001600160a01b03821690638543016c90602401600060405180830381600087803b15801561195157600080fd5b505af1158015611965573d6000803e3d6000fd5b505050506000611975858561275e565b6001600160a01b0383166000908152600d602052604090205490915060649061199e9083613cb1565b6119a89190613cde565b6119b29082613d1b565b90506119c03386868461283e565b505050505050565b60606019805480602002602001604051908101604052809291908181526020016000905b82821015611b0057838290600052602060002090600702016040518060e0016040529081600082018054611a1f90613c61565b80601f0160208091040260200160405190810160405280929190818152602001828054611a4b90613c61565b8015611a985780601f10611a6d57610100808354040283529160200191611a98565b820191906000526020600020905b815481529060010190602001808311611a7b57829003601f168201915b50505091835250506001828101546001600160a01b0316602080840191909152600284015460408401526003840154606084015260048401546080840152600584015460a084015260069093015460ff16151560c090920191909152918352920191016119ec565b50505050905090565b610a288383836040518060200160405280600081525061216f565b611b2c6125ab565b601280546001600160a01b0319166001600160a01b0383169081179091556040519081527fe1859e45f5fba8ccae8fb923300022b3ae6de178b6adb19ab1dce825ea81813090602001610f4d565b6000611b8560085490565b8210611be85760405162461bcd60e51b815260206004820152602c60248201527f455243373231456e756d657261626c653a20676c6f62616c20696e646578206f60448201526b7574206f6620626f756e647360a01b6064820152608401610987565b60088281548110611bfb57611bfb613d05565b90600052602060002001549050919050565b611c156125ab565b601a611c218282613e2e565b507ff9c7803e94e0d3c02900d8a90893a6d5e90dd04d32a4cfe825520f82bf9f32f681604051610f4d9190613756565b6000818152600260205260408120546001600160a01b0316806108545760405162461bcd60e51b8152602060048201526018602482015277115490cdcc8c4e881a5b9d985b1a59081d1bdad95b88125160421b6044820152606401610987565b60006001600160a01b038216611d1b5760405162461bcd60e51b815260206004820152602960248201527f4552433732313a2061646472657373207a65726f206973206e6f7420612076616044820152683634b21037bbb732b960b91b6064820152608401610987565b506001600160a01b031660009081526003602052604090205490565b611d3f6125ab565b611d496000612f38565b565b690a968163f0a57b400000811015611d765760405163162908e360e11b815260040160405180910390fd5b6000611d82838361275e565b9050610ef53384848461283e565b611d986125ab565b6001600160a01b0381166000818152600c6020908152604091829020805460ff1916905590519182527f173d2f452d823e0dbf0d161f36a0935355316a4e721d58f98c040bbe47cf92369101610f4d565b60606000835b611df98486613d1b565b811015611f465760198181548110611e1357611e13613d05565b90600052602060002090600702016040518060e0016040529081600082018054611e3c90613c61565b80601f0160208091040260200160405190810160405280929190818152602001828054611e6890613c61565b8015611eb55780601f10611e8a57610100808354040283529160200191611eb5565b820191906000526020600020905b815481529060010190602001808311611e9857829003601f168201915b505050918352505060018201546001600160a01b03166020820152600282015460408201526003820154606082015260048201546080820152600582015460a082015260069091015460ff16151560c0909101528351849084908110611f1d57611f1d613d05565b602002602001018190525081611f3290613d2e565b915080611f3e81613d2e565b915050611def565b505092915050565b60606001805461086990613c61565b611f68338383612f8a565b5050565b611f746125ab565b601154601b546000916001600160a01b0316906399ca8beb90611f978582613d1b565b6040516001600160e01b031960e085901b16815260048101929092526024820152604401600060405180830381865afa158015611fd8573d6000803e3d6000fd5b505050506040513d6000823e601f3d908101601f191682016040526120009190810190613eee565b905060005b828110156120aa5760115482516001600160a01b039091169062c35ba690839085908290811061203757612037613d05565b60200260200101516040518363ffffffff1660e01b8152600401612065929190918252602082015260400190565b600060405180830381600087803b15801561207f57600080fd5b505af1158015612093573d6000803e3d6000fd5b5050505080806120a290613d2e565b915050612005565b5081601b60008282546120bd9190613d1b565b90915550505050565b60006120d182611c51565b9050336001600160a01b038216146120fc5760405163ea8e4eb560e01b815260040160405180910390fd5b610a28338484612d3a565b60125460009081906001600160a01b031633146121375760405163ea8e4eb560e01b815260040160405180910390fd5b612141848461275e565b905061016d841061216357600a61215982600b613cb1565b6110219190613cde565b61102f8585858461283e565b6121793383612cdc565b6121955760405162461bcd60e51b815260040161098790613d7d565b610ef584848484613058565b6121a96125ab565b6001600160a01b0381166000818152600c6020908152604091829020805460ff1916600117905590519182527ff4ba6a323cf8bea8975fe249b5064dd45949b11c8e5498d0f1e46372c14a93d29101610f4d565b6060612208826124de565b600061221261308b565b90506000815111612232576040518060200160405280600081525061225d565b8061223c8461309a565b60405160200161224d929190613f88565b6040516020818303038152906040525b9392505050565b6019818154811061227457600080fd5b906000526020600020906007020160009150905080600001805461229790613c61565b80601f01602080910402602001604051908101604052809291908181526020018280546122c390613c61565b80156123105780601f106122e557610100808354040283529160200191612310565b820191906000526020600020905b8154815290600101906020018083116122f357829003601f168201915b5050506001840154600285015460038601546004870154600588015460069098015496976001600160a01b0390941696929550909350919060ff1687565b600061235983611c51565b9050336001600160a01b0382161480159061237b57506123798133612409565b155b156123995760405163ea8e4eb560e01b815260040160405180910390fd5b81601984815481106123ad576123ad613d05565b906000526020600020906007020160000190816123ca9190613e2e565b507f36bfb15ecf538ab5f9f0e01df1406b613c66fe6676ba6abe36f01085cd780f8e83836040516123fc929190613fb7565b60405180910390a1505050565b6001600160a01b03918216600090815260056020908152604080832093909416825291909152205460ff1690565b61243f6125ab565b6001600160a01b0381166124a45760405162461bcd60e51b815260206004820152602660248201527f4f776e61626c653a206e6577206f776e657220697320746865207a65726f206160448201526564647265737360d01b6064820152608401610987565b6124ad81612f38565b50565b80546001019055565b60006001600160e01b0319821663780e9d6360e01b148061085457506108548261319b565b6000818152600260205260409020546001600160a01b03166124ad5760405162461bcd60e51b8152602060048201526018602482015277115490cdcc8c4e881a5b9d985b1a59081d1bdad95b88125160421b6044820152606401610987565b600081815260046020526040902080546001600160a01b0319166001600160a01b038416908117909155819061257282611c51565b6001600160a01b03167f8c5be1e5ebec7d5bd14f71427d1e84f3dd0314c0f7b2291e5b200ac8c7c3b92560405160405180910390a45050565b600a546001600160a01b03163314611d495760405162461bcd60e51b815260206004820181905260248201527f4f776e61626c653a2063616c6c6572206973206e6f7420746865206f776e65726044820152606401610987565b6000806126156201518084613cde565b90506000620186a061016d8361262d6147098a613cb1565b6126379190613cb1565b6126419190613cde565b61264b9190613cde565b9050600061016d620186a084614709816126658c8c613cb1565b61266f9190613cb1565b6126799190613cb1565b6126839190613cde565b61268d9190613cde565b6126979190613cde565b9050818111156126a9578193506126ad565b8093505b5050509392505050565b60006126c282611c51565b90506126d0816000846131eb565b6126db60008361253d565b6001600160a01b0381166000908152600360205260408120805460019290612704908490613cf2565b909155505060008281526002602052604080822080546001600160a01b0319169055518391906001600160a01b038416907fddf252ad1be2c89b69c2b068fc378daa952ba7f163c4a11628f55a4df523b3ef908390a45050565b600080612769610a2d565b905060008161277d633b9aca006002613cb1565b6127879190613cf2565b612795633b9aca0086613cb1565b61279f9190613cde565b905060006127b9600a6a01a784379d99db42000000613cde565b6127c39086613cde565b905060648111156127d2575060645b60006103e86127e18385613cb1565b6127eb9190613cde565b905060006104576127fd60018a613cf2565b6128078487613d1b565b6128119190613cb1565b61281b9190613cde565b9050806128288386613d1b565b6128329190613d1b565b98975050505050505050565b6000600784101561286257604051630ac39bb360e31b815260040160405180910390fd5b610d058411156128855760405163773839e560e11b815260040160405180910390fd5b6013546040805163d539139360e01b815290516001600160a01b03909216916391d1485491839163d5391393916004808201926020929091908290030181865afa1580156128d7573d6000803e3d6000fd5b505050506040513d601f19601f820116820180604052508101906128fb9190613d47565b6040516001600160e01b031960e084901b1681526004810191909152336024820152604401602060405180830381865afa15801561293d573d6000803e3d6000fd5b505050506040513d601f19601f820116820180604052508101906129619190613d60565b80156129d857506013546040516370a0823160e01b81526001600160a01b038781166004830152859216906370a0823190602401602060405180830381865afa1580156129b2573d6000803e3d6000fd5b505050506040513d601f19601f820116820180604052508101906129d69190613d47565b145b80156129ef57506011546001600160a01b03163314155b8015612a0657506012546001600160a01b03163314155b15612a70576013546040516340c10f1960e01b8152336004820152600160248201526001600160a01b03909116906340c10f1990604401600060405180830381600087803b158015612a5757600080fd5b505af1158015612a6b573d6000803e3d6000fd5b505050505b6013546040516323b872dd60e01b8152336004820152306024820152604481018590526001600160a01b03909116906323b872dd906064016020604051808303816000875af1158015612ac7573d6000803e3d6000fd5b505050506040513d601f19601f82011682018060405250810190612aeb9190613d60565b612b08576040516312171d8360e31b815260040160405180910390fd5b8160146000828254612b1a9190613d1b565b9091555050601680546001019055612b36601780546001019055565b6000612b458562015180613cb1565b9050612b5060155490565b6019549092508214612b6457612b64613fd0565b6040805161010081018252600060e0820181815282526001600160a01b038916602083015291810186905260608101859052608081018390524260a082015260c08101829052601980546001810182559252805190916007027f944998273e477b495144fb8794c914197f3ccb46be2900f4698fd0ef743c969501908190612bec9082613e2e565b5060208201516001820180546001600160a01b0319166001600160a01b0390921691909117905560408201516002820155606082015160038201556080820151600482015560a0820151600582015560c0909101516006909101805460ff1916911515919091179055612c5f8142613d1b565b6000838152600e6020526040902055612c78868361323f565b856001600160a01b0316612c8b60155490565b60408051888152602081018890527f507ac39eb33610191cd8fd54286e91c5cc464c262861643be3978f5a9f18ab02910160405180910390a3612cd2601580546001019055565b505b949350505050565b600080612ce883611c51565b9050806001600160a01b0316846001600160a01b03161480612d0f5750612d0f8185612409565b80612cd45750836001600160a01b0316612d28846108ec565b6001600160a01b031614949350505050565b826001600160a01b0316612d4d82611c51565b6001600160a01b031614612db15760405162461bcd60e51b815260206004820152602560248201527f4552433732313a207472616e736665722066726f6d20696e636f72726563742060448201526437bbb732b960d91b6064820152608401610987565b6001600160a01b038216612e135760405162461bcd60e51b8152602060048201526024808201527f4552433732313a207472616e7366657220746f20746865207a65726f206164646044820152637265737360e01b6064820152608401610987565b612e1e8383836131eb565b612e2960008261253d565b6001600160a01b0383166000908152600360205260408120805460019290612e52908490613cf2565b90915550506001600160a01b0382166000908152600360205260408120805460019290612e80908490613d1b565b909155505060008181526002602052604080822080546001600160a01b0319166001600160a01b0386811691821790925591518493918716917fddf252ad1be2c89b69c2b068fc378daa952ba7f163c4a11628f55a4df523b3ef91a4505050565b805480612f305760405162461bcd60e51b815260206004820152601b60248201527f436f756e7465723a2064656372656d656e74206f766572666c6f7700000000006044820152606401610987565b600019019055565b600a80546001600160a01b038381166001600160a01b0319831681179093556040519116919082907f8be0079c531659141344cd1fd0a4f28419497f9722a3daafe3b4186f6b6457e090600090a35050565b816001600160a01b0316836001600160a01b031603612feb5760405162461bcd60e51b815260206004820152601960248201527f4552433732313a20617070726f766520746f2063616c6c6572000000000000006044820152606401610987565b6001600160a01b03838116600081815260056020908152604080832094871680845294825291829020805460ff191686151590811790915591519182527f17307eab39ab6107e8899845ad3d59bd9653f200f220920489ca2b5937696c31910160405180910390a3505050565b613063848484612d3a565b61306f8484848461338d565b610ef55760405162461bcd60e51b815260040161098790613fe6565b6060601a805461086990613c61565b6060816000036130c15750506040805180820190915260018152600360fc1b602082015290565b8160005b81156130eb57806130d581613d2e565b91506130e49050600a83613cde565b91506130c5565b60008167ffffffffffffffff811115613106576131066139c0565b6040519080825280601f01601f191660200182016040528015613130576020820181803683370190505b5090505b8415612cd457613145600183613cf2565b9150613152600a86614038565b61315d906030613d1b565b60f81b81838151811061317257613172613d05565b60200101906001600160f81b031916908160001a905350613194600a86613cde565b9450613134565b60006001600160e01b031982166380ac58cd60e01b14806131cc57506001600160e01b03198216635b5e139f60e01b145b8061085457506301ffc9a760e01b6001600160e01b0319831614610854565b81601982815481106131ff576131ff613d05565b906000526020600020906007020160010160006101000a8154816001600160a01b0302191690836001600160a01b03160217905550610a2883838361348b565b6001600160a01b0382166132955760405162461bcd60e51b815260206004820181905260248201527f4552433732313a206d696e7420746f20746865207a65726f20616464726573736044820152606401610987565b6000818152600260205260409020546001600160a01b0316156132fa5760405162461bcd60e51b815260206004820152601c60248201527f4552433732313a20746f6b656e20616c7265616479206d696e746564000000006044820152606401610987565b613306600083836131eb565b6001600160a01b038216600090815260036020526040812080546001929061332f908490613d1b565b909155505060008181526002602052604080822080546001600160a01b0319166001600160a01b03861690811790915590518392907fddf252ad1be2c89b69c2b068fc378daa952ba7f163c4a11628f55a4df523b3ef908290a45050565b60006001600160a01b0384163b1561348357604051630a85bd0160e11b81526001600160a01b0385169063150b7a02906133d190339089908890889060040161404c565b6020604051808303816000875af192505050801561340c575060408051601f3d908101601f1916820190925261340991810190614089565b60015b613469573d80801561343a576040519150601f19603f3d011682016040523d82523d6000602084013e61343f565b606091505b5080516000036134615760405162461bcd60e51b815260040161098790613fe6565b805181602001fd5b6001600160e01b031916630a85bd0160e11b149050612cd4565b506001612cd4565b6001600160a01b0383166134e6576134e181600880546000838152600960205260408120829055600182018355919091527ff3f7a9fe364faab93b216da50a3214154f22a0a2b415b23a84c8169e8b636ee30155565b613509565b816001600160a01b0316836001600160a01b031614613509576135098382613543565b6001600160a01b03821661352057610a28816135e0565b826001600160a01b0316826001600160a01b031614610a2857610a28828261368f565b6000600161355084611cb1565b61355a9190613cf2565b6000838152600760205260409020549091508082146135ad576001600160a01b03841660009081526006602090815260408083208584528252808320548484528184208190558352600790915290208190555b5060009182526007602090815260408084208490556001600160a01b039094168352600681528383209183525290812055565b6008546000906135f290600190613cf2565b6000838152600960205260408120546008805493945090928490811061361a5761361a613d05565b90600052602060002001549050806008838154811061363b5761363b613d05565b6000918252602080832090910192909255828152600990915260408082208490558582528120556008805480613673576136736140a6565b6001900381819060005260206000200160009055905550505050565b600061369a83611cb1565b6001600160a01b039093166000908152600660209081526040808320868452825280832085905593825260079052919091209190915550565b6001600160e01b0319811681146124ad57600080fd5b6000602082840312156136fb57600080fd5b813561225d816136d3565b60005b83811015613721578181015183820152602001613709565b50506000910152565b60008151808452613742816020860160208601613706565b601f01601f19169290920160200192915050565b60208152600061225d602083018461372a565b60006020828403121561377b57600080fd5b5035919050565b6001600160a01b03811681146124ad57600080fd5b600080604083850312156137aa57600080fd5b82356137b581613782565b946020939093013593505050565b600080602083850312156137d657600080fd5b823567ffffffffffffffff808211156137ee57600080fd5b818501915085601f83011261380257600080fd5b81358181111561381157600080fd5b8660208260051b850101111561382657600080fd5b60209290920196919550909350505050565b60006020828403121561384a57600080fd5b813561225d81613782565b60008060006060848603121561386a57600080fd5b833561387581613782565b95602085013595506040909401359392505050565b60008060006060848603121561389f57600080fd5b83356138aa81613782565b925060208401356138ba81613782565b929592945050506040919091013590565b600080600080608085870312156138e157600080fd5b843593506020850135925060408501359150606085013561390181613782565b939692955090935050565b60006020808301818452808551808352604092508286019150828160051b87010184880160005b838110156139b257603f19898403018552815160e081518186526139598287018261372a565b838b01516001600160a01b0316878c0152898401518a880152606080850151908801526080808501519088015260a0848101519088015260c0938401511515939096019290925250509386019390860190600101613933565b509098975050505050505050565b634e487b7160e01b600052604160045260246000fd5b604051601f8201601f1916810167ffffffffffffffff811182821017156139ff576139ff6139c0565b604052919050565b600067ffffffffffffffff831115613a2157613a216139c0565b613a34601f8401601f19166020016139d6565b9050828152838383011115613a4857600080fd5b828260208301376000602084830101529392505050565b600082601f830112613a7057600080fd5b61225d83833560208501613a07565b600060208284031215613a9157600080fd5b813567ffffffffffffffff811115613aa857600080fd5b612cd484828501613a5f565b60008060408385031215613ac757600080fd5b50508035926020909101359150565b80151581146124ad57600080fd5b60008060408385031215613af757600080fd5b8235613b0281613782565b91506020830135613b1281613ad6565b809150509250929050565b60008060008060808587031215613b3357600080fd5b8435613b3e81613782565b93506020850135613b4e81613782565b925060408501359150606085013567ffffffffffffffff811115613b7157600080fd5b8501601f81018713613b8257600080fd5b613b9187823560208401613a07565b91505092959194509250565b60e081526000613bb060e083018a61372a565b6001600160a01b039890981660208301525060408101959095526060850193909352608084019190915260a0830152151560c090910152919050565b60008060408385031215613bff57600080fd5b82359150602083013567ffffffffffffffff811115613c1d57600080fd5b613c2985828601613a5f565b9150509250929050565b60008060408385031215613c4657600080fd5b8235613c5181613782565b91506020830135613b1281613782565b600181811c90821680613c7557607f821691505b602082108103613c9557634e487b7160e01b600052602260045260246000fd5b50919050565b634e487b7160e01b600052601160045260246000fd5b808202811582820484141761085457610854613c9b565b634e487b7160e01b600052601260045260246000fd5b600082613ced57613ced613cc8565b500490565b8181038181111561085457610854613c9b565b634e487b7160e01b600052603260045260246000fd5b8082018082111561085457610854613c9b565b600060018201613d4057613d40613c9b565b5060010190565b600060208284031215613d5957600080fd5b5051919050565b600060208284031215613d7257600080fd5b815161225d81613ad6565b6020808252602e908201527f4552433732313a2063616c6c6572206973206e6f7420746f6b656e206f776e6560408201526d1c881b9bdc88185c1c1c9bdd995960921b606082015260800190565b600060208284031215613ddd57600080fd5b815161225d81613782565b601f821115610a2857600081815260208120601f850160051c81016020861015613e0f5750805b601f850160051c820191505b818110156119c057828155600101613e1b565b815167ffffffffffffffff811115613e4857613e486139c0565b613e5c81613e568454613c61565b84613de8565b602080601f831160018114613e915760008415613e795750858301515b600019600386901b1c1916600185901b1785556119c0565b600085815260208120601f198616915b82811015613ec057888601518255948401946001909101908401613ea1565b5085821015613ede5787850151600019600388901b60f8161c191681555b5050505050600190811b01905550565b60006020808385031215613f0157600080fd5b825167ffffffffffffffff80821115613f1957600080fd5b818501915085601f830112613f2d57600080fd5b815181811115613f3f57613f3f6139c0565b8060051b9150613f508483016139d6565b8181529183018401918481019088841115613f6a57600080fd5b938501935b8385101561283257845182529385019390850190613f6f565b60008351613f9a818460208801613706565b835190830190613fae818360208801613706565b01949350505050565b828152604060208201526000612cd4604083018461372a565b634e487b7160e01b600052600160045260246000fd5b60208082526032908201527f4552433732313a207472616e7366657220746f206e6f6e20455243373231526560408201527131b2b4bb32b91034b6b83632b6b2b73a32b960711b606082015260800190565b60008261404757614047613cc8565b500690565b6001600160a01b038581168252841660208201526040810183905260806060820181905260009061407f9083018461372a565b9695505050505050565b60006020828403121561409b57600080fd5b815161225d816136d3565b634e487b7160e01b600052603160045260246000fdfea264697066735822122071c63980a1f6697663034384a290c7a69f856436ad090a2f853073e8554008e764736f6c63430008110033",
  "linkReferences": {},
  "deployedLinkReferences": {}
}