{
  "_format": "hh-sol-artifact-1",
  "contractName": "MaxxStake",
  "sourceName": "contracts/MaxxStake.sol",
  "abi": [
    {
      "inputs": [
        {
          "internalType": "address",
          "name": "_maxxVault",
          "type": "address"
        },
        {
          "internalType": "address",
          "name": "_maxx",
          "type": "address"
        },
        {
          "internalType": "uint256",
          "name": "_launchDate",
          "type": "uint256"
        }
      ],
      "stateMutability": "nonpayable",
      "type": "constructor"
    },
    {
      "inputs": [],
      "name": "AlreadyMaxDuration",
      "type": "error"
    },
    {
      "inputs": [],
      "name": "FreeClaimsAlreadyMigrated",
      "type": "error"
    },
    {
      "inputs": [],
      "name": "IncorrectOwner",
      "type": "error"
    },
    {
      "inputs": [],
      "name": "InsufficientMaxx",
      "type": "error"
    },
    {
      "inputs": [
        {
          "internalType": "address",
          "name": "_nft",
          "type": "address"
        }
      ],
      "name": "InterfaceNotSupported",
      "type": "error"
    },
    {
      "inputs": [],
      "name": "LaunchDatePassed",
      "type": "error"
    },
    {
      "inputs": [],
      "name": "NftNotAccepted",
      "type": "error"
    },
    {
      "inputs": [],
      "name": "NotAuthorized",
      "type": "error"
    },
    {
      "inputs": [],
      "name": "StakeAlreadyWithdrawn",
      "type": "error"
    },
    {
      "inputs": [],
      "name": "StakeNotComplete",
      "type": "error"
    },
    {
      "inputs": [],
      "name": "StakeTooLong",
      "type": "error"
    },
    {
      "inputs": [],
      "name": "StakeTooShort",
      "type": "error"
    },
    {
      "inputs": [],
      "name": "TransferFailed",
      "type": "error"
    },
    {
      "inputs": [],
      "name": "UsedNFT",
      "type": "error"
    },
    {
      "anonymous": false,
      "inputs": [
        {
          "indexed": false,
          "internalType": "address",
          "name": "nft",
          "type": "address"
        }
      ],
      "name": "AcceptedNftAdded",
      "type": "event"
    },
    {
      "anonymous": false,
      "inputs": [
        {
          "indexed": false,
          "internalType": "address",
          "name": "nft",
          "type": "address"
        }
      ],
      "name": "AcceptedNftRemoved",
      "type": "event"
    },
    {
      "anonymous": false,
      "inputs": [
        {
          "indexed": true,
          "internalType": "address",
          "name": "owner",
          "type": "address"
        },
        {
          "indexed": true,
          "internalType": "address",
          "name": "approved",
          "type": "address"
        },
        {
          "indexed": true,
          "internalType": "uint256",
          "name": "tokenId",
          "type": "uint256"
        }
      ],
      "name": "Approval",
      "type": "event"
    },
    {
      "anonymous": false,
      "inputs": [
        {
          "indexed": true,
          "internalType": "address",
          "name": "owner",
          "type": "address"
        },
        {
          "indexed": true,
          "internalType": "address",
          "name": "operator",
          "type": "address"
        },
        {
          "indexed": false,
          "internalType": "bool",
          "name": "approved",
          "type": "bool"
        }
      ],
      "name": "ApprovalForAll",
      "type": "event"
    },
    {
      "anonymous": false,
      "inputs": [
        {
          "indexed": false,
          "internalType": "string",
          "name": "baseUri",
          "type": "string"
        }
      ],
      "name": "BaseURISet",
      "type": "event"
    },
    {
      "anonymous": false,
      "inputs": [
        {
          "indexed": false,
          "internalType": "address",
          "name": "freeClaim",
          "type": "address"
        }
      ],
      "name": "FreeClaimSet",
      "type": "event"
    },
    {
      "anonymous": false,
      "inputs": [
        {
          "indexed": false,
          "internalType": "uint256",
          "name": "newLaunchDate",
          "type": "uint256"
        }
      ],
      "name": "LaunchDateUpdated",
      "type": "event"
    },
    {
      "anonymous": false,
      "inputs": [
        {
          "indexed": false,
          "internalType": "address",
          "name": "liquidityAmplifier",
          "type": "address"
        }
      ],
      "name": "LiquidityAmplifierSet",
      "type": "event"
    },
    {
      "anonymous": false,
      "inputs": [
        {
          "indexed": false,
          "internalType": "address",
          "name": "nft",
          "type": "address"
        },
        {
          "indexed": false,
          "internalType": "uint256",
          "name": "bonus",
          "type": "uint256"
        }
      ],
      "name": "NftBonusSet",
      "type": "event"
    },
    {
      "anonymous": false,
      "inputs": [
        {
          "indexed": true,
          "internalType": "address",
          "name": "previousOwner",
          "type": "address"
        },
        {
          "indexed": true,
          "internalType": "address",
          "name": "newOwner",
          "type": "address"
        }
      ],
      "name": "OwnershipTransferred",
      "type": "event"
    },
    {
      "anonymous": false,
      "inputs": [
        {
          "indexed": false,
          "internalType": "address",
          "name": "account",
          "type": "address"
        }
      ],
      "name": "Paused",
      "type": "event"
    },
    {
      "anonymous": false,
      "inputs": [
        {
          "indexed": true,
          "internalType": "uint256",
          "name": "stakeId",
          "type": "uint256"
        },
        {
          "indexed": true,
          "internalType": "address",
          "name": "user",
          "type": "address"
        },
        {
          "indexed": false,
          "internalType": "uint16",
          "name": "numDays",
          "type": "uint16"
        },
        {
          "indexed": false,
          "internalType": "uint256",
          "name": "amount",
          "type": "uint256"
        }
      ],
      "name": "Stake",
      "type": "event"
    },
    {
      "anonymous": false,
      "inputs": [
        {
          "indexed": false,
          "internalType": "uint256",
          "name": "stakeId",
          "type": "uint256"
        },
        {
          "indexed": false,
          "internalType": "string",
          "name": "name",
          "type": "string"
        }
      ],
      "name": "StakeNameChange",
      "type": "event"
    },
    {
      "anonymous": false,
      "inputs": [
        {
          "indexed": true,
          "internalType": "address",
          "name": "from",
          "type": "address"
        },
        {
          "indexed": true,
          "internalType": "address",
          "name": "to",
          "type": "address"
        },
        {
          "indexed": true,
          "internalType": "uint256",
          "name": "tokenId",
          "type": "uint256"
        }
      ],
      "name": "Transfer",
      "type": "event"
    },
    {
      "anonymous": false,
      "inputs": [
        {
          "indexed": false,
          "internalType": "address",
          "name": "account",
          "type": "address"
        }
      ],
      "name": "Unpaused",
      "type": "event"
    },
    {
      "anonymous": false,
      "inputs": [
        {
          "indexed": true,
          "internalType": "uint256",
          "name": "stakeId",
          "type": "uint256"
        },
        {
          "indexed": true,
          "internalType": "address",
          "name": "user",
          "type": "address"
        },
        {
          "indexed": false,
          "internalType": "uint256",
          "name": "amount",
          "type": "uint256"
        }
      ],
      "name": "Unstake",
      "type": "event"
    },
    {
      "inputs": [],
      "name": "BASE_INFLATION",
      "outputs": [
        {
          "internalType": "uint256",
          "name": "",
          "type": "uint256"
        }
      ],
      "stateMutability": "view",
      "type": "function"
    },
    {
      "inputs": [],
      "name": "BASE_INFLATION_FACTOR",
      "outputs": [
        {
          "internalType": "uint256",
          "name": "",
          "type": "uint256"
        }
      ],
      "stateMutability": "view",
      "type": "function"
    },
    {
      "inputs": [],
      "name": "BPB_FACTOR",
      "outputs": [
        {
          "internalType": "uint256",
          "name": "",
          "type": "uint256"
        }
      ],
      "stateMutability": "view",
      "type": "function"
    },
    {
      "inputs": [],
      "name": "DAYS_IN_YEAR",
      "outputs": [
        {
          "internalType": "uint256",
          "name": "",
          "type": "uint256"
        }
      ],
      "stateMutability": "view",
      "type": "function"
    },
    {
      "inputs": [],
      "name": "LATE_DAYS",
      "outputs": [
        {
          "internalType": "uint256",
          "name": "",
          "type": "uint256"
        }
      ],
      "stateMutability": "view",
      "type": "function"
    },
    {
      "inputs": [],
      "name": "MAGIC_NUMBER",
      "outputs": [
        {
          "internalType": "uint256",
          "name": "",
          "type": "uint256"
        }
      ],
      "stateMutability": "view",
      "type": "function"
    },
    {
      "inputs": [],
      "name": "MAX_STAKE_DAYS",
      "outputs": [
        {
          "internalType": "uint256",
          "name": "",
          "type": "uint256"
        }
      ],
      "stateMutability": "view",
      "type": "function"
    },
    {
      "inputs": [],
      "name": "MIN_STAKE_DAYS",
      "outputs": [
        {
          "internalType": "uint256",
          "name": "",
          "type": "uint256"
        }
      ],
      "stateMutability": "view",
      "type": "function"
    },
    {
      "inputs": [],
      "name": "PERCENT_FACTOR",
      "outputs": [
        {
          "internalType": "uint256",
          "name": "",
          "type": "uint256"
        }
      ],
      "stateMutability": "view",
      "type": "function"
    },
    {
      "inputs": [
        {
          "internalType": "address",
          "name": "_nft",
          "type": "address"
        }
      ],
      "name": "addAcceptedNft",
      "outputs": [],
      "stateMutability": "nonpayable",
      "type": "function"
    },
    {
      "inputs": [
        {
          "internalType": "address",
          "name": "_owner",
          "type": "address"
        },
        {
          "internalType": "uint16",
          "name": "_numDays",
          "type": "uint16"
        },
        {
          "internalType": "uint256",
          "name": "_amount",
          "type": "uint256"
        }
      ],
      "name": "amplifierStake",
      "outputs": [
        {
          "internalType": "uint256",
          "name": "stakeId",
          "type": "uint256"
        },
        {
          "internalType": "uint256",
          "name": "shares",
          "type": "uint256"
        }
      ],
      "stateMutability": "nonpayable",
      "type": "function"
    },
    {
      "inputs": [
        {
          "internalType": "address",
          "name": "to",
          "type": "address"
        },
        {
          "internalType": "uint256",
          "name": "tokenId",
          "type": "uint256"
        }
      ],
      "name": "approve",
      "outputs": [],
      "stateMutability": "nonpayable",
      "type": "function"
    },
    {
      "inputs": [
        {
          "internalType": "address",
          "name": "owner",
          "type": "address"
        }
      ],
      "name": "balanceOf",
      "outputs": [
        {
          "internalType": "uint256",
          "name": "",
          "type": "uint256"
        }
      ],
      "stateMutability": "view",
      "type": "function"
    },
    {
      "inputs": [
        {
          "internalType": "uint256",
          "name": "_launchDate",
          "type": "uint256"
        }
      ],
      "name": "changeLaunchDate",
      "outputs": [],
      "stateMutability": "nonpayable",
      "type": "function"
    },
    {
      "inputs": [
        {
          "internalType": "uint256",
          "name": "_stakeId",
          "type": "uint256"
        },
        {
          "internalType": "string",
          "name": "_stakeName",
          "type": "string"
        }
      ],
      "name": "changeStakeName",
      "outputs": [],
      "stateMutability": "nonpayable",
      "type": "function"
    },
    {
      "inputs": [
        {
          "internalType": "uint256",
          "name": "",
          "type": "uint256"
        }
      ],
      "name": "endTimes",
      "outputs": [
        {
          "internalType": "uint256",
          "name": "",
          "type": "uint256"
        }
      ],
      "stateMutability": "view",
      "type": "function"
    },
    {
      "inputs": [],
      "name": "freeClaim",
      "outputs": [
        {
          "internalType": "address",
          "name": "",
          "type": "address"
        }
      ],
      "stateMutability": "view",
      "type": "function"
    },
    {
      "inputs": [
        {
          "internalType": "address",
          "name": "_owner",
          "type": "address"
        },
        {
          "internalType": "uint16",
          "name": "_numDays",
          "type": "uint16"
        },
        {
          "internalType": "uint256",
          "name": "_amount",
          "type": "uint256"
        }
      ],
      "name": "freeClaimStake",
      "outputs": [
        {
          "internalType": "uint256",
          "name": "stakeId",
          "type": "uint256"
        },
        {
          "internalType": "uint256",
          "name": "shares",
          "type": "uint256"
        }
      ],
      "stateMutability": "nonpayable",
      "type": "function"
    },
    {
      "inputs": [],
      "name": "freeClaimsMigrated",
      "outputs": [
        {
          "internalType": "bool",
          "name": "",
          "type": "bool"
        }
      ],
      "stateMutability": "view",
      "type": "function"
    },
    {
      "inputs": [],
      "name": "getAllStakes",
      "outputs": [
        {
          "components": [
            {
              "internalType": "string",
              "name": "name",
              "type": "string"
            },
            {
              "internalType": "address",
              "name": "owner",
              "type": "address"
            },
            {
              "internalType": "uint256",
              "name": "amount",
              "type": "uint256"
            },
            {
              "internalType": "uint256",
              "name": "shares",
              "type": "uint256"
            },
            {
              "internalType": "uint256",
              "name": "duration",
              "type": "uint256"
            },
            {
              "internalType": "uint256",
              "name": "startDate",
              "type": "uint256"
            },
            {
              "internalType": "bool",
              "name": "withdrawn",
              "type": "bool"
            }
          ],
          "internalType": "struct IStake.StakeData[]",
          "name": "",
          "type": "tuple[]"
        }
      ],
      "stateMutability": "view",
      "type": "function"
    },
    {
      "inputs": [
        {
          "internalType": "uint256",
          "name": "tokenId",
          "type": "uint256"
        }
      ],
      "name": "getApproved",
      "outputs": [
        {
          "internalType": "address",
          "name": "",
          "type": "address"
        }
      ],
      "stateMutability": "view",
      "type": "function"
    },
    {
      "inputs": [],
      "name": "getDaysSinceLaunch",
      "outputs": [
        {
          "internalType": "uint256",
          "name": "day",
          "type": "uint256"
        }
      ],
      "stateMutability": "view",
      "type": "function"
    },
    {
      "inputs": [
        {
          "internalType": "uint256",
          "name": "index",
          "type": "uint256"
        },
        {
          "internalType": "uint256",
          "name": "count",
          "type": "uint256"
        }
      ],
      "name": "getStakes",
      "outputs": [
        {
          "components": [
            {
              "internalType": "string",
              "name": "name",
              "type": "string"
            },
            {
              "internalType": "address",
              "name": "owner",
              "type": "address"
            },
            {
              "internalType": "uint256",
              "name": "amount",
              "type": "uint256"
            },
            {
              "internalType": "uint256",
              "name": "shares",
              "type": "uint256"
            },
            {
              "internalType": "uint256",
              "name": "duration",
              "type": "uint256"
            },
            {
              "internalType": "uint256",
              "name": "startDate",
              "type": "uint256"
            },
            {
              "internalType": "bool",
              "name": "withdrawn",
              "type": "bool"
            }
          ],
          "internalType": "struct IStake.StakeData[]",
          "name": "result",
          "type": "tuple[]"
        }
      ],
      "stateMutability": "view",
      "type": "function"
    },
    {
      "inputs": [],
      "name": "idCounter",
      "outputs": [
        {
          "internalType": "uint256",
          "name": "_value",
          "type": "uint256"
        }
      ],
      "stateMutability": "view",
      "type": "function"
    },
    {
      "inputs": [
        {
          "internalType": "address",
          "name": "",
          "type": "address"
        }
      ],
      "name": "isAcceptedNft",
      "outputs": [
        {
          "internalType": "bool",
          "name": "",
          "type": "bool"
        }
      ],
      "stateMutability": "view",
      "type": "function"
    },
    {
      "inputs": [
        {
          "internalType": "address",
          "name": "owner",
          "type": "address"
        },
        {
          "internalType": "address",
          "name": "operator",
          "type": "address"
        }
      ],
      "name": "isApprovedForAll",
      "outputs": [
        {
          "internalType": "bool",
          "name": "",
          "type": "bool"
        }
      ],
      "stateMutability": "view",
      "type": "function"
    },
    {
      "inputs": [],
      "name": "launchDate",
      "outputs": [
        {
          "internalType": "uint256",
          "name": "",
          "type": "uint256"
        }
      ],
      "stateMutability": "view",
      "type": "function"
    },
    {
      "inputs": [],
      "name": "liquidityAmplifier",
      "outputs": [
        {
          "internalType": "address",
          "name": "",
          "type": "address"
        }
      ],
      "stateMutability": "view",
      "type": "function"
    },
    {
      "inputs": [
        {
          "internalType": "uint256",
          "name": "_stakeId",
          "type": "uint256"
        }
      ],
      "name": "maxShare",
      "outputs": [],
      "stateMutability": "nonpayable",
      "type": "function"
    },
    {
      "inputs": [],
      "name": "maxx",
      "outputs": [
        {
          "internalType": "contract IMaxxFinance",
          "name": "",
          "type": "address"
        }
      ],
      "stateMutability": "view",
      "type": "function"
    },
    {
      "inputs": [],
      "name": "maxxVault",
      "outputs": [
        {
          "internalType": "address",
          "name": "",
          "type": "address"
        }
      ],
      "stateMutability": "view",
      "type": "function"
    },
    {
      "inputs": [],
      "name": "migrateUnstakedFreeClaims",
      "outputs": [],
      "stateMutability": "nonpayable",
      "type": "function"
    },
    {
      "inputs": [],
      "name": "name",
      "outputs": [
        {
          "internalType": "string",
          "name": "",
          "type": "string"
        }
      ],
      "stateMutability": "view",
      "type": "function"
    },
    {
      "inputs": [
        {
          "internalType": "address",
          "name": "",
          "type": "address"
        }
      ],
      "name": "nftBonus",
      "outputs": [
        {
          "internalType": "uint256",
          "name": "",
          "type": "uint256"
        }
      ],
      "stateMutability": "view",
      "type": "function"
    },
    {
      "inputs": [],
      "name": "owner",
      "outputs": [
        {
          "internalType": "address",
          "name": "",
          "type": "address"
        }
      ],
      "stateMutability": "view",
      "type": "function"
    },
    {
      "inputs": [
        {
          "internalType": "uint256",
          "name": "tokenId",
          "type": "uint256"
        }
      ],
      "name": "ownerOf",
      "outputs": [
        {
          "internalType": "address",
          "name": "",
          "type": "address"
        }
      ],
      "stateMutability": "view",
      "type": "function"
    },
    {
      "inputs": [],
      "name": "paused",
      "outputs": [
        {
          "internalType": "bool",
          "name": "",
          "type": "bool"
        }
      ],
      "stateMutability": "view",
      "type": "function"
    },
    {
      "inputs": [
        {
          "internalType": "address",
          "name": "_nft",
          "type": "address"
        }
      ],
      "name": "removeAcceptedNft",
      "outputs": [],
      "stateMutability": "nonpayable",
      "type": "function"
    },
    {
      "inputs": [],
      "name": "renounceOwnership",
      "outputs": [],
      "stateMutability": "nonpayable",
      "type": "function"
    },
    {
      "inputs": [
        {
          "internalType": "uint256",
          "name": "_stakeId",
          "type": "uint256"
        },
        {
          "internalType": "uint256",
          "name": "_topUpAmount",
          "type": "uint256"
        }
      ],
      "name": "restake",
      "outputs": [],
      "stateMutability": "nonpayable",
      "type": "function"
    },
    {
      "inputs": [
        {
          "internalType": "address",
          "name": "from",
          "type": "address"
        },
        {
          "internalType": "address",
          "name": "to",
          "type": "address"
        },
        {
          "internalType": "uint256",
          "name": "tokenId",
          "type": "uint256"
        }
      ],
      "name": "safeTransferFrom",
      "outputs": [],
      "stateMutability": "nonpayable",
      "type": "function"
    },
    {
      "inputs": [
        {
          "internalType": "address",
          "name": "from",
          "type": "address"
        },
        {
          "internalType": "address",
          "name": "to",
          "type": "address"
        },
        {
          "internalType": "uint256",
          "name": "tokenId",
          "type": "uint256"
        },
        {
          "internalType": "bytes",
          "name": "data",
          "type": "bytes"
        }
      ],
      "name": "safeTransferFrom",
      "outputs": [],
      "stateMutability": "nonpayable",
      "type": "function"
    },
    {
      "inputs": [
        {
          "internalType": "address",
          "name": "operator",
          "type": "address"
        },
        {
          "internalType": "bool",
          "name": "approved",
          "type": "bool"
        }
      ],
      "name": "setApprovalForAll",
      "outputs": [],
      "stateMutability": "nonpayable",
      "type": "function"
    },
    {
      "inputs": [
        {
          "internalType": "string",
          "name": "baseURI_",
          "type": "string"
        }
      ],
      "name": "setBaseURI",
      "outputs": [],
      "stateMutability": "nonpayable",
      "type": "function"
    },
    {
      "inputs": [
        {
          "internalType": "address",
          "name": "_freeClaim",
          "type": "address"
        }
      ],
      "name": "setFreeClaim",
      "outputs": [],
      "stateMutability": "nonpayable",
      "type": "function"
    },
    {
      "inputs": [
        {
          "internalType": "address",
          "name": "_liquidityAmplifier",
          "type": "address"
        }
      ],
      "name": "setLiquidityAmplifier",
      "outputs": [],
      "stateMutability": "nonpayable",
      "type": "function"
    },
    {
      "inputs": [
        {
          "internalType": "address",
          "name": "_nft",
          "type": "address"
        },
        {
          "internalType": "uint256",
          "name": "_bonus",
          "type": "uint256"
        }
      ],
      "name": "setNftBonus",
      "outputs": [],
      "stateMutability": "nonpayable",
      "type": "function"
    },
    {
      "inputs": [
        {
          "internalType": "uint16",
          "name": "_numDays",
          "type": "uint16"
        },
        {
          "internalType": "uint256",
          "name": "_amount",
          "type": "uint256"
        },
        {
          "internalType": "uint256",
          "name": "_tokenId",
          "type": "uint256"
        },
        {
          "internalType": "address",
          "name": "_maxxNFT",
          "type": "address"
        }
      ],
      "name": "stake",
      "outputs": [],
      "stateMutability": "nonpayable",
      "type": "function"
    },
    {
      "inputs": [
        {
          "internalType": "uint16",
          "name": "_numDays",
          "type": "uint16"
        },
        {
          "internalType": "uint256",
          "name": "_amount",
          "type": "uint256"
        }
      ],
      "name": "stake",
      "outputs": [],
      "stateMutability": "nonpayable",
      "type": "function"
    },
    {
      "inputs": [
        {
          "internalType": "uint256",
          "name": "",
          "type": "uint256"
        }
      ],
      "name": "stakes",
      "outputs": [
        {
          "internalType": "string",
          "name": "name",
          "type": "string"
        },
        {
          "internalType": "address",
          "name": "owner",
          "type": "address"
        },
        {
          "internalType": "uint256",
          "name": "amount",
          "type": "uint256"
        },
        {
          "internalType": "uint256",
          "name": "shares",
          "type": "uint256"
        },
        {
          "internalType": "uint256",
          "name": "duration",
          "type": "uint256"
        },
        {
          "internalType": "uint256",
          "name": "startDate",
          "type": "uint256"
        },
        {
          "internalType": "bool",
          "name": "withdrawn",
          "type": "bool"
        }
      ],
      "stateMutability": "view",
      "type": "function"
    },
    {
      "inputs": [
        {
          "internalType": "bytes4",
          "name": "interfaceId",
          "type": "bytes4"
        }
      ],
      "name": "supportsInterface",
      "outputs": [
        {
          "internalType": "bool",
          "name": "",
          "type": "bool"
        }
      ],
      "stateMutability": "view",
      "type": "function"
    },
    {
      "inputs": [],
      "name": "symbol",
      "outputs": [
        {
          "internalType": "string",
          "name": "",
          "type": "string"
        }
      ],
      "stateMutability": "view",
      "type": "function"
    },
    {
      "inputs": [
        {
          "internalType": "uint256",
          "name": "index",
          "type": "uint256"
        }
      ],
      "name": "tokenByIndex",
      "outputs": [
        {
          "internalType": "uint256",
          "name": "",
          "type": "uint256"
        }
      ],
      "stateMutability": "view",
      "type": "function"
    },
    {
      "inputs": [
        {
          "internalType": "address",
          "name": "owner",
          "type": "address"
        },
        {
          "internalType": "uint256",
          "name": "index",
          "type": "uint256"
        }
      ],
      "name": "tokenOfOwnerByIndex",
      "outputs": [
        {
          "internalType": "uint256",
          "name": "",
          "type": "uint256"
        }
      ],
      "stateMutability": "view",
      "type": "function"
    },
    {
      "inputs": [
        {
          "internalType": "uint256",
          "name": "",
          "type": "uint256"
        }
      ],
      "name": "tokenURI",
      "outputs": [
        {
          "internalType": "string",
          "name": "",
          "type": "string"
        }
      ],
      "stateMutability": "view",
      "type": "function"
    },
    {
      "inputs": [],
      "name": "totalShares",
      "outputs": [
        {
          "internalType": "uint256",
          "name": "",
          "type": "uint256"
        }
      ],
      "stateMutability": "view",
      "type": "function"
    },
    {
      "inputs": [],
      "name": "totalStakesActive",
      "outputs": [
        {
          "internalType": "uint256",
          "name": "_value",
          "type": "uint256"
        }
      ],
      "stateMutability": "view",
      "type": "function"
    },
    {
      "inputs": [],
      "name": "totalStakesAlltime",
      "outputs": [
        {
          "internalType": "uint256",
          "name": "_value",
          "type": "uint256"
        }
      ],
      "stateMutability": "view",
      "type": "function"
    },
    {
      "inputs": [],
      "name": "totalStakesWithdrawn",
      "outputs": [
        {
          "internalType": "uint256",
          "name": "_value",
          "type": "uint256"
        }
      ],
      "stateMutability": "view",
      "type": "function"
    },
    {
      "inputs": [],
      "name": "totalSupply",
      "outputs": [
        {
          "internalType": "uint256",
          "name": "",
          "type": "uint256"
        }
      ],
      "stateMutability": "view",
      "type": "function"
    },
    {
      "inputs": [
        {
          "internalType": "address",
          "name": "_to",
          "type": "address"
        },
        {
          "internalType": "uint256",
          "name": "_stakeId",
          "type": "uint256"
        }
      ],
      "name": "transfer",
      "outputs": [],
      "stateMutability": "nonpayable",
      "type": "function"
    },
    {
      "inputs": [
        {
          "internalType": "address",
          "name": "from",
          "type": "address"
        },
        {
          "internalType": "address",
          "name": "to",
          "type": "address"
        },
        {
          "internalType": "uint256",
          "name": "tokenId",
          "type": "uint256"
        }
      ],
      "name": "transferFrom",
      "outputs": [],
      "stateMutability": "nonpayable",
      "type": "function"
    },
    {
      "inputs": [
        {
          "internalType": "address",
          "name": "newOwner",
          "type": "address"
        }
      ],
      "name": "transferOwnership",
      "outputs": [],
      "stateMutability": "nonpayable",
      "type": "function"
    },
    {
      "inputs": [
        {
          "internalType": "uint256",
          "name": "_stakeId",
          "type": "uint256"
        }
      ],
      "name": "unstake",
      "outputs": [],
      "stateMutability": "nonpayable",
      "type": "function"
    }
  ],
  "bytecode": "0x60806040523480156200001157600080fd5b506040516200488b3803806200488b833981016040819052620000349162000291565b604051806040016040528060098152602001684d6178785374616b6560b81b815250604051806040016040528060058152602001640a69a82b0b60db1b815250816000908162000085919062000377565b50600162000094828262000377565b505050620000b1620000ab6200021560201b60201c565b62000219565b600a805460ff60a01b191690556001600b5560108054610100600160a81b0319166101006001600160a01b038681169190910291909117909155601380546001600160a01b031916918416919091179055600f8190556200011f60156200026b602090811b6200270e17901c565b6040805161010081018252600060e08201818152825260208201819052918101829052606081018290526080810182905260a0810182905260c08101829052601980546001810182559252805190916007027f944998273e477b495144fb8794c914197f3ccb46be2900f4698fd0ef743c969501908190620001a2908262000377565b5060208201516001820180546001600160a01b0319166001600160a01b0390921691909117905560408201516002820155606082015160038201556080820151600482015560a0820151600582015560c0909101516006909101805460ff19169115159190911790555062000443915050565b3390565b600a80546001600160a01b038381166001600160a01b0319831681179093556040519116919082907f8be0079c531659141344cd1fd0a4f28419497f9722a3daafe3b4186f6b6457e090600090a35050565b80546001019055565b80516001600160a01b03811681146200028c57600080fd5b919050565b600080600060608486031215620002a757600080fd5b620002b28462000274565b9250620002c26020850162000274565b9150604084015190509250925092565b634e487b7160e01b600052604160045260246000fd5b600181811c90821680620002fd57607f821691505b6020821081036200031e57634e487b7160e01b600052602260045260246000fd5b50919050565b601f8211156200037257600081815260208120601f850160051c810160208610156200034d5750805b601f850160051c820191505b818110156200036e5782815560010162000359565b5050505b505050565b81516001600160401b03811115620003935762000393620002d2565b620003ab81620003a48454620002e8565b8462000324565b602080601f831160018114620003e35760008415620003ca5750858301515b600019600386901b1c1916600185901b1785556200036e565b600085815260208120601f198616915b828110156200041457888601518255948401946001909101908401620003f3565b5085821015620004335787850151600019600388901b60f8161c191681555b5050505050600190811b01905550565b61443880620004536000396000f3fe608060405234801561001057600080fd5b50600436106103d05760003560e01c80636e8cc7f1116101ff578063a9059cbb1161011a578063d6d20fa2116100ad578063eb08ab281161007c578063eb08ab2814610828578063f2fde38b14610832578063f8eeed6214610845578063fd1c24ed1461084e57600080fd5b8063d6d20fa2146107dd578063dee18dbf146107f0578063e88d3b3e14610802578063e985e9c51461081557600080fd5b8063b9cc9dd1116100e9578063b9cc9dd114610788578063c741eae91461079b578063c87b56dd146107a4578063d5a44f86146107b757600080fd5b8063a9059cbb1461073c578063b22342051461074f578063b88d4fde14610762578063b8e7023d1461077557600080fd5b80638c3c51d81161019257806395d89b411161016157806395d89b4114610706578063980b3f871461070e5780639812dce214610721578063a22cb4651461072957600080fd5b80638c3c51d8146106b85780638da5cb5b146106cb578063932b37e0146106dc578063933abacd146106fc57600080fd5b8063794ba29e116101ce578063794ba29e14610662578063863ed73d1461068a578063871793de1461069d5780638afccdf8146106b057600080fd5b80636e8cc7f11461063257806370a082311461063a578063715018a61461064d57806372430bec1461065557600080fd5b80633a98ef39116102ef5780634f6ccce7116102825780635c975abb116102515780635c975abb146105e057806362f7e51d146105f2578063631537d1146106155780636352211e1461061f57600080fd5b80634f6ccce71461059d57806354d37db2146105b057806355f804b3146105ba57806357fb3d5c146105cd57600080fd5b80633d3875e9116102be5780633d3875e9146105445780634185282e1461056457806342842e0e146105775780634506a3931461058a57600080fd5b80633a98ef39146105075780633c3d5adb146105105780633c611e051461051c5780633c64dab31461053157600080fd5b80631e3219fc116103675780632e17de78116103365780632e17de78146104c55780632f1efc9b146104d85780632f745c59146104eb5780633992fba5146104fe57600080fd5b80631e3219fc1461048e5780632051043e146104a157806323b872dd146104a957806326986d3f146104bc57600080fd5b8063095ea7b3116103a3578063095ea7b3146104545780631658516f1461046957806318160ddd1461047c57806319597bbc1461048457600080fd5b806301ffc9a7146103d557806302378932146103fd57806306fdde0314610414578063081812fc14610429575b600080fd5b6103e86103e3366004613a5f565b610866565b60405190151581526020015b60405180910390f35b61040661016d81565b6040519081526020016103f4565b61041c610877565b6040516103f49190613ac9565b61043c610437366004613adc565b610909565b6040516001600160a01b0390911681526020016103f4565b610467610462366004613b0a565b610930565b005b610467610477366004613b36565b610a4a565b600854610406565b6017546104069081565b61046761049c366004613adc565b610aa7565b610406610b13565b6104676104b7366004613b53565b610b36565b610406610d0581565b6104676104d3366004613adc565b610b67565b6104676104e6366004613b0a565b611183565b6104066104f9366004613b0a565b6111e3565b61040661045781565b61040660145481565b6104066402540be40081565b610524611279565b6040516103f49190613b94565b60135461043c906001600160a01b031681565b610406610552366004613b36565b600d6020526000908152604090205481565b610467610572366004613c5f565b6113ba565b610467610585366004613b53565b6115cd565b610467610598366004613b36565b6115e8565b6104066105ab366004613adc565b61163e565b610406620186a081565b6104676105c8366004613d66565b6116d1565b6104676105db366004613adc565b611715565b600a54600160a01b900460ff166103e8565b6103e8610600366004613b36565b600c6020526000908152604090205460ff1681565b6018546104069081565b61043c61062d366004613adc565b611a50565b610406600e81565b610406610648366004613b36565b611ab0565b610467611b36565b6010546103e89060ff1681565b610675610670366004613d9b565b611b4a565b604080519283526020830191909152016103f4565b610467610698366004613dd9565b611bc3565b6104676106ab366004613b36565b611be3565b610467611c3c565b6105246106c6366004613df5565b611d95565b600a546001600160a01b031661043c565b6104066106ea366004613adc565b600e6020526000908152604090205481565b6016546104069081565b61041c611efa565b61067561071c366004613d9b565b611f09565b610406600781565b610467610737366004613e25565b611f43565b61046761074a366004613b0a565b611f4e565b60125461043c906001600160a01b031681565b610467610770366004613e5e565b611f8f565b610467610783366004613df5565b611fc1565b610467610796366004613b36565b61245c565b61040661470981565b61041c6107b2366004613adc565b6124b8565b6107ca6107c5366004613adc565b6124c2565b6040516103f49796959493929190613ede565b6104676107eb366004613f2d565b6125ac565b6104066a01a784379d99db4200000081565b60115461043c906001600160a01b031681565b6103e8610823366004613f74565b612667565b6015546104069081565b610467610840366004613b36565b612695565b610406600f5481565b60105461043c9061010090046001600160a01b031681565b600061087182612717565b92915050565b60606000805461088690613fa2565b80601f01602080910402602001604051908101604052809291908181526020018280546108b290613fa2565b80156108ff5780601f106108d4576101008083540402835291602001916108ff565b820191906000526020600020905b8154815290600101906020018083116108e257829003601f168201915b5050505050905090565b60006109148261273c565b506000908152600460205260409020546001600160a01b031690565b600061093b82611a50565b9050806001600160a01b0316836001600160a01b0316036109ad5760405162461bcd60e51b815260206004820152602160248201527f4552433732313a20617070726f76616c20746f2063757272656e74206f776e656044820152603960f91b60648201526084015b60405180910390fd5b336001600160a01b03821614806109c957506109c98133612667565b610a3b5760405162461bcd60e51b815260206004820152603e60248201527f4552433732313a20617070726f76652063616c6c6572206973206e6f7420746f60448201527f6b656e206f776e6572206e6f7220617070726f76656420666f7220616c6c000060648201526084016109a4565b610a45838361279b565b505050565b610a52612809565b601180546001600160a01b0319166001600160a01b0383169081179091556040519081527f7cd85068c6889ed3a9315f01daa39e442f4b20d74adfd2c676f19dcc4e25b449906020015b60405180910390a150565b610aaf612809565b600f5442101580610ac05750804210155b15610ade5760405163fcdcc8fd60e01b815260040160405180910390fd5b600f8190556040518181527f6e23cc4d033baf0ba37878efdabaf083a78deb3277b4ddc2294e20c1bb50227890602001610a9c565b600062015180600f5442610b279190613ff2565b610b319190614005565b905090565b610b403382612863565b610b5c5760405162461bcd60e51b81526004016109a490614027565b610a458383836128c2565b600060198281548110610b7c57610b7c614075565b90600052602060002090600702016040518060e0016040529081600082018054610ba590613fa2565b80601f0160208091040260200160405190810160405280929190818152602001828054610bd190613fa2565b8015610c1e5780601f10610bf357610100808354040283529160200191610c1e565b820191906000526020600020905b815481529060010190602001808311610c0157829003601f168201915b505050918352505060018201546001600160a01b03166020820152600282015460408201526003820154606082015260048201546080820152600582015460a082015260069091015460ff16151560c0909101529050610c7e3383612863565b610c9b5760405163ea8e4eb560e01b815260040160405180910390fd5b8060c0015115610cbe5760405163190507cd60e21b815260040160405180910390fd5b600160198381548110610cd357610cd3614075565b60009182526020909120600790910201600601805460ff1916911515919091179055601880546001019055610d086017612a69565b610d1182612ac0565b6000806000620151808460a0015142610d2a9190613ff2565b610d349190614005565b90506000610d4b8560600151838760800151612b67565b90506000818660400151610d5f919061408b565b9050620151808660800151610d749190614005565b831015610dba57620151808660800151610d8e9190614005565b83838860400151610d9f919061408b565b610da9919061409e565b610db39190614005565b9450610e87565b600e620151808760800151610dcf9190614005565b610dd9919061408b565b831115610e74576000600e620151808860800151610df79190614005565b610e019086613ff2565b610e0b9190613ff2565b9050600061016d610e21836402540be40061409e565b610e2b9190614005565b90506402540be400610e4767ffffffffffffffff831682613ff2565b858a60400151610e57919061408b565b610e61919061409e565b610e6b9190614005565b96505050610e87565b818660400151610e84919061408b565b94505b610e918582613ff2565b6013546040516370a0823160e01b81523060048201529195506000916001600160a01b03909116906370a0823190602401602060405180830381865afa158015610edf573d6000803e3d6000fd5b505050506040513d601f19601f82011682018060405250810190610f0391906140b5565b905080821115610f88576013546001600160a01b03166340c10f1930610f298486613ff2565b6040516001600160e01b031960e085901b1681526001600160a01b0390921660048301526024820152604401600060405180830381600087803b158015610f6f57600080fd5b505af1158015610f83573d6000803e3d6000fd5b505050505b60135460405163a9059cbb60e01b8152336004820152602481018890526001600160a01b039091169063a9059cbb906044016020604051808303816000875af1158015610fd9573d6000803e3d6000fd5b505050506040513d601f19601f82011682018060405250810190610ffd91906140ce565b61101a576040516312171d8360e31b815260040160405180910390fd5b8415611142576013546010546001600160a01b039182169163a9059cbb91610100900416611049600289614005565b6040516001600160e01b031960e085901b1681526001600160a01b03909216600483015260248201526044016020604051808303816000875af1158015611094573d6000803e3d6000fd5b505050506040513d601f19601f820116820180604052508101906110b891906140ce565b6110d5576040516312171d8360e31b815260040160405180910390fd5b6013546001600160a01b03166342966c686110f1600288614005565b6040518263ffffffff1660e01b815260040161110f91815260200190565b600060405180830381600087803b15801561112957600080fd5b505af115801561113d573d6000803e3d6000fd5b505050505b604051868152339089907f15e1b1e6a67db05b5e4e898cc13f87b8485df622bfebf03d1508efa026a2e15c9060200160405180910390a35050505050505050565b61118b612809565b6001600160a01b0382166000818152600d6020908152604091829020849055815192835282018390527f7cc50acc58c8287583807ce34cbd5efe1822e7e281c43ac0b370327668b6b738910160405180910390a15050565b60006111ee83611ab0565b82106112505760405162461bcd60e51b815260206004820152602b60248201527f455243373231456e756d657261626c653a206f776e657220696e646578206f7560448201526a74206f6620626f756e647360a81b60648201526084016109a4565b506001600160a01b03919091166000908152600660209081526040808320938352929052205490565b60606019805480602002602001604051908101604052809291908181526020016000905b828210156113b157838290600052602060002090600702016040518060e00160405290816000820180546112d090613fa2565b80601f01602080910402602001604051908101604052809291908181526020018280546112fc90613fa2565b80156113495780601f1061131e57610100808354040283529160200191611349565b820191906000526020600020905b81548152906001019060200180831161132c57829003601f168201915b50505091835250506001828101546001600160a01b0316602080840191909152600284015460408401526003840154606084015260048401546080840152600584015460a084015260069093015460ff16151560c0909201919091529183529201910161129d565b50505050905090565b6001600160a01b0381166000908152600c602052604090205460ff166113f35760405163eb9e83e160e01b815260040160405180910390fd5b6040516331a9108f60e11b8152600481018390526001600160a01b03821690636352211e90602401602060405180830381865afa158015611438573d6000803e3d6000fd5b505050506040513d601f19601f8201168201806040525081019061145c91906140eb565b6001600160a01b0316336001600160a01b03161461148d57604051633a6bbed360e01b815260040160405180910390fd5b60405163754cf80960e01b8152600481018390526001600160a01b0382169063754cf80990602401602060405180830381865afa1580156114d2573d6000803e3d6000fd5b505050506040513d601f19601f820116820180604052508101906114f691906140ce565b1561151457604051630e635e7560e21b815260040160405180910390fd5b604051632150c05b60e21b8152600481018390526001600160a01b03821690638543016c90602401600060405180830381600087803b15801561155657600080fd5b505af115801561156a573d6000803e3d6000fd5b50505050600061157a8585612c19565b6001600160a01b0383166000908152600d60205260409020549091506064906115a3908361409e565b6115ad9190614005565b6115b7908261408b565b90506115c533868684612e46565b505050505050565b610a4583838360405180602001604052806000815250611f8f565b6115f0612809565b601280546001600160a01b0319166001600160a01b0383169081179091556040519081527fe1859e45f5fba8ccae8fb923300022b3ae6de178b6adb19ab1dce825ea81813090602001610a9c565b600061164960085490565b82106116ac5760405162461bcd60e51b815260206004820152602c60248201527f455243373231456e756d657261626c653a20676c6f62616c20696e646578206f60448201526b7574206f6620626f756e647360a01b60648201526084016109a4565b600882815481106116bf576116bf614075565b90600052602060002001549050919050565b6116d9612809565b601a6116e5828261414e565b507ff9c7803e94e0d3c02900d8a90893a6d5e90dd04d32a4cfe825520f82bf9f32f681604051610a9c9190613ac9565b60006019828154811061172a5761172a614075565b90600052602060002090600702016040518060e001604052908160008201805461175390613fa2565b80601f016020809104026020016040519081016040528092919081815260200182805461177f90613fa2565b80156117cc5780601f106117a1576101008083540402835291602001916117cc565b820191906000526020600020905b8154815290600101906020018083116117af57829003601f168201915b505050918352505060018201546001600160a01b03166020820152600282015460408201526003820154606082015260048201546080820152600582015460a082015260069091015460ff16151560c0909101529050600061182d83611a50565b905061183e610d056201518061409e565b82608001511061186157604051630ae8739560e31b815260040160405180910390fd5b336001600160a01b03821614801590611881575061187f8133612667565b155b1561189f5760405163ea8e4eb560e01b815260040160405180910390fd5b6000620151808360a00151426118b59190613ff2565b6118bf9190614005565b905060006118d68460600151838660800151612b67565b90506118e7610d056201518061409e565b608085018190526000906118ff906201518090614005565b90508460600151601460008282546119179190613ff2565b925050819055508185604001818151611930919061408b565b9052506040850151611943908290612c19565b606086018190524260a08701526014805460009061196290849061408b565b92505081905550846019878154811061197d5761197d614075565b60009182526020909120825160079092020190819061199c908261414e565b506020828101516001830180546001600160a01b0319166001600160a01b039092169190911790556040808401516002840155606084015160038401556080840151600484015560a0840151600584015560c0909301516006909201805460ff19169215159290921790915586820151825161ffff8516815291820152339188917f81c53486d1105763a6cb25c0ca6238bd80709051053540aaac87668ef8d22344910160405180910390a3505050505050565b6000818152600260205260408120546001600160a01b0316806108715760405162461bcd60e51b8152602060048201526018602482015277115490cdcc8c4e881a5b9d985b1a59081d1bdad95b88125160421b60448201526064016109a4565b60006001600160a01b038216611b1a5760405162461bcd60e51b815260206004820152602960248201527f4552433732313a2061646472657373207a65726f206973206e6f7420612076616044820152683634b21037bbb732b960b91b60648201526084016109a4565b506001600160a01b031660009081526003602052604090205490565b611b3e612809565b611b4860006132f3565b565b60125460009081906001600160a01b03163314611b7a5760405163ea8e4eb560e01b815260040160405180910390fd5b611b848484612c19565b905061016d8461ffff1610611bad57600a611ba082600b61409e565b611baa9190614005565b90505b611bb985858584612e46565b9150935093915050565b6000611bcf8383612c19565b9050611bdd33848484612e46565b50505050565b611beb612809565b6001600160a01b0381166000818152600c6020908152604091829020805460ff1916905590519182527f173d2f452d823e0dbf0d161f36a0935355316a4e721d58f98c040bbe47cf92369101610a9c565b611c44612809565b60105460ff1615611c6857604051630919ce2960e21b815260040160405180910390fd5b6010805460ff1916600117905560115460408051633b9f779560e01b815290516000926001600160a01b031691633b9f779591600480830192869291908290030181865afa158015611cbe573d6000803e3d6000fd5b505050506040513d6000823e601f3d908101601f19168201604052611ce6919081019061420e565b905060005b8151811015611d915760115482516001600160a01b039091169062c35ba6908390859082908110611d1e57611d1e614075565b60200260200101516040518363ffffffff1660e01b8152600401611d4c929190918252602082015260400190565b600060405180830381600087803b158015611d6657600080fd5b505af1158015611d7a573d6000803e3d6000fd5b505050508080611d89906142b4565b915050611ceb565b5050565b60606000835b611da5848661408b565b811015611ef25760198181548110611dbf57611dbf614075565b90600052602060002090600702016040518060e0016040529081600082018054611de890613fa2565b80601f0160208091040260200160405190810160405280929190818152602001828054611e1490613fa2565b8015611e615780601f10611e3657610100808354040283529160200191611e61565b820191906000526020600020905b815481529060010190602001808311611e4457829003601f168201915b505050918352505060018201546001600160a01b03166020820152600282015460408201526003820154606082015260048201546080820152600582015460a082015260069091015460ff16151560c0909101528351849084908110611ec957611ec9614075565b602002602001018190525081611ede906142b4565b915080611eea816142b4565b915050611d9b565b505092915050565b60606001805461088690613fa2565b60115460009081906001600160a01b03163314611f395760405163ea8e4eb560e01b815260040160405180910390fd5b611baa8484612c19565b611d91338383613345565b6000611f5982611a50565b9050336001600160a01b03821614611f845760405163ea8e4eb560e01b815260040160405180910390fd5b610a453384846128c2565b611f993383612863565b611fb55760405162461bcd60e51b81526004016109a490614027565b611bdd84848484613413565b6002600b54036120135760405162461bcd60e51b815260206004820152601f60248201527f5265656e7472616e637947756172643a207265656e7472616e742063616c6c0060448201526064016109a4565b6002600b8190555060006019838154811061203057612030614075565b90600052602060002090600702016040518060e001604052908160008201805461205990613fa2565b80601f016020809104026020016040519081016040528092919081815260200182805461208590613fa2565b80156120d25780601f106120a7576101008083540402835291602001916120d2565b820191906000526020600020905b8154815290600101906020018083116120b557829003601f168201915b505050918352505060018201546001600160a01b03166020820152600282015460408201526003820154606082015260048201546080820152600582015460a082015260069091015460ff16151560c09091015290506121323384612863565b61214f5760405163ea8e4eb560e01b815260040160405180910390fd5b600081608001518260a00151612165919061408b565b90508042101561218857604051633651f00b60e11b815260040160405180910390fd5b6013546040516370a0823160e01b81523360048201526001600160a01b03909116906370a0823190602401602060405180830381865afa1580156121d0573d6000803e3d6000fd5b505050506040513d601f19601f820116820180604052508101906121f491906140b5565b8311156122145760405163fcab977160e01b815260040160405180910390fd5b6000620151808360a001514261222a9190613ff2565b6122349190614005565b9050600061224b8460600151838660800151612b67565b9050612257818661408b565b84604001818151612268919061408b565b9052504260a08501526080840151600090612287906201518090614005565b905084606001516014600082825461229f9190613ff2565b925050819055506122b4818660400151612c19565b606086018190524260a0870152601480546000906122d390849061408b565b9250508190555084601988815481106122ee576122ee614075565b60009182526020909120825160079092020190819061230d908261414e565b5060208201516001820180546001600160a01b0319166001600160a01b03928316179055604080840151600284015560608401516003840155608084015160048085019190915560a0850151600585015560c0909401516006909301805460ff19169315159390931790925560135491516323b872dd60e01b815233938101939093523060248401526044830189905216906323b872dd906064016020604051808303816000875af11580156123c7573d6000803e3d6000fd5b505050506040513d601f19601f820116820180604052508101906123eb91906140ce565b612408576040516312171d8360e31b815260040160405180910390fd5b604080860151815161ffff841681526020810191909152339189917f81c53486d1105763a6cb25c0ca6238bd80709051053540aaac87668ef8d22344910160405180910390a350506001600b555050505050565b612464612809565b6001600160a01b0381166000818152600c6020908152604091829020805460ff1916600117905590519182527ff4ba6a323cf8bea8975fe249b5064dd45949b11c8e5498d0f1e46372c14a93d29101610a9c565b6060610871613446565b601981815481106124d257600080fd5b90600052602060002090600702016000915090508060000180546124f590613fa2565b80601f016020809104026020016040519081016040528092919081815260200182805461252190613fa2565b801561256e5780601f106125435761010080835404028352916020019161256e565b820191906000526020600020905b81548152906001019060200180831161255157829003601f168201915b5050506001840154600285015460038601546004870154600588015460069098015496976001600160a01b0390941696929550909350919060ff1687565b60006125b783611a50565b9050336001600160a01b038216148015906125d957506125d78133612667565b155b156125f75760405163ea8e4eb560e01b815260040160405180910390fd5b816019848154811061260b5761260b614075565b90600052602060002090600702016000019081612628919061414e565b507f36bfb15ecf538ab5f9f0e01df1406b613c66fe6676ba6abe36f01085cd780f8e838360405161265a9291906142cd565b60405180910390a1505050565b6001600160a01b03918216600090815260056020908152604080832093909416825291909152205460ff1690565b61269d612809565b6001600160a01b0381166127025760405162461bcd60e51b815260206004820152602660248201527f4f776e61626c653a206e6577206f776e657220697320746865207a65726f206160448201526564647265737360d01b60648201526084016109a4565b61270b816132f3565b50565b80546001019055565b60006001600160e01b0319821663780e9d6360e01b1480610871575061087182613455565b6000818152600260205260409020546001600160a01b031661270b5760405162461bcd60e51b8152602060048201526018602482015277115490cdcc8c4e881a5b9d985b1a59081d1bdad95b88125160421b60448201526064016109a4565b600081815260046020526040902080546001600160a01b0319166001600160a01b03841690811790915581906127d082611a50565b6001600160a01b03167f8c5be1e5ebec7d5bd14f71427d1e84f3dd0314c0f7b2291e5b200ac8c7c3b92560405160405180910390a45050565b600a546001600160a01b03163314611b485760405162461bcd60e51b815260206004820181905260248201527f4f776e61626c653a2063616c6c6572206973206e6f7420746865206f776e657260448201526064016109a4565b60008061286f83611a50565b9050806001600160a01b0316846001600160a01b0316148061289657506128968185612667565b806128ba5750836001600160a01b03166128af84610909565b6001600160a01b0316145b949350505050565b826001600160a01b03166128d582611a50565b6001600160a01b0316146129395760405162461bcd60e51b815260206004820152602560248201527f4552433732313a207472616e736665722066726f6d20696e636f72726563742060448201526437bbb732b960d91b60648201526084016109a4565b6001600160a01b03821661299b5760405162461bcd60e51b8152602060048201526024808201527f4552433732313a207472616e7366657220746f20746865207a65726f206164646044820152637265737360e01b60648201526084016109a4565b6129a68383836134a5565b6129b160008261279b565b6001600160a01b03831660009081526003602052604081208054600192906129da908490613ff2565b90915550506001600160a01b0382166000908152600360205260408120805460019290612a0890849061408b565b909155505060008181526002602052604080822080546001600160a01b0319166001600160a01b0386811691821790925591518493918716917fddf252ad1be2c89b69c2b068fc378daa952ba7f163c4a11628f55a4df523b3ef91a4505050565b805480612ab85760405162461bcd60e51b815260206004820152601b60248201527f436f756e7465723a2064656372656d656e74206f766572666c6f77000000000060448201526064016109a4565b600019019055565b6000612acb82611a50565b9050612ad9816000846134a5565b612ae460008361279b565b6001600160a01b0381166000908152600360205260408120805460019290612b0d908490613ff2565b909155505060008281526002602052604080822080546001600160a01b0319169055518391906001600160a01b038416907fddf252ad1be2c89b69c2b068fc378daa952ba7f163c4a11628f55a4df523b3ef908390a45050565b600080612b776201518084614005565b90506000620186a061016d83612b8f6147098a61409e565b612b99919061409e565b612ba39190614005565b612bad9190614005565b9050600061016d620186a08461470981612bc78c8c61409e565b612bd1919061409e565b612bdb919061409e565b612be59190614005565b612bef9190614005565b612bf99190614005565b905081811115612c0b57819350612c0f565b8093505b5050509392505050565b600080612c246134f9565b9050600081612c38633b9aca00600261409e565b612c429190613ff2565b612c50633b9aca008661409e565b612c5a9190614005565b9050612c9d6040518060400160405280600c81526020016b3130b9b4b1a9b430b932b99d60a11b815250670de0b6b3a764000083612c989190614005565b61354f565b6000612cb5600a6a01a784379d99db42000000614005565b612cbf9086614005565b9050612cec604051806040016040528060098152602001683138312137b73ab99d60b91b8152508261354f565b6064811115612cf9575060645b612d24604051806040016040528060098152602001683138312137b73ab99d60b91b8152508261354f565b60006103e8612d33838561409e565b612d3d9190614005565b9050612d796040518060400160405280600a81526020016931383129b430b932b99d60b11b815250670de0b6b3a764000083612c989190614005565b6000610457612d8960018a6142e6565b61ffff16612d97848761408b565b612da1919061409e565b612dab9190614005565b9050612de76040518060400160405280600a81526020016936383129b430b932b99d60b11b815250670de0b6b3a764000083612c989190614005565b80612df2838661408b565b612dfc919061408b565b9550612e3b6040518060400160405280600d81526020016c3a37ba30b61039b430b932b99d60991b815250670de0b6b3a764000088612c989190614005565b505050505092915050565b600060078461ffff161015612e6e57604051630ac39bb360e31b815260040160405180910390fd5b610d058461ffff161115612e955760405163773839e560e11b815260040160405180910390fd5b6013546040805163d539139360e01b815290516001600160a01b03909216916391d1485491839163d5391393916004808201926020929091908290030181865afa158015612ee7573d6000803e3d6000fd5b505050506040513d601f19601f82011682018060405250810190612f0b91906140b5565b6040516001600160e01b031960e084901b1681526004810191909152336024820152604401602060405180830381865afa158015612f4d573d6000803e3d6000fd5b505050506040513d601f19601f82011682018060405250810190612f7191906140ce565b8015612fe857506013546040516370a0823160e01b81526001600160a01b038781166004830152859216906370a0823190602401602060405180830381865afa158015612fc2573d6000803e3d6000fd5b505050506040513d601f19601f82011682018060405250810190612fe691906140b5565b145b8015612fff57506011546001600160a01b03163314155b801561301657506012546001600160a01b03163314155b15613080576013546040516340c10f1960e01b8152336004820152600160248201526001600160a01b03909116906340c10f1990604401600060405180830381600087803b15801561306757600080fd5b505af115801561307b573d6000803e3d6000fd5b505050505b6013546040516323b872dd60e01b8152336004820152306024820152604481018590526001600160a01b03909116906323b872dd906064016020604051808303816000875af11580156130d7573d6000803e3d6000fd5b505050506040513d601f19601f820116820180604052508101906130fb91906140ce565b613118576040516312171d8360e31b815260040160405180910390fd5b816014600082825461312a919061408b565b9091555050601680546001019055613146601780546001019055565b600061315961ffff86166201518061409e565b905061316460155490565b601954909250821461317857613178614308565b6040805161010081018252600060e0820181815282526001600160a01b038916602083015291810186905260608101859052608081018390524260a082015260c08101829052601980546001810182559252805190916007027f944998273e477b495144fb8794c914197f3ccb46be2900f4698fd0ef743c969501908190613200908261414e565b5060208201516001820180546001600160a01b0319166001600160a01b0390921691909117905560408201516002820155606082015160038201556080820151600482015560a0820151600582015560c0909101516006909101805460ff1916911515919091179055613273814261408b565b6000838152600e602052604090205561328c8683613594565b856001600160a01b031661329f60155490565b6040805161ffff89168152602081018890527f81c53486d1105763a6cb25c0ca6238bd80709051053540aaac87668ef8d22344910160405180910390a36132ea601580546001019055565b50949350505050565b600a80546001600160a01b038381166001600160a01b0319831681179093556040519116919082907f8be0079c531659141344cd1fd0a4f28419497f9722a3daafe3b4186f6b6457e090600090a35050565b816001600160a01b0316836001600160a01b0316036133a65760405162461bcd60e51b815260206004820152601960248201527f4552433732313a20617070726f766520746f2063616c6c65720000000000000060448201526064016109a4565b6001600160a01b03838116600081815260056020908152604080832094871680845294825291829020805460ff191686151590811790915591519182527f17307eab39ab6107e8899845ad3d59bd9653f200f220920489ca2b5937696c31910160405180910390a3505050565b61341e8484846128c2565b61342a848484846136e2565b611bdd5760405162461bcd60e51b81526004016109a49061431e565b6060601a805461088690613fa2565b60006001600160e01b031982166380ac58cd60e01b148061348657506001600160e01b03198216635b5e139f60e01b145b8061087157506301ffc9a760e01b6001600160e01b0319831614610871565b81601982815481106134b9576134b9614075565b906000526020600020906007020160010160006101000a8154816001600160a01b0302191690836001600160a01b03160217905550610a458383836137e0565b600080613504610b13565b9050610d05811061351757600091505090565b610d05633b9aca00613527610b13565b613531919061409e565b61353b9190614005565b61354990633b9aca00613ff2565b91505090565b611d918282604051602401613565929190614370565b60408051601f198184030181529190526020810180516001600160e01b03166309710a9d60e41b179052613898565b6001600160a01b0382166135ea5760405162461bcd60e51b815260206004820181905260248201527f4552433732313a206d696e7420746f20746865207a65726f206164647265737360448201526064016109a4565b6000818152600260205260409020546001600160a01b03161561364f5760405162461bcd60e51b815260206004820152601c60248201527f4552433732313a20746f6b656e20616c7265616479206d696e7465640000000060448201526064016109a4565b61365b600083836134a5565b6001600160a01b038216600090815260036020526040812080546001929061368490849061408b565b909155505060008181526002602052604080822080546001600160a01b0319166001600160a01b03861690811790915590518392907fddf252ad1be2c89b69c2b068fc378daa952ba7f163c4a11628f55a4df523b3ef908290a45050565b60006001600160a01b0384163b156137d857604051630a85bd0160e11b81526001600160a01b0385169063150b7a0290613726903390899088908890600401614392565b6020604051808303816000875af1925050508015613761575060408051601f3d908101601f1916820190925261375e918101906143cf565b60015b6137be573d80801561378f576040519150601f19603f3d011682016040523d82523d6000602084013e613794565b606091505b5080516000036137b65760405162461bcd60e51b81526004016109a49061431e565b805181602001fd5b6001600160e01b031916630a85bd0160e11b1490506128ba565b5060016128ba565b6001600160a01b03831661383b5761383681600880546000838152600960205260408120829055600182018355919091527ff3f7a9fe364faab93b216da50a3214154f22a0a2b415b23a84c8169e8b636ee30155565b61385e565b816001600160a01b0316836001600160a01b03161461385e5761385e83826138b9565b6001600160a01b03821661387557610a4581613956565b826001600160a01b0316826001600160a01b031614610a4557610a458282613a05565b80516a636f6e736f6c652e6c6f67602083016000808483855afa5050505050565b600060016138c684611ab0565b6138d09190613ff2565b600083815260076020526040902054909150808214613923576001600160a01b03841660009081526006602090815260408083208584528252808320548484528184208190558352600790915290208190555b5060009182526007602090815260408084208490556001600160a01b039094168352600681528383209183525290812055565b60085460009061396890600190613ff2565b6000838152600960205260408120546008805493945090928490811061399057613990614075565b9060005260206000200154905080600883815481106139b1576139b1614075565b60009182526020808320909101929092558281526009909152604080822084905585825281205560088054806139e9576139e96143ec565b6001900381819060005260206000200160009055905550505050565b6000613a1083611ab0565b6001600160a01b039093166000908152600660209081526040808320868452825280832085905593825260079052919091209190915550565b6001600160e01b03198116811461270b57600080fd5b600060208284031215613a7157600080fd5b8135613a7c81613a49565b9392505050565b6000815180845260005b81811015613aa957602081850181015186830182015201613a8d565b506000602082860101526020601f19601f83011685010191505092915050565b602081526000613a7c6020830184613a83565b600060208284031215613aee57600080fd5b5035919050565b6001600160a01b038116811461270b57600080fd5b60008060408385031215613b1d57600080fd5b8235613b2881613af5565b946020939093013593505050565b600060208284031215613b4857600080fd5b8135613a7c81613af5565b600080600060608486031215613b6857600080fd5b8335613b7381613af5565b92506020840135613b8381613af5565b929592945050506040919091013590565b60006020808301818452808551808352604092508286019150828160051b87010184880160005b83811015613c3a57603f19898403018552815160e08151818652613be182870182613a83565b838b01516001600160a01b0316878c0152898401518a880152606080850151908801526080808501519088015260a0848101519088015260c0938401511515939096019290925250509386019390860190600101613bbb565b509098975050505050505050565b803561ffff81168114613c5a57600080fd5b919050565b60008060008060808587031215613c7557600080fd5b613c7e85613c48565b935060208501359250604085013591506060850135613c9c81613af5565b939692955090935050565b634e487b7160e01b600052604160045260246000fd5b604051601f8201601f1916810167ffffffffffffffff81118282101715613ce657613ce6613ca7565b604052919050565b600067ffffffffffffffff831115613d0857613d08613ca7565b613d1b601f8401601f1916602001613cbd565b9050828152838383011115613d2f57600080fd5b828260208301376000602084830101529392505050565b600082601f830112613d5757600080fd5b613a7c83833560208501613cee565b600060208284031215613d7857600080fd5b813567ffffffffffffffff811115613d8f57600080fd5b6128ba84828501613d46565b600080600060608486031215613db057600080fd5b8335613dbb81613af5565b9250613dc960208501613c48565b9150604084013590509250925092565b60008060408385031215613dec57600080fd5b613b2883613c48565b60008060408385031215613e0857600080fd5b50508035926020909101359150565b801515811461270b57600080fd5b60008060408385031215613e3857600080fd5b8235613e4381613af5565b91506020830135613e5381613e17565b809150509250929050565b60008060008060808587031215613e7457600080fd5b8435613e7f81613af5565b93506020850135613e8f81613af5565b925060408501359150606085013567ffffffffffffffff811115613eb257600080fd5b8501601f81018713613ec357600080fd5b613ed287823560208401613cee565b91505092959194509250565b60e081526000613ef160e083018a613a83565b6001600160a01b039890981660208301525060408101959095526060850193909352608084019190915260a0830152151560c090910152919050565b60008060408385031215613f4057600080fd5b82359150602083013567ffffffffffffffff811115613f5e57600080fd5b613f6a85828601613d46565b9150509250929050565b60008060408385031215613f8757600080fd5b8235613f9281613af5565b91506020830135613e5381613af5565b600181811c90821680613fb657607f821691505b602082108103613fd657634e487b7160e01b600052602260045260246000fd5b50919050565b634e487b7160e01b600052601160045260246000fd5b8181038181111561087157610871613fdc565b60008261402257634e487b7160e01b600052601260045260246000fd5b500490565b6020808252602e908201527f4552433732313a2063616c6c6572206973206e6f7420746f6b656e206f776e6560408201526d1c881b9bdc88185c1c1c9bdd995960921b606082015260800190565b634e487b7160e01b600052603260045260246000fd5b8082018082111561087157610871613fdc565b808202811582820484141761087157610871613fdc565b6000602082840312156140c757600080fd5b5051919050565b6000602082840312156140e057600080fd5b8151613a7c81613e17565b6000602082840312156140fd57600080fd5b8151613a7c81613af5565b601f821115610a4557600081815260208120601f850160051c8101602086101561412f5750805b601f850160051c820191505b818110156115c55782815560010161413b565b815167ffffffffffffffff81111561416857614168613ca7565b61417c816141768454613fa2565b84614108565b602080601f8311600181146141b157600084156141995750858301515b600019600386901b1c1916600185901b1785556115c5565b600085815260208120601f198616915b828110156141e0578886015182559484019460019091019084016141c1565b50858210156141fe5787850151600019600388901b60f8161c191681555b5050505050600190811b01905550565b6000602080838503121561422157600080fd5b825167ffffffffffffffff8082111561423957600080fd5b818501915085601f83011261424d57600080fd5b81518181111561425f5761425f613ca7565b8060051b9150614270848301613cbd565b818152918301840191848101908884111561428a57600080fd5b938501935b838510156142a85784518252938501939085019061428f565b98975050505050505050565b6000600182016142c6576142c6613fdc565b5060010190565b8281526040602082015260006128ba6040830184613a83565b61ffff82811682821603908082111561430157614301613fdc565b5092915050565b634e487b7160e01b600052600160045260246000fd5b60208082526032908201527f4552433732313a207472616e7366657220746f206e6f6e20455243373231526560408201527131b2b4bb32b91034b6b83632b6b2b73a32b960711b606082015260800190565b6040815260006143836040830185613a83565b90508260208301529392505050565b6001600160a01b03858116825284166020820152604081018390526080606082018190526000906143c590830184613a83565b9695505050505050565b6000602082840312156143e157600080fd5b8151613a7c81613a49565b634e487b7160e01b600052603160045260246000fdfea26469706673582212207e017d15b3c412a170a608afd090c6675f70d26140aa68902f511b586e44545964736f6c63430008110033",
  "linkReferences": {},
  "deployedLinkReferences": {}
}