{
  "_format": "hh-sol-artifact-1",
  "contractName": "MaxxStake",
  "sourceName": "contracts/MaxxStake.sol",
  "abi": [
    {
      "inputs": [
        {
          "internalType": "address",
          "name": "_maxxVault",
          "type": "address"
        },
        {
          "internalType": "address",
          "name": "_maxx",
          "type": "address"
        },
        {
          "internalType": "uint256",
          "name": "_launchDate",
          "type": "uint256"
        }
      ],
      "stateMutability": "nonpayable",
      "type": "constructor"
    },
    {
      "inputs": [],
      "name": "AlreadyMaxDuration",
      "type": "error"
    },
    {
      "inputs": [],
      "name": "IncorrectOwner",
      "type": "error"
    },
    {
      "inputs": [],
      "name": "InsufficientMaxx",
      "type": "error"
    },
    {
      "inputs": [
        {
          "internalType": "address",
          "name": "_nft",
          "type": "address"
        }
      ],
      "name": "InterfaceNotSupported",
      "type": "error"
    },
    {
      "inputs": [],
      "name": "LaunchDatePassed",
      "type": "error"
    },
    {
      "inputs": [],
      "name": "NftNotAccepted",
      "type": "error"
    },
    {
      "inputs": [],
      "name": "NotAuthorized",
      "type": "error"
    },
    {
      "inputs": [],
      "name": "StakeAlreadyWithdrawn",
      "type": "error"
    },
    {
      "inputs": [],
      "name": "StakeNotComplete",
      "type": "error"
    },
    {
      "inputs": [],
      "name": "StakeTooLong",
      "type": "error"
    },
    {
      "inputs": [],
      "name": "StakeTooShort",
      "type": "error"
    },
    {
      "inputs": [],
      "name": "TransferFailed",
      "type": "error"
    },
    {
      "inputs": [],
      "name": "UsedNFT",
      "type": "error"
    },
    {
      "anonymous": false,
      "inputs": [
        {
          "indexed": false,
          "internalType": "address",
          "name": "_nft",
          "type": "address"
        }
      ],
      "name": "AcceptedNftAdded",
      "type": "event"
    },
    {
      "anonymous": false,
      "inputs": [
        {
          "indexed": false,
          "internalType": "address",
          "name": "_nft",
          "type": "address"
        }
      ],
      "name": "AcceptedNftRemoved",
      "type": "event"
    },
    {
      "anonymous": false,
      "inputs": [
        {
          "indexed": true,
          "internalType": "address",
          "name": "owner",
          "type": "address"
        },
        {
          "indexed": true,
          "internalType": "address",
          "name": "approved",
          "type": "address"
        },
        {
          "indexed": true,
          "internalType": "uint256",
          "name": "tokenId",
          "type": "uint256"
        }
      ],
      "name": "Approval",
      "type": "event"
    },
    {
      "anonymous": false,
      "inputs": [
        {
          "indexed": true,
          "internalType": "address",
          "name": "owner",
          "type": "address"
        },
        {
          "indexed": true,
          "internalType": "address",
          "name": "operator",
          "type": "address"
        },
        {
          "indexed": false,
          "internalType": "bool",
          "name": "approved",
          "type": "bool"
        }
      ],
      "name": "ApprovalForAll",
      "type": "event"
    },
    {
      "anonymous": false,
      "inputs": [
        {
          "indexed": false,
          "internalType": "string",
          "name": "_baseUri",
          "type": "string"
        }
      ],
      "name": "BaseURISet",
      "type": "event"
    },
    {
      "anonymous": false,
      "inputs": [
        {
          "indexed": false,
          "internalType": "address",
          "name": "_freeClaim",
          "type": "address"
        }
      ],
      "name": "FreeClaimSet",
      "type": "event"
    },
    {
      "anonymous": false,
      "inputs": [
        {
          "indexed": false,
          "internalType": "uint256",
          "name": "newLaunchDate",
          "type": "uint256"
        }
      ],
      "name": "LaunchDateUpdated",
      "type": "event"
    },
    {
      "anonymous": false,
      "inputs": [
        {
          "indexed": false,
          "internalType": "address",
          "name": "_liquidityAmplifier",
          "type": "address"
        }
      ],
      "name": "LiquidityAmplifierSet",
      "type": "event"
    },
    {
      "anonymous": false,
      "inputs": [
        {
          "indexed": false,
          "internalType": "address",
          "name": "_maxxBoost",
          "type": "address"
        }
      ],
      "name": "MaxxBoostSet",
      "type": "event"
    },
    {
      "anonymous": false,
      "inputs": [
        {
          "indexed": false,
          "internalType": "address",
          "name": "_maxxGenesis",
          "type": "address"
        }
      ],
      "name": "MaxxGenesisSet",
      "type": "event"
    },
    {
      "anonymous": false,
      "inputs": [
        {
          "indexed": false,
          "internalType": "uint8",
          "name": "_nftBonusPercentage",
          "type": "uint8"
        }
      ],
      "name": "NftBonusPercentageSet",
      "type": "event"
    },
    {
      "anonymous": false,
      "inputs": [
        {
          "indexed": false,
          "internalType": "address",
          "name": "_nft",
          "type": "address"
        },
        {
          "indexed": false,
          "internalType": "uint256",
          "name": "_bonus",
          "type": "uint256"
        }
      ],
      "name": "NftBonusSet",
      "type": "event"
    },
    {
      "anonymous": false,
      "inputs": [
        {
          "indexed": true,
          "internalType": "address",
          "name": "previousOwner",
          "type": "address"
        },
        {
          "indexed": true,
          "internalType": "address",
          "name": "newOwner",
          "type": "address"
        }
      ],
      "name": "OwnershipTransferred",
      "type": "event"
    },
    {
      "anonymous": false,
      "inputs": [
        {
          "indexed": false,
          "internalType": "address",
          "name": "account",
          "type": "address"
        }
      ],
      "name": "Paused",
      "type": "event"
    },
    {
      "anonymous": false,
      "inputs": [
        {
          "indexed": true,
          "internalType": "uint256",
          "name": "stakeId",
          "type": "uint256"
        },
        {
          "indexed": true,
          "internalType": "address",
          "name": "user",
          "type": "address"
        },
        {
          "indexed": false,
          "internalType": "uint16",
          "name": "numDays",
          "type": "uint16"
        },
        {
          "indexed": false,
          "internalType": "uint256",
          "name": "amount",
          "type": "uint256"
        }
      ],
      "name": "Stake",
      "type": "event"
    },
    {
      "anonymous": false,
      "inputs": [
        {
          "indexed": false,
          "internalType": "uint256",
          "name": "stakeId",
          "type": "uint256"
        },
        {
          "indexed": false,
          "internalType": "string",
          "name": "name",
          "type": "string"
        }
      ],
      "name": "StakeNameChange",
      "type": "event"
    },
    {
      "anonymous": false,
      "inputs": [
        {
          "indexed": true,
          "internalType": "address",
          "name": "from",
          "type": "address"
        },
        {
          "indexed": true,
          "internalType": "address",
          "name": "to",
          "type": "address"
        },
        {
          "indexed": true,
          "internalType": "uint256",
          "name": "tokenId",
          "type": "uint256"
        }
      ],
      "name": "Transfer",
      "type": "event"
    },
    {
      "anonymous": false,
      "inputs": [
        {
          "indexed": false,
          "internalType": "address",
          "name": "account",
          "type": "address"
        }
      ],
      "name": "Unpaused",
      "type": "event"
    },
    {
      "anonymous": false,
      "inputs": [
        {
          "indexed": true,
          "internalType": "uint256",
          "name": "stakeId",
          "type": "uint256"
        },
        {
          "indexed": true,
          "internalType": "address",
          "name": "user",
          "type": "address"
        },
        {
          "indexed": false,
          "internalType": "uint256",
          "name": "amount",
          "type": "uint256"
        }
      ],
      "name": "Unstake",
      "type": "event"
    },
    {
      "inputs": [],
      "name": "BASE_INFLATION",
      "outputs": [
        {
          "internalType": "uint256",
          "name": "",
          "type": "uint256"
        }
      ],
      "stateMutability": "view",
      "type": "function"
    },
    {
      "inputs": [],
      "name": "BASE_INFLATION_FACTOR",
      "outputs": [
        {
          "internalType": "uint256",
          "name": "",
          "type": "uint256"
        }
      ],
      "stateMutability": "view",
      "type": "function"
    },
    {
      "inputs": [],
      "name": "BPB_FACTOR",
      "outputs": [
        {
          "internalType": "uint256",
          "name": "",
          "type": "uint256"
        }
      ],
      "stateMutability": "view",
      "type": "function"
    },
    {
      "inputs": [],
      "name": "DAYS_IN_YEAR",
      "outputs": [
        {
          "internalType": "uint256",
          "name": "",
          "type": "uint256"
        }
      ],
      "stateMutability": "view",
      "type": "function"
    },
    {
      "inputs": [],
      "name": "LATE_DAYS",
      "outputs": [
        {
          "internalType": "uint256",
          "name": "",
          "type": "uint256"
        }
      ],
      "stateMutability": "view",
      "type": "function"
    },
    {
      "inputs": [],
      "name": "MAGIC_NUMBER",
      "outputs": [
        {
          "internalType": "uint256",
          "name": "",
          "type": "uint256"
        }
      ],
      "stateMutability": "view",
      "type": "function"
    },
    {
      "inputs": [],
      "name": "MAX_STAKE_DAYS",
      "outputs": [
        {
          "internalType": "uint256",
          "name": "",
          "type": "uint256"
        }
      ],
      "stateMutability": "view",
      "type": "function"
    },
    {
      "inputs": [],
      "name": "MIN_STAKE_DAYS",
      "outputs": [
        {
          "internalType": "uint256",
          "name": "",
          "type": "uint256"
        }
      ],
      "stateMutability": "view",
      "type": "function"
    },
    {
      "inputs": [],
      "name": "PERCENT_FACTOR",
      "outputs": [
        {
          "internalType": "uint256",
          "name": "",
          "type": "uint256"
        }
      ],
      "stateMutability": "view",
      "type": "function"
    },
    {
      "inputs": [
        {
          "internalType": "address",
          "name": "_nft",
          "type": "address"
        }
      ],
      "name": "addAcceptedNft",
      "outputs": [],
      "stateMutability": "nonpayable",
      "type": "function"
    },
    {
      "inputs": [
        {
          "internalType": "address",
          "name": "_owner",
          "type": "address"
        },
        {
          "internalType": "uint16",
          "name": "_numDays",
          "type": "uint16"
        },
        {
          "internalType": "uint256",
          "name": "_amount",
          "type": "uint256"
        }
      ],
      "name": "amplifierStake",
      "outputs": [
        {
          "internalType": "uint256",
          "name": "stakeId",
          "type": "uint256"
        },
        {
          "internalType": "uint256",
          "name": "shares",
          "type": "uint256"
        }
      ],
      "stateMutability": "nonpayable",
      "type": "function"
    },
    {
      "inputs": [
        {
          "internalType": "address",
          "name": "to",
          "type": "address"
        },
        {
          "internalType": "uint256",
          "name": "tokenId",
          "type": "uint256"
        }
      ],
      "name": "approve",
      "outputs": [],
      "stateMutability": "nonpayable",
      "type": "function"
    },
    {
      "inputs": [
        {
          "internalType": "address",
          "name": "owner",
          "type": "address"
        }
      ],
      "name": "balanceOf",
      "outputs": [
        {
          "internalType": "uint256",
          "name": "",
          "type": "uint256"
        }
      ],
      "stateMutability": "view",
      "type": "function"
    },
    {
      "inputs": [
        {
          "internalType": "uint256",
          "name": "_launchDate",
          "type": "uint256"
        }
      ],
      "name": "changeLaunchDate",
      "outputs": [],
      "stateMutability": "nonpayable",
      "type": "function"
    },
    {
      "inputs": [
        {
          "internalType": "uint256",
          "name": "_stakeId",
          "type": "uint256"
        },
        {
          "internalType": "string",
          "name": "_stakeName",
          "type": "string"
        }
      ],
      "name": "changeStakeName",
      "outputs": [],
      "stateMutability": "nonpayable",
      "type": "function"
    },
    {
      "inputs": [
        {
          "internalType": "uint256",
          "name": "",
          "type": "uint256"
        }
      ],
      "name": "endTimes",
      "outputs": [
        {
          "internalType": "uint256",
          "name": "",
          "type": "uint256"
        }
      ],
      "stateMutability": "view",
      "type": "function"
    },
    {
      "inputs": [],
      "name": "freeClaim",
      "outputs": [
        {
          "internalType": "address",
          "name": "",
          "type": "address"
        }
      ],
      "stateMutability": "view",
      "type": "function"
    },
    {
      "inputs": [
        {
          "internalType": "address",
          "name": "_owner",
          "type": "address"
        },
        {
          "internalType": "uint16",
          "name": "_numDays",
          "type": "uint16"
        },
        {
          "internalType": "uint256",
          "name": "_amount",
          "type": "uint256"
        }
      ],
      "name": "freeClaimStake",
      "outputs": [
        {
          "internalType": "uint256",
          "name": "stakeId",
          "type": "uint256"
        },
        {
          "internalType": "uint256",
          "name": "shares",
          "type": "uint256"
        }
      ],
      "stateMutability": "nonpayable",
      "type": "function"
    },
    {
      "inputs": [],
      "name": "getAllStakes",
      "outputs": [
        {
          "components": [
            {
              "internalType": "string",
              "name": "name",
              "type": "string"
            },
            {
              "internalType": "address",
              "name": "owner",
              "type": "address"
            },
            {
              "internalType": "uint256",
              "name": "amount",
              "type": "uint256"
            },
            {
              "internalType": "uint256",
              "name": "shares",
              "type": "uint256"
            },
            {
              "internalType": "uint256",
              "name": "duration",
              "type": "uint256"
            },
            {
              "internalType": "uint256",
              "name": "startDate",
              "type": "uint256"
            },
            {
              "internalType": "bool",
              "name": "withdrawn",
              "type": "bool"
            }
          ],
          "internalType": "struct MaxxStake.StakeData[]",
          "name": "",
          "type": "tuple[]"
        }
      ],
      "stateMutability": "view",
      "type": "function"
    },
    {
      "inputs": [
        {
          "internalType": "uint256",
          "name": "tokenId",
          "type": "uint256"
        }
      ],
      "name": "getApproved",
      "outputs": [
        {
          "internalType": "address",
          "name": "",
          "type": "address"
        }
      ],
      "stateMutability": "view",
      "type": "function"
    },
    {
      "inputs": [],
      "name": "getDaysSinceLaunch",
      "outputs": [
        {
          "internalType": "uint256",
          "name": "day",
          "type": "uint256"
        }
      ],
      "stateMutability": "view",
      "type": "function"
    },
    {
      "inputs": [
        {
          "internalType": "uint256",
          "name": "index",
          "type": "uint256"
        },
        {
          "internalType": "uint256",
          "name": "count",
          "type": "uint256"
        }
      ],
      "name": "getStakes",
      "outputs": [
        {
          "components": [
            {
              "internalType": "string",
              "name": "name",
              "type": "string"
            },
            {
              "internalType": "address",
              "name": "owner",
              "type": "address"
            },
            {
              "internalType": "uint256",
              "name": "amount",
              "type": "uint256"
            },
            {
              "internalType": "uint256",
              "name": "shares",
              "type": "uint256"
            },
            {
              "internalType": "uint256",
              "name": "duration",
              "type": "uint256"
            },
            {
              "internalType": "uint256",
              "name": "startDate",
              "type": "uint256"
            },
            {
              "internalType": "bool",
              "name": "withdrawn",
              "type": "bool"
            }
          ],
          "internalType": "struct MaxxStake.StakeData[]",
          "name": "result",
          "type": "tuple[]"
        }
      ],
      "stateMutability": "view",
      "type": "function"
    },
    {
      "inputs": [],
      "name": "idCounter",
      "outputs": [
        {
          "internalType": "uint256",
          "name": "_value",
          "type": "uint256"
        }
      ],
      "stateMutability": "view",
      "type": "function"
    },
    {
      "inputs": [
        {
          "internalType": "address",
          "name": "",
          "type": "address"
        }
      ],
      "name": "isAcceptedNft",
      "outputs": [
        {
          "internalType": "bool",
          "name": "",
          "type": "bool"
        }
      ],
      "stateMutability": "view",
      "type": "function"
    },
    {
      "inputs": [
        {
          "internalType": "address",
          "name": "owner",
          "type": "address"
        },
        {
          "internalType": "address",
          "name": "operator",
          "type": "address"
        }
      ],
      "name": "isApprovedForAll",
      "outputs": [
        {
          "internalType": "bool",
          "name": "",
          "type": "bool"
        }
      ],
      "stateMutability": "view",
      "type": "function"
    },
    {
      "inputs": [],
      "name": "launchDate",
      "outputs": [
        {
          "internalType": "uint256",
          "name": "",
          "type": "uint256"
        }
      ],
      "stateMutability": "view",
      "type": "function"
    },
    {
      "inputs": [],
      "name": "liquidityAmplifier",
      "outputs": [
        {
          "internalType": "address",
          "name": "",
          "type": "address"
        }
      ],
      "stateMutability": "view",
      "type": "function"
    },
    {
      "inputs": [
        {
          "internalType": "uint256",
          "name": "_stakeId",
          "type": "uint256"
        }
      ],
      "name": "maxShare",
      "outputs": [],
      "stateMutability": "nonpayable",
      "type": "function"
    },
    {
      "inputs": [],
      "name": "maxx",
      "outputs": [
        {
          "internalType": "contract IMaxxFinance",
          "name": "",
          "type": "address"
        }
      ],
      "stateMutability": "view",
      "type": "function"
    },
    {
      "inputs": [],
      "name": "maxxBoost",
      "outputs": [
        {
          "internalType": "contract IMAXXBoost",
          "name": "",
          "type": "address"
        }
      ],
      "stateMutability": "view",
      "type": "function"
    },
    {
      "inputs": [],
      "name": "maxxGenesis",
      "outputs": [
        {
          "internalType": "contract IMAXXBoost",
          "name": "",
          "type": "address"
        }
      ],
      "stateMutability": "view",
      "type": "function"
    },
    {
      "inputs": [],
      "name": "maxxVault",
      "outputs": [
        {
          "internalType": "address",
          "name": "",
          "type": "address"
        }
      ],
      "stateMutability": "view",
      "type": "function"
    },
    {
      "inputs": [],
      "name": "name",
      "outputs": [
        {
          "internalType": "string",
          "name": "",
          "type": "string"
        }
      ],
      "stateMutability": "view",
      "type": "function"
    },
    {
      "inputs": [
        {
          "internalType": "address",
          "name": "",
          "type": "address"
        }
      ],
      "name": "nftBonus",
      "outputs": [
        {
          "internalType": "uint256",
          "name": "",
          "type": "uint256"
        }
      ],
      "stateMutability": "view",
      "type": "function"
    },
    {
      "inputs": [],
      "name": "nftBonusPercentage",
      "outputs": [
        {
          "internalType": "uint8",
          "name": "",
          "type": "uint8"
        }
      ],
      "stateMutability": "view",
      "type": "function"
    },
    {
      "inputs": [],
      "name": "owner",
      "outputs": [
        {
          "internalType": "address",
          "name": "",
          "type": "address"
        }
      ],
      "stateMutability": "view",
      "type": "function"
    },
    {
      "inputs": [
        {
          "internalType": "uint256",
          "name": "tokenId",
          "type": "uint256"
        }
      ],
      "name": "ownerOf",
      "outputs": [
        {
          "internalType": "address",
          "name": "",
          "type": "address"
        }
      ],
      "stateMutability": "view",
      "type": "function"
    },
    {
      "inputs": [],
      "name": "paused",
      "outputs": [
        {
          "internalType": "bool",
          "name": "",
          "type": "bool"
        }
      ],
      "stateMutability": "view",
      "type": "function"
    },
    {
      "inputs": [
        {
          "internalType": "address",
          "name": "_nft",
          "type": "address"
        }
      ],
      "name": "removeAcceptedNft",
      "outputs": [],
      "stateMutability": "nonpayable",
      "type": "function"
    },
    {
      "inputs": [],
      "name": "renounceOwnership",
      "outputs": [],
      "stateMutability": "nonpayable",
      "type": "function"
    },
    {
      "inputs": [
        {
          "internalType": "uint256",
          "name": "_stakeId",
          "type": "uint256"
        },
        {
          "internalType": "uint256",
          "name": "_topUpAmount",
          "type": "uint256"
        }
      ],
      "name": "restake",
      "outputs": [],
      "stateMutability": "nonpayable",
      "type": "function"
    },
    {
      "inputs": [
        {
          "internalType": "address",
          "name": "from",
          "type": "address"
        },
        {
          "internalType": "address",
          "name": "to",
          "type": "address"
        },
        {
          "internalType": "uint256",
          "name": "tokenId",
          "type": "uint256"
        }
      ],
      "name": "safeTransferFrom",
      "outputs": [],
      "stateMutability": "nonpayable",
      "type": "function"
    },
    {
      "inputs": [
        {
          "internalType": "address",
          "name": "from",
          "type": "address"
        },
        {
          "internalType": "address",
          "name": "to",
          "type": "address"
        },
        {
          "internalType": "uint256",
          "name": "tokenId",
          "type": "uint256"
        },
        {
          "internalType": "bytes",
          "name": "data",
          "type": "bytes"
        }
      ],
      "name": "safeTransferFrom",
      "outputs": [],
      "stateMutability": "nonpayable",
      "type": "function"
    },
    {
      "inputs": [
        {
          "internalType": "address",
          "name": "operator",
          "type": "address"
        },
        {
          "internalType": "bool",
          "name": "approved",
          "type": "bool"
        }
      ],
      "name": "setApprovalForAll",
      "outputs": [],
      "stateMutability": "nonpayable",
      "type": "function"
    },
    {
      "inputs": [
        {
          "internalType": "string",
          "name": "baseURI_",
          "type": "string"
        }
      ],
      "name": "setBaseURI",
      "outputs": [],
      "stateMutability": "nonpayable",
      "type": "function"
    },
    {
      "inputs": [
        {
          "internalType": "address",
          "name": "_freeClaim",
          "type": "address"
        }
      ],
      "name": "setFreeClaim",
      "outputs": [],
      "stateMutability": "nonpayable",
      "type": "function"
    },
    {
      "inputs": [
        {
          "internalType": "address",
          "name": "_liquidityAmplifier",
          "type": "address"
        }
      ],
      "name": "setLiquidityAmplifier",
      "outputs": [],
      "stateMutability": "nonpayable",
      "type": "function"
    },
    {
      "inputs": [
        {
          "internalType": "address",
          "name": "_maxxBoost",
          "type": "address"
        }
      ],
      "name": "setMaxxBoost",
      "outputs": [],
      "stateMutability": "nonpayable",
      "type": "function"
    },
    {
      "inputs": [
        {
          "internalType": "address",
          "name": "_maxxGenesis",
          "type": "address"
        }
      ],
      "name": "setMaxxGenesis",
      "outputs": [],
      "stateMutability": "nonpayable",
      "type": "function"
    },
    {
      "inputs": [
        {
          "internalType": "address",
          "name": "_nft",
          "type": "address"
        },
        {
          "internalType": "uint256",
          "name": "_bonus",
          "type": "uint256"
        }
      ],
      "name": "setNftBonus",
      "outputs": [],
      "stateMutability": "nonpayable",
      "type": "function"
    },
    {
      "inputs": [
        {
          "internalType": "uint8",
          "name": "_nftBonusPercentage",
          "type": "uint8"
        }
      ],
      "name": "setNftBonusPercentage",
      "outputs": [],
      "stateMutability": "nonpayable",
      "type": "function"
    },
    {
      "inputs": [
        {
          "internalType": "uint16",
          "name": "_numDays",
          "type": "uint16"
        },
        {
          "internalType": "uint256",
          "name": "_amount",
          "type": "uint256"
        },
        {
          "internalType": "uint256",
          "name": "_tokenId",
          "type": "uint256"
        },
        {
          "internalType": "address",
          "name": "_maxxNFT",
          "type": "address"
        }
      ],
      "name": "stake",
      "outputs": [],
      "stateMutability": "nonpayable",
      "type": "function"
    },
    {
      "inputs": [
        {
          "internalType": "uint16",
          "name": "_numDays",
          "type": "uint16"
        },
        {
          "internalType": "uint256",
          "name": "_amount",
          "type": "uint256"
        }
      ],
      "name": "stake",
      "outputs": [],
      "stateMutability": "nonpayable",
      "type": "function"
    },
    {
      "inputs": [
        {
          "internalType": "uint256",
          "name": "",
          "type": "uint256"
        }
      ],
      "name": "stakes",
      "outputs": [
        {
          "internalType": "string",
          "name": "name",
          "type": "string"
        },
        {
          "internalType": "address",
          "name": "owner",
          "type": "address"
        },
        {
          "internalType": "uint256",
          "name": "amount",
          "type": "uint256"
        },
        {
          "internalType": "uint256",
          "name": "shares",
          "type": "uint256"
        },
        {
          "internalType": "uint256",
          "name": "duration",
          "type": "uint256"
        },
        {
          "internalType": "uint256",
          "name": "startDate",
          "type": "uint256"
        },
        {
          "internalType": "bool",
          "name": "withdrawn",
          "type": "bool"
        }
      ],
      "stateMutability": "view",
      "type": "function"
    },
    {
      "inputs": [
        {
          "internalType": "bytes4",
          "name": "interfaceId",
          "type": "bytes4"
        }
      ],
      "name": "supportsInterface",
      "outputs": [
        {
          "internalType": "bool",
          "name": "",
          "type": "bool"
        }
      ],
      "stateMutability": "view",
      "type": "function"
    },
    {
      "inputs": [],
      "name": "symbol",
      "outputs": [
        {
          "internalType": "string",
          "name": "",
          "type": "string"
        }
      ],
      "stateMutability": "view",
      "type": "function"
    },
    {
      "inputs": [
        {
          "internalType": "uint256",
          "name": "index",
          "type": "uint256"
        }
      ],
      "name": "tokenByIndex",
      "outputs": [
        {
          "internalType": "uint256",
          "name": "",
          "type": "uint256"
        }
      ],
      "stateMutability": "view",
      "type": "function"
    },
    {
      "inputs": [
        {
          "internalType": "address",
          "name": "owner",
          "type": "address"
        },
        {
          "internalType": "uint256",
          "name": "index",
          "type": "uint256"
        }
      ],
      "name": "tokenOfOwnerByIndex",
      "outputs": [
        {
          "internalType": "uint256",
          "name": "",
          "type": "uint256"
        }
      ],
      "stateMutability": "view",
      "type": "function"
    },
    {
      "inputs": [
        {
          "internalType": "uint256",
          "name": "",
          "type": "uint256"
        }
      ],
      "name": "tokenURI",
      "outputs": [
        {
          "internalType": "string",
          "name": "",
          "type": "string"
        }
      ],
      "stateMutability": "view",
      "type": "function"
    },
    {
      "inputs": [],
      "name": "totalShares",
      "outputs": [
        {
          "internalType": "uint256",
          "name": "",
          "type": "uint256"
        }
      ],
      "stateMutability": "view",
      "type": "function"
    },
    {
      "inputs": [],
      "name": "totalStakedOutstandingInterest",
      "outputs": [
        {
          "internalType": "uint256",
          "name": "",
          "type": "uint256"
        }
      ],
      "stateMutability": "view",
      "type": "function"
    },
    {
      "inputs": [],
      "name": "totalStakesActive",
      "outputs": [
        {
          "internalType": "uint256",
          "name": "_value",
          "type": "uint256"
        }
      ],
      "stateMutability": "view",
      "type": "function"
    },
    {
      "inputs": [],
      "name": "totalStakesAlltime",
      "outputs": [
        {
          "internalType": "uint256",
          "name": "_value",
          "type": "uint256"
        }
      ],
      "stateMutability": "view",
      "type": "function"
    },
    {
      "inputs": [],
      "name": "totalStakesMatured",
      "outputs": [
        {
          "internalType": "uint256",
          "name": "",
          "type": "uint256"
        }
      ],
      "stateMutability": "view",
      "type": "function"
    },
    {
      "inputs": [],
      "name": "totalStakesWithdrawn",
      "outputs": [
        {
          "internalType": "uint256",
          "name": "_value",
          "type": "uint256"
        }
      ],
      "stateMutability": "view",
      "type": "function"
    },
    {
      "inputs": [],
      "name": "totalSupply",
      "outputs": [
        {
          "internalType": "uint256",
          "name": "",
          "type": "uint256"
        }
      ],
      "stateMutability": "view",
      "type": "function"
    },
    {
      "inputs": [
        {
          "internalType": "address",
          "name": "_to",
          "type": "address"
        },
        {
          "internalType": "uint256",
          "name": "_stakeId",
          "type": "uint256"
        }
      ],
      "name": "transfer",
      "outputs": [],
      "stateMutability": "nonpayable",
      "type": "function"
    },
    {
      "inputs": [
        {
          "internalType": "address",
          "name": "from",
          "type": "address"
        },
        {
          "internalType": "address",
          "name": "to",
          "type": "address"
        },
        {
          "internalType": "uint256",
          "name": "tokenId",
          "type": "uint256"
        }
      ],
      "name": "transferFrom",
      "outputs": [],
      "stateMutability": "nonpayable",
      "type": "function"
    },
    {
      "inputs": [
        {
          "internalType": "address",
          "name": "newOwner",
          "type": "address"
        }
      ],
      "name": "transferOwnership",
      "outputs": [],
      "stateMutability": "nonpayable",
      "type": "function"
    },
    {
      "inputs": [
        {
          "internalType": "uint256",
          "name": "_stakeId",
          "type": "uint256"
        }
      ],
      "name": "unstake",
      "outputs": [],
      "stateMutability": "nonpayable",
      "type": "function"
    }
  ],
  "bytecode": "0x60806040523480156200001157600080fd5b50604051620046e1380380620046e1833981016040819052620000349162000284565b604051806040016040528060098152602001684d6178785374616b6560b81b815250604051806040016040528060058152602001640a69a82b0b60db1b81525081600090816200008591906200036a565b5060016200009482826200036a565b505050620000b1620000ab6200020860201b60201c565b6200020c565b600a805460ff60a01b191690556001600b55600f80546001600160a01b03199081166001600160a01b038681169190911790925560108054909116918416919091179055600e8190556200011260116200025e602090811b620028ce17901c565b6040805161010081018252600060e08201818152825260208201819052918101829052606081018290526080810182905260a0810182905260c08101829052601d80546001810182559252805190916007027f6d4407e7be21f808e6509aa9fa9143369579dd7d760fe20a2c09680fc146134f019081906200019590826200036a565b5060208201516001820180546001600160a01b0319166001600160a01b0390921691909117905560408201516002820155606082015160038201556080820151600482015560a0820151600582015560c0909101516006909101805460ff19169115159190911790555062000436915050565b3390565b600a80546001600160a01b038381166001600160a01b0319831681179093556040519116919082907f8be0079c531659141344cd1fd0a4f28419497f9722a3daafe3b4186f6b6457e090600090a35050565b80546001019055565b80516001600160a01b03811681146200027f57600080fd5b919050565b6000806000606084860312156200029a57600080fd5b620002a58462000267565b9250620002b56020850162000267565b9150604084015190509250925092565b634e487b7160e01b600052604160045260246000fd5b600181811c90821680620002f057607f821691505b6020821081036200031157634e487b7160e01b600052602260045260246000fd5b50919050565b601f8211156200036557600081815260208120601f850160051c81016020861015620003405750805b601f850160051c820191505b8181101562000361578281556001016200034c565b5050505b505050565b81516001600160401b03811115620003865762000386620002c5565b6200039e81620003978454620002db565b8462000317565b602080601f831160018114620003d65760008415620003bd5750858301515b600019600386901b1c1916600185901b17855562000361565b600085815260208120601f198616915b828110156200040757888601518255948401946001909101908401620003e6565b5085821015620004265787850151600019600388901b60f8161c191681555b5050505050600190811b01905550565b61429b80620004466000396000f3fe608060405234801561001057600080fd5b50600436106104125760003560e01c80636352211e11610220578063b223420511610130578063d6d20fa2116100b8578063eb08ab2811610087578063eb08ab28146108d9578063f2fde38b146108e3578063f8854932146108f6578063f8eeed62146108ff578063fd1c24ed1461090857600080fd5b8063d6d20fa214610896578063dee18dbf146108a9578063e88d3b3e146108b3578063e985e9c5146108c657600080fd5b8063c6c582c2116100ff578063c6c582c21461081d578063c741eae91461083c578063c87b56dd14610845578063d582fd1814610858578063d5a44f861461087057600080fd5b8063b2234205146107d1578063b88d4fde146107e4578063b8e7023d146107f7578063b9cc9dd11461080a57600080fd5b80638da5cb5b116101b3578063980b3f8711610182578063980b3f871461077d5780639812dce214610790578063a22cb46514610798578063a5708d3a146107ab578063a9059cbb146107be57600080fd5b80638da5cb5b1461073a578063932b37e01461074b578063933abacd1461076b57806395d89b411461077557600080fd5b8063794ba29e116101ef578063794ba29e146106d9578063863ed73d14610701578063871793de146107145780638c3c51d81461072757600080fd5b80636352211e146106a35780636e8cc7f1146106b657806370a08231146106be578063715018a6146106d157600080fd5b80633992fba5116103265780634506a393116102ae57806357fb3d5c1161027d57806357fb3d5c146106485780635c975abb1461065b5780635d35e5c81461066d57806362f7e51d14610676578063631537d11461069957600080fd5b80634506a393146106055780634f6ccce71461061857806354d37db21461062b57806355f804b31461063557600080fd5b80633c64dab3116102f55780633c64dab3146105995780633d3875e9146105ac578063415ca623146105cc5780634185282e146105df57806342842e0e146105f257600080fd5b80633992fba5146105665780633a98ef391461056f5780633c3d5adb146105785780633c611e051461058457600080fd5b806319597bbc116103a957806326986d3f1161037857806326986d3f146105115780632e17de781461051a5780632f1efc9b1461052d5780632f745c591461054057806332be640e1461055357600080fd5b806319597bbc146104d95780631e3219fc146104e35780632051043e146104f657806323b872dd146104fe57600080fd5b8063081812fc116103e5578063081812fc14610480578063095ea7b3146104ab5780631658516f146104be57806318160ddd146104d157600080fd5b806301e65ee21461041757806301ffc9a71461042c578063023789321461045457806306fdde031461046b575b600080fd5b61042a610425366004613979565b61091b565b005b61043f61043a3660046139b3565b610a1c565b60405190151581526020015b60405180910390f35b61045d61016d81565b60405190815260200161044b565b610473610a2d565b60405161044b9190613a16565b61049361048e366004613a29565b610abf565b6040516001600160a01b03909116815260200161044b565b61042a6104b9366004613a42565b610ae6565b61042a6104cc366004613979565b610bfb565b60085461045d565b60145461045d9081565b61042a6104f1366004613a29565b610c51565b61045d610cbd565b61042a61050c366004613a6e565b610cf5565b61045d610d0581565b61042a610528366004613a29565b610d26565b61042a61053b366004613a42565b611334565b61045d61054e366004613a42565b611394565b601954610493906001600160a01b031681565b61045d61045781565b61045d60125481565b61045d6402540be40081565b61058c61142a565b60405161044b9190613aaf565b601054610493906001600160a01b031681565b61045d6105ba366004613979565b600d6020526000908152604090205481565b61042a6105da366004613979565b61156b565b61042a6105ed366004613b7a565b611657565b61042a610600366004613a6e565b61186a565b61042a610613366004613979565b611885565b61045d610626366004613a29565b6118db565b61045d620186a081565b61042a610643366004613c6e565b61196e565b61042a610656366004613a29565b6119b2565b600a54600160a01b900460ff1661043f565b61045d60175481565b61043f610684366004613979565b600c6020526000908152604090205460ff1681565b60155461045d9081565b6104936106b1366004613a29565b611d04565b61045d600e81565b61045d6106cc366004613979565b611d64565b61042a611dea565b6106ec6106e7366004613ca3565b611dfe565b6040805192835260208301919091520161044b565b61042a61070f366004613ce1565b611e77565b61042a610722366004613979565b611e97565b61058c610735366004613cfd565b611ef0565b600a546001600160a01b0316610493565b61045d610759366004613a29565b601c6020526000908152604090205481565b60135461045d9081565b610473612055565b6106ec61078b366004613ca3565b612064565b61045d600781565b61042a6107a6366004613d2d565b61209e565b61042a6107b9366004613d66565b6120ad565b61042a6107cc366004613a42565b6120f7565b601b54610493906001600160a01b031681565b61042a6107f2366004613d89565b612138565b61042a610805366004613cfd565b61216a565b61042a610818366004613979565b61261c565b60185461082a9060ff1681565b60405160ff909116815260200161044b565b61045d61470981565b610473610853366004613a29565b612678565b6018546104939061010090046001600160a01b031681565b61088361087e366004613a29565b612682565b60405161044b9796959493929190613e09565b61042a6108a4366004613e58565b61276c565b61045d6298968081565b601a54610493906001600160a01b031681565b61043f6108d4366004613e9f565b612827565b60115461045d9081565b61042a6108f1366004613979565b612855565b61045d60165481565b61045d600e5481565b600f54610493906001600160a01b031681565b6109236128d7565b6040516301ffc9a760e01b81526380ac58cd60e01b60048201526001600160a01b038216906301ffc9a790602401602060405180830381865afa15801561096e573d6000803e3d6000fd5b505050506040513d601f19601f820116820180604052508101906109929190613ecd565b6109bf57604051631c1582ff60e21b81526001600160a01b03821660048201526024015b60405180910390fd5b60188054610100600160a81b0319166101006001600160a01b038416908102919091179091556040519081527fda7b2c39967b7af0708c1276dab615092588a35129bdd26c3eb323af948dfa9e906020015b60405180910390a150565b6000610a2782612931565b92915050565b606060008054610a3c90613eea565b80601f0160208091040260200160405190810160405280929190818152602001828054610a6890613eea565b8015610ab55780601f10610a8a57610100808354040283529160200191610ab5565b820191906000526020600020905b815481529060010190602001808311610a9857829003601f168201915b5050505050905090565b6000610aca82612956565b506000908152600460205260409020546001600160a01b031690565b6000610af182611d04565b9050806001600160a01b0316836001600160a01b031603610b5e5760405162461bcd60e51b815260206004820152602160248201527f4552433732313a20617070726f76616c20746f2063757272656e74206f776e656044820152603960f91b60648201526084016109b6565b336001600160a01b0382161480610b7a5750610b7a8133612827565b610bec5760405162461bcd60e51b815260206004820152603e60248201527f4552433732313a20617070726f76652063616c6c6572206973206e6f7420746f60448201527f6b656e206f776e6572206e6f7220617070726f76656420666f7220616c6c000060648201526084016109b6565b610bf683836129b5565b505050565b610c036128d7565b601a80546001600160a01b0319166001600160a01b0383169081179091556040519081527f7cd85068c6889ed3a9315f01daa39e442f4b20d74adfd2c676f19dcc4e25b44990602001610a11565b610c596128d7565b600e5442101580610c6a5750804210155b15610c885760405163fcdcc8fd60e01b815260040160405180910390fd5b600e8190556040518181527f6e23cc4d033baf0ba37878efdabaf083a78deb3277b4ddc2294e20c1bb50227890602001610a11565b60006018603c80600e5442610cd29190613f3a565b610cdc9190613f4d565b610ce69190613f4d565b610cf09190613f4d565b905090565b610cff3382612a23565b610d1b5760405162461bcd60e51b81526004016109b690613f6f565b610bf6838383612a82565b6000601d8281548110610d3b57610d3b613fbd565b90600052602060002090600702016040518060e0016040529081600082018054610d6490613eea565b80601f0160208091040260200160405190810160405280929190818152602001828054610d9090613eea565b8015610ddd5780601f10610db257610100808354040283529160200191610ddd565b820191906000526020600020905b815481529060010190602001808311610dc057829003601f168201915b505050918352505060018201546001600160a01b03166020820152600282015460408201526003820154606082015260048201546080820152600582015460a082015260069091015460ff16151560c0909101529050610e3d3383612a23565b610e5a5760405163ea8e4eb560e01b815260040160405180910390fd5b8060c0015115610e7d5760405163190507cd60e21b815260040160405180910390fd5b6001601d8381548110610e9257610e92613fbd565b60009182526020909120600790910201600601805460ff1916911515919091179055601580546001019055610ec76014612c29565b6000806000620151808460a0015142610ee09190613f3a565b610eea9190613f4d565b90506000610f018560600151838760800151612c80565b90506000818660400151610f159190613fd3565b9050620151808660800151610f2a9190613f4d565b831015610f7057620151808660800151610f449190613f4d565b83838860400151610f559190613fd3565b610f5f9190613fe6565b610f699190613f4d565b945061103d565b600e620151808760800151610f859190613f4d565b610f8f9190613fd3565b83111561102a576000600e620151808860800151610fad9190613f4d565b610fb79086613f3a565b610fc19190613f3a565b9050600061016d610fd7836402540be400613fe6565b610fe19190613f4d565b90506402540be400610ffd67ffffffffffffffff831682613f3a565b858a6040015161100d9190613fd3565b6110179190613fe6565b6110219190613f4d565b9650505061103d565b81866040015161103a9190613fd3565b94505b6110478582613f3a565b6010546040516370a0823160e01b81523060048201529195506000916001600160a01b03909116906370a0823190602401602060405180830381865afa158015611095573d6000803e3d6000fd5b505050506040513d601f19601f820116820180604052508101906110b99190613ffd565b90508082111561113e576010546001600160a01b03166340c10f19306110df8486613f3a565b6040516001600160e01b031960e085901b1681526001600160a01b0390921660048301526024820152604401600060405180830381600087803b15801561112557600080fd5b505af1158015611139573d6000803e3d6000fd5b505050505b60105460405163a9059cbb60e01b8152336004820152602481018890526001600160a01b039091169063a9059cbb906044016020604051808303816000875af115801561118f573d6000803e3d6000fd5b505050506040513d601f19601f820116820180604052508101906111b39190613ecd565b6111d0576040516312171d8360e31b815260040160405180910390fd5b84156112f357601054600f546001600160a01b039182169163a9059cbb91166111fa600289613f4d565b6040516001600160e01b031960e085901b1681526001600160a01b03909216600483015260248201526044016020604051808303816000875af1158015611245573d6000803e3d6000fd5b505050506040513d601f19601f820116820180604052508101906112699190613ecd565b611286576040516312171d8360e31b815260040160405180910390fd5b6010546001600160a01b03166342966c686112a2600288613f4d565b6040518263ffffffff1660e01b81526004016112c091815260200190565b600060405180830381600087803b1580156112da57600080fd5b505af11580156112ee573d6000803e3d6000fd5b505050505b604051868152339089907f15e1b1e6a67db05b5e4e898cc13f87b8485df622bfebf03d1508efa026a2e15c9060200160405180910390a35050505050505050565b61133c6128d7565b6001600160a01b0382166000818152600d6020908152604091829020849055815192835282018390527f7cc50acc58c8287583807ce34cbd5efe1822e7e281c43ac0b370327668b6b738910160405180910390a15050565b600061139f83611d64565b82106114015760405162461bcd60e51b815260206004820152602b60248201527f455243373231456e756d657261626c653a206f776e657220696e646578206f7560448201526a74206f6620626f756e647360a81b60648201526084016109b6565b506001600160a01b03919091166000908152600660209081526040808320938352929052205490565b6060601d805480602002602001604051908101604052809291908181526020016000905b8282101561156257838290600052602060002090600702016040518060e001604052908160008201805461148190613eea565b80601f01602080910402602001604051908101604052809291908181526020018280546114ad90613eea565b80156114fa5780601f106114cf576101008083540402835291602001916114fa565b820191906000526020600020905b8154815290600101906020018083116114dd57829003601f168201915b50505091835250506001828101546001600160a01b0316602080840191909152600284015460408401526003840154606084015260048401546080840152600584015460a084015260069093015460ff16151560c0909201919091529183529201910161144e565b50505050905090565b6115736128d7565b6040516301ffc9a760e01b81526380ac58cd60e01b60048201526001600160a01b038216906301ffc9a790602401602060405180830381865afa1580156115be573d6000803e3d6000fd5b505050506040513d601f19601f820116820180604052508101906115e29190613ecd565b61160a57604051631c1582ff60e21b81526001600160a01b03821660048201526024016109b6565b601980546001600160a01b0319166001600160a01b0383169081179091556040519081527eebdec603d8ad7b88305e6b900a209f18b4ee84fa8412be678db1cbd4a5bac890602001610a11565b6001600160a01b0381166000908152600c602052604090205460ff166116905760405163eb9e83e160e01b815260040160405180910390fd5b6040516331a9108f60e11b8152600481018390526001600160a01b03821690636352211e90602401602060405180830381865afa1580156116d5573d6000803e3d6000fd5b505050506040513d601f19601f820116820180604052508101906116f99190614016565b6001600160a01b0316336001600160a01b03161461172a57604051633a6bbed360e01b815260040160405180910390fd5b60405163754cf80960e01b8152600481018390526001600160a01b0382169063754cf80990602401602060405180830381865afa15801561176f573d6000803e3d6000fd5b505050506040513d601f19601f820116820180604052508101906117939190613ecd565b156117b157604051630e635e7560e21b815260040160405180910390fd5b604051632150c05b60e21b8152600481018390526001600160a01b03821690638543016c90602401600060405180830381600087803b1580156117f357600080fd5b505af1158015611807573d6000803e3d6000fd5b5050505060006118178585612d32565b6001600160a01b0383166000908152600d60205260409020549091506064906118409083613f4d565b61184a9190613f4d565b6118549082613fd3565b905061186233868684612de5565b505050505050565b610bf683838360405180602001604052806000815250612138565b61188d6128d7565b601b80546001600160a01b0319166001600160a01b0383169081179091556040519081527fe1859e45f5fba8ccae8fb923300022b3ae6de178b6adb19ab1dce825ea81813090602001610a11565b60006118e660085490565b82106119495760405162461bcd60e51b815260206004820152602c60248201527f455243373231456e756d657261626c653a20676c6f62616c20696e646578206f60448201526b7574206f6620626f756e647360a01b60648201526084016109b6565b6008828154811061195c5761195c613fbd565b90600052602060002001549050919050565b6119766128d7565b601e6119828282614079565b507ff9c7803e94e0d3c02900d8a90893a6d5e90dd04d32a4cfe825520f82bf9f32f681604051610a119190613a16565b6000601d82815481106119c7576119c7613fbd565b90600052602060002090600702016040518060e00160405290816000820180546119f090613eea565b80601f0160208091040260200160405190810160405280929190818152602001828054611a1c90613eea565b8015611a695780601f10611a3e57610100808354040283529160200191611a69565b820191906000526020600020905b815481529060010190602001808311611a4c57829003601f168201915b505050918352505060018201546001600160a01b03166020820152600282015460408201526003820154606082015260048201546080820152600582015460a082015260069091015460ff16151560c09091015290506000611aca83611d04565b9050611adb610d0562015180613fe6565b826080015110611afe57604051630ae8739560e31b815260040160405180910390fd5b336001600160a01b03821614801590611b1e5750611b1c8133612827565b155b15611b3c5760405163ea8e4eb560e01b815260040160405180910390fd5b6000620151808360a0015142611b529190613f3a565b611b5c9190613f4d565b90506000611b738460600151838660800151612c80565b9050611b84610d0562015180613fe6565b60808501819052600090603c908190611b9f90601890613f4d565b611ba99190613f4d565b611bb39190613f4d565b9050846060015160126000828254611bcb9190613f3a565b925050819055508185604001818151611be49190613fd3565b9052506040850151611bf7908290612d32565b606086018190524260a087015260128054600090611c16908490613fd3565b9250508190555084601d8781548110611c3157611c31613fbd565b600091825260209091208251600790920201908190611c509082614079565b506020828101516001830180546001600160a01b0319166001600160a01b039092169190911790556040808401516002840155606084015160038401556080840151600484015560a0840151600584015560c0909301516006909201805460ff19169215159290921790915586820151825161ffff8516815291820152339188917f81c53486d1105763a6cb25c0ca6238bd80709051053540aaac87668ef8d22344910160405180910390a3505050505050565b6000818152600260205260408120546001600160a01b031680610a275760405162461bcd60e51b8152602060048201526018602482015277115490cdcc8c4e881a5b9d985b1a59081d1bdad95b88125160421b60448201526064016109b6565b60006001600160a01b038216611dce5760405162461bcd60e51b815260206004820152602960248201527f4552433732313a2061646472657373207a65726f206973206e6f7420612076616044820152683634b21037bbb732b960b91b60648201526084016109b6565b506001600160a01b031660009081526003602052604090205490565b611df26128d7565b611dfc6000613292565b565b601b5460009081906001600160a01b03163314611e2e5760405163ea8e4eb560e01b815260040160405180910390fd5b611e388484612d32565b905061016d8461ffff1610611e6157600a611e5482600b613fe6565b611e5e9190613f4d565b90505b611e6d85858584612de5565b9150935093915050565b6000611e838383612d32565b9050611e9133848484612de5565b50505050565b611e9f6128d7565b6001600160a01b0381166000818152600c6020908152604091829020805460ff1916905590519182527f173d2f452d823e0dbf0d161f36a0935355316a4e721d58f98c040bbe47cf92369101610a11565b60606000835b611f008486613fd3565b81101561204d57601d8181548110611f1a57611f1a613fbd565b90600052602060002090600702016040518060e0016040529081600082018054611f4390613eea565b80601f0160208091040260200160405190810160405280929190818152602001828054611f6f90613eea565b8015611fbc5780601f10611f9157610100808354040283529160200191611fbc565b820191906000526020600020905b815481529060010190602001808311611f9f57829003601f168201915b505050918352505060018201546001600160a01b03166020820152600282015460408201526003820154606082015260048201546080820152600582015460a082015260069091015460ff16151560c090910152835184908490811061202457612024613fbd565b60200260200101819052508161203990614139565b91508061204581614139565b915050611ef6565b505092915050565b606060018054610a3c90613eea565b601a5460009081906001600160a01b031633146120945760405163ea8e4eb560e01b815260040160405180910390fd5b611e5e8484612d32565b6120a93383836132e4565b5050565b6120b56128d7565b6018805460ff191660ff83169081179091556040519081527f4597a0f62985dbae67e1b5d2fba0fd3f1a50bb872f1faa65995ed07a8ebd197190602001610a11565b600061210282611d04565b9050336001600160a01b0382161461212d5760405163ea8e4eb560e01b815260040160405180910390fd5b610bf6338484612a82565b6121423383612a23565b61215e5760405162461bcd60e51b81526004016109b690613f6f565b611e91848484846133b2565b6002600b54036121bc5760405162461bcd60e51b815260206004820152601f60248201527f5265656e7472616e637947756172643a207265656e7472616e742063616c6c0060448201526064016109b6565b6002600b819055506000601d83815481106121d9576121d9613fbd565b90600052602060002090600702016040518060e001604052908160008201805461220290613eea565b80601f016020809104026020016040519081016040528092919081815260200182805461222e90613eea565b801561227b5780601f106122505761010080835404028352916020019161227b565b820191906000526020600020905b81548152906001019060200180831161225e57829003601f168201915b505050918352505060018201546001600160a01b03166020820152600282015460408201526003820154606082015260048201546080820152600582015460a082015260069091015460ff16151560c09091015290506122db3384612a23565b6122f85760405163ea8e4eb560e01b815260040160405180910390fd5b600081608001518260a0015161230e9190613fd3565b90508042101561233157604051633651f00b60e11b815260040160405180910390fd5b6010546040516370a0823160e01b81523360048201526001600160a01b03909116906370a0823190602401602060405180830381865afa158015612379573d6000803e3d6000fd5b505050506040513d601f19601f8201168201806040525081019061239d9190613ffd565b8311156123bd5760405163fcab977160e01b815260040160405180910390fd5b6000620151808360a00151426123d39190613f3a565b6123dd9190613f4d565b905060006123f48460600151838660800151612c80565b90506124008186613fd3565b846040018181516124119190613fd3565b9052504260a08501526080840151600090603c90819061243390601890613f4d565b61243d9190613f4d565b6124479190613f4d565b905084606001516012600082825461245f9190613f3a565b92505081905550612474818660400151612d32565b606086018190524260a087015260128054600090612493908490613fd3565b9250508190555084601d88815481106124ae576124ae613fbd565b6000918252602090912082516007909202019081906124cd9082614079565b5060208201516001820180546001600160a01b0319166001600160a01b03928316179055604080840151600284015560608401516003840155608084015160048085019190915560a0850151600585015560c0909401516006909301805460ff19169315159390931790925560105491516323b872dd60e01b815233938101939093523060248401526044830189905216906323b872dd906064016020604051808303816000875af1158015612587573d6000803e3d6000fd5b505050506040513d601f19601f820116820180604052508101906125ab9190613ecd565b6125c8576040516312171d8360e31b815260040160405180910390fd5b604080860151815161ffff841681526020810191909152339189917f81c53486d1105763a6cb25c0ca6238bd80709051053540aaac87668ef8d22344910160405180910390a350506001600b555050505050565b6126246128d7565b6001600160a01b0381166000818152600c6020908152604091829020805460ff1916600117905590519182527ff4ba6a323cf8bea8975fe249b5064dd45949b11c8e5498d0f1e46372c14a93d29101610a11565b6060610a276133e5565b601d818154811061269257600080fd5b90600052602060002090600702016000915090508060000180546126b590613eea565b80601f01602080910402602001604051908101604052809291908181526020018280546126e190613eea565b801561272e5780601f106127035761010080835404028352916020019161272e565b820191906000526020600020905b81548152906001019060200180831161271157829003601f168201915b5050506001840154600285015460038601546004870154600588015460069098015496976001600160a01b0390941696929550909350919060ff1687565b600061277783611d04565b9050336001600160a01b0382161480159061279957506127978133612827565b155b156127b75760405163ea8e4eb560e01b815260040160405180910390fd5b81601d84815481106127cb576127cb613fbd565b906000526020600020906007020160000190816127e89190614079565b507f36bfb15ecf538ab5f9f0e01df1406b613c66fe6676ba6abe36f01085cd780f8e838360405161281a929190614152565b60405180910390a1505050565b6001600160a01b03918216600090815260056020908152604080832093909416825291909152205460ff1690565b61285d6128d7565b6001600160a01b0381166128c25760405162461bcd60e51b815260206004820152602660248201527f4f776e61626c653a206e6577206f776e657220697320746865207a65726f206160448201526564647265737360d01b60648201526084016109b6565b6128cb81613292565b50565b80546001019055565b600a546001600160a01b03163314611dfc5760405162461bcd60e51b815260206004820181905260248201527f4f776e61626c653a2063616c6c6572206973206e6f7420746865206f776e657260448201526064016109b6565b60006001600160e01b0319821663780e9d6360e01b1480610a275750610a27826133f4565b6000818152600260205260409020546001600160a01b03166128cb5760405162461bcd60e51b8152602060048201526018602482015277115490cdcc8c4e881a5b9d985b1a59081d1bdad95b88125160421b60448201526064016109b6565b600081815260046020526040902080546001600160a01b0319166001600160a01b03841690811790915581906129ea82611d04565b6001600160a01b03167f8c5be1e5ebec7d5bd14f71427d1e84f3dd0314c0f7b2291e5b200ac8c7c3b92560405160405180910390a45050565b600080612a2f83611d04565b9050806001600160a01b0316846001600160a01b03161480612a565750612a568185612827565b80612a7a5750836001600160a01b0316612a6f84610abf565b6001600160a01b0316145b949350505050565b826001600160a01b0316612a9582611d04565b6001600160a01b031614612af95760405162461bcd60e51b815260206004820152602560248201527f4552433732313a207472616e736665722066726f6d20696e636f72726563742060448201526437bbb732b960d91b60648201526084016109b6565b6001600160a01b038216612b5b5760405162461bcd60e51b8152602060048201526024808201527f4552433732313a207472616e7366657220746f20746865207a65726f206164646044820152637265737360e01b60648201526084016109b6565b612b66838383613444565b612b716000826129b5565b6001600160a01b0383166000908152600360205260408120805460019290612b9a908490613f3a565b90915550506001600160a01b0382166000908152600360205260408120805460019290612bc8908490613fd3565b909155505060008181526002602052604080822080546001600160a01b0319166001600160a01b0386811691821790925591518493918716917fddf252ad1be2c89b69c2b068fc378daa952ba7f163c4a11628f55a4df523b3ef91a4505050565b805480612c785760405162461bcd60e51b815260206004820152601b60248201527f436f756e7465723a2064656372656d656e74206f766572666c6f77000000000060448201526064016109b6565b600019019055565b600080612c906201518084613f4d565b90506000620186a061016d83612ca86147098a613fe6565b612cb29190613fe6565b612cbc9190613f4d565b612cc69190613f4d565b9050600061016d620186a08461470981612ce08c8c613fe6565b612cea9190613fe6565b612cf49190613fe6565b612cfe9190613f4d565b612d089190613f4d565b612d129190613f4d565b905081811115612d2457819350612d28565b8093505b5050509392505050565b600080612d3d613498565b90506000612d4c826002613f3a565b612d569085613f4d565b90506000612d676298968086613f4d565b9050600a811115612d765750600a5b60006064612d848385613fe6565b612d8e9190613f4d565b90506000610457612da060018a61416b565b61ffff16612dae8487613fd3565b612db89190613fe6565b612dc29190613f4d565b905080612dcf8386613fd3565b612dd99190613fd3565b98975050505050505050565b600060078461ffff161015612e0d57604051630ac39bb360e31b815260040160405180910390fd5b610d058461ffff161115612e345760405163773839e560e11b815260040160405180910390fd5b6010546040805163d539139360e01b815290516001600160a01b03909216916391d1485491839163d5391393916004808201926020929091908290030181865afa158015612e86573d6000803e3d6000fd5b505050506040513d601f19601f82011682018060405250810190612eaa9190613ffd565b6040516001600160e01b031960e084901b1681526004810191909152336024820152604401602060405180830381865afa158015612eec573d6000803e3d6000fd5b505050506040513d601f19601f82011682018060405250810190612f109190613ecd565b8015612f8757506010546040516370a0823160e01b81526001600160a01b038781166004830152859216906370a0823190602401602060405180830381865afa158015612f61573d6000803e3d6000fd5b505050506040513d601f19601f82011682018060405250810190612f859190613ffd565b145b8015612f9e5750601a546001600160a01b03163314155b8015612fb55750601b546001600160a01b03163314155b1561301f576010546040516340c10f1960e01b8152336004820152600160248201526001600160a01b03909116906340c10f1990604401600060405180830381600087803b15801561300657600080fd5b505af115801561301a573d6000803e3d6000fd5b505050505b6010546040516323b872dd60e01b8152336004820152306024820152604481018590526001600160a01b03909116906323b872dd906064016020604051808303816000875af1158015613076573d6000803e3d6000fd5b505050506040513d601f19601f8201168201806040525081019061309a9190613ecd565b6130b7576040516312171d8360e31b815260040160405180910390fd5b81601260008282546130c99190613fd3565b90915550506013805460010190556130e5601480546001019055565b60006130f861ffff861662015180613fe6565b905061310360115490565b601d5490925082146131175761311761418d565b6040805161010081018252600060e0820181815282526001600160a01b038916602083015291810186905260608101859052608081018390524260a082015260c08101829052601d80546001810182559252805190916007027f6d4407e7be21f808e6509aa9fa9143369579dd7d760fe20a2c09680fc146134f0190819061319f9082614079565b5060208201516001820180546001600160a01b0319166001600160a01b0390921691909117905560408201516002820155606082015160038201556080820151600482015560a0820151600582015560c0909101516006909101805460ff19169115159190911790556132128142613fd3565b6000838152601c602052604090205561322b86836134d0565b856001600160a01b031661323e60115490565b6040805161ffff89168152602081018890527f81c53486d1105763a6cb25c0ca6238bd80709051053540aaac87668ef8d22344910160405180910390a3613289601180546001019055565b50949350505050565b600a80546001600160a01b038381166001600160a01b0319831681179093556040519116919082907f8be0079c531659141344cd1fd0a4f28419497f9722a3daafe3b4186f6b6457e090600090a35050565b816001600160a01b0316836001600160a01b0316036133455760405162461bcd60e51b815260206004820152601960248201527f4552433732313a20617070726f766520746f2063616c6c65720000000000000060448201526064016109b6565b6001600160a01b03838116600081815260056020908152604080832094871680845294825291829020805460ff191686151590811790915591519182527f17307eab39ab6107e8899845ad3d59bd9653f200f220920489ca2b5937696c31910160405180910390a3505050565b6133bd848484612a82565b6133c98484848461361e565b611e915760405162461bcd60e51b81526004016109b6906141a3565b6060601e8054610a3c90613eea565b60006001600160e01b031982166380ac58cd60e01b148061342557506001600160e01b03198216635b5e139f60e01b145b80610a2757506301ffc9a760e01b6001600160e01b0319831614610a27565b81601d828154811061345857613458613fbd565b906000526020600020906007020160010160006101000a8154816001600160a01b0302191690836001600160a01b03160217905550610bf683838361371c565b6000610d056134a5610cbd565b6134af9190613f4d565b6134ba906001613f3a565b905060018111156134cd576134cd61418d565b90565b6001600160a01b0382166135265760405162461bcd60e51b815260206004820181905260248201527f4552433732313a206d696e7420746f20746865207a65726f206164647265737360448201526064016109b6565b6000818152600260205260409020546001600160a01b03161561358b5760405162461bcd60e51b815260206004820152601c60248201527f4552433732313a20746f6b656e20616c7265616479206d696e7465640000000060448201526064016109b6565b61359760008383613444565b6001600160a01b03821660009081526003602052604081208054600192906135c0908490613fd3565b909155505060008181526002602052604080822080546001600160a01b0319166001600160a01b03861690811790915590518392907fddf252ad1be2c89b69c2b068fc378daa952ba7f163c4a11628f55a4df523b3ef908290a45050565b60006001600160a01b0384163b1561371457604051630a85bd0160e11b81526001600160a01b0385169063150b7a02906136629033908990889088906004016141f5565b6020604051808303816000875af192505050801561369d575060408051601f3d908101601f1916820190925261369a91810190614232565b60015b6136fa573d8080156136cb576040519150601f19603f3d011682016040523d82523d6000602084013e6136d0565b606091505b5080516000036136f25760405162461bcd60e51b81526004016109b6906141a3565b805181602001fd5b6001600160e01b031916630a85bd0160e11b149050612a7a565b506001612a7a565b6001600160a01b0383166137775761377281600880546000838152600960205260408120829055600182018355919091527ff3f7a9fe364faab93b216da50a3214154f22a0a2b415b23a84c8169e8b636ee30155565b61379a565b816001600160a01b0316836001600160a01b03161461379a5761379a83826137d4565b6001600160a01b0382166137b157610bf681613871565b826001600160a01b0316826001600160a01b031614610bf657610bf68282613920565b600060016137e184611d64565b6137eb9190613f3a565b60008381526007602052604090205490915080821461383e576001600160a01b03841660009081526006602090815260408083208584528252808320548484528184208190558352600790915290208190555b5060009182526007602090815260408084208490556001600160a01b039094168352600681528383209183525290812055565b60085460009061388390600190613f3a565b600083815260096020526040812054600880549394509092849081106138ab576138ab613fbd565b9060005260206000200154905080600883815481106138cc576138cc613fbd565b60009182526020808320909101929092558281526009909152604080822084905585825281205560088054806139045761390461424f565b6001900381819060005260206000200160009055905550505050565b600061392b83611d64565b6001600160a01b039093166000908152600660209081526040808320868452825280832085905593825260079052919091209190915550565b6001600160a01b03811681146128cb57600080fd5b60006020828403121561398b57600080fd5b813561399681613964565b9392505050565b6001600160e01b0319811681146128cb57600080fd5b6000602082840312156139c557600080fd5b81356139968161399d565b6000815180845260005b818110156139f6576020818501810151868301820152016139da565b506000602082860101526020601f19601f83011685010191505092915050565b60208152600061399660208301846139d0565b600060208284031215613a3b57600080fd5b5035919050565b60008060408385031215613a5557600080fd5b8235613a6081613964565b946020939093013593505050565b600080600060608486031215613a8357600080fd5b8335613a8e81613964565b92506020840135613a9e81613964565b929592945050506040919091013590565b60006020808301818452808551808352604092508286019150828160051b87010184880160005b83811015613b5557603f19898403018552815160e08151818652613afc828701826139d0565b838b01516001600160a01b0316878c0152898401518a880152606080850151908801526080808501519088015260a0848101519088015260c0938401511515939096019290925250509386019390860190600101613ad6565b509098975050505050505050565b803561ffff81168114613b7557600080fd5b919050565b60008060008060808587031215613b9057600080fd5b613b9985613b63565b935060208501359250604085013591506060850135613bb781613964565b939692955090935050565b634e487b7160e01b600052604160045260246000fd5b600067ffffffffffffffff80841115613bf357613bf3613bc2565b604051601f8501601f19908116603f01168101908282118183101715613c1b57613c1b613bc2565b81604052809350858152868686011115613c3457600080fd5b858560208301376000602087830101525050509392505050565b600082601f830112613c5f57600080fd5b61399683833560208501613bd8565b600060208284031215613c8057600080fd5b813567ffffffffffffffff811115613c9757600080fd5b612a7a84828501613c4e565b600080600060608486031215613cb857600080fd5b8335613cc381613964565b9250613cd160208501613b63565b9150604084013590509250925092565b60008060408385031215613cf457600080fd5b613a6083613b63565b60008060408385031215613d1057600080fd5b50508035926020909101359150565b80151581146128cb57600080fd5b60008060408385031215613d4057600080fd5b8235613d4b81613964565b91506020830135613d5b81613d1f565b809150509250929050565b600060208284031215613d7857600080fd5b813560ff8116811461399657600080fd5b60008060008060808587031215613d9f57600080fd5b8435613daa81613964565b93506020850135613dba81613964565b925060408501359150606085013567ffffffffffffffff811115613ddd57600080fd5b8501601f81018713613dee57600080fd5b613dfd87823560208401613bd8565b91505092959194509250565b60e081526000613e1c60e083018a6139d0565b6001600160a01b039890981660208301525060408101959095526060850193909352608084019190915260a0830152151560c090910152919050565b60008060408385031215613e6b57600080fd5b82359150602083013567ffffffffffffffff811115613e8957600080fd5b613e9585828601613c4e565b9150509250929050565b60008060408385031215613eb257600080fd5b8235613ebd81613964565b91506020830135613d5b81613964565b600060208284031215613edf57600080fd5b815161399681613d1f565b600181811c90821680613efe57607f821691505b602082108103613f1e57634e487b7160e01b600052602260045260246000fd5b50919050565b634e487b7160e01b600052601160045260246000fd5b81810381811115610a2757610a27613f24565b600082613f6a57634e487b7160e01b600052601260045260246000fd5b500490565b6020808252602e908201527f4552433732313a2063616c6c6572206973206e6f7420746f6b656e206f776e6560408201526d1c881b9bdc88185c1c1c9bdd995960921b606082015260800190565b634e487b7160e01b600052603260045260246000fd5b80820180821115610a2757610a27613f24565b8082028115828204841417610a2757610a27613f24565b60006020828403121561400f57600080fd5b5051919050565b60006020828403121561402857600080fd5b815161399681613964565b601f821115610bf657600081815260208120601f850160051c8101602086101561405a5750805b601f850160051c820191505b8181101561186257828155600101614066565b815167ffffffffffffffff81111561409357614093613bc2565b6140a7816140a18454613eea565b84614033565b602080601f8311600181146140dc57600084156140c45750858301515b600019600386901b1c1916600185901b178555611862565b600085815260208120601f198616915b8281101561410b578886015182559484019460019091019084016140ec565b50858210156141295787850151600019600388901b60f8161c191681555b5050505050600190811b01905550565b60006001820161414b5761414b613f24565b5060010190565b828152604060208201526000612a7a60408301846139d0565b61ffff82811682821603908082111561418657614186613f24565b5092915050565b634e487b7160e01b600052600160045260246000fd5b60208082526032908201527f4552433732313a207472616e7366657220746f206e6f6e20455243373231526560408201527131b2b4bb32b91034b6b83632b6b2b73a32b960711b606082015260800190565b6001600160a01b0385811682528416602082015260408101839052608060608201819052600090614228908301846139d0565b9695505050505050565b60006020828403121561424457600080fd5b81516139968161399d565b634e487b7160e01b600052603160045260246000fdfea2646970667358221220ed8ac428f7e1ffb0f8f5810d289d71e0347d33f0191fdedb8f6d3d8b46f8e2d464736f6c63430008110033",
  "linkReferences": {},
  "deployedLinkReferences": {}
}