{
  "_format": "hh-sol-artifact-1",
  "contractName": "LiquidityAmplifier",
  "sourceName": "contracts/LiquidityAmplifier.sol",
  "abi": [
    {
      "inputs": [],
      "stateMutability": "nonpayable",
      "type": "constructor"
    },
    {
      "inputs": [
        {
          "internalType": "uint256",
          "name": "day",
          "type": "uint256"
        }
      ],
      "name": "AlreadyClaimed",
      "type": "error"
    },
    {
      "inputs": [],
      "name": "AlreadyClaimedReferrals",
      "type": "error"
    },
    {
      "inputs": [],
      "name": "AlreadyInitialized",
      "type": "error"
    },
    {
      "inputs": [],
      "name": "AmplifierComplete",
      "type": "error"
    },
    {
      "inputs": [],
      "name": "AmplifierNotComplete",
      "type": "error"
    },
    {
      "inputs": [],
      "name": "AmplifierNotStarted",
      "type": "error"
    },
    {
      "inputs": [],
      "name": "ClaimExpired",
      "type": "error"
    },
    {
      "inputs": [
        {
          "internalType": "uint256",
          "name": "day",
          "type": "uint256"
        }
      ],
      "name": "InvalidDay",
      "type": "error"
    },
    {
      "inputs": [
        {
          "internalType": "address",
          "name": "referrer",
          "type": "address"
        }
      ],
      "name": "InvalidReferrer",
      "type": "error"
    },
    {
      "inputs": [],
      "name": "LaunchDatePassed",
      "type": "error"
    },
    {
      "inputs": [],
      "name": "MaxxGenesisMintFailed",
      "type": "error"
    },
    {
      "inputs": [],
      "name": "MaxxGenesisNotSet",
      "type": "error"
    },
    {
      "inputs": [],
      "name": "MaxxTransferFailed",
      "type": "error"
    },
    {
      "inputs": [],
      "name": "StakingNotInitialized",
      "type": "error"
    },
    {
      "inputs": [],
      "name": "WithdrawFailed",
      "type": "error"
    },
    {
      "anonymous": false,
      "inputs": [
        {
          "indexed": true,
          "internalType": "address",
          "name": "user",
          "type": "address"
        },
        {
          "indexed": true,
          "internalType": "uint256",
          "name": "day",
          "type": "uint256"
        },
        {
          "indexed": true,
          "internalType": "uint256",
          "name": "amount",
          "type": "uint256"
        }
      ],
      "name": "Claim",
      "type": "event"
    },
    {
      "anonymous": false,
      "inputs": [
        {
          "indexed": true,
          "internalType": "address",
          "name": "user",
          "type": "address"
        },
        {
          "indexed": false,
          "internalType": "uint256",
          "name": "amount",
          "type": "uint256"
        }
      ],
      "name": "ClaimReferral",
      "type": "event"
    },
    {
      "anonymous": false,
      "inputs": [
        {
          "indexed": true,
          "internalType": "address",
          "name": "user",
          "type": "address"
        },
        {
          "indexed": true,
          "internalType": "uint256",
          "name": "amount",
          "type": "uint256"
        },
        {
          "indexed": true,
          "internalType": "address",
          "name": "referrer",
          "type": "address"
        }
      ],
      "name": "Deposit",
      "type": "event"
    },
    {
      "anonymous": false,
      "inputs": [
        {
          "indexed": false,
          "internalType": "uint256",
          "name": "newLaunchDate",
          "type": "uint256"
        }
      ],
      "name": "LaunchDateUpdated",
      "type": "event"
    },
    {
      "anonymous": false,
      "inputs": [
        {
          "indexed": true,
          "internalType": "address",
          "name": "user",
          "type": "address"
        },
        {
          "indexed": false,
          "internalType": "string",
          "name": "code",
          "type": "string"
        }
      ],
      "name": "MaxxGenesisMinted",
      "type": "event"
    },
    {
      "anonymous": false,
      "inputs": [
        {
          "indexed": true,
          "internalType": "address",
          "name": "maxxGenesis",
          "type": "address"
        }
      ],
      "name": "MaxxGenesisSet",
      "type": "event"
    },
    {
      "anonymous": false,
      "inputs": [
        {
          "indexed": true,
          "internalType": "address",
          "name": "previousOwner",
          "type": "address"
        },
        {
          "indexed": true,
          "internalType": "address",
          "name": "newOwner",
          "type": "address"
        }
      ],
      "name": "OwnershipTransferred",
      "type": "event"
    },
    {
      "anonymous": false,
      "inputs": [
        {
          "indexed": true,
          "internalType": "address",
          "name": "user",
          "type": "address"
        },
        {
          "indexed": true,
          "internalType": "address",
          "name": "referrer",
          "type": "address"
        },
        {
          "indexed": false,
          "internalType": "uint256",
          "name": "amount",
          "type": "uint256"
        }
      ],
      "name": "Referral",
      "type": "event"
    },
    {
      "anonymous": false,
      "inputs": [
        {
          "indexed": true,
          "internalType": "address",
          "name": "stake",
          "type": "address"
        }
      ],
      "name": "StakeAddressSet",
      "type": "event"
    },
    {
      "inputs": [],
      "name": "AMPLIFIER_PERIOD",
      "outputs": [
        {
          "internalType": "uint16",
          "name": "",
          "type": "uint16"
        }
      ],
      "stateMutability": "view",
      "type": "function"
    },
    {
      "inputs": [],
      "name": "CLAIM_PERIOD",
      "outputs": [
        {
          "internalType": "uint16",
          "name": "",
          "type": "uint16"
        }
      ],
      "stateMutability": "view",
      "type": "function"
    },
    {
      "inputs": [],
      "name": "MAX_LATE_DAYS",
      "outputs": [
        {
          "internalType": "uint16",
          "name": "",
          "type": "uint16"
        }
      ],
      "stateMutability": "view",
      "type": "function"
    },
    {
      "inputs": [],
      "name": "MIN_GENESIS_AMOUNT",
      "outputs": [
        {
          "internalType": "uint256",
          "name": "",
          "type": "uint256"
        }
      ],
      "stateMutability": "view",
      "type": "function"
    },
    {
      "inputs": [
        {
          "internalType": "uint256",
          "name": "_day",
          "type": "uint256"
        },
        {
          "internalType": "uint256",
          "name": "_maxxAmount",
          "type": "uint256"
        }
      ],
      "name": "changeDailyAllocation",
      "outputs": [],
      "stateMutability": "nonpayable",
      "type": "function"
    },
    {
      "inputs": [
        {
          "internalType": "uint256",
          "name": "_launchDate",
          "type": "uint256"
        }
      ],
      "name": "changeLaunchDate",
      "outputs": [],
      "stateMutability": "nonpayable",
      "type": "function"
    },
    {
      "inputs": [
        {
          "internalType": "uint256",
          "name": "_day",
          "type": "uint256"
        }
      ],
      "name": "claim",
      "outputs": [],
      "stateMutability": "nonpayable",
      "type": "function"
    },
    {
      "inputs": [],
      "name": "claimReferrals",
      "outputs": [],
      "stateMutability": "nonpayable",
      "type": "function"
    },
    {
      "inputs": [
        {
          "internalType": "uint256",
          "name": "_day",
          "type": "uint256"
        },
        {
          "internalType": "uint16",
          "name": "_daysToStake",
          "type": "uint16"
        }
      ],
      "name": "claimToStake",
      "outputs": [],
      "stateMutability": "nonpayable",
      "type": "function"
    },
    {
      "inputs": [
        {
          "internalType": "address",
          "name": "",
          "type": "address"
        }
      ],
      "name": "claimedReferralAmount",
      "outputs": [
        {
          "internalType": "uint256",
          "name": "",
          "type": "uint256"
        }
      ],
      "stateMutability": "view",
      "type": "function"
    },
    {
      "inputs": [
        {
          "internalType": "uint256",
          "name": "",
          "type": "uint256"
        }
      ],
      "name": "dailyDepositors",
      "outputs": [
        {
          "internalType": "uint256",
          "name": "",
          "type": "uint256"
        }
      ],
      "stateMutability": "view",
      "type": "function"
    },
    {
      "inputs": [
        {
          "internalType": "address",
          "name": "",
          "type": "address"
        },
        {
          "internalType": "uint256",
          "name": "",
          "type": "uint256"
        }
      ],
      "name": "dayClaimed",
      "outputs": [
        {
          "internalType": "bool",
          "name": "",
          "type": "bool"
        }
      ],
      "stateMutability": "view",
      "type": "function"
    },
    {
      "inputs": [
        {
          "internalType": "string",
          "name": "_code",
          "type": "string"
        },
        {
          "internalType": "address",
          "name": "_referrer",
          "type": "address"
        }
      ],
      "name": "deposit",
      "outputs": [],
      "stateMutability": "payable",
      "type": "function"
    },
    {
      "inputs": [
        {
          "internalType": "string",
          "name": "_code",
          "type": "string"
        }
      ],
      "name": "deposit",
      "outputs": [],
      "stateMutability": "payable",
      "type": "function"
    },
    {
      "inputs": [],
      "name": "deposit",
      "outputs": [],
      "stateMutability": "payable",
      "type": "function"
    },
    {
      "inputs": [
        {
          "internalType": "address",
          "name": "_referrer",
          "type": "address"
        }
      ],
      "name": "deposit",
      "outputs": [],
      "stateMutability": "payable",
      "type": "function"
    },
    {
      "inputs": [
        {
          "internalType": "address",
          "name": "",
          "type": "address"
        },
        {
          "internalType": "uint256",
          "name": "",
          "type": "uint256"
        }
      ],
      "name": "effectiveUserDailyDeposits",
      "outputs": [
        {
          "internalType": "uint256",
          "name": "",
          "type": "uint256"
        }
      ],
      "stateMutability": "view",
      "type": "function"
    },
    {
      "inputs": [
        {
          "internalType": "address",
          "name": "",
          "type": "address"
        },
        {
          "internalType": "uint256",
          "name": "",
          "type": "uint256"
        }
      ],
      "name": "effectiveUserReferrals",
      "outputs": [
        {
          "internalType": "uint256",
          "name": "",
          "type": "uint256"
        }
      ],
      "stateMutability": "view",
      "type": "function"
    },
    {
      "inputs": [],
      "name": "getDay",
      "outputs": [
        {
          "internalType": "uint256",
          "name": "day",
          "type": "uint256"
        }
      ],
      "stateMutability": "view",
      "type": "function"
    },
    {
      "inputs": [
        {
          "internalType": "uint256",
          "name": "_day",
          "type": "uint256"
        }
      ],
      "name": "getEffectiveMaticDailyDeposit",
      "outputs": [
        {
          "internalType": "uint256",
          "name": "",
          "type": "uint256"
        }
      ],
      "stateMutability": "view",
      "type": "function"
    },
    {
      "inputs": [
        {
          "internalType": "uint256",
          "name": "_day",
          "type": "uint256"
        }
      ],
      "name": "getMaticDailyDeposit",
      "outputs": [
        {
          "internalType": "uint256",
          "name": "",
          "type": "uint256"
        }
      ],
      "stateMutability": "view",
      "type": "function"
    },
    {
      "inputs": [
        {
          "internalType": "uint256",
          "name": "_day",
          "type": "uint256"
        }
      ],
      "name": "getMaxxDailyAllocation",
      "outputs": [
        {
          "internalType": "uint256",
          "name": "",
          "type": "uint256"
        }
      ],
      "stateMutability": "view",
      "type": "function"
    },
    {
      "inputs": [],
      "name": "getParticipants",
      "outputs": [
        {
          "internalType": "address[]",
          "name": "",
          "type": "address[]"
        }
      ],
      "stateMutability": "view",
      "type": "function"
    },
    {
      "inputs": [
        {
          "internalType": "uint256",
          "name": "day",
          "type": "uint256"
        }
      ],
      "name": "getParticipantsByDay",
      "outputs": [
        {
          "internalType": "address[]",
          "name": "",
          "type": "address[]"
        }
      ],
      "stateMutability": "view",
      "type": "function"
    },
    {
      "inputs": [
        {
          "internalType": "uint256",
          "name": "start",
          "type": "uint256"
        },
        {
          "internalType": "uint256",
          "name": "length",
          "type": "uint256"
        }
      ],
      "name": "getParticipantsSlice",
      "outputs": [
        {
          "internalType": "address[]",
          "name": "participantsSlice",
          "type": "address[]"
        },
        {
          "internalType": "uint256",
          "name": "newStart",
          "type": "uint256"
        }
      ],
      "stateMutability": "view",
      "type": "function"
    },
    {
      "inputs": [
        {
          "internalType": "address",
          "name": "_user",
          "type": "address"
        }
      ],
      "name": "getUserAmpReferrals",
      "outputs": [
        {
          "internalType": "uint256[]",
          "name": "",
          "type": "uint256[]"
        }
      ],
      "stateMutability": "view",
      "type": "function"
    },
    {
      "inputs": [
        {
          "internalType": "address",
          "name": "_maxxVault",
          "type": "address"
        },
        {
          "internalType": "uint256",
          "name": "_launchDate",
          "type": "uint256"
        },
        {
          "internalType": "address",
          "name": "_maxx",
          "type": "address"
        }
      ],
      "name": "init",
      "outputs": [],
      "stateMutability": "nonpayable",
      "type": "function"
    },
    {
      "inputs": [],
      "name": "initialized",
      "outputs": [
        {
          "internalType": "bool",
          "name": "",
          "type": "bool"
        }
      ],
      "stateMutability": "view",
      "type": "function"
    },
    {
      "inputs": [],
      "name": "launchDate",
      "outputs": [
        {
          "internalType": "uint256",
          "name": "",
          "type": "uint256"
        }
      ],
      "stateMutability": "view",
      "type": "function"
    },
    {
      "inputs": [],
      "name": "maxx",
      "outputs": [
        {
          "internalType": "address",
          "name": "",
          "type": "address"
        }
      ],
      "stateMutability": "view",
      "type": "function"
    },
    {
      "inputs": [],
      "name": "maxxGenesis",
      "outputs": [
        {
          "internalType": "address",
          "name": "",
          "type": "address"
        }
      ],
      "stateMutability": "view",
      "type": "function"
    },
    {
      "inputs": [],
      "name": "maxxVault",
      "outputs": [
        {
          "internalType": "address",
          "name": "",
          "type": "address"
        }
      ],
      "stateMutability": "view",
      "type": "function"
    },
    {
      "inputs": [],
      "name": "owner",
      "outputs": [
        {
          "internalType": "address",
          "name": "",
          "type": "address"
        }
      ],
      "stateMutability": "view",
      "type": "function"
    },
    {
      "inputs": [
        {
          "internalType": "uint256",
          "name": "",
          "type": "uint256"
        }
      ],
      "name": "participants",
      "outputs": [
        {
          "internalType": "address",
          "name": "",
          "type": "address"
        }
      ],
      "stateMutability": "view",
      "type": "function"
    },
    {
      "inputs": [
        {
          "internalType": "uint256",
          "name": "",
          "type": "uint256"
        },
        {
          "internalType": "uint256",
          "name": "",
          "type": "uint256"
        }
      ],
      "name": "participantsByDay",
      "outputs": [
        {
          "internalType": "address",
          "name": "",
          "type": "address"
        }
      ],
      "stateMutability": "view",
      "type": "function"
    },
    {
      "inputs": [
        {
          "internalType": "address",
          "name": "",
          "type": "address"
        }
      ],
      "name": "participated",
      "outputs": [
        {
          "internalType": "bool",
          "name": "",
          "type": "bool"
        }
      ],
      "stateMutability": "view",
      "type": "function"
    },
    {
      "inputs": [
        {
          "internalType": "address",
          "name": "",
          "type": "address"
        },
        {
          "internalType": "uint256",
          "name": "",
          "type": "uint256"
        }
      ],
      "name": "participatedByDay",
      "outputs": [
        {
          "internalType": "bool",
          "name": "",
          "type": "bool"
        }
      ],
      "stateMutability": "view",
      "type": "function"
    },
    {
      "inputs": [],
      "name": "renounceOwnership",
      "outputs": [],
      "stateMutability": "nonpayable",
      "type": "function"
    },
    {
      "inputs": [
        {
          "internalType": "uint256[60]",
          "name": "_dailyAllocation",
          "type": "uint256[60]"
        }
      ],
      "name": "setDailyAllocations",
      "outputs": [],
      "stateMutability": "nonpayable",
      "type": "function"
    },
    {
      "inputs": [
        {
          "internalType": "address",
          "name": "_maxxGenesis",
          "type": "address"
        }
      ],
      "name": "setMaxxGenesis",
      "outputs": [],
      "stateMutability": "nonpayable",
      "type": "function"
    },
    {
      "inputs": [
        {
          "internalType": "address",
          "name": "_stake",
          "type": "address"
        }
      ],
      "name": "setStakeAddress",
      "outputs": [],
      "stateMutability": "nonpayable",
      "type": "function"
    },
    {
      "inputs": [],
      "name": "stake",
      "outputs": [
        {
          "internalType": "contract IStake",
          "name": "",
          "type": "address"
        }
      ],
      "stateMutability": "view",
      "type": "function"
    },
    {
      "inputs": [
        {
          "internalType": "address",
          "name": "newOwner",
          "type": "address"
        }
      ],
      "name": "transferOwnership",
      "outputs": [],
      "stateMutability": "nonpayable",
      "type": "function"
    },
    {
      "inputs": [
        {
          "internalType": "address",
          "name": "",
          "type": "address"
        },
        {
          "internalType": "uint256",
          "name": "",
          "type": "uint256"
        }
      ],
      "name": "userAmpReferral",
      "outputs": [
        {
          "internalType": "uint256",
          "name": "",
          "type": "uint256"
        }
      ],
      "stateMutability": "view",
      "type": "function"
    },
    {
      "inputs": [
        {
          "internalType": "address",
          "name": "",
          "type": "address"
        },
        {
          "internalType": "uint256",
          "name": "",
          "type": "uint256"
        }
      ],
      "name": "userDailyDeposits",
      "outputs": [
        {
          "internalType": "uint256",
          "name": "",
          "type": "uint256"
        }
      ],
      "stateMutability": "view",
      "type": "function"
    },
    {
      "inputs": [
        {
          "internalType": "address payable",
          "name": "_to",
          "type": "address"
        },
        {
          "internalType": "uint256",
          "name": "_amount",
          "type": "uint256"
        }
      ],
      "name": "withdraw",
      "outputs": [],
      "stateMutability": "nonpayable",
      "type": "function"
    },
    {
      "inputs": [],
      "name": "withdrawMaxx",
      "outputs": [],
      "stateMutability": "nonpayable",
      "type": "function"
    }
  ],
  "bytecode": "0x603c60808181526108206040529060a061078080368337505081516200002d92600192506020019062000112565b5060408051603c8082526107a08201909252906020820161078080368337505081516200006292600292506020019062000112565b5060408051603c8082526107a08201909252906020820161078080368337505081516200009792600392506020019062000112565b50348015620000a557600080fd5b50620000b133620000c2565b620000bc32620000c2565b62000179565b600080546001600160a01b038381166001600160a01b0319831681178455604051919092169283917f8be0079c531659141344cd1fd0a4f28419497f9722a3daafe3b4186f6b6457e09190a35050565b82805482825590600052602060002090810192821562000150579160200282015b828111156200015057825182559160200191906001019062000133565b506200015e92915062000162565b5090565b5b808211156200015e576000815560010162000163565b612fd980620001896000396000f3fe6080604052600436106102885760003560e01c80635110c0a31161015a578063a7d6988b116100c1578063f2fde38b1161007a578063f2fde38b146107d8578063f340fa01146107f8578063f3fef3a31461080b578063f49c7f7e1461082b578063f8eeed6214610848578063fd1c24ed1461085e57600080fd5b8063a7d6988b1461071e578063b3bd870a1461073e578063bf779b1d1461076e578063cf5ee6e71461079b578063d0e30db0146107bb578063efb1274c146107c357600080fd5b80638da5cb5b116101135780638da5cb5b1461068557806396cf7026146106a35780639be37a97146106b8578063a26e1186146106cb578063a30eb649146106de578063a6fc7ff3146106fe57600080fd5b80635110c0a3146105a55780635aa68ac0146105c55780636a9f2807146105da578063715018a61461061557806382d925a61461062a5780638825d4d21461066557600080fd5b80632bb62f88116101fe5780633c64dab3116101b75780633c64dab3146104cb578063415ca623146104eb57806343fc00b81461050b578063493518ee1461052b5780634945d5401461054b5780634bd2b98b1461057857600080fd5b80632bb62f88146103e557806332be640e14610405578063352dd5591461043d57806335c1d3491461046b578063379607f51461048b5780633a4b66f1146104ab57600080fd5b8063177b7db011610250578063177b7db0146103435780631b757c80146103635780631e3219fc1461038357806321241dfe1461028d57806323471d18146103a557806329897a89146103c557600080fd5b806303ac8dc61461028d5780630609f12d146102ba57806314ba5c09146102e8578063158ef93e146102fd57806315bb83471461032e575b600080fd5b34801561029957600080fd5b506102a2603c81565b60405161ffff90911681526020015b60405180910390f35b3480156102c657600080fd5b506102da6102d5366004612a50565b61087e565b6040519081526020016102b1565b3480156102f457600080fd5b506102da6108a3565b34801561030957600080fd5b50600a5461031e90600160a81b900460ff1681565b60405190151581526020016102b1565b34801561033a57600080fd5b506102a2606481565b34801561034f57600080fd5b506102da61035e366004612a50565b6108e9565b34801561036f57600080fd5b506102da61037e366004612a7c565b610905565b34801561038f57600080fd5b506103a361039e366004612a7c565b61096d565b005b3480156103b157600080fd5b506103a36103c0366004612a95565b6109df565b3480156103d157600080fd5b506102da6103e0366004612a50565b610a31565b3480156103f157600080fd5b506102da610400366004612a7c565b610a4d565b34801561041157600080fd5b50600554610425906001600160a01b031681565b6040516001600160a01b0390911681526020016102b1565b34801561044957600080fd5b5061045d610458366004612ab2565b610a9d565b6040516102b1929190612b18565b34801561047757600080fd5b50610425610486366004612a7c565b610b38565b34801561049757600080fd5b506103a36104a6366004612a7c565b610b62565b3480156104b757600080fd5b50600954610425906001600160a01b031681565b3480156104d757600080fd5b50600a54610425906001600160a01b031681565b3480156104f757600080fd5b506103a3610506366004612a95565b610e74565b34801561051757600080fd5b506103a3610526366004612b3a565b610ec5565b34801561053757600080fd5b506103a3610546366004612ab2565b610f39565b34801561055757600080fd5b5061056b610566366004612a7c565b610fa1565b6040516102b19190612b7c565b34801561058457600080fd5b50610598610593366004612a95565b61100d565b6040516102b19190612b8f565b3480156105b157600080fd5b506104256105c0366004612ab2565b611078565b3480156105d157600080fd5b5061056b6110b0565b3480156105e657600080fd5b5061031e6105f5366004612a50565b601060209081526000928352604080842090915290825290205460ff1681565b34801561062157600080fd5b506103a3611112565b34801561063657600080fd5b5061031e610645366004612a50565b600f60209081526000928352604080842090915290825290205460ff1681565b34801561067157600080fd5b506102da610680366004612a50565b611126565b34801561069157600080fd5b506000546001600160a01b0316610425565b3480156106af57600080fd5b506103a3611157565b6103a36106c6366004612c76565b611247565b6103a36106d9366004612cc8565b6115f5565b3480156106ea57600080fd5b506103a36106f9366004612d05565b61184f565b34801561070a57600080fd5b506103a3610719366004612d31565b611bc5565b34801561072a57600080fd5b506102da610739366004612a7c565b611c1b565b34801561074a57600080fd5b5061031e610759366004612a95565b600e6020526000908152604090205460ff1681565b34801561077a57600080fd5b506102da610789366004612a95565b60116020526000908152604090205481565b3480156107a757600080fd5b506102da6107b6366004612a7c565b611c32565b6103a3611c82565b3480156107cf57600080fd5b506103a3611ec2565b3480156107e457600080fd5b506103a36107f3366004612a95565b6120d7565b6103a3610806366004612a95565b612150565b34801561081757600080fd5b506103a3610826366004612a50565b6124e4565b34801561083757600080fd5b506102da6802b5e3af16b188000081565b34801561085457600080fd5b506102da60085481565b34801561086a57600080fd5b50600454610425906001600160a01b031681565b600c60205281600052604060002081603c811061089a57600080fd5b01549150829050565b60006008544210156108c85760405163cc55756d60e01b815260040160405180910390fd5b62015180600854426108da9190612dc6565b6108e49190612ddf565b905090565b600b60205281600052604060002081603c811061089a57600080fd5b6000806109106108a3565b9050603c8310158061092157508083115b1561094757604051631e80226f60e01b8152600481018490526024015b60405180910390fd5b6003838154811061095a5761095a612e01565b9060005260206000200154915050919050565b610975612565565b600854421015806109865750804210155b156109a45760405163fcdcc8fd60e01b815260040160405180910390fd5b60088190556040518181527f6e23cc4d033baf0ba37878efdabaf083a78deb3277b4ddc2294e20c1bb5022789060200160405180910390a150565b6109e7612565565b600980546001600160a01b0319166001600160a01b0383169081179091556040517f8df9c277daa02ebcd30d5449acdf58eb1048b62ab9f849e021816d82c6557bc090600090a250565b600d60205281600052604060002081603c811061089a57600080fd5b600080610a586108a3565b9050603c83101580610a6957508083115b15610a8a57604051631e80226f60e01b81526004810184905260240161093e565b6001838154811061095a5761095a612e01565b60606000805b83811015610b21576006610ab78683612e17565b81548110610ac757610ac7612e01565b9060005260206000200160009054906101000a90046001600160a01b0316838281518110610af757610af7612e01565b6001600160a01b039092166020928302919091019091015280610b1981612e2a565b915050610aa3565b5081610b2d8486612e17565b915091509250929050565b60068181548110610b4857600080fd5b6000918252602090912001546001600160a01b0316905081565b610b6b816125bf565b6009546001600160a01b03161580610bf85750600960009054906101000a90046001600160a01b03166001600160a01b031663f8eeed626040518163ffffffff1660e01b8152600401602060405180830381865afa158015610bd1573d6000803e3d6000fd5b505050506040513d601f19601f82011682018060405250810190610bf59190612e43565b42105b15610c165760405163bf6c2f2960e01b815260040160405180910390fd5b6000610c2182612622565b9050610c31603c62015180612e5c565b62ffffff16600960009054906101000a90046001600160a01b03166001600160a01b031663f8eeed626040518163ffffffff1660e01b8152600401602060405180830381865afa158015610c89573d6000803e3d6000fd5b505050506040513d601f19601f82011682018060405250810190610cad9190612e43565b610cb79190612e17565b421115610daa576000610cce603c62015180612e5c565b62ffffff16600960009054906101000a90046001600160a01b03166001600160a01b031663f8eeed626040518163ffffffff1660e01b8152600401602060405180830381865afa158015610d26573d6000803e3d6000fd5b505050506040513d601f19601f82011682018060405250810190610d4a9190612e43565b610d549190612e17565b610d5e9042612dc6565b905060648110610d81576040516341524ecf60e11b815260040160405180910390fd5b60006064610d8f8385612e83565b610d999190612ddf565b9050610da58184612dc6565b925050505b600a5460405163a9059cbb60e01b8152336004820152602481018390526000916001600160a01b03169063a9059cbb906044016020604051808303816000875af1158015610dfc573d6000803e3d6000fd5b505050506040513d601f19601f82011682018060405250810190610e209190612e9a565b905080610e405760405163b1f33d5960e01b815260040160405180910390fd5b6040518290849033907f34fcbac0073d7c3d388e51312faf357774904998eeb8fca628b9e6f65ee1cbf790600090a4505050565b610e7c612565565b600580546001600160a01b0319166001600160a01b0383169081179091556040517eebdec603d8ad7b88305e6b900a209f18b4ee84fa8412be678db1cbd4a5bac890600090a250565b610ecd612565565b600a54600160a81b900460ff1615610ef75760405162dc149f60e41b815260040160405180910390fd5b600480546001600160a01b039485166001600160a01b0319909116179055600891909155600a8054600161ff0160a01b0319169190921617600160a81b179055565b610f41612565565b610f4e8262015180612e83565b600854610f5b9190612e17565b4210610f7d57604051631e80226f60e01b81526004810183905260240161093e565b8060018381548110610f9157610f91612e01565b6000918252602090912001555050565b60008181526007602090815260409182902080548351818402810184019094528084526060939283018282801561100157602002820191906000526020600020905b81546001600160a01b03168152600190910190602001808311610fe3575b50505050509050919050565b6001600160a01b03811660009081526012602090815260409182902080548351818402810184019094528084526060939283018282801561100157602002820191906000526020600020905b8154815260200190600101908083116110595750505050509050919050565b6007602052816000526040600020818154811061109457600080fd5b6000918252602090912001546001600160a01b03169150829050565b6060600680548060200260200160405190810160405280929190818152602001828054801561110857602002820191906000526020600020905b81546001600160a01b031681526001909101906020018083116110ea575b5050505050905090565b61111a612565565b6111246000612701565b565b6012602052816000526040600020818154811061114257600080fd5b90600052602060002001600091509150505481565b6009546001600160a01b031615806111e45750600960009054906101000a90046001600160a01b03166001600160a01b031663f8eeed626040518163ffffffff1660e01b8152600401602060405180830381865afa1580156111bd573d6000803e3d6000fd5b505050506040513d601f19601f820116820180604052508101906111e19190612e43565b42105b156112025760405163bf6c2f2960e01b815260040160405180910390fd5b600061120c612751565b60405181815290915033907f66eb666f5327b1c47411b5678aee7f232f4aefba6597ef9ebbaf7e60b79fc0469060200160405180910390a250565b6001600160a01b038116158061126557506001600160a01b03811633145b1561128e576040516316fb166f60e01b81526001600160a01b038216600482015260240161093e565b61129c603c62015180612e5c565b62ffffff166008546112ae9190612e17565b42106112cd576040516378839fe360e01b815260040160405180910390fd5b34806802b5e3af16b188000081106112e8576112e8846128d7565b60006112f5600a84612ddf565b90506113018184612e17565b92506000611310601434612ddf565b9050600061131e8286612e17565b9050600061132a6108a3565b336000908152600e602052604090205490915060ff1661138f57336000818152600e60205260408120805460ff19166001908117909155600680549182018155909152600080516020612f648339815191520180546001600160a01b03191690911790555b336000908152600f6020908152604080832084845290915290205460ff166113fe57336000818152600f602090815260408083208584528252808320805460ff191660019081179091556007835290832080549182018155835291200180546001600160a01b03191690911790555b336000908152600b60205260409020869082603c811061142057611420612e01565b0160008282546114309190612e17565b9091555050336000908152600c60205260409020869082603c811061145757611457612e01565b0160008282546114679190612e17565b90915550506001600160a01b0387166000908152600d60205260409020839082603c811061149757611497612e01565b0160008282546114a79190612e17565b9250508190555085600382815481106114c2576114c2612e01565b9060005260206000200160008282546114db9190612e17565b9250508190555081600282815481106114f6576114f6612e01565b90600052602060002001600082825461150f9190612e17565b9091555060019050601382603c811061152a5761152a612e01565b01600082825461153a9190612e17565b90915550506001600160a01b038716600081815260126020908152604080832080546001818101835582865293852042918101919091558154808501835581018c905581549384018255935291018590555133907faeecfcda1271d292db728294b8ae465871ec039d51404caf49a7eb0ade51770a906115bd9089815260200190565b60405180910390a36040516001600160a01b0388169086903390600080516020612f8483398151915290600090a45050505050505050565b611603603c62015180612e5c565b62ffffff166008546116159190612e17565b4210611634576040516378839fe360e01b815260040160405180910390fd5b346802b5e3af16b1880000811061164e5761164e826128d7565b60006116586108a3565b336000908152600e602052604090205490915060ff166116bd57336000818152600e60205260408120805460ff19166001908117909155600680549182018155909152600080516020612f648339815191520180546001600160a01b03191690911790555b336000908152600f6020908152604080832084845290915290205460ff1661172c57336000818152600f602090815260408083208584528252808320805460ff191660019081179091556007835290832080549182018155835291200180546001600160a01b03191690911790555b336000908152600b60205260409020829082603c811061174e5761174e612e01565b01600082825461175e9190612e17565b9091555050336000908152600c60205260409020829082603c811061178557611785612e01565b0160008282546117959190612e17565b9250508190555081600382815481106117b0576117b0612e01565b9060005260206000200160008282546117c99190612e17565b9250508190555081600282815481106117e4576117e4612e01565b9060005260206000200160008282546117fd9190612e17565b9091555060019050601382603c811061181857611818612e01565b0160008282546118289190612e17565b909155505060405160009083903390600080516020612f84833981519152908490a4505050565b611858826125bf565b6009546001600160a01b031615806118e55750600960009054906101000a90046001600160a01b03166001600160a01b031663f8eeed626040518163ffffffff1660e01b8152600401602060405180830381865afa1580156118be573d6000803e3d6000fd5b505050506040513d601f19601f820116820180604052508101906118e29190612e43565b42105b156119035760405163bf6c2f2960e01b815260040160405180910390fd5b600061190e83612622565b905061191e603c62015180612e5c565b62ffffff16600960009054906101000a90046001600160a01b03166001600160a01b031663f8eeed626040518163ffffffff1660e01b8152600401602060405180830381865afa158015611976573d6000803e3d6000fd5b505050506040513d601f19601f8201168201806040525081019061199a9190612e43565b6119a49190612e17565b421115611a975760006119bb603c62015180612e5c565b62ffffff16600960009054906101000a90046001600160a01b03166001600160a01b031663f8eeed626040518163ffffffff1660e01b8152600401602060405180830381865afa158015611a13573d6000803e3d6000fd5b505050506040513d601f19601f82011682018060405250810190611a379190612e43565b611a419190612e17565b611a4b9042612dc6565b905060648110611a6e576040516341524ecf60e11b815260040160405180910390fd5b60006064611a7c8385612e83565b611a869190612ddf565b9050611a928184612dc6565b925050505b600a5460095460405163095ea7b360e01b81526001600160a01b0391821660048201526024810184905291169063095ea7b3906044016020604051808303816000875af1158015611aec573d6000803e3d6000fd5b505050506040513d601f19601f82011682018060405250810190611b109190612e9a565b50600954604051633ca5d14f60e11b815233600482015261ffff84166024820152604481018390526001600160a01b039091169063794ba29e9060640160408051808303816000875af1158015611b6b573d6000803e3d6000fd5b505050506040513d601f19601f82011682018060405250810190611b8f9190612ebc565b50506040518190849033907f34fcbac0073d7c3d388e51312faf357774904998eeb8fca628b9e6f65ee1cbf790600090a4505050565b611bcd612565565b600a54600160a01b900460ff1615611bf75760405162dc149f60e41b815260040160405180910390fd5b611c04600182603c6129db565b5050600a805460ff60a01b1916600160a01b179055565b601381603c8110611c2b57600080fd5b0154905081565b600080611c3d6108a3565b9050603c83101580611c4e57508083115b15611c6f57604051631e80226f60e01b81526004810184905260240161093e565b6002838154811061095a5761095a612e01565b611c90603c62015180612e5c565b62ffffff16600854611ca29190612e17565b4210611cc1576040516378839fe360e01b815260040160405180910390fd5b346000611ccc6108a3565b336000908152600e602052604090205490915060ff16611d3157336000818152600e60205260408120805460ff19166001908117909155600680549182018155909152600080516020612f648339815191520180546001600160a01b03191690911790555b336000908152600f6020908152604080832084845290915290205460ff16611da057336000818152600f602090815260408083208584528252808320805460ff191660019081179091556007835290832080549182018155835291200180546001600160a01b03191690911790555b336000908152600b60205260409020829082603c8110611dc257611dc2612e01565b016000828254611dd29190612e17565b9091555050336000908152600c60205260409020829082603c8110611df957611df9612e01565b016000828254611e099190612e17565b925050819055508160038281548110611e2457611e24612e01565b906000526020600020016000828254611e3d9190612e17565b925050819055508160028281548110611e5857611e58612e01565b906000526020600020016000828254611e719190612e17565b9091555060019050601382603c8110611e8c57611e8c612e01565b016000828254611e9c9190612e17565b909155505060405160009083903390600080516020612f84833981519152908490a45050565b611eca612565565b6009546001600160a01b0316611ef35760405163bf6c2f2960e01b815260040160405180910390fd5b611f01606462015180612e5c565b62ffffff16611f14603c62015180612e5c565b62ffffff16600960009054906101000a90046001600160a01b03166001600160a01b031663f8eeed626040518163ffffffff1660e01b8152600401602060405180830381865afa158015611f6c573d6000803e3d6000fd5b505050506040513d601f19601f82011682018060405250810190611f909190612e43565b611f9a9190612e17565b611fa49190612e17565b4211611fc357604051630319c02f60e11b815260040160405180910390fd5b600a546040516370a0823160e01b81523060048201526000916001600160a01b0316906370a0823190602401602060405180830381865afa15801561200c573d6000803e3d6000fd5b505050506040513d601f19601f820116820180604052508101906120309190612e43565b600a546004805460405163a9059cbb60e01b81526001600160a01b0391821692810192909252602482018490529293506000929091169063a9059cbb906044016020604051808303816000875af115801561208f573d6000803e3d6000fd5b505050506040513d601f19601f820116820180604052508101906120b39190612e9a565b9050806120d35760405163b1f33d5960e01b815260040160405180910390fd5b5050565b6120df612565565b6001600160a01b0381166121445760405162461bcd60e51b815260206004820152602660248201527f4f776e61626c653a206e6577206f776e657220697320746865207a65726f206160448201526564647265737360d01b606482015260840161093e565b61214d81612701565b50565b6001600160a01b038116158061216e57506001600160a01b03811633145b15612197576040516316fb166f60e01b81526001600160a01b038216600482015260240161093e565b6121a5603c62015180612e5c565b62ffffff166008546121b79190612e17565b42106121d6576040516378839fe360e01b815260040160405180910390fd5b348060006121e5600a83612ddf565b90506121f18184612e17565b92506000612200601434612ddf565b9050600061220e8286612e17565b9050600061221a6108a3565b336000908152600e602052604090205490915060ff1661227f57336000818152600e60205260408120805460ff19166001908117909155600680549182018155909152600080516020612f648339815191520180546001600160a01b03191690911790555b336000908152600f6020908152604080832084845290915290205460ff166122ee57336000818152600f602090815260408083208584528252808320805460ff191660019081179091556007835290832080549182018155835291200180546001600160a01b03191690911790555b336000908152600b60205260409020869082603c811061231057612310612e01565b0160008282546123209190612e17565b9091555050336000908152600c60205260409020869082603c811061234757612347612e01565b0160008282546123579190612e17565b90915550506001600160a01b0387166000908152600d60205260409020839082603c811061238757612387612e01565b0160008282546123979190612e17565b9250508190555085600382815481106123b2576123b2612e01565b9060005260206000200160008282546123cb9190612e17565b9250508190555081600282815481106123e6576123e6612e01565b9060005260206000200160008282546123ff9190612e17565b9091555060019050601382603c811061241a5761241a612e01565b01600082825461242a9190612e17565b90915550506001600160a01b038716600081815260126020908152604080832080546001818101835582865293852042918101919091558154808501835581018c905581549384018255935291018590555133907faeecfcda1271d292db728294b8ae465871ec039d51404caf49a7eb0ade51770a906124ad9089815260200190565b60405180910390a36040516001600160a01b0388169086903390600080516020612f8483398151915290600090a450505050505050565b6124ec612565565b6000826001600160a01b03168260405160006040518083038185875af1925050503d8060008114612539576040519150601f19603f3d011682016040523d82523d6000602084013e61253e565b606091505b505090508061256057604051631d42c86760e21b815260040160405180910390fd5b505050565b6000546001600160a01b031633146111245760405162461bcd60e51b815260206004820181905260248201527f4f776e61626c653a2063616c6c6572206973206e6f7420746865206f776e6572604482015260640161093e565b603c81106125e357604051631e80226f60e01b81526004810182905260240161093e565b6125f1603c62015180612e5c565b62ffffff166008546126039190612e17565b421161214d57604051630319c02f60e11b815260040160405180910390fd5b33600090815260106020908152604080832084845290915281205460ff16156126615760405163598b3dfd60e11b81526004810183905260240161093e565b3360009081526010602090815260408083208584529091528120805460ff19166001179055600280548490811061269a5761269a612e01565b6000918252602080832090910154338352600c909152604090912084603c81106126c6576126c6612e01565b0154600185815481106126db576126db612e01565b90600052602060002001546126f09190612e83565b6126fa9190612ddf565b9392505050565b600080546001600160a01b038381166001600160a01b0319831681178455604051919092169283917f8be0079c531659141344cd1fd0a4f28419497f9722a3daafe3b4186f6b6457e09190a35050565b60008060005b603c8110156128185760006002828154811061277557612775612e01565b90600052602060002001541115612806576002818154811061279957612799612e01565b6000918252602080832090910154338352600d909152604090912082603c81106127c5576127c5612e01565b0154600183815481106127da576127da612e01565b90600052602060002001546127ef9190612e83565b6127f99190612ddf565b6128039083612e17565b91505b8061281081612e2a565b915050612757565b50336000908152601160205260409020546128339082612dc6565b33600090815260116020526040812080549293508392909190612857908490612e17565b9091555050600a5460405163a9059cbb60e01b8152336004820152602481018390526001600160a01b039091169063a9059cbb906044016020604051808303816000875af11580156128ad573d6000803e3d6000fd5b505050506040513d601f19601f820116820180604052508101906128d19190612e9a565b50919050565b6005546001600160a01b03166129005760405163181ee60760e01b815260040160405180910390fd5b600554604051631c351a9d60e01b81526000916001600160a01b031690631c351a9d906129339085903390600401612f26565b6020604051808303816000875af1158015612952573d6000803e3d6000fd5b505050506040513d601f19601f820116820180604052508101906129769190612e9a565b9050806129965760405163cd6418b960e01b815260040160405180910390fd5b336001600160a01b03167f74828dde51e35e803e5f03501daa7008c1167358b6b92edc31b209a85f8a0fed836040516129cf9190612f50565b60405180910390a25050565b828054828255906000526020600020908101928215612a16579160200282015b82811115612a165782518255916020019190600101906129fb565b50612a22929150612a26565b5090565b5b80821115612a225760008155600101612a27565b6001600160a01b038116811461214d57600080fd5b60008060408385031215612a6357600080fd5b8235612a6e81612a3b565b946020939093013593505050565b600060208284031215612a8e57600080fd5b5035919050565b600060208284031215612aa757600080fd5b81356126fa81612a3b565b60008060408385031215612ac557600080fd5b50508035926020909101359150565b600081518084526020808501945080840160005b83811015612b0d5781516001600160a01b031687529582019590820190600101612ae8565b509495945050505050565b604081526000612b2b6040830185612ad4565b90508260208301529392505050565b600080600060608486031215612b4f57600080fd5b8335612b5a81612a3b565b9250602084013591506040840135612b7181612a3b565b809150509250925092565b6020815260006126fa6020830184612ad4565b6020808252825182820181905260009190848201906040850190845b81811015612bc757835183529284019291840191600101612bab565b50909695505050505050565b634e487b7160e01b600052604160045260246000fd5b600082601f830112612bfa57600080fd5b813567ffffffffffffffff80821115612c1557612c15612bd3565b604051601f8301601f19908116603f01168101908282118183101715612c3d57612c3d612bd3565b81604052838152866020858801011115612c5657600080fd5b836020870160208301376000602085830101528094505050505092915050565b60008060408385031215612c8957600080fd5b823567ffffffffffffffff811115612ca057600080fd5b612cac85828601612be9565b9250506020830135612cbd81612a3b565b809150509250929050565b600060208284031215612cda57600080fd5b813567ffffffffffffffff811115612cf157600080fd5b612cfd84828501612be9565b949350505050565b60008060408385031215612d1857600080fd5b82359150602083013561ffff81168114612cbd57600080fd5b6000610780808385031215612d4557600080fd5b83601f840112612d5457600080fd5b60405181810181811067ffffffffffffffff82111715612d7657612d76612bd3565b604052908301908085831115612d8b57600080fd5b845b83811015612da5578035825260209182019101612d8d565b509095945050505050565b634e487b7160e01b600052601160045260246000fd5b81810381811115612dd957612dd9612db0565b92915050565b600082612dfc57634e487b7160e01b600052601260045260246000fd5b500490565b634e487b7160e01b600052603260045260246000fd5b80820180821115612dd957612dd9612db0565b600060018201612e3c57612e3c612db0565b5060010190565b600060208284031215612e5557600080fd5b5051919050565b62ffffff818116838216028082169190828114612e7b57612e7b612db0565b505092915050565b8082028115828204841417612dd957612dd9612db0565b600060208284031215612eac57600080fd5b815180151581146126fa57600080fd5b60008060408385031215612ecf57600080fd5b505080516020909101519092909150565b6000815180845260005b81811015612f0657602081850181015186830182015201612eea565b506000602082860101526020601f19601f83011685010191505092915050565b604081526000612f396040830185612ee0565b905060018060a01b03831660208301529392505050565b6020815260006126fa6020830184612ee056fef652222313e28459528d920b65115c16c04f3efc82aaedc97be59f3f377c0d3fe31c7b8d08ee7db0afa68782e1028ef92305caeea8626633ad44d413e30f6b2fa2646970667358221220279ef34ef6db4fee22fda41ab2ea323b651b8f149110f7f784c60182183f7a4864736f6c63430008110033",
  "linkReferences": {},
  "deployedLinkReferences": {}
}