{
  "_format": "hh-sol-artifact-1",
  "contractName": "LiquidityAmplifier",
  "sourceName": "contracts/LiquidityAmplifier.sol",
  "abi": [
    {
      "inputs": [
        {
          "internalType": "address",
          "name": "_maxxVault",
          "type": "address"
        },
        {
          "internalType": "uint256",
          "name": "_launchDate",
          "type": "uint256"
        },
        {
          "internalType": "address",
          "name": "_maxx",
          "type": "address"
        }
      ],
      "stateMutability": "nonpayable",
      "type": "constructor"
    },
    {
      "inputs": [
        {
          "internalType": "uint8",
          "name": "day",
          "type": "uint8"
        }
      ],
      "name": "AlreadyClaimed",
      "type": "error"
    },
    {
      "inputs": [],
      "name": "AlreadyInitialized",
      "type": "error"
    },
    {
      "inputs": [],
      "name": "AmplifierComplete",
      "type": "error"
    },
    {
      "inputs": [],
      "name": "AmplifierNotComplete",
      "type": "error"
    },
    {
      "inputs": [],
      "name": "AmplifierNotStarted",
      "type": "error"
    },
    {
      "inputs": [],
      "name": "ClaimExpired",
      "type": "error"
    },
    {
      "inputs": [
        {
          "internalType": "uint256",
          "name": "day",
          "type": "uint256"
        }
      ],
      "name": "InvalidDay",
      "type": "error"
    },
    {
      "inputs": [
        {
          "internalType": "address",
          "name": "referrer",
          "type": "address"
        }
      ],
      "name": "InvalidReferrer",
      "type": "error"
    },
    {
      "inputs": [],
      "name": "LaunchDatePassed",
      "type": "error"
    },
    {
      "inputs": [],
      "name": "MaxxGenesisMintFailed",
      "type": "error"
    },
    {
      "inputs": [],
      "name": "MaxxGenesisNotSet",
      "type": "error"
    },
    {
      "inputs": [],
      "name": "MaxxTransferFailed",
      "type": "error"
    },
    {
      "inputs": [],
      "name": "StakingNotInitialized",
      "type": "error"
    },
    {
      "inputs": [],
      "name": "WithdrawFailed",
      "type": "error"
    },
    {
      "anonymous": false,
      "inputs": [
        {
          "indexed": true,
          "internalType": "address",
          "name": "user",
          "type": "address"
        },
        {
          "indexed": false,
          "internalType": "uint256",
          "name": "amount",
          "type": "uint256"
        }
      ],
      "name": "Claim",
      "type": "event"
    },
    {
      "anonymous": false,
      "inputs": [
        {
          "indexed": true,
          "internalType": "address",
          "name": "user",
          "type": "address"
        },
        {
          "indexed": false,
          "internalType": "uint256",
          "name": "amount",
          "type": "uint256"
        }
      ],
      "name": "ClaimReferral",
      "type": "event"
    },
    {
      "anonymous": false,
      "inputs": [
        {
          "indexed": true,
          "internalType": "address",
          "name": "user",
          "type": "address"
        },
        {
          "indexed": true,
          "internalType": "uint256",
          "name": "amount",
          "type": "uint256"
        },
        {
          "indexed": true,
          "internalType": "address",
          "name": "referrer",
          "type": "address"
        }
      ],
      "name": "Deposit",
      "type": "event"
    },
    {
      "anonymous": false,
      "inputs": [
        {
          "indexed": false,
          "internalType": "uint256",
          "name": "newLaunchDate",
          "type": "uint256"
        }
      ],
      "name": "LaunchDateUpdated",
      "type": "event"
    },
    {
      "anonymous": false,
      "inputs": [
        {
          "indexed": true,
          "internalType": "address",
          "name": "user",
          "type": "address"
        },
        {
          "indexed": false,
          "internalType": "string",
          "name": "code",
          "type": "string"
        }
      ],
      "name": "MaxxGenesisMinted",
      "type": "event"
    },
    {
      "anonymous": false,
      "inputs": [
        {
          "indexed": true,
          "internalType": "address",
          "name": "maxxGenesis",
          "type": "address"
        }
      ],
      "name": "MaxxGenesisSet",
      "type": "event"
    },
    {
      "anonymous": false,
      "inputs": [
        {
          "indexed": true,
          "internalType": "address",
          "name": "previousOwner",
          "type": "address"
        },
        {
          "indexed": true,
          "internalType": "address",
          "name": "newOwner",
          "type": "address"
        }
      ],
      "name": "OwnershipTransferred",
      "type": "event"
    },
    {
      "anonymous": false,
      "inputs": [
        {
          "indexed": true,
          "internalType": "address",
          "name": "user",
          "type": "address"
        },
        {
          "indexed": true,
          "internalType": "address",
          "name": "referrer",
          "type": "address"
        },
        {
          "indexed": false,
          "internalType": "uint256",
          "name": "amount",
          "type": "uint256"
        }
      ],
      "name": "Referral",
      "type": "event"
    },
    {
      "anonymous": false,
      "inputs": [
        {
          "indexed": true,
          "internalType": "address",
          "name": "stake",
          "type": "address"
        }
      ],
      "name": "StakeAddressSet",
      "type": "event"
    },
    {
      "inputs": [],
      "name": "AMPLIFIER_PERIOD",
      "outputs": [
        {
          "internalType": "uint16",
          "name": "",
          "type": "uint16"
        }
      ],
      "stateMutability": "view",
      "type": "function"
    },
    {
      "inputs": [],
      "name": "CLAIM_PERIOD",
      "outputs": [
        {
          "internalType": "uint16",
          "name": "",
          "type": "uint16"
        }
      ],
      "stateMutability": "view",
      "type": "function"
    },
    {
      "inputs": [],
      "name": "MAX_LATE_DAYS",
      "outputs": [
        {
          "internalType": "uint16",
          "name": "",
          "type": "uint16"
        }
      ],
      "stateMutability": "view",
      "type": "function"
    },
    {
      "inputs": [],
      "name": "MIN_GENESIS_AMOUNT",
      "outputs": [
        {
          "internalType": "uint256",
          "name": "",
          "type": "uint256"
        }
      ],
      "stateMutability": "view",
      "type": "function"
    },
    {
      "inputs": [
        {
          "internalType": "uint256",
          "name": "_day",
          "type": "uint256"
        },
        {
          "internalType": "uint256",
          "name": "_maxxAmount",
          "type": "uint256"
        }
      ],
      "name": "changeDailyAllocation",
      "outputs": [],
      "stateMutability": "nonpayable",
      "type": "function"
    },
    {
      "inputs": [
        {
          "internalType": "uint256",
          "name": "_launchDate",
          "type": "uint256"
        }
      ],
      "name": "changeLaunchDate",
      "outputs": [],
      "stateMutability": "nonpayable",
      "type": "function"
    },
    {
      "inputs": [
        {
          "internalType": "uint8",
          "name": "_day",
          "type": "uint8"
        }
      ],
      "name": "claim",
      "outputs": [],
      "stateMutability": "nonpayable",
      "type": "function"
    },
    {
      "inputs": [
        {
          "internalType": "uint8",
          "name": "_day",
          "type": "uint8"
        }
      ],
      "name": "claimReferrals",
      "outputs": [],
      "stateMutability": "nonpayable",
      "type": "function"
    },
    {
      "inputs": [
        {
          "internalType": "uint8",
          "name": "_day",
          "type": "uint8"
        },
        {
          "internalType": "uint16",
          "name": "_daysToStake",
          "type": "uint16"
        }
      ],
      "name": "claimToStake",
      "outputs": [],
      "stateMutability": "nonpayable",
      "type": "function"
    },
    {
      "inputs": [
        {
          "internalType": "uint8",
          "name": "_day",
          "type": "uint8"
        },
        {
          "internalType": "uint16",
          "name": "_daysToStake",
          "type": "uint16"
        },
        {
          "internalType": "uint256",
          "name": "_tokenId",
          "type": "uint256"
        },
        {
          "internalType": "enum IStake.MaxxNFT",
          "name": "_maxxNFT",
          "type": "uint8"
        }
      ],
      "name": "claimToStake",
      "outputs": [],
      "stateMutability": "nonpayable",
      "type": "function"
    },
    {
      "inputs": [
        {
          "internalType": "uint256",
          "name": "",
          "type": "uint256"
        }
      ],
      "name": "dailyDepositors",
      "outputs": [
        {
          "internalType": "uint256",
          "name": "",
          "type": "uint256"
        }
      ],
      "stateMutability": "view",
      "type": "function"
    },
    {
      "inputs": [
        {
          "internalType": "address",
          "name": "",
          "type": "address"
        },
        {
          "internalType": "uint256",
          "name": "",
          "type": "uint256"
        }
      ],
      "name": "dayClaimed",
      "outputs": [
        {
          "internalType": "bool",
          "name": "",
          "type": "bool"
        }
      ],
      "stateMutability": "view",
      "type": "function"
    },
    {
      "inputs": [
        {
          "internalType": "address",
          "name": "",
          "type": "address"
        },
        {
          "internalType": "uint256",
          "name": "",
          "type": "uint256"
        }
      ],
      "name": "dayClaimedReferrals",
      "outputs": [
        {
          "internalType": "bool",
          "name": "",
          "type": "bool"
        }
      ],
      "stateMutability": "view",
      "type": "function"
    },
    {
      "inputs": [
        {
          "internalType": "string",
          "name": "_code",
          "type": "string"
        },
        {
          "internalType": "address",
          "name": "_referrer",
          "type": "address"
        }
      ],
      "name": "deposit",
      "outputs": [],
      "stateMutability": "payable",
      "type": "function"
    },
    {
      "inputs": [
        {
          "internalType": "string",
          "name": "_code",
          "type": "string"
        }
      ],
      "name": "deposit",
      "outputs": [],
      "stateMutability": "payable",
      "type": "function"
    },
    {
      "inputs": [],
      "name": "deposit",
      "outputs": [],
      "stateMutability": "payable",
      "type": "function"
    },
    {
      "inputs": [
        {
          "internalType": "address",
          "name": "_referrer",
          "type": "address"
        }
      ],
      "name": "deposit",
      "outputs": [],
      "stateMutability": "payable",
      "type": "function"
    },
    {
      "inputs": [
        {
          "internalType": "address",
          "name": "",
          "type": "address"
        },
        {
          "internalType": "uint256",
          "name": "",
          "type": "uint256"
        }
      ],
      "name": "effectiveUserDailyDeposits",
      "outputs": [
        {
          "internalType": "uint256",
          "name": "",
          "type": "uint256"
        }
      ],
      "stateMutability": "view",
      "type": "function"
    },
    {
      "inputs": [
        {
          "internalType": "address",
          "name": "",
          "type": "address"
        },
        {
          "internalType": "uint256",
          "name": "",
          "type": "uint256"
        }
      ],
      "name": "effectiveUserReferrals",
      "outputs": [
        {
          "internalType": "uint256",
          "name": "",
          "type": "uint256"
        }
      ],
      "stateMutability": "view",
      "type": "function"
    },
    {
      "inputs": [],
      "name": "getDay",
      "outputs": [
        {
          "internalType": "uint8",
          "name": "day",
          "type": "uint8"
        }
      ],
      "stateMutability": "view",
      "type": "function"
    },
    {
      "inputs": [
        {
          "internalType": "uint8",
          "name": "_day",
          "type": "uint8"
        }
      ],
      "name": "getEffectiveMaticDailyDeposit",
      "outputs": [
        {
          "internalType": "uint256",
          "name": "",
          "type": "uint256"
        }
      ],
      "stateMutability": "view",
      "type": "function"
    },
    {
      "inputs": [
        {
          "internalType": "uint8",
          "name": "_day",
          "type": "uint8"
        }
      ],
      "name": "getMaticDailyDeposit",
      "outputs": [
        {
          "internalType": "uint256",
          "name": "",
          "type": "uint256"
        }
      ],
      "stateMutability": "view",
      "type": "function"
    },
    {
      "inputs": [
        {
          "internalType": "uint8",
          "name": "_day",
          "type": "uint8"
        }
      ],
      "name": "getMaxxDailyAllocation",
      "outputs": [
        {
          "internalType": "uint256",
          "name": "",
          "type": "uint256"
        }
      ],
      "stateMutability": "view",
      "type": "function"
    },
    {
      "inputs": [],
      "name": "getParticipants",
      "outputs": [
        {
          "internalType": "address[]",
          "name": "",
          "type": "address[]"
        }
      ],
      "stateMutability": "view",
      "type": "function"
    },
    {
      "inputs": [
        {
          "internalType": "uint256",
          "name": "start",
          "type": "uint256"
        },
        {
          "internalType": "uint256",
          "name": "length",
          "type": "uint256"
        }
      ],
      "name": "getParticipantsSlice",
      "outputs": [
        {
          "internalType": "address[]",
          "name": "participantsSlice",
          "type": "address[]"
        },
        {
          "internalType": "uint256",
          "name": "newStart",
          "type": "uint256"
        }
      ],
      "stateMutability": "view",
      "type": "function"
    },
    {
      "inputs": [
        {
          "internalType": "address",
          "name": "_user",
          "type": "address"
        }
      ],
      "name": "getUserAmpReferrals",
      "outputs": [
        {
          "internalType": "uint256[]",
          "name": "",
          "type": "uint256[]"
        }
      ],
      "stateMutability": "view",
      "type": "function"
    },
    {
      "inputs": [],
      "name": "launchDate",
      "outputs": [
        {
          "internalType": "uint256",
          "name": "",
          "type": "uint256"
        }
      ],
      "stateMutability": "view",
      "type": "function"
    },
    {
      "inputs": [],
      "name": "maxx",
      "outputs": [
        {
          "internalType": "address",
          "name": "",
          "type": "address"
        }
      ],
      "stateMutability": "view",
      "type": "function"
    },
    {
      "inputs": [],
      "name": "maxxGenesis",
      "outputs": [
        {
          "internalType": "address",
          "name": "",
          "type": "address"
        }
      ],
      "stateMutability": "view",
      "type": "function"
    },
    {
      "inputs": [],
      "name": "maxxVault",
      "outputs": [
        {
          "internalType": "address",
          "name": "",
          "type": "address"
        }
      ],
      "stateMutability": "view",
      "type": "function"
    },
    {
      "inputs": [],
      "name": "owner",
      "outputs": [
        {
          "internalType": "address",
          "name": "",
          "type": "address"
        }
      ],
      "stateMutability": "view",
      "type": "function"
    },
    {
      "inputs": [
        {
          "internalType": "uint256",
          "name": "",
          "type": "uint256"
        }
      ],
      "name": "participants",
      "outputs": [
        {
          "internalType": "address",
          "name": "",
          "type": "address"
        }
      ],
      "stateMutability": "view",
      "type": "function"
    },
    {
      "inputs": [
        {
          "internalType": "address",
          "name": "",
          "type": "address"
        }
      ],
      "name": "participated",
      "outputs": [
        {
          "internalType": "bool",
          "name": "",
          "type": "bool"
        }
      ],
      "stateMutability": "view",
      "type": "function"
    },
    {
      "inputs": [],
      "name": "renounceOwnership",
      "outputs": [],
      "stateMutability": "nonpayable",
      "type": "function"
    },
    {
      "inputs": [
        {
          "internalType": "uint256[60]",
          "name": "_dailyAllocation",
          "type": "uint256[60]"
        }
      ],
      "name": "setDailyAllocations",
      "outputs": [],
      "stateMutability": "nonpayable",
      "type": "function"
    },
    {
      "inputs": [
        {
          "internalType": "address",
          "name": "_maxxGenesis",
          "type": "address"
        }
      ],
      "name": "setMaxxGenesis",
      "outputs": [],
      "stateMutability": "nonpayable",
      "type": "function"
    },
    {
      "inputs": [
        {
          "internalType": "address",
          "name": "_stake",
          "type": "address"
        }
      ],
      "name": "setStakeAddress",
      "outputs": [],
      "stateMutability": "nonpayable",
      "type": "function"
    },
    {
      "inputs": [],
      "name": "stake",
      "outputs": [
        {
          "internalType": "contract IStake",
          "name": "",
          "type": "address"
        }
      ],
      "stateMutability": "view",
      "type": "function"
    },
    {
      "inputs": [
        {
          "internalType": "address",
          "name": "newOwner",
          "type": "address"
        }
      ],
      "name": "transferOwnership",
      "outputs": [],
      "stateMutability": "nonpayable",
      "type": "function"
    },
    {
      "inputs": [
        {
          "internalType": "address",
          "name": "",
          "type": "address"
        },
        {
          "internalType": "uint256",
          "name": "",
          "type": "uint256"
        }
      ],
      "name": "userAmpReferral",
      "outputs": [
        {
          "internalType": "uint256",
          "name": "",
          "type": "uint256"
        }
      ],
      "stateMutability": "view",
      "type": "function"
    },
    {
      "inputs": [
        {
          "internalType": "address",
          "name": "",
          "type": "address"
        },
        {
          "internalType": "uint256",
          "name": "",
          "type": "uint256"
        }
      ],
      "name": "userDailyDeposits",
      "outputs": [
        {
          "internalType": "uint256",
          "name": "",
          "type": "uint256"
        }
      ],
      "stateMutability": "view",
      "type": "function"
    },
    {
      "inputs": [
        {
          "internalType": "address payable",
          "name": "_to",
          "type": "address"
        },
        {
          "internalType": "uint256",
          "name": "_amount",
          "type": "uint256"
        }
      ],
      "name": "withdraw",
      "outputs": [],
      "stateMutability": "nonpayable",
      "type": "function"
    },
    {
      "inputs": [],
      "name": "withdrawMaxx",
      "outputs": [],
      "stateMutability": "nonpayable",
      "type": "function"
    }
  ],
  "bytecode": "0x603c60808181526108206040529060a061078080368337505081516200002d9260019250602001906200015b565b5060408051603c8082526107a0820190925290602082016107808036833750508151620000629260029250602001906200015b565b5060408051603c8082526107a0820190925290602082016107808036833750508151620000979260039250602001906200015b565b50348015620000a557600080fd5b5060405162002dff38038062002dff833981016040819052620000c891620001df565b620000d3336200010b565b600480546001600160a01b039485166001600160a01b0319918216179091556007929092556009805491909316911617905562000220565b600080546001600160a01b038381166001600160a01b0319831681178455604051919092169283917f8be0079c531659141344cd1fd0a4f28419497f9722a3daafe3b4186f6b6457e09190a35050565b82805482825590600052602060002090810192821562000199579160200282015b82811115620001995782518255916020019190600101906200017c565b50620001a7929150620001ab565b5090565b5b80821115620001a75760008155600101620001ac565b80516001600160a01b0381168114620001da57600080fd5b919050565b600080600060608486031215620001f557600080fd5b6200020084620001c2565b9250602084015191506200021760408501620001c2565b90509250925092565b612bcf80620002306000396000f3fe60806040526004361061025c5760003560e01c80635c1b88c211610144578063afc1a26d116100b6578063f2fde38b1161007a578063f2fde38b1461073b578063f340fa011461075b578063f3fef3a31461076e578063f49c7f7e1461078e578063f8eeed62146107ac578063fd1c24ed146107c257600080fd5b8063afc1a26d146106ae578063b3bd870a146106ce578063d0e30db0146106fe578063e08962c614610706578063efb1274c1461072657600080fd5b80638da5cb5b116101085780638da5cb5b1461060a57806395d4063f146106285780639be37a9714610648578063a26e11861461065b578063a6fc7ff31461066e578063a7d6988b1461068e57600080fd5b80635c1b88c21461052f5780636a9f28071461057a578063715018a6146105b557806386285fb8146105ca5780638825d4d2146105ea57600080fd5b806329897a89116101dd5780633a851826116101a15780633a851826146104605780633c64dab314610480578063415ca623146104a0578063493518ee146104c05780634bd2b98b146104e05780635aa68ac01461050d57600080fd5b806329897a891461039a57806332be640e146103ba578063352dd559146103f257806335c1d349146104205780633a4b66f11461044057600080fd5b806315bb83471161022457806315bb834714610325578063177b7db01461033a5780631e3219fc1461035a57806321241dfe1461026157806323471d181461037a57600080fd5b806303ac8dc6146102615780630609f12d1461028e578063082b9cec146102bc5780630d6168a2146102dc57806314ba5c09146102fe575b600080fd5b34801561026d57600080fd5b50610276603c81565b60405161ffff90911681526020015b60405180910390f35b34801561029a57600080fd5b506102ae6102a93660046125a5565b6107e2565b604051908152602001610285565b3480156102c857600080fd5b506102ae6102d73660046125e7565b610807565b3480156102e857600080fd5b506102fc6102f7366004612614565b61087d565b005b34801561030a57600080fd5b506103136109c2565b60405160ff9091168152602001610285565b34801561033157600080fd5b50610276606481565b34801561034657600080fd5b506102ae6103553660046125a5565b610a1d565b34801561036657600080fd5b506102fc610375366004612647565b610a39565b34801561038657600080fd5b506102fc610395366004612660565b610aab565b3480156103a657600080fd5b506102ae6103b53660046125a5565b610afd565b3480156103c657600080fd5b506005546103da906001600160a01b031681565b6040516001600160a01b039091168152602001610285565b3480156103fe57600080fd5b5061041261040d36600461267d565b610b19565b6040516102859291906126e3565b34801561042c57600080fd5b506103da61043b366004612647565b610bb4565b34801561044c57600080fd5b506008546103da906001600160a01b031681565b34801561046c57600080fd5b506102ae61047b3660046125e7565b610bde565b34801561048c57600080fd5b506009546103da906001600160a01b031681565b3480156104ac57600080fd5b506102fc6104bb366004612660565b610c3c565b3480156104cc57600080fd5b506102fc6104db36600461267d565b610c8d565b3480156104ec57600080fd5b506105006104fb366004612660565b610cf5565b6040516102859190612705565b34801561051957600080fd5b50610522610d61565b6040516102859190612749565b34801561053b57600080fd5b5061056a61054a3660046125a5565b600f60209081526000928352604080842090915290825290205460ff1681565b6040519015158152602001610285565b34801561058657600080fd5b5061056a6105953660046125a5565b600e60209081526000928352604080842090915290825290205460ff1681565b3480156105c157600080fd5b506102fc610dc3565b3480156105d657600080fd5b506102ae6105e53660046125e7565b610dd7565b3480156105f657600080fd5b506102ae6106053660046125a5565b610e36565b34801561061657600080fd5b506000546001600160a01b03166103da565b34801561063457600080fd5b506102fc6106433660046125e7565b610e67565b6102fc6106563660046127ff565b611177565b6102fc610669366004612851565b611481565b34801561067a57600080fd5b506102fc61068936600461288e565b61167c565b34801561069a57600080fd5b506102ae6106a9366004612647565b6116d2565b3480156106ba57600080fd5b506102fc6106c936600461290d565b6116e9565b3480156106da57600080fd5b5061056a6106e9366004612660565b600d6020526000908152604090205460ff1681565b6102fc61182f565b34801561071257600080fd5b506102fc6107213660046125e7565b611a0f565b34801561073257600080fd5b506102fc611ad5565b34801561074757600080fd5b506102fc610756366004612660565b611cea565b6102fc610769366004612660565b611d63565b34801561077a57600080fd5b506102fc6107893660046125a5565b612052565b34801561079a57600080fd5b506102ae69d3c21bcecceda100000081565b3480156107b857600080fd5b506102ae60075481565b3480156107ce57600080fd5b506004546103da906001600160a01b031681565b600b60205281600052604060002081603c81106107fe57600080fd5b01549150829050565b6000806108126109c2565b9050603c60ff841610158061082c57508060ff168360ff16115b1561085457604051631e80226f60e01b815260ff841660048201526024015b60405180910390fd5b60038360ff168154811061086a5761086a612960565b9060005260206000200154915050919050565b610886826120d3565b60006108918361213b565b60095460085460405163095ea7b360e01b81526001600160a01b03918216600482015260248101849052929350169063095ea7b3906044016020604051808303816000875af11580156108e8573d6000803e3d6000fd5b505050506040513d601f19601f8201168201806040525081019061090c9190612976565b50600854604051636809a35160e11b815261ffff84166004820152602481018390526001600160a01b039091169063d01346a29060440160408051808303816000875af1158015610961573d6000803e3d6000fd5b505050506040513d601f19601f820116820180604052508101906109859190612998565b505060405181815233907f47cee97cb7acd717b3c0aa1435d004cd5b3c8c57d70dbceb4e4458bbd60e39d4906020015b60405180910390a2505050565b60006007544210156109e75760405163cc55756d60e01b815260040160405180910390fd5b6018603c80600754426109fa91906129d2565b610a0491906129eb565b610a0e91906129eb565b610a1891906129eb565b905090565b600a60205281600052604060002081603c81106107fe57600080fd5b610a41612227565b60075442101580610a525750804210155b15610a705760405163fcdcc8fd60e01b815260040160405180910390fd5b60078190556040518181527f6e23cc4d033baf0ba37878efdabaf083a78deb3277b4ddc2294e20c1bb5022789060200160405180910390a150565b610ab3612227565b600880546001600160a01b0319166001600160a01b0383169081179091556040517f8df9c277daa02ebcd30d5449acdf58eb1048b62ab9f849e021816d82c6557bc090600090a250565b600c60205281600052604060002081603c81106107fe57600080fd5b60606000805b83811015610b9d576006610b338683612a0d565b81548110610b4357610b43612960565b9060005260206000200160009054906101000a90046001600160a01b0316838281518110610b7357610b73612960565b6001600160a01b039092166020928302919091019091015280610b9581612a20565b915050610b1f565b5081610ba98486612a0d565b915091509250929050565b60068181548110610bc457600080fd5b6000918252602090912001546001600160a01b0316905081565b600080610be96109c2565b9050603c60ff8416101580610c0357508060ff168360ff16115b15610c2657604051631e80226f60e01b815260ff8416600482015260240161084b565b60018360ff168154811061086a5761086a612960565b610c44612227565b600580546001600160a01b0319166001600160a01b0383169081179091556040517eebdec603d8ad7b88305e6b900a209f18b4ee84fa8412be678db1cbd4a5bac890600090a250565b610c95612227565b610ca28262015180612a39565b600754610caf9190612a0d565b4210610cd157604051631e80226f60e01b81526004810183905260240161084b565b8060018381548110610ce557610ce5612960565b6000918252602090912001555050565b6001600160a01b038116600090815260106020908152604091829020805483518184028101840190945280845260609392830182828015610d5557602002820191906000526020600020905b815481526020019060010190808311610d41575b50505050509050919050565b60606006805480602002602001604051908101604052809291908181526020018280548015610db957602002820191906000526020600020905b81546001600160a01b03168152600190910190602001808311610d9b575b5050505050905090565b610dcb612227565b610dd56000612281565b565b600080610de26109c2565b9050603c60ff8416101580610dfd57508060ff168360ff1610155b15610e2057604051631e80226f60e01b815260ff8416600482015260240161084b565b60028360ff168154811061086a5761086a612960565b60106020528160005260406000208181548110610e5257600080fd5b90600052602060002001600091509150505481565b610e70816120d3565b6008546001600160a01b03161580610efd5750600860009054906101000a90046001600160a01b03166001600160a01b031663f8eeed626040518163ffffffff1660e01b8152600401602060405180830381865afa158015610ed6573d6000803e3d6000fd5b505050506040513d601f19601f82011682018060405250810190610efa9190612a50565b42105b15610f1b5760405163bf6c2f2960e01b815260040160405180910390fd5b6000610f268261213b565b9050610f36603c62015180612a69565b62ffffff16600860009054906101000a90046001600160a01b03166001600160a01b031663f8eeed626040518163ffffffff1660e01b8152600401602060405180830381865afa158015610f8e573d6000803e3d6000fd5b505050506040513d601f19601f82011682018060405250810190610fb29190612a50565b610fbc9190612a0d565b4211156110af576000610fd3603c62015180612a69565b62ffffff16600860009054906101000a90046001600160a01b03166001600160a01b031663f8eeed626040518163ffffffff1660e01b8152600401602060405180830381865afa15801561102b573d6000803e3d6000fd5b505050506040513d601f19601f8201168201806040525081019061104f9190612a50565b6110599190612a0d565b61106390426129d2565b905060648110611086576040516341524ecf60e11b815260040160405180910390fd5b600060646110948385612a39565b61109e91906129eb565b90506110aa81846129d2565b925050505b60095460405163a9059cbb60e01b8152336004820152602481018390526000916001600160a01b03169063a9059cbb906044016020604051808303816000875af1158015611101573d6000803e3d6000fd5b505050506040513d601f19601f820116820180604052508101906111259190612976565b9050806111455760405163b1f33d5960e01b815260040160405180910390fd5b60405182815233907f47cee97cb7acd717b3c0aa1435d004cd5b3c8c57d70dbceb4e4458bbd60e39d4906020016109b5565b6001600160a01b038116158061119557506001600160a01b03811633145b156111be576040516316fb166f60e01b81526001600160a01b038216600482015260240161084b565b6111cc603c62015180612a69565b62ffffff166007546111de9190612a0d565b42106111fd576040516378839fe360e01b815260040160405180910390fd5b3469d3c21bcecceda1000000811061121857611218836122d1565b6000611225600a836129eb565b90506112318183612a0d565b915060006112406014346129eb565b9050600061124e8285612a0d565b9050600061125a6109c2565b336000908152600d602052604090205490915060ff166112bf57336000818152600d60205260408120805460ff19166001908117909155600680549182018155909152600080516020612b5a8339815191520180546001600160a01b03191690911790555b336000908152600a60205260409020859060ff8316603c81106112e4576112e4612960565b0160008282546112f49190612a0d565b9091555050336000908152600b60205260409020859060ff8316603c811061131e5761131e612960565b01600082825461132e9190612a0d565b90915550506001600160a01b0386166000908152600c60205260409020839060ff8316603c811061136157611361612960565b0160008282546113719190612a0d565b925050819055508460038260ff168154811061138f5761138f612960565b9060005260206000200160008282546113a89190612a0d565b925050819055508160028260ff16815481106113c6576113c6612960565b9060005260206000200160008282546113df9190612a0d565b9091555060019050601160ff8316603c81106113fd576113fd612960565b01600082825461140d9190612a0d565b909155505033600081815260106020908152604080832080546001808201835582865293852042918101919091558154808501835581018b9055815493840190915591909101869055516001600160a01b0389169288929091600080516020612b7a8339815191529190a450505050505050565b61148f603c62015180612a69565b62ffffff166007546114a19190612a0d565b42106114c0576040516378839fe360e01b815260040160405180910390fd5b3469d3c21bcecceda100000081106114db576114db826122d1565b60006114e56109c2565b336000908152600d602052604090205490915060ff1661154a57336000818152600d60205260408120805460ff19166001908117909155600680549182018155909152600080516020612b5a8339815191520180546001600160a01b03191690911790555b336000908152600a60205260409020829060ff8316603c811061156f5761156f612960565b01600082825461157f9190612a0d565b9091555050336000908152600b60205260409020829060ff8316603c81106115a9576115a9612960565b0160008282546115b99190612a0d565b925050819055508160038260ff16815481106115d7576115d7612960565b9060005260206000200160008282546115f09190612a0d565b925050819055508160028260ff168154811061160e5761160e612960565b9060005260206000200160008282546116279190612a0d565b9091555060019050601160ff8316603c811061164557611645612960565b0160008282546116559190612a0d565b909155505060405160009083903390600080516020612b7a833981519152908490a4505050565b611684612227565b600954600160a01b900460ff16156116ae5760405162dc149f60e41b815260040160405180910390fd5b6116bb600182603c612530565b50506009805460ff60a01b1916600160a01b179055565b601181603c81106116e257600080fd5b0154905081565b6116f2846120d3565b60006116fd8561213b565b60095460085460405163095ea7b360e01b81526001600160a01b03918216600482015260248101849052929350169063095ea7b3906044016020604051808303816000875af1158015611754573d6000803e3d6000fd5b505050506040513d601f19601f820116820180604052508101906117789190612976565b5060085460405163da06643f60e01b81526001600160a01b039091169063da06643f906117af908790859088908890600401612a90565b60408051808303816000875af11580156117cd573d6000803e3d6000fd5b505050506040513d601f19601f820116820180604052508101906117f19190612998565b505060405181815233907f47cee97cb7acd717b3c0aa1435d004cd5b3c8c57d70dbceb4e4458bbd60e39d49060200160405180910390a25050505050565b61183d603c62015180612a69565b62ffffff1660075461184f9190612a0d565b421061186e576040516378839fe360e01b815260040160405180910390fd5b3460006118796109c2565b336000908152600d602052604090205490915060ff166118de57336000818152600d60205260408120805460ff19166001908117909155600680549182018155909152600080516020612b5a8339815191520180546001600160a01b03191690911790555b336000908152600a60205260409020829060ff8316603c811061190357611903612960565b0160008282546119139190612a0d565b9091555050336000908152600b60205260409020829060ff8316603c811061193d5761193d612960565b01600082825461194d9190612a0d565b925050819055508160038260ff168154811061196b5761196b612960565b9060005260206000200160008282546119849190612a0d565b925050819055508160028260ff16815481106119a2576119a2612960565b9060005260206000200160008282546119bb9190612a0d565b9091555060019050601160ff8316603c81106119d9576119d9612960565b0160008282546119e99190612a0d565b909155505060405160009083903390600080516020612b7a833981519152908490a45050565b611a18816120d3565b6000611a23826123c9565b600854604051636809a35160e11b8152600e6004820152602481018390529192506001600160a01b03169063d01346a29060440160408051808303816000875af1158015611a75573d6000803e3d6000fd5b505050506040513d601f19601f82011682018060405250810190611a999190612998565b505060405181815233907f66eb666f5327b1c47411b5678aee7f232f4aefba6597ef9ebbaf7e60b79fc046906020015b60405180910390a25050565b611add612227565b6008546001600160a01b0316611b065760405163bf6c2f2960e01b815260040160405180910390fd5b611b14606462015180612a69565b62ffffff16611b27603c62015180612a69565b62ffffff16600860009054906101000a90046001600160a01b03166001600160a01b031663f8eeed626040518163ffffffff1660e01b8152600401602060405180830381865afa158015611b7f573d6000803e3d6000fd5b505050506040513d601f19601f82011682018060405250810190611ba39190612a50565b611bad9190612a0d565b611bb79190612a0d565b4211611bd657604051630319c02f60e11b815260040160405180910390fd5b6009546040516370a0823160e01b81523060048201526000916001600160a01b0316906370a0823190602401602060405180830381865afa158015611c1f573d6000803e3d6000fd5b505050506040513d601f19601f82011682018060405250810190611c439190612a50565b6009546004805460405163a9059cbb60e01b81526001600160a01b0391821692810192909252602482018490529293506000929091169063a9059cbb906044016020604051808303816000875af1158015611ca2573d6000803e3d6000fd5b505050506040513d601f19601f82011682018060405250810190611cc69190612976565b905080611ce65760405163b1f33d5960e01b815260040160405180910390fd5b5050565b611cf2612227565b6001600160a01b038116611d575760405162461bcd60e51b815260206004820152602660248201527f4f776e61626c653a206e6577206f776e657220697320746865207a65726f206160448201526564647265737360d01b606482015260840161084b565b611d6081612281565b50565b6001600160a01b0381161580611d8157506001600160a01b03811633145b15611daa576040516316fb166f60e01b81526001600160a01b038216600482015260240161084b565b611db8603c62015180612a69565b62ffffff16600754611dca9190612a0d565b4210611de9576040516378839fe360e01b815260040160405180910390fd5b346000611df7600a836129eb565b9050611e038183612a0d565b91506000611e126014346129eb565b90506000611e208285612a0d565b90506000611e2c6109c2565b336000908152600d602052604090205490915060ff16611e9157336000818152600d60205260408120805460ff19166001908117909155600680549182018155909152600080516020612b5a8339815191520180546001600160a01b03191690911790555b336000908152600a60205260409020859060ff8316603c8110611eb657611eb6612960565b016000828254611ec69190612a0d565b9091555050336000908152600b60205260409020859060ff8316603c8110611ef057611ef0612960565b016000828254611f009190612a0d565b90915550506001600160a01b0386166000908152600c60205260409020839060ff8316603c8110611f3357611f33612960565b016000828254611f439190612a0d565b925050819055508460038260ff1681548110611f6157611f61612960565b906000526020600020016000828254611f7a9190612a0d565b925050819055508160028260ff1681548110611f9857611f98612960565b906000526020600020016000828254611fb19190612a0d565b9091555060019050601160ff8316603c8110611fcf57611fcf612960565b016000828254611fdf9190612a0d565b909155505033600081815260106020908152604080832080546001808201835582865293852042918101919091558154808501835581018b9055815493840190915591909101869055516001600160a01b0389169288929091600080516020612b7a8339815191529190a4505050505050565b61205a612227565b6000826001600160a01b03168260405160006040518083038185875af1925050503d80600081146120a7576040519150601f19603f3d011682016040523d82523d6000602084013e6120ac565b606091505b50509050806120ce57604051631d42c86760e21b815260040160405180910390fd5b505050565b603c60ff8216106120fc57604051631e80226f60e01b815260ff8216600482015260240161084b565b61210a603c62015180612a69565b62ffffff1660075461211c9190612a0d565b4211611d6057604051630319c02f60e11b815260040160405180910390fd5b336000908152600e6020908152604080832060ff80861685529252822054161561217d57604051630e6e09b760e01b815260ff8316600482015260240161084b565b336000908152600e6020908152604080832060ff861680855292528220805460ff191660011790556002805490919081106121ba576121ba612960565b6000918252602080832090910154338352600b909152604090912060ff8516603c81106121e9576121e9612960565b015460018560ff168154811061220157612201612960565b90600052602060002001546122169190612a39565b61222091906129eb565b9392505050565b6000546001600160a01b03163314610dd55760405162461bcd60e51b815260206004820181905260248201527f4f776e61626c653a2063616c6c6572206973206e6f7420746865206f776e6572604482015260640161084b565b600080546001600160a01b038381166001600160a01b0319831681178455604051919092169283917f8be0079c531659141344cd1fd0a4f28419497f9722a3daafe3b4186f6b6457e09190a35050565b6005546001600160a01b03166122fa5760405163181ee60760e01b815260040160405180910390fd5b600554604051631c351a9d60e01b81526000916001600160a01b031690631c351a9d9061232d9085903390600401612b1c565b6020604051808303816000875af115801561234c573d6000803e3d6000fd5b505050506040513d601f19601f820116820180604052508101906123709190612976565b9050806123905760405163cd6418b960e01b815260040160405180910390fd5b336001600160a01b03167f74828dde51e35e803e5f03501daa7008c1167358b6b92edc31b209a85f8a0fed83604051611ac99190612b46565b336000908152600f6020908152604080832060ff80861685529252822054161561240b57604051630e6e09b760e01b815260ff8316600482015260240161084b565b336000908152600f6020908152604080832060ff861680855292528220805460ff1916600117905560028054909190811061244857612448612960565b6000918252602080832090910154338352600c909152604090912060ff8516603c811061247757612477612960565b015460018560ff168154811061248f5761248f612960565b90600052602060002001546124a49190612a39565b6124ae91906129eb565b60095460085460405163095ea7b360e01b81526001600160a01b03918216600482015260248101849052929350169063095ea7b3906044016020604051808303816000875af1158015612505573d6000803e3d6000fd5b505050506040513d601f19601f820116820180604052508101906125299190612976565b5092915050565b82805482825590600052602060002090810192821561256b579160200282015b8281111561256b578251825591602001919060010190612550565b5061257792915061257b565b5090565b5b80821115612577576000815560010161257c565b6001600160a01b0381168114611d6057600080fd5b600080604083850312156125b857600080fd5b82356125c381612590565b946020939093013593505050565b803560ff811681146125e257600080fd5b919050565b6000602082840312156125f957600080fd5b612220826125d1565b803561ffff811681146125e257600080fd5b6000806040838503121561262757600080fd5b612630836125d1565b915061263e60208401612602565b90509250929050565b60006020828403121561265957600080fd5b5035919050565b60006020828403121561267257600080fd5b813561222081612590565b6000806040838503121561269057600080fd5b50508035926020909101359150565b600081518084526020808501945080840160005b838110156126d85781516001600160a01b0316875295820195908201906001016126b3565b509495945050505050565b6040815260006126f6604083018561269f565b90508260208301529392505050565b6020808252825182820181905260009190848201906040850190845b8181101561273d57835183529284019291840191600101612721565b50909695505050505050565b602081526000612220602083018461269f565b634e487b7160e01b600052604160045260246000fd5b600082601f83011261278357600080fd5b813567ffffffffffffffff8082111561279e5761279e61275c565b604051601f8301601f19908116603f011681019082821181831017156127c6576127c661275c565b816040528381528660208588010111156127df57600080fd5b836020870160208301376000602085830101528094505050505092915050565b6000806040838503121561281257600080fd5b823567ffffffffffffffff81111561282957600080fd5b61283585828601612772565b925050602083013561284681612590565b809150509250929050565b60006020828403121561286357600080fd5b813567ffffffffffffffff81111561287a57600080fd5b61288684828501612772565b949350505050565b60006107808083850312156128a257600080fd5b83601f8401126128b157600080fd5b60405181810181811067ffffffffffffffff821117156128d3576128d361275c565b6040529083019080858311156128e857600080fd5b845b838110156129025780358252602091820191016128ea565b509095945050505050565b6000806000806080858703121561292357600080fd5b61292c856125d1565b935061293a60208601612602565b92506040850135915060608501356002811061295557600080fd5b939692955090935050565b634e487b7160e01b600052603260045260246000fd5b60006020828403121561298857600080fd5b8151801515811461222057600080fd5b600080604083850312156129ab57600080fd5b505080516020909101519092909150565b634e487b7160e01b600052601160045260246000fd5b818103818111156129e5576129e56129bc565b92915050565b600082612a0857634e487b7160e01b600052601260045260246000fd5b500490565b808201808211156129e5576129e56129bc565b600060018201612a3257612a326129bc565b5060010190565b80820281158282048414176129e5576129e56129bc565b600060208284031215612a6257600080fd5b5051919050565b62ffffff818116838216028082169190828114612a8857612a886129bc565b505092915050565b61ffff8516815260208101849052604081018390526080810160028310612ac757634e487b7160e01b600052602160045260246000fd5b82606083015295945050505050565b6000815180845260005b81811015612afc57602081850181015186830182015201612ae0565b506000602082860101526020601f19601f83011685010191505092915050565b604081526000612b2f6040830185612ad6565b905060018060a01b03831660208301529392505050565b6020815260006122206020830184612ad656fef652222313e28459528d920b65115c16c04f3efc82aaedc97be59f3f377c0d3fe31c7b8d08ee7db0afa68782e1028ef92305caeea8626633ad44d413e30f6b2fa2646970667358221220c146a9d3eb1751247b01b9ea57cd79e10addf10c1ffd39fa22baa5a6111ba94b64736f6c63430008110033",
  "linkReferences": {},
  "deployedLinkReferences": {}
}