{
    "_format": "hh-sol-artifact-1",
    "contractName": "FreeClaimTest",
    "sourceName": "contracts/test/FreeClaimTest.sol",
    "abi": [
        {
            "inputs": [],
            "stateMutability": "nonpayable",
            "type": "constructor"
        },
        {
            "inputs": [],
            "name": "AlreadyClaimed",
            "type": "error"
        },
        {
            "inputs": [],
            "name": "FreeClaimEnded",
            "type": "error"
        },
        {
            "inputs": [],
            "name": "FreeClaimNotStarted",
            "type": "error"
        },
        {
            "inputs": [],
            "name": "InvalidMaxxAddress",
            "type": "error"
        },
        {
            "inputs": [],
            "name": "InvalidMerkleRoot",
            "type": "error"
        },
        {
            "inputs": [],
            "name": "InvalidProof",
            "type": "error"
        },
        {
            "inputs": [],
            "name": "LaunchDateUpdateFailed",
            "type": "error"
        },
        {
            "inputs": [],
            "name": "MaxxAllocationFailed",
            "type": "error"
        },
        {
            "inputs": [],
            "name": "OnlyMaxxStake",
            "type": "error"
        },
        {
            "inputs": [],
            "name": "SelfReferral",
            "type": "error"
        },
        {
            "inputs": [],
            "name": "StakingNotInitialized",
            "type": "error"
        },
        {
            "anonymous": false,
            "inputs": [
                {
                    "indexed": true,
                    "internalType": "uint256",
                    "name": "launchDate",
                    "type": "uint256"
                }
            ],
            "name": "LaunchDateUpdated",
            "type": "event"
        },
        {
            "anonymous": false,
            "inputs": [
                {
                    "indexed": true,
                    "internalType": "address",
                    "name": "maxx",
                    "type": "address"
                }
            ],
            "name": "MaxxSet",
            "type": "event"
        },
        {
            "anonymous": false,
            "inputs": [
                {
                    "indexed": true,
                    "internalType": "bytes32",
                    "name": "merkleRoot",
                    "type": "bytes32"
                }
            ],
            "name": "MerkleRootSet",
            "type": "event"
        },
        {
            "anonymous": false,
            "inputs": [
                {
                    "indexed": true,
                    "internalType": "address",
                    "name": "previousOwner",
                    "type": "address"
                },
                {
                    "indexed": true,
                    "internalType": "address",
                    "name": "newOwner",
                    "type": "address"
                }
            ],
            "name": "OwnershipTransferred",
            "type": "event"
        },
        {
            "anonymous": false,
            "inputs": [
                {
                    "indexed": true,
                    "internalType": "address",
                    "name": "referrer",
                    "type": "address"
                },
                {
                    "indexed": true,
                    "internalType": "address",
                    "name": "user",
                    "type": "address"
                },
                {
                    "indexed": false,
                    "internalType": "uint256",
                    "name": "amount",
                    "type": "uint256"
                }
            ],
            "name": "Referral",
            "type": "event"
        },
        {
            "anonymous": false,
            "inputs": [
                {
                    "indexed": true,
                    "internalType": "address",
                    "name": "user",
                    "type": "address"
                },
                {
                    "indexed": false,
                    "internalType": "uint256",
                    "name": "amount",
                    "type": "uint256"
                }
            ],
            "name": "UserClaim",
            "type": "event"
        },
        {
            "inputs": [],
            "name": "FREE_CLAIM_DURATION",
            "outputs": [
                {
                    "internalType": "uint256",
                    "name": "",
                    "type": "uint256"
                }
            ],
            "stateMutability": "view",
            "type": "function"
        },
        {
            "inputs": [],
            "name": "MAX_CLAIM_AMOUNT",
            "outputs": [
                {
                    "internalType": "uint256",
                    "name": "",
                    "type": "uint256"
                }
            ],
            "stateMutability": "view",
            "type": "function"
        },
        {
            "inputs": [
                {
                    "internalType": "uint256",
                    "name": "_amount",
                    "type": "uint256"
                }
            ],
            "name": "allocateMaxx",
            "outputs": [],
            "stateMutability": "nonpayable",
            "type": "function"
        },
        {
            "inputs": [],
            "name": "claimCounter",
            "outputs": [
                {
                    "internalType": "uint256",
                    "name": "_value",
                    "type": "uint256"
                }
            ],
            "stateMutability": "view",
            "type": "function"
        },
        {
            "inputs": [
                {
                    "internalType": "address",
                    "name": "",
                    "type": "address"
                }
            ],
            "name": "claimOwners",
            "outputs": [
                {
                    "internalType": "uint256",
                    "name": "",
                    "type": "uint256"
                }
            ],
            "stateMutability": "view",
            "type": "function"
        },
        {
            "inputs": [],
            "name": "claimedAmount",
            "outputs": [
                {
                    "internalType": "uint256",
                    "name": "",
                    "type": "uint256"
                }
            ],
            "stateMutability": "view",
            "type": "function"
        },
        {
            "inputs": [
                {
                    "internalType": "uint256",
                    "name": "",
                    "type": "uint256"
                }
            ],
            "name": "claims",
            "outputs": [
                {
                    "internalType": "address",
                    "name": "user",
                    "type": "address"
                },
                {
                    "internalType": "uint256",
                    "name": "amount",
                    "type": "uint256"
                },
                {
                    "internalType": "uint256",
                    "name": "shares",
                    "type": "uint256"
                },
                {
                    "internalType": "uint256",
                    "name": "stakeId",
                    "type": "uint256"
                },
                {
                    "internalType": "uint256",
                    "name": "timestamp",
                    "type": "uint256"
                }
            ],
            "stateMutability": "view",
            "type": "function"
        },
        {
            "inputs": [
                {
                    "internalType": "uint256",
                    "name": "_amount",
                    "type": "uint256"
                },
                {
                    "internalType": "bytes32[]",
                    "name": "_proof",
                    "type": "bytes32[]"
                },
                {
                    "internalType": "address",
                    "name": "_referrer",
                    "type": "address"
                }
            ],
            "name": "freeClaim",
            "outputs": [],
            "stateMutability": "nonpayable",
            "type": "function"
        },
        {
            "inputs": [],
            "name": "getAllUnstakedClaims",
            "outputs": [
                {
                    "internalType": "uint256[]",
                    "name": "",
                    "type": "uint256[]"
                }
            ],
            "stateMutability": "view",
            "type": "function"
        },
        {
            "inputs": [],
            "name": "getTotalClaimers",
            "outputs": [
                {
                    "internalType": "uint256",
                    "name": "",
                    "type": "uint256"
                }
            ],
            "stateMutability": "view",
            "type": "function"
        },
        {
            "inputs": [
                {
                    "internalType": "uint256",
                    "name": "_start",
                    "type": "uint256"
                },
                {
                    "internalType": "uint256",
                    "name": "_end",
                    "type": "uint256"
                }
            ],
            "name": "getUnstakedClaimsSlice",
            "outputs": [
                {
                    "internalType": "uint256[]",
                    "name": "",
                    "type": "uint256[]"
                }
            ],
            "stateMutability": "view",
            "type": "function"
        },
        {
            "inputs": [
                {
                    "internalType": "address",
                    "name": "_user",
                    "type": "address"
                }
            ],
            "name": "getUserClaims",
            "outputs": [
                {
                    "components": [
                        {
                            "internalType": "address",
                            "name": "user",
                            "type": "address"
                        },
                        {
                            "internalType": "uint256",
                            "name": "amount",
                            "type": "uint256"
                        },
                        {
                            "internalType": "uint256",
                            "name": "shares",
                            "type": "uint256"
                        },
                        {
                            "internalType": "uint256",
                            "name": "stakeId",
                            "type": "uint256"
                        },
                        {
                            "internalType": "uint256",
                            "name": "timestamp",
                            "type": "uint256"
                        }
                    ],
                    "internalType": "struct FreeClaimTest.Claim[]",
                    "name": "",
                    "type": "tuple[]"
                }
            ],
            "stateMutability": "view",
            "type": "function"
        },
        {
            "inputs": [
                {
                    "internalType": "address",
                    "name": "_user",
                    "type": "address"
                }
            ],
            "name": "getUserFreeReferrals",
            "outputs": [
                {
                    "internalType": "uint256[]",
                    "name": "",
                    "type": "uint256[]"
                }
            ],
            "stateMutability": "view",
            "type": "function"
        },
        {
            "inputs": [
                {
                    "internalType": "address",
                    "name": "",
                    "type": "address"
                }
            ],
            "name": "hasClaimed",
            "outputs": [
                {
                    "internalType": "bool",
                    "name": "",
                    "type": "bool"
                }
            ],
            "stateMutability": "view",
            "type": "function"
        },
        {
            "inputs": [],
            "name": "launchDate",
            "outputs": [
                {
                    "internalType": "uint256",
                    "name": "",
                    "type": "uint256"
                }
            ],
            "stateMutability": "view",
            "type": "function"
        },
        {
            "inputs": [],
            "name": "maxx",
            "outputs": [
                {
                    "internalType": "contract IERC20",
                    "name": "",
                    "type": "address"
                }
            ],
            "stateMutability": "view",
            "type": "function"
        },
        {
            "inputs": [],
            "name": "maxxAllocation",
            "outputs": [
                {
                    "internalType": "uint256",
                    "name": "",
                    "type": "uint256"
                }
            ],
            "stateMutability": "view",
            "type": "function"
        },
        {
            "inputs": [],
            "name": "maxxStake",
            "outputs": [
                {
                    "internalType": "contract IStake",
                    "name": "",
                    "type": "address"
                }
            ],
            "stateMutability": "view",
            "type": "function"
        },
        {
            "inputs": [],
            "name": "merkleRoot",
            "outputs": [
                {
                    "internalType": "bytes32",
                    "name": "",
                    "type": "bytes32"
                }
            ],
            "stateMutability": "view",
            "type": "function"
        },
        {
            "inputs": [],
            "name": "owner",
            "outputs": [
                {
                    "internalType": "address",
                    "name": "",
                    "type": "address"
                }
            ],
            "stateMutability": "view",
            "type": "function"
        },
        {
            "inputs": [],
            "name": "remainingBalance",
            "outputs": [
                {
                    "internalType": "uint256",
                    "name": "",
                    "type": "uint256"
                }
            ],
            "stateMutability": "view",
            "type": "function"
        },
        {
            "inputs": [],
            "name": "renounceOwnership",
            "outputs": [],
            "stateMutability": "nonpayable",
            "type": "function"
        },
        {
            "inputs": [
                {
                    "internalType": "address",
                    "name": "_maxx",
                    "type": "address"
                }
            ],
            "name": "setMaxx",
            "outputs": [],
            "stateMutability": "nonpayable",
            "type": "function"
        },
        {
            "inputs": [
                {
                    "internalType": "address",
                    "name": "_maxxStake",
                    "type": "address"
                }
            ],
            "name": "setMaxxStake",
            "outputs": [],
            "stateMutability": "nonpayable",
            "type": "function"
        },
        {
            "inputs": [
                {
                    "internalType": "bytes32",
                    "name": "_merkleRoot",
                    "type": "bytes32"
                }
            ],
            "name": "setMerkleRoot",
            "outputs": [],
            "stateMutability": "nonpayable",
            "type": "function"
        },
        {
            "inputs": [
                {
                    "internalType": "uint256",
                    "name": "_unstakedClaimId",
                    "type": "uint256"
                },
                {
                    "internalType": "uint256",
                    "name": "_claimId",
                    "type": "uint256"
                }
            ],
            "name": "stakeClaim",
            "outputs": [],
            "stateMutability": "nonpayable",
            "type": "function"
        },
        {
            "inputs": [
                {
                    "internalType": "uint256",
                    "name": "",
                    "type": "uint256"
                }
            ],
            "name": "stakedClaims",
            "outputs": [
                {
                    "internalType": "uint256",
                    "name": "",
                    "type": "uint256"
                }
            ],
            "stateMutability": "view",
            "type": "function"
        },
        {
            "inputs": [
                {
                    "internalType": "address",
                    "name": "newOwner",
                    "type": "address"
                }
            ],
            "name": "transferOwnership",
            "outputs": [],
            "stateMutability": "nonpayable",
            "type": "function"
        },
        {
            "inputs": [
                {
                    "internalType": "uint256",
                    "name": "",
                    "type": "uint256"
                }
            ],
            "name": "unstakedClaims",
            "outputs": [
                {
                    "internalType": "uint256",
                    "name": "",
                    "type": "uint256"
                }
            ],
            "stateMutability": "view",
            "type": "function"
        },
        {
            "inputs": [
                {
                    "internalType": "uint256",
                    "name": "_launchDate",
                    "type": "uint256"
                }
            ],
            "name": "updateLaunchDate",
            "outputs": [],
            "stateMutability": "nonpayable",
            "type": "function"
        },
        {
            "inputs": [
                {
                    "internalType": "address",
                    "name": "",
                    "type": "address"
                },
                {
                    "internalType": "uint256",
                    "name": "",
                    "type": "uint256"
                }
            ],
            "name": "userClaims",
            "outputs": [
                {
                    "internalType": "address",
                    "name": "user",
                    "type": "address"
                },
                {
                    "internalType": "uint256",
                    "name": "amount",
                    "type": "uint256"
                },
                {
                    "internalType": "uint256",
                    "name": "shares",
                    "type": "uint256"
                },
                {
                    "internalType": "uint256",
                    "name": "stakeId",
                    "type": "uint256"
                },
                {
                    "internalType": "uint256",
                    "name": "timestamp",
                    "type": "uint256"
                }
            ],
            "stateMutability": "view",
            "type": "function"
        },
        {
            "inputs": [
                {
                    "internalType": "address",
                    "name": "",
                    "type": "address"
                },
                {
                    "internalType": "uint256",
                    "name": "",
                    "type": "uint256"
                }
            ],
            "name": "userFreeReferral",
            "outputs": [
                {
                    "internalType": "uint256",
                    "name": "",
                    "type": "uint256"
                }
            ],
            "stateMutability": "view",
            "type": "function"
        },
        {
            "inputs": [
                {
                    "internalType": "address",
                    "name": "_account",
                    "type": "address"
                },
                {
                    "internalType": "uint256",
                    "name": "_amount",
                    "type": "uint256"
                },
                {
                    "internalType": "bytes32[]",
                    "name": "_proof",
                    "type": "bytes32[]"
                }
            ],
            "name": "verifyMerkleLeaf",
            "outputs": [
                {
                    "internalType": "bool",
                    "name": "",
                    "type": "bool"
                }
            ],
            "stateMutability": "view",
            "type": "function"
        }
    ],
    "bytecode": "0x608060405234801561001057600080fd5b5061001a3361002c565b600180556100273261002c565b61007c565b600080546001600160a01b038381166001600160a01b0319831681178455604051919092169283917f8be0079c531659141344cd1fd0a4f28419497f9722a3daafe3b4186f6b6457e09190a35050565b611a5c8061008b6000396000f3fe608060405234801561001057600080fd5b50600436106101fa5760003560e01c80638da5cb5b1161011a578063c99548cd116100ad578063da25de3c1161007c578063da25de3c1461049b578063e362b4f7146104a4578063f2fde38b146104b5578063f8eeed62146104c8578063fdffccbb146104d157600080fd5b8063c99548cd1461044d578063ca9748ea14610460578063d06ce64714610473578063d744d4a01461047b57600080fd5b8063b8e07d59116100e9578063b8e07d5914610409578063b93940721461041c578063bcf7298614610427578063c02f3cf91461043a57600080fd5b80638da5cb5b146103635780639668ceb81461037457806399ca8beb1461037d578063a888c2cd1461039057600080fd5b80634efa8f17116101925780637bcb4a64116101615780637bcb4a641461030a5780637cb647591461032a5780637ce164771461033d5780638b5ecec71461035057600080fd5b80634efa8f17146102b25780636b28567b146102bc578063715018a6146102cf57806373b2e80e146102d757600080fd5b806331b63909116101ce57806331b63909146102645780633b9f7795146102775780633c64dab31461028c578063470943ec1461029f57600080fd5b8062c35ba6146101ff578063151eab961461021457806325f3674e146102445780632eb4a7ab1461025b575b600080fd5b61021261020d36600461166d565b6104e4565b005b600554610227906001600160a01b031681565b6040516001600160a01b0390911681526020015b60405180910390f35b61024d600e5481565b60405190815260200161023b565b61024d60025481565b61024d61027236600461168f565b610621565b61027f610642565b60405161023b91906116a8565b600454610227906001600160a01b031681565b6102126102ad366004611708565b61069a565b60105461024d9081565b61027f6102ca366004611708565b610734565b6102126107a0565b6102fa6102e5366004611708565b60086020526000908152604090205460ff1681565b604051901515815260200161023b565b61031d610318366004611708565b6107b4565b60405161023b9190611723565b61021261033836600461168f565b61085e565b61021261034b36600461168f565b6108b7565b61021261035e366004611708565b61092e565b6000546001600160a01b0316610227565b61024d600f5481565b61027f61038b36600461166d565b6109a6565b6103d761039e36600461168f565b600a60205260009081526040902080546001820154600283015460038401546004909401546001600160a01b0390931693919290919085565b604080516001600160a01b0390961686526020860194909452928401919091526060830152608082015260a00161023b565b61024d61041736600461168f565b610a64565b61024d6301e1338081565b61021261043536600461168f565b610a74565b6102fa61044836600461184b565b610b9f565b61024d61045b3660046118a2565b610bbc565b6103d761046e3660046118a2565b610bed565b61024d610c45565b61024d610489366004611708565b60096020526000908152604090205481565b61024d600d5481565b61024d69d3c21bcecceda100000081565b6102126104c3366004611708565b610c5c565b61024d60035481565b6102126104df3660046118cc565b610cda565b6005546001600160a01b0316331415806104fc575033155b1561051a57604051637e48fedf60e01b815260040160405180910390fd5b6000818152600a6020526040808220600b8054600180820183559185527f0175b7a638427703f0dbe7bb9bbf987a2551717b34e79f33b5b1008d1fa01db901859055600554825491830154935163980b3f8760e01b81526001600160a01b03928316600482015261016d602482015260448101949094529193928392919091169063980b3f879060640160408051808303816000875af11580156105c2573d6000803e3d6000fd5b505050506040513d601f19601f820116820180604052508101906105e69190611923565b91509150818360030181905550808360020181905550600c858154811061060f5761060f611947565b60009182526020822001555050505050565b600b818154811061063157600080fd5b600091825260209091200154905081565b6060600c80548060200260200160405190810160405280929190818152602001828054801561069057602002820191906000526020600020905b81548152602001906001019080831161067c575b5050505050905090565b6106a2610f0d565b600580546001600160a01b0319166001600160a01b038381169182179092556004805460405163095ea7b360e01b815291820192909252600019602482015291169063095ea7b3906044016020604051808303816000875af115801561070c573d6000803e3d6000fd5b505050506040513d601f19601f82011682018060405250810190610730919061195d565b5050565b6001600160a01b03811660009081526007602090815260409182902080548351818402810184019094528084526060939283018282801561079457602002820191906000526020600020905b815481526020019060010190808311610780575b50505050509050919050565b6107a8610f0d565b6107b26000610f67565b565b6001600160a01b0381166000908152600660209081526040808320805482518185028101850190935280835260609492939192909184015b828210156108535760008481526020908190206040805160a0810182526005860290920180546001600160a01b03168352600180820154848601526002820154928401929092526003810154606084015260040154608083015290835290920191016107ec565b505050509050919050565b610866610f0d565b8061088457604051639dd854d360e01b815260040160405180910390fd5b600281905560405181907f42cbc405e4dbf1b691e85b9a34b08ecfcf7a9ad9078bf4d645ccfa1fac11c10b90600090a250565b6108bf610f0d565b600354158015906108d257506003544210155b806108dd5750804210155b156108fb57604051631d68361560e01b815260040160405180910390fd5b600381905560405181907f6e23cc4d033baf0ba37878efdabaf083a78deb3277b4ddc2294e20c1bb50227890600090a250565b610936610f0d565b6001600160a01b03811661095c576040516282a58760e11b815260040160405180910390fd5b600480546001600160a01b0319166001600160a01b0383169081179091556040517f4f118af825f607c08ee84232318098e407071bf7a3b323c82e2d778390900f8e90600090a250565b606060006109b48484611995565b67ffffffffffffffff8111156109cc576109cc61179a565b6040519080825280602002602001820160405280156109f5578160200160208202803683370190505b509050835b83811015610a5a57600c8181548110610a1557610a15611947565b9060005260206000200154828683610a2d9190611995565b81518110610a3d57610a3d611947565b602090810291909101015280610a52816119a8565b9150506109fa565b5090505b92915050565b600c818154811061063157600080fd5b610a7c610f0d565b600480546040516323b872dd60e01b81523392810192909252306024830152604482018390526001600160a01b0316906323b872dd906064016020604051808303816000875af1158015610ad4573d6000803e3d6000fd5b505050506040513d601f19601f82011682018060405250810190610af8919061195d565b610b155760405163af4668e160e01b815260040160405180910390fd5b80600e6000828254610b2791906119c1565b9091555050600480546040516370a0823160e01b815230928101929092526001600160a01b0316906370a0823190602401602060405180830381865afa158015610b75573d6000803e3d6000fd5b505050506040513d601f19601f82011682018060405250810190610b9991906119d4565b600d5550565b6000610bb4610bae8585610fb7565b83610ffe565b949350505050565b60076020528160005260406000208181548110610bd857600080fd5b90600052602060002001600091509150505481565b60066020528160005260406000208181548110610c0957600080fd5b6000918252602090912060059091020180546001820154600283015460038401546004909401546001600160a01b039093169550909350919085565b600c54600b54600091610c57916119c1565b905090565b610c64610f0d565b6001600160a01b038116610cce5760405162461bcd60e51b815260206004820152602660248201527f4f776e61626c653a206e6577206f776e657220697320746865207a65726f206160448201526564647265737360d01b60648201526084015b60405180910390fd5b610cd781610f67565b50565b600260015403610d2c5760405162461bcd60e51b815260206004820152601f60248201527f5265656e7472616e637947756172643a207265656e7472616e742063616c6c006044820152606401610cc5565b6002600155600d54600003610d5457604051635cefc27760e11b815260040160405180910390fd5b336001600160a01b03821603610d7d57604051632af47b8760e11b815260040160405180910390fd5b610d8a610bae3385610fb7565b610da7576040516309bde33960e01b815260040160405180910390fd5b3360009081526008602052604090205460ff1615610dd857604051630c8d9eab60e31b815260040160405180910390fd5b336000908152600860205260409020805460ff1916600117905569d3c21bcecceda1000000831115610e125769d3c21bcecceda100000092505b6000600354421015610e375760405163036726ef60e51b815260040160405180910390fd5b506003544203610150026301e13380610e508282611995565b610e5a90866119ed565b610e649190611a04565b6005549094506000906001600160a01b031615801590610eee575060055460408051637c7776b160e11b8152905142926001600160a01b03169163f8eeed629160048083019260209291908290030181865afa158015610ec8573d6000803e3d6000fd5b505050506040513d601f19601f82011682018060405250810190610eec91906119d4565b105b15610ef7575060015b610f02858483611014565b505060018055505050565b6000546001600160a01b031633146107b25760405162461bcd60e51b815260206004820181905260248201527f4f776e61626c653a2063616c6c6572206973206e6f7420746865206f776e65726044820152606401610cc5565b600080546001600160a01b038381166001600160a01b0319831681178455604051919092169283917f8be0079c531659141344cd1fd0a4f28419497f9722a3daafe3b4186f6b6457e09190a35050565b6040516bffffffffffffffffffffffff19606084901b1660208201526034810182905260009060540160405160208183030381529060405280519060200120905092915050565b600061100d82600254856112a0565b9392505050565b600d54831015611050576001600160a01b03821615611050576110388383836112b6565b611043600a84611a04565b61104d90846119c1565b92505b600d5483111561106057600d5492505b82600d60008282546110729190611995565b9250508190555082600f600082825461108b91906119c1565b909155506000905080821561114157600b6110a560105490565b8154600181018355600092835260209092209091015560055460405163980b3f8760e01b815233600482015261016d6024820152604481018790526001600160a01b039091169063980b3f879060640160408051808303816000875af1158015611113573d6000803e3d6000fd5b505050506040513d601f19601f820116820180604052508101906111379190611923565b9092509050611163565b600c61114c60105490565b815460018101835560009283526020909220909101555b6040805160a081018252338152602081018790529081018290526060810183905242608082015280600a600061119860105490565b815260208082019290925260409081016000908120845181546001600160a01b039182166001600160a01b031991821617835586860151600180850191909155878601516002808601919091556060808a015160038088019190915560809a8b015160049788015533885260068a5288882080548086018255908952978a90208c516005909902018054989096169790941696909617845596890151908301559387015194810194909455908501519183019190915591830151910155611263601080546001019055565b60405186815233907fe2323fa72fc40846465d64f4b6ceb6716d38c6938c38fc238c4c07b7c3ecbb009060200160405180910390a2505050505050565b6000826112ad85846115f9565b14949350505050565b60006112c3600a85611a04565b6001600160a01b038416600090815260076020908152604082208054600180820183558285529290932042938101939093558054808301825583018890558054918201905501819055905061131881856119c1565b935080600d600082825461132c9190611995565b9250508190555080600f600082825461134591906119c1565b90915550600090508083156113fc57600b61135f60105490565b8154600181018355600092835260209092209091015560055460405163980b3f8760e01b81526001600160a01b038781166004830152600e6024830152604482018690529091169063980b3f879060640160408051808303816000875af11580156113ce573d6000803e3d6000fd5b505050506040513d601f19601f820116820180604052508101906113f29190611923565b909250905061141e565b600c61140760105490565b815460018101835560009283526020909220909101555b6040805160a081018252338152602081018590529081018290526060810183905242608082015280600a600061145360105490565b815260200190815260200160002060008201518160000160006101000a8154816001600160a01b0302191690836001600160a01b031602179055506020820151816001015560408201518160020155606082015181600301556080820151816004015590505060066000876001600160a01b03166001600160a01b0316815260200190815260200160002081908060018154018082558091505060019003906000526020600020906005020160009091909190915060008201518160000160006101000a8154816001600160a01b0302191690836001600160a01b0316021790555060208201518160010155604082015181600201556060820151816003015560808201518160040155505061156d601080546001019055565b856001600160a01b03167fe2323fa72fc40846465d64f4b6ceb6716d38c6938c38fc238c4c07b7c3ecbb00856040516115a891815260200190565b60405180910390a260405184815233906001600160a01b038816907faeecfcda1271d292db728294b8ae465871ec039d51404caf49a7eb0ade51770a9060200160405180910390a350505050505050565b600081815b8451811015610a5a5761162a8286838151811061161d5761161d611947565b602002602001015161163e565b915080611636816119a8565b9150506115fe565b600081831061165a57600082815260208490526040902061100d565b600083815260208390526040902061100d565b6000806040838503121561168057600080fd5b50508035926020909101359150565b6000602082840312156116a157600080fd5b5035919050565b6020808252825182820181905260009190848201906040850190845b818110156116e0578351835292840192918401916001016116c4565b50909695505050505050565b80356001600160a01b038116811461170357600080fd5b919050565b60006020828403121561171a57600080fd5b61100d826116ec565b602080825282518282018190526000919060409081850190868401855b8281101561178d57815180516001600160a01b0316855286810151878601528581015186860152606080820151908601526080908101519085015260a09093019290850190600101611740565b5091979650505050505050565b634e487b7160e01b600052604160045260246000fd5b600082601f8301126117c157600080fd5b8135602067ffffffffffffffff808311156117de576117de61179a565b8260051b604051601f19603f830116810181811084821117156118035761180361179a565b60405293845285810183019383810192508785111561182157600080fd5b83870191505b8482101561184057813583529183019190830190611827565b979650505050505050565b60008060006060848603121561186057600080fd5b611869846116ec565b925060208401359150604084013567ffffffffffffffff81111561188c57600080fd5b611898868287016117b0565b9150509250925092565b600080604083850312156118b557600080fd5b6118be836116ec565b946020939093013593505050565b6000806000606084860312156118e157600080fd5b83359250602084013567ffffffffffffffff8111156118ff57600080fd5b61190b868287016117b0565b92505061191a604085016116ec565b90509250925092565b6000806040838503121561193657600080fd5b505080516020909101519092909150565b634e487b7160e01b600052603260045260246000fd5b60006020828403121561196f57600080fd5b8151801515811461100d57600080fd5b634e487b7160e01b600052601160045260246000fd5b81810381811115610a5e57610a5e61197f565b6000600182016119ba576119ba61197f565b5060010190565b80820180821115610a5e57610a5e61197f565b6000602082840312156119e657600080fd5b5051919050565b8082028115828204841417610a5e57610a5e61197f565b600082611a2157634e487b7160e01b600052601260045260246000fd5b50049056fea26469706673582212206b925556bd89bdab83d2814f271abe767e1f5c45960e4197690ffd7ff52fc81e64736f6c63430008110033",
    "linkReferences": {},
    "deployedLinkReferences": {}
}