{
  "_format": "hh-sol-artifact-1",
  "contractName": "FreeClaim",
  "sourceName": "contracts/FreeClaim.sol",
  "abi": [
    {
      "inputs": [
        {
          "internalType": "uint256",
          "name": "_launchDate",
          "type": "uint256"
        },
        {
          "internalType": "address",
          "name": "_maxx",
          "type": "address"
        }
      ],
      "stateMutability": "nonpayable",
      "type": "constructor"
    },
    {
      "inputs": [],
      "name": "AlreadyClaimed",
      "type": "error"
    },
    {
      "inputs": [],
      "name": "FreeClaimEnded",
      "type": "error"
    },
    {
      "inputs": [],
      "name": "InvalidProof",
      "type": "error"
    },
    {
      "inputs": [],
      "name": "OnlyMaxxStake",
      "type": "error"
    },
    {
      "inputs": [],
      "name": "SelfReferral",
      "type": "error"
    },
    {
      "anonymous": false,
      "inputs": [
        {
          "indexed": true,
          "internalType": "address",
          "name": "previousOwner",
          "type": "address"
        },
        {
          "indexed": true,
          "internalType": "address",
          "name": "newOwner",
          "type": "address"
        }
      ],
      "name": "OwnershipTransferred",
      "type": "event"
    },
    {
      "anonymous": false,
      "inputs": [
        {
          "indexed": true,
          "internalType": "address",
          "name": "referrer",
          "type": "address"
        },
        {
          "indexed": true,
          "internalType": "address",
          "name": "user",
          "type": "address"
        },
        {
          "indexed": false,
          "internalType": "uint256",
          "name": "amount",
          "type": "uint256"
        }
      ],
      "name": "Referral",
      "type": "event"
    },
    {
      "anonymous": false,
      "inputs": [
        {
          "indexed": true,
          "internalType": "address",
          "name": "user",
          "type": "address"
        },
        {
          "indexed": false,
          "internalType": "uint256",
          "name": "amount",
          "type": "uint256"
        }
      ],
      "name": "UserClaim",
      "type": "event"
    },
    {
      "inputs": [],
      "name": "FREE_CLAIM_DURATION",
      "outputs": [
        {
          "internalType": "uint256",
          "name": "",
          "type": "uint256"
        }
      ],
      "stateMutability": "view",
      "type": "function"
    },
    {
      "inputs": [],
      "name": "MAX_CLAIM_AMOUNT",
      "outputs": [
        {
          "internalType": "uint256",
          "name": "",
          "type": "uint256"
        }
      ],
      "stateMutability": "view",
      "type": "function"
    },
    {
      "inputs": [
        {
          "internalType": "uint256",
          "name": "_amount",
          "type": "uint256"
        }
      ],
      "name": "allocateMaxx",
      "outputs": [],
      "stateMutability": "nonpayable",
      "type": "function"
    },
    {
      "inputs": [
        {
          "internalType": "address",
          "name": "",
          "type": "address"
        }
      ],
      "name": "claimOwners",
      "outputs": [
        {
          "internalType": "uint256",
          "name": "",
          "type": "uint256"
        }
      ],
      "stateMutability": "view",
      "type": "function"
    },
    {
      "inputs": [],
      "name": "claimedAmount",
      "outputs": [
        {
          "internalType": "uint256",
          "name": "",
          "type": "uint256"
        }
      ],
      "stateMutability": "view",
      "type": "function"
    },
    {
      "inputs": [
        {
          "internalType": "uint256",
          "name": "_amount",
          "type": "uint256"
        },
        {
          "internalType": "bytes32[]",
          "name": "_proof",
          "type": "bytes32[]"
        },
        {
          "internalType": "address",
          "name": "_referrer",
          "type": "address"
        }
      ],
      "name": "freeClaim",
      "outputs": [],
      "stateMutability": "nonpayable",
      "type": "function"
    },
    {
      "inputs": [],
      "name": "getTotalClaimers",
      "outputs": [
        {
          "internalType": "uint256",
          "name": "",
          "type": "uint256"
        }
      ],
      "stateMutability": "view",
      "type": "function"
    },
    {
      "inputs": [
        {
          "internalType": "address",
          "name": "",
          "type": "address"
        }
      ],
      "name": "hasClaimed",
      "outputs": [
        {
          "internalType": "bool",
          "name": "",
          "type": "bool"
        }
      ],
      "stateMutability": "view",
      "type": "function"
    },
    {
      "inputs": [],
      "name": "launchDate",
      "outputs": [
        {
          "internalType": "uint256",
          "name": "",
          "type": "uint256"
        }
      ],
      "stateMutability": "view",
      "type": "function"
    },
    {
      "inputs": [],
      "name": "maxx",
      "outputs": [
        {
          "internalType": "contract IERC20",
          "name": "",
          "type": "address"
        }
      ],
      "stateMutability": "view",
      "type": "function"
    },
    {
      "inputs": [],
      "name": "maxxAllocation",
      "outputs": [
        {
          "internalType": "uint256",
          "name": "",
          "type": "uint256"
        }
      ],
      "stateMutability": "view",
      "type": "function"
    },
    {
      "inputs": [],
      "name": "maxxStake",
      "outputs": [
        {
          "internalType": "contract IStake",
          "name": "",
          "type": "address"
        }
      ],
      "stateMutability": "view",
      "type": "function"
    },
    {
      "inputs": [],
      "name": "merkleRoot",
      "outputs": [
        {
          "internalType": "bytes32",
          "name": "",
          "type": "bytes32"
        }
      ],
      "stateMutability": "view",
      "type": "function"
    },
    {
      "inputs": [],
      "name": "owner",
      "outputs": [
        {
          "internalType": "address",
          "name": "",
          "type": "address"
        }
      ],
      "stateMutability": "view",
      "type": "function"
    },
    {
      "inputs": [],
      "name": "remainingBalance",
      "outputs": [
        {
          "internalType": "uint256",
          "name": "",
          "type": "uint256"
        }
      ],
      "stateMutability": "view",
      "type": "function"
    },
    {
      "inputs": [],
      "name": "renounceOwnership",
      "outputs": [],
      "stateMutability": "nonpayable",
      "type": "function"
    },
    {
      "inputs": [
        {
          "internalType": "address",
          "name": "_maxxStake",
          "type": "address"
        }
      ],
      "name": "setMaxxStake",
      "outputs": [],
      "stateMutability": "nonpayable",
      "type": "function"
    },
    {
      "inputs": [
        {
          "internalType": "bytes32",
          "name": "_merkleRoot",
          "type": "bytes32"
        }
      ],
      "name": "setMerkleRoot",
      "outputs": [],
      "stateMutability": "nonpayable",
      "type": "function"
    },
    {
      "inputs": [],
      "name": "stakeClaims",
      "outputs": [],
      "stateMutability": "nonpayable",
      "type": "function"
    },
    {
      "inputs": [
        {
          "internalType": "uint256",
          "name": "",
          "type": "uint256"
        }
      ],
      "name": "stakedClaims",
      "outputs": [
        {
          "internalType": "address",
          "name": "user",
          "type": "address"
        },
        {
          "internalType": "uint256",
          "name": "amount",
          "type": "uint256"
        }
      ],
      "stateMutability": "view",
      "type": "function"
    },
    {
      "inputs": [
        {
          "internalType": "address",
          "name": "newOwner",
          "type": "address"
        }
      ],
      "name": "transferOwnership",
      "outputs": [],
      "stateMutability": "nonpayable",
      "type": "function"
    },
    {
      "inputs": [
        {
          "internalType": "uint256",
          "name": "",
          "type": "uint256"
        }
      ],
      "name": "unstakedClaims",
      "outputs": [
        {
          "internalType": "address",
          "name": "user",
          "type": "address"
        },
        {
          "internalType": "uint256",
          "name": "amount",
          "type": "uint256"
        }
      ],
      "stateMutability": "view",
      "type": "function"
    },
    {
      "inputs": [
        {
          "internalType": "address",
          "name": "_account",
          "type": "address"
        },
        {
          "internalType": "uint256",
          "name": "_amount",
          "type": "uint256"
        },
        {
          "internalType": "bytes32[]",
          "name": "_proof",
          "type": "bytes32[]"
        }
      ],
      "name": "verifyMerkleLeaf",
      "outputs": [
        {
          "internalType": "bool",
          "name": "",
          "type": "bool"
        }
      ],
      "stateMutability": "view",
      "type": "function"
    }
  ],
  "bytecode": "0x60a060405234801561001057600080fd5b506040516113db3803806113db83398101604081905261002f916100b6565b61003833610066565b60018055608091909152600380546001600160a01b0319166001600160a01b039092169190911790556100f3565b600080546001600160a01b038381166001600160a01b0319831681178455604051919092169283917f8be0079c531659141344cd1fd0a4f28419497f9722a3daafe3b4186f6b6457e09190a35050565b600080604083850312156100c957600080fd5b825160208401519092506001600160a01b03811681146100e857600080fd5b809150509250929050565b6080516112c661011560003960008181610306015261078101526112c66000f3fe608060405234801561001057600080fd5b506004361061014d5760003560e01c8063b8e07d59116100c3578063da25de3c1161007c578063da25de3c146102d0578063e362b4f7146102d9578063f2fde38b146102e6578063f5f8fa07146102f9578063f8eeed6214610301578063fdffccbb1461032857600080fd5b8063b8e07d5914610264578063b939407214610277578063bcf7298614610282578063c02f3cf914610295578063d06ce647146102a8578063d744d4a0146102b057600080fd5b8063470943ec11610115578063470943ec146101e7578063715018a6146101fc57806373b2e80e146102045780637cb64759146102375780638da5cb5b1461024a5780639668ceb81461025b57600080fd5b8063151eab961461015257806325f3674e146101825780632eb4a7ab1461019957806331b63909146101a25780633c64dab3146101d4575b600080fd5b600454610165906001600160a01b031681565b6040516001600160a01b0390911681526020015b60405180910390f35b61018b600a5481565b604051908152602001610179565b61018b60025481565b6101b56101b0366004610f91565b61033b565b604080516001600160a01b039093168352602083019190915201610179565b600354610165906001600160a01b031681565b6101fa6101f5366004610fc6565b610373565b005b6101fa61039d565b610227610212366004610fc6565b60056020526000908152604090205460ff1681565b6040519015158152602001610179565b6101fa610245366004610f91565b6103b1565b6000546001600160a01b0316610165565b61018b600b5481565b6101b5610272366004610f91565b6103be565b61018b6301e1338081565b6101fa610290366004610f91565b6103ce565b6102276102a3366004611092565b6104db565b61018b6104fb565b61018b6102be366004610fc6565b60066020526000908152604090205481565b61018b60095481565b61018b655af3107a400081565b6101fa6102f4366004610fc6565b610512565b6101fa610590565b61018b7f000000000000000000000000000000000000000000000000000000000000000081565b6101fa6103363660046110e9565b610655565b6007818154811061034b57600080fd5b6000918252602090912060029091020180546001909101546001600160a01b03909116915082565b61037b610db2565b600480546001600160a01b0319166001600160a01b0392909216919091179055565b6103a5610db2565b6103af6000610e0c565b565b6103b9610db2565b600255565b6008818154811061034b57600080fd5b6103d6610db2565b6003546040516323b872dd60e01b8152336004820152306024820152604481018390526001600160a01b03909116906323b872dd906064016020604051808303816000875af115801561042d573d6000803e3d6000fd5b505050506040513d601f19601f820116820180604052508101906104519190611140565b5080600a60008282546104649190611178565b90915550506003546040516370a0823160e01b81523060048201526001600160a01b03909116906370a0823190602401602060405180830381865afa1580156104b1573d6000803e3d6000fd5b505050506040513d601f19601f820116820180604052508101906104d59190611190565b60095550565b60006104f3826002546104ee8787610e5c565b610ea3565b949350505050565b60085460075460009161050d91611178565b905090565b61051a610db2565b6001600160a01b0381166105845760405162461bcd60e51b815260206004820152602660248201527f4f776e61626c653a206e6577206f776e657220697320746865207a65726f206160448201526564647265737360d01b60648201526084015b60405180910390fd5b61058d81610e0c565b50565b6004546001600160a01b0316331415806105a8575033155b156105c657604051637e48fedf60e01b815260040160405180910390fd5b60005b600854811015610648576007600882815481106105e8576105e86111a9565b6000918252602080832084546001818101875595855291909320600292830290930180549190920290920180546001600160a01b0319166001600160a01b0390931692909217825582015491015580610640816111bf565b9150506105c9565b506103af60086000610f4b565b6002600154036106a75760405162461bcd60e51b815260206004820152601f60248201527f5265656e7472616e637947756172643a207265656e7472616e742063616c6c00604482015260640161057b565b6002600155336001600160a01b038216036106d557604051632af47b8760e11b815260040160405180910390fd5b6001600160a01b03811660009081526005602052604090205460ff161561070f57604051630c8d9eab60e31b815260040160405180910390fd5b61072261071c3385610e5c565b83610eb9565b61073f576040516309bde33960e01b815260040160405180910390fd5b60095460000361076257604051635cefc27760e11b815260040160405180910390fd5b655af3107a400083111561077a57655af3107a400092505b60006107a67f0000000000000000000000000000000000000000000000000000000000000000426111d8565b90506301e133806107b782826111d8565b6107c190866111ef565b6107cb919061120e565b6004549094506001600160a01b03161580159061085d575042600460009054906101000a90046001600160a01b03166001600160a01b031663f8eeed626040518163ffffffff1660e01b8152600401602060405180830381865afa158015610837573d6000803e3d6000fd5b505050506040513d601f19601f8201168201806040525081019061085b9190611190565b105b15610ae3576009548411156109245760095460408051808201909152338152602081018281526007805460018101825560009182529251600080516020611251833981519152600290940293840180546001600160a01b0319166001600160a01b03909216919091179055905160008051602061127183398151915290920191909155600b805492965086929091906108f7908490611178565b909155505060405184815233906000805160206112318339815191529060200160405180910390a2610da8565b6001600160a01b03821615610a47576000610940600a8661120e565b905061094c8186611178565b604080518082019091526001600160a01b038581168252602082018481526007805460018101825560009182529351600080516020611251833981519152600290950294850180546001600160a01b03191691909416179092555160008051602061127183398151915290920191909155600b805492975083929091906109d4908490611178565b90915550506040518181526001600160a01b038416906000805160206112318339815191529060200160405180910390a260405181815233906001600160a01b038516907faeecfcda1271d292db728294b8ae465871ec039d51404caf49a7eb0ade51770a9060200160405180910390a3505b3360008181526005602090815260408083208054600160ff199091168117909155815180830190925293815290810187815260078054948501815583529051600080516020611251833981519152600290940293840180546001600160a01b0319166001600160a01b039092169190911790555160008051602061127183398151915290920191909155600b80548692906108f7908490611178565b600954841115610b9c57600954604080518082019091523381526020810182815260088054600181018255600091825292517ff3f7a9fe364faab93b216da50a3214154f22a0a2b415b23a84c8169e8b636ee3600290940293840180546001600160a01b0319166001600160a01b0390921691909117905590517ff3f7a9fe364faab93b216da50a3214154f22a0a2b415b23a84c8169e8b636ee490920191909155600b805492965086929091906108f7908490611178565b6001600160a01b03821615610ce3576000610bb8600a8661120e565b9050610bc48186611178565b604080518082019091526001600160a01b0385811682526020820184815260088054600181018255600091825293517ff3f7a9fe364faab93b216da50a3214154f22a0a2b415b23a84c8169e8b636ee3600290950294850180546001600160a01b0319169190941617909255517ff3f7a9fe364faab93b216da50a3214154f22a0a2b415b23a84c8169e8b636ee490920191909155600b80549297508392909190610c70908490611178565b90915550506040518181526001600160a01b038416906000805160206112318339815191529060200160405180910390a260405181815233906001600160a01b038516907faeecfcda1271d292db728294b8ae465871ec039d51404caf49a7eb0ade51770a9060200160405180910390a3505b3360008181526005602090815260408083208054600160ff199091168117909155815180830190925293815290810187815260078054948501815583529051600080516020611251833981519152600290940293840180546001600160a01b0319166001600160a01b039092169190911790555160008051602061127183398151915290920191909155600b8054869290610d7f908490611178565b909155505060405184815233906000805160206112318339815191529060200160405180910390a25b5050600180555050565b6000546001600160a01b031633146103af5760405162461bcd60e51b815260206004820181905260248201527f4f776e61626c653a2063616c6c6572206973206e6f7420746865206f776e6572604482015260640161057b565b600080546001600160a01b038381166001600160a01b0319831681178455604051919092169283917f8be0079c531659141344cd1fd0a4f28419497f9722a3daafe3b4186f6b6457e09190a35050565b6040516bffffffffffffffffffffffff19606084901b1660208201526034810182905260009060540160405160208183030381529060405280519060200120905092915050565b600082610eb08584610ecf565b14949350505050565b6000610ec88260025485610ea3565b9392505050565b600081815b8451811015610f1457610f0082868381518110610ef357610ef36111a9565b6020026020010151610f1c565b915080610f0c816111bf565b915050610ed4565b509392505050565b6000818310610f38576000828152602084905260409020610ec8565b6000838152602083905260409020610ec8565b508054600082556002029060005260206000209081019061058d91905b80821115610f8d5780546001600160a01b031916815560006001820155600201610f68565b5090565b600060208284031215610fa357600080fd5b5035919050565b80356001600160a01b0381168114610fc157600080fd5b919050565b600060208284031215610fd857600080fd5b610ec882610faa565b634e487b7160e01b600052604160045260246000fd5b600082601f83011261100857600080fd5b8135602067ffffffffffffffff8083111561102557611025610fe1565b8260051b604051601f19603f8301168101818110848211171561104a5761104a610fe1565b60405293845285810183019383810192508785111561106857600080fd5b83870191505b848210156110875781358352918301919083019061106e565b979650505050505050565b6000806000606084860312156110a757600080fd5b6110b084610faa565b925060208401359150604084013567ffffffffffffffff8111156110d357600080fd5b6110df86828701610ff7565b9150509250925092565b6000806000606084860312156110fe57600080fd5b83359250602084013567ffffffffffffffff81111561111c57600080fd5b61112886828701610ff7565b92505061113760408501610faa565b90509250925092565b60006020828403121561115257600080fd5b81518015158114610ec857600080fd5b634e487b7160e01b600052601160045260246000fd5b6000821982111561118b5761118b611162565b500190565b6000602082840312156111a257600080fd5b5051919050565b634e487b7160e01b600052603260045260246000fd5b6000600182016111d1576111d1611162565b5060010190565b6000828210156111ea576111ea611162565b500390565b600081600019048311821515161561120957611209611162565b500290565b60008261122b57634e487b7160e01b600052601260045260246000fd5b50049056fee2323fa72fc40846465d64f4b6ceb6716d38c6938c38fc238c4c07b7c3ecbb00a66cc928b5edb82af9bd49922954155ab7b0942694bea4ce44661d9a8736c688a66cc928b5edb82af9bd49922954155ab7b0942694bea4ce44661d9a8736c689a26469706673582212206417c4fcf40bced760037e2296f39d66cb1750fbcf3de04b931164de66121a1664736f6c634300080f0033",
  "linkReferences": {},
  "deployedLinkReferences": {}
}