{
  "_format": "hh-sol-artifact-1",
  "contractName": "Marketplace",
  "sourceName": "contracts/Marketplace.sol",
  "abi": [
    {
      "inputs": [
        {
          "internalType": "address",
          "name": "_maxxStake",
          "type": "address"
        }
      ],
      "stateMutability": "nonpayable",
      "type": "constructor"
    },
    {
      "inputs": [],
      "name": "FeeTooHigh",
      "type": "error"
    },
    {
      "inputs": [],
      "name": "InsufficientValue",
      "type": "error"
    },
    {
      "inputs": [],
      "name": "ListingExpired",
      "type": "error"
    },
    {
      "inputs": [],
      "name": "NotApproved",
      "type": "error"
    },
    {
      "inputs": [],
      "name": "StakeNotListed",
      "type": "error"
    },
    {
      "anonymous": false,
      "inputs": [
        {
          "indexed": true,
          "internalType": "address",
          "name": "user",
          "type": "address"
        },
        {
          "indexed": true,
          "internalType": "uint256",
          "name": "stakeId",
          "type": "uint256"
        }
      ],
      "name": "Delist",
      "type": "event"
    },
    {
      "anonymous": false,
      "inputs": [
        {
          "indexed": true,
          "internalType": "address",
          "name": "user",
          "type": "address"
        },
        {
          "indexed": true,
          "internalType": "uint256",
          "name": "stakeId",
          "type": "uint256"
        },
        {
          "indexed": false,
          "internalType": "uint256",
          "name": "amount",
          "type": "uint256"
        }
      ],
      "name": "List",
      "type": "event"
    },
    {
      "anonymous": false,
      "inputs": [
        {
          "indexed": true,
          "internalType": "address",
          "name": "previousOwner",
          "type": "address"
        },
        {
          "indexed": true,
          "internalType": "address",
          "name": "newOwner",
          "type": "address"
        }
      ],
      "name": "OwnershipTransferred",
      "type": "event"
    },
    {
      "anonymous": false,
      "inputs": [
        {
          "indexed": true,
          "internalType": "address",
          "name": "user",
          "type": "address"
        },
        {
          "indexed": true,
          "internalType": "uint256",
          "name": "stakeId",
          "type": "uint256"
        },
        {
          "indexed": false,
          "internalType": "uint256",
          "name": "amount",
          "type": "uint256"
        }
      ],
      "name": "Purchase",
      "type": "event"
    },
    {
      "inputs": [],
      "name": "FEE_FACTOR",
      "outputs": [
        {
          "internalType": "uint16",
          "name": "",
          "type": "uint16"
        }
      ],
      "stateMutability": "view",
      "type": "function"
    },
    {
      "inputs": [],
      "name": "MAX_FEE_PERCENTAGE",
      "outputs": [
        {
          "internalType": "uint16",
          "name": "",
          "type": "uint16"
        }
      ],
      "stateMutability": "view",
      "type": "function"
    },
    {
      "inputs": [
        {
          "internalType": "uint256",
          "name": "_stakeId",
          "type": "uint256"
        }
      ],
      "name": "buyStake",
      "outputs": [],
      "stateMutability": "payable",
      "type": "function"
    },
    {
      "inputs": [
        {
          "internalType": "uint256",
          "name": "_stakeId",
          "type": "uint256"
        }
      ],
      "name": "delistStake",
      "outputs": [],
      "stateMutability": "nonpayable",
      "type": "function"
    },
    {
      "inputs": [],
      "name": "feePercentage",
      "outputs": [
        {
          "internalType": "uint16",
          "name": "",
          "type": "uint16"
        }
      ],
      "stateMutability": "view",
      "type": "function"
    },
    {
      "inputs": [
        {
          "internalType": "uint256",
          "name": "_stakeId",
          "type": "uint256"
        },
        {
          "internalType": "uint256",
          "name": "_amount",
          "type": "uint256"
        },
        {
          "internalType": "uint256",
          "name": "_duration",
          "type": "uint256"
        }
      ],
      "name": "listStake",
      "outputs": [],
      "stateMutability": "nonpayable",
      "type": "function"
    },
    {
      "inputs": [
        {
          "internalType": "uint256",
          "name": "",
          "type": "uint256"
        }
      ],
      "name": "listings",
      "outputs": [
        {
          "internalType": "address",
          "name": "lister",
          "type": "address"
        },
        {
          "internalType": "uint256",
          "name": "amount",
          "type": "uint256"
        },
        {
          "internalType": "uint256",
          "name": "endTime",
          "type": "uint256"
        }
      ],
      "stateMutability": "view",
      "type": "function"
    },
    {
      "inputs": [],
      "name": "maxxStake",
      "outputs": [
        {
          "internalType": "contract IStake",
          "name": "",
          "type": "address"
        }
      ],
      "stateMutability": "view",
      "type": "function"
    },
    {
      "inputs": [],
      "name": "owner",
      "outputs": [
        {
          "internalType": "address",
          "name": "",
          "type": "address"
        }
      ],
      "stateMutability": "view",
      "type": "function"
    },
    {
      "inputs": [],
      "name": "renounceOwnership",
      "outputs": [],
      "stateMutability": "nonpayable",
      "type": "function"
    },
    {
      "inputs": [
        {
          "internalType": "uint256",
          "name": "",
          "type": "uint256"
        }
      ],
      "name": "sellPrice",
      "outputs": [
        {
          "internalType": "uint256",
          "name": "",
          "type": "uint256"
        }
      ],
      "stateMutability": "view",
      "type": "function"
    },
    {
      "inputs": [
        {
          "internalType": "uint16",
          "name": "_feePercentage",
          "type": "uint16"
        }
      ],
      "name": "setFeePercentage",
      "outputs": [],
      "stateMutability": "nonpayable",
      "type": "function"
    },
    {
      "inputs": [
        {
          "internalType": "address",
          "name": "newOwner",
          "type": "address"
        }
      ],
      "name": "transferOwnership",
      "outputs": [],
      "stateMutability": "nonpayable",
      "type": "function"
    },
    {
      "inputs": [
        {
          "internalType": "address payable",
          "name": "_to",
          "type": "address"
        },
        {
          "internalType": "uint256",
          "name": "_amount",
          "type": "uint256"
        }
      ],
      "name": "withdraw",
      "outputs": [],
      "stateMutability": "nonpayable",
      "type": "function"
    }
  ],
  "bytecode": "0x608060405234801561001057600080fd5b50604051610d92380380610d9283398101604081905261002f916100ad565b6100383361005d565b600180546001600160a01b0319166001600160a01b03929092169190911790556100dd565b600080546001600160a01b038381166001600160a01b0319831681178455604051919092169283917f8be0079c531659141344cd1fd0a4f28419497f9722a3daafe3b4186f6b6457e09190a35050565b6000602082840312156100bf57600080fd5b81516001600160a01b03811681146100d657600080fd5b9392505050565b610ca6806100ec6000396000f3fe6080604052600436106100dd5760003560e01c8063911e279c1161007f578063cfbadb9111610059578063cfbadb9114610242578063de74e57b14610262578063f2fde38b146102cd578063f3fef3a3146102ed57600080fd5b8063911e279c146101d2578063a001ecdd1461020d578063b9d2b8031461022f57600080fd5b8063558e44d3116100bb578063558e44d3146101615780635afbc4a814610189578063715018a61461019f5780638da5cb5b146101b457600080fd5b8063151eab96146100e257806337ed222d1461011f57806344cf383114610141575b600080fd5b3480156100ee57600080fd5b50600154610102906001600160a01b031681565b6040516001600160a01b0390911681526020015b60405180910390f35b34801561012b57600080fd5b5061013f61013a366004610add565b61030d565b005b34801561014d57600080fd5b5061013f61015c366004610b08565b61035d565b34801561016d57600080fd5b50610176606481565b60405161ffff9091168152602001610116565b34801561019557600080fd5b506101766103e881565b3480156101ab57600080fd5b5061013f610527565b3480156101c057600080fd5b506000546001600160a01b0316610102565b3480156101de57600080fd5b506101ff6101ed366004610b34565b60026020526000908152604090205481565b604051908152602001610116565b34801561021957600080fd5b5060015461017690600160a01b900461ffff1681565b61013f61023d366004610b34565b61053b565b34801561024e57600080fd5b5061013f61025d366004610b34565b610792565b34801561026e57600080fd5b506102a861027d366004610b34565b6003602052600090815260409020805460018201546002909201546001600160a01b03909116919083565b604080516001600160a01b039094168452602084019290925290820152606001610116565b3480156102d957600080fd5b5061013f6102e8366004610b62565b61090e565b3480156102f957600080fd5b5061013f610308366004610b7f565b61098c565b610315610a33565b606461ffff8216111561033b5760405163cd4e616760e01b815260040160405180910390fd5b6001805461ffff909216600160a01b0261ffff60a01b19909216919091179055565b6001546040516331a9108f60e11b8152600481018590526000916001600160a01b031690636352211e90602401602060405180830381865afa1580156103a7573d6000803e3d6000fd5b505050506040513d601f19601f820116820180604052508101906103cb9190610bab565b9050336001600160a01b03821614801590610457575060015460405163e985e9c560e01b81526001600160a01b0383811660048301523360248301529091169063e985e9c590604401602060405180830381865afa158015610431573d6000803e3d6000fd5b505050506040513d601f19601f820116820180604052508101906104559190610bc8565b155b156104755760405163c19f17a960e01b815260040160405180910390fd5b60008481526002602090815260409182902085905581516060810183523381529081018590529081016104a88442610c00565b9052600085815260036020908152604091829020835181546001600160a01b0319166001600160a01b039091161781558382015160018201559282015160029093019290925551848152859133917f1518ffac149698f404e82117efa8b67d99c365490eefe4e0f91856a93ca8d9c1910160405180910390a350505050565b61052f610a33565b6105396000610a8d565b565b6001546040516331a9108f60e11b8152600481018390526000916001600160a01b031690636352211e90602401602060405180830381865afa158015610585573d6000803e3d6000fd5b505050506040513d601f19601f820116820180604052508101906105a99190610bab565b600083815260036020908152604091829020825160608101845281546001600160a01b039081168083526001840154948301949094526002909201549381019390935292935090918316146106115760405163254de66160e11b815260040160405180910390fd5b428160400151101561063657604051631cc67e8160e11b815260040160405180910390fd5b6000838152600260205260409020543410156106655760405163044044a560e21b815260040160405180910390fd5b6001546000906103e89061068490600160a01b900461ffff1634610c18565b61068e9190610c37565b9050600061069c8234610c59565b6040519091506001600160a01b0385169082156108fc029083906000818181858888f193505050501580156106d5573d6000803e3d6000fd5b506000858152600260205260408082209190915560015490516323b872dd60e01b81526001600160a01b03868116600483015233602483015260448201889052909116906323b872dd90606401600060405180830381600087803b15801561073c57600080fd5b505af1158015610750573d6000803e3d6000fd5b50506040513481528792503391507f12cb4648cf3058b17ceeb33e579f8b0bc269fe0843f3900b8e24b6c54871703c9060200160405180910390a35050505050565b6001546040516331a9108f60e11b8152600481018390526000916001600160a01b031690636352211e90602401602060405180830381865afa1580156107dc573d6000803e3d6000fd5b505050506040513d601f19601f820116820180604052508101906108009190610bab565b9050336001600160a01b0382161480159061088c575060015460405163e985e9c560e01b81526001600160a01b0383811660048301523360248301529091169063e985e9c590604401602060405180830381865afa158015610866573d6000803e3d6000fd5b505050506040513d601f19601f8201168201806040525081019061088a9190610bc8565b155b156108aa5760405163c19f17a960e01b815260040160405180910390fd5b6000828152600260208181526040808420849055600390915280832080546001600160a01b03191681556001810184905590910182905551839133917f8fcc1d45240b67aa8f5859c01c295e240be99a9d5e4c11873bb82cf40be7533c9190a35050565b610916610a33565b6001600160a01b0381166109805760405162461bcd60e51b815260206004820152602660248201527f4f776e61626c653a206e6577206f776e657220697320746865207a65726f206160448201526564647265737360d01b60648201526084015b60405180910390fd5b61098981610a8d565b50565b610994610a33565b6000826001600160a01b03168260405160006040518083038185875af1925050503d80600081146109e1576040519150601f19603f3d011682016040523d82523d6000602084013e6109e6565b606091505b5050905080610a2e5760405162461bcd60e51b81526020600482015260146024820152732330b4b632b2103a379039b2b7321022ba3432b960611b6044820152606401610977565b505050565b6000546001600160a01b031633146105395760405162461bcd60e51b815260206004820181905260248201527f4f776e61626c653a2063616c6c6572206973206e6f7420746865206f776e65726044820152606401610977565b600080546001600160a01b038381166001600160a01b0319831681178455604051919092169283917f8be0079c531659141344cd1fd0a4f28419497f9722a3daafe3b4186f6b6457e09190a35050565b600060208284031215610aef57600080fd5b813561ffff81168114610b0157600080fd5b9392505050565b600080600060608486031215610b1d57600080fd5b505081359360208301359350604090920135919050565b600060208284031215610b4657600080fd5b5035919050565b6001600160a01b038116811461098957600080fd5b600060208284031215610b7457600080fd5b8135610b0181610b4d565b60008060408385031215610b9257600080fd5b8235610b9d81610b4d565b946020939093013593505050565b600060208284031215610bbd57600080fd5b8151610b0181610b4d565b600060208284031215610bda57600080fd5b81518015158114610b0157600080fd5b634e487b7160e01b600052601160045260246000fd5b60008219821115610c1357610c13610bea565b500190565b6000816000190483118215151615610c3257610c32610bea565b500290565b600082610c5457634e487b7160e01b600052601260045260246000fd5b500490565b600082821015610c6b57610c6b610bea565b50039056fea2646970667358221220820f7a4547a8524027dd6f73f938b92346555ad65bd4bb465628b80cc03d2ffc64736f6c634300080f0033",
  "linkReferences": {},
  "deployedLinkReferences": {}
}