{
  "_format": "hh-sol-artifact-1",
  "contractName": "MaxxFinance",
  "sourceName": "contracts/MaxxFinance.sol",
  "abi": [
    {
      "inputs": [
        {
          "internalType": "address",
          "name": "_maxxVault",
          "type": "address"
        },
        {
          "internalType": "uint16",
          "name": "_transferTax",
          "type": "uint16"
        },
        {
          "internalType": "uint256",
          "name": "_whaleLimit",
          "type": "uint256"
        },
        {
          "internalType": "uint256",
          "name": "_globalSellLimit",
          "type": "uint256"
        }
      ],
      "stateMutability": "nonpayable",
      "type": "constructor"
    },
    {
      "inputs": [],
      "name": "AccountBlocked",
      "type": "error"
    },
    {
      "inputs": [],
      "name": "ConsumerProtection",
      "type": "error"
    },
    {
      "inputs": [],
      "name": "DailyLimit",
      "type": "error"
    },
    {
      "inputs": [],
      "name": "WhaleLimit",
      "type": "error"
    },
    {
      "anonymous": false,
      "inputs": [
        {
          "indexed": true,
          "internalType": "address",
          "name": "owner",
          "type": "address"
        },
        {
          "indexed": true,
          "internalType": "address",
          "name": "spender",
          "type": "address"
        },
        {
          "indexed": false,
          "internalType": "uint256",
          "name": "value",
          "type": "uint256"
        }
      ],
      "name": "Approval",
      "type": "event"
    },
    {
      "anonymous": false,
      "inputs": [
        {
          "indexed": false,
          "internalType": "address",
          "name": "account",
          "type": "address"
        }
      ],
      "name": "Paused",
      "type": "event"
    },
    {
      "anonymous": false,
      "inputs": [
        {
          "indexed": true,
          "internalType": "bytes32",
          "name": "role",
          "type": "bytes32"
        },
        {
          "indexed": true,
          "internalType": "bytes32",
          "name": "previousAdminRole",
          "type": "bytes32"
        },
        {
          "indexed": true,
          "internalType": "bytes32",
          "name": "newAdminRole",
          "type": "bytes32"
        }
      ],
      "name": "RoleAdminChanged",
      "type": "event"
    },
    {
      "anonymous": false,
      "inputs": [
        {
          "indexed": true,
          "internalType": "bytes32",
          "name": "role",
          "type": "bytes32"
        },
        {
          "indexed": true,
          "internalType": "address",
          "name": "account",
          "type": "address"
        },
        {
          "indexed": true,
          "internalType": "address",
          "name": "sender",
          "type": "address"
        }
      ],
      "name": "RoleGranted",
      "type": "event"
    },
    {
      "anonymous": false,
      "inputs": [
        {
          "indexed": true,
          "internalType": "bytes32",
          "name": "role",
          "type": "bytes32"
        },
        {
          "indexed": true,
          "internalType": "address",
          "name": "account",
          "type": "address"
        },
        {
          "indexed": true,
          "internalType": "address",
          "name": "sender",
          "type": "address"
        }
      ],
      "name": "RoleRevoked",
      "type": "event"
    },
    {
      "anonymous": false,
      "inputs": [
        {
          "indexed": true,
          "internalType": "address",
          "name": "from",
          "type": "address"
        },
        {
          "indexed": true,
          "internalType": "address",
          "name": "to",
          "type": "address"
        },
        {
          "indexed": false,
          "internalType": "uint256",
          "name": "value",
          "type": "uint256"
        }
      ],
      "name": "Transfer",
      "type": "event"
    },
    {
      "anonymous": false,
      "inputs": [
        {
          "indexed": false,
          "internalType": "address",
          "name": "account",
          "type": "address"
        }
      ],
      "name": "Unpaused",
      "type": "event"
    },
    {
      "inputs": [],
      "name": "BLOCKS_BETWEEN_TRANSFERS_MAXIMUM",
      "outputs": [
        {
          "internalType": "uint8",
          "name": "",
          "type": "uint8"
        }
      ],
      "stateMutability": "view",
      "type": "function"
    },
    {
      "inputs": [],
      "name": "DEFAULT_ADMIN_ROLE",
      "outputs": [
        {
          "internalType": "bytes32",
          "name": "",
          "type": "bytes32"
        }
      ],
      "stateMutability": "view",
      "type": "function"
    },
    {
      "inputs": [],
      "name": "GLOBAL_DAILY_SELL_LIMIT_MINIMUM",
      "outputs": [
        {
          "internalType": "uint64",
          "name": "",
          "type": "uint64"
        }
      ],
      "stateMutability": "view",
      "type": "function"
    },
    {
      "inputs": [],
      "name": "INITIAL_SUPPLY",
      "outputs": [
        {
          "internalType": "uint64",
          "name": "",
          "type": "uint64"
        }
      ],
      "stateMutability": "view",
      "type": "function"
    },
    {
      "inputs": [],
      "name": "MINTER_ROLE",
      "outputs": [
        {
          "internalType": "bytes32",
          "name": "",
          "type": "bytes32"
        }
      ],
      "stateMutability": "view",
      "type": "function"
    },
    {
      "inputs": [],
      "name": "TRANSFER_TAX_FACTOR",
      "outputs": [
        {
          "internalType": "uint16",
          "name": "",
          "type": "uint16"
        }
      ],
      "stateMutability": "view",
      "type": "function"
    },
    {
      "inputs": [],
      "name": "WHALE_LIMIT_MINIMUM",
      "outputs": [
        {
          "internalType": "uint64",
          "name": "",
          "type": "uint64"
        }
      ],
      "stateMutability": "view",
      "type": "function"
    },
    {
      "inputs": [
        {
          "internalType": "address",
          "name": "_address",
          "type": "address"
        }
      ],
      "name": "addPool",
      "outputs": [],
      "stateMutability": "nonpayable",
      "type": "function"
    },
    {
      "inputs": [
        {
          "internalType": "address",
          "name": "_address",
          "type": "address"
        }
      ],
      "name": "allow",
      "outputs": [],
      "stateMutability": "nonpayable",
      "type": "function"
    },
    {
      "inputs": [
        {
          "internalType": "address",
          "name": "owner",
          "type": "address"
        },
        {
          "internalType": "address",
          "name": "spender",
          "type": "address"
        }
      ],
      "name": "allowance",
      "outputs": [
        {
          "internalType": "uint256",
          "name": "",
          "type": "uint256"
        }
      ],
      "stateMutability": "view",
      "type": "function"
    },
    {
      "inputs": [
        {
          "internalType": "address",
          "name": "spender",
          "type": "address"
        },
        {
          "internalType": "uint256",
          "name": "amount",
          "type": "uint256"
        }
      ],
      "name": "approve",
      "outputs": [
        {
          "internalType": "bool",
          "name": "",
          "type": "bool"
        }
      ],
      "stateMutability": "nonpayable",
      "type": "function"
    },
    {
      "inputs": [
        {
          "internalType": "address",
          "name": "account",
          "type": "address"
        }
      ],
      "name": "balanceOf",
      "outputs": [
        {
          "internalType": "uint256",
          "name": "",
          "type": "uint256"
        }
      ],
      "stateMutability": "view",
      "type": "function"
    },
    {
      "inputs": [
        {
          "internalType": "address",
          "name": "_address",
          "type": "address"
        }
      ],
      "name": "blockUser",
      "outputs": [],
      "stateMutability": "nonpayable",
      "type": "function"
    },
    {
      "inputs": [],
      "name": "blocksBetweenTransfers",
      "outputs": [
        {
          "internalType": "uint256",
          "name": "",
          "type": "uint256"
        }
      ],
      "stateMutability": "view",
      "type": "function"
    },
    {
      "inputs": [
        {
          "internalType": "uint256",
          "name": "amount",
          "type": "uint256"
        }
      ],
      "name": "burn",
      "outputs": [],
      "stateMutability": "nonpayable",
      "type": "function"
    },
    {
      "inputs": [
        {
          "internalType": "address",
          "name": "account",
          "type": "address"
        },
        {
          "internalType": "uint256",
          "name": "amount",
          "type": "uint256"
        }
      ],
      "name": "burnFrom",
      "outputs": [],
      "stateMutability": "nonpayable",
      "type": "function"
    },
    {
      "inputs": [],
      "name": "burnedAmount",
      "outputs": [
        {
          "internalType": "uint256",
          "name": "",
          "type": "uint256"
        }
      ],
      "stateMutability": "view",
      "type": "function"
    },
    {
      "inputs": [
        {
          "internalType": "uint32",
          "name": "",
          "type": "uint32"
        }
      ],
      "name": "dailyAmountSold",
      "outputs": [
        {
          "internalType": "uint256",
          "name": "",
          "type": "uint256"
        }
      ],
      "stateMutability": "view",
      "type": "function"
    },
    {
      "inputs": [],
      "name": "decimals",
      "outputs": [
        {
          "internalType": "uint8",
          "name": "",
          "type": "uint8"
        }
      ],
      "stateMutability": "view",
      "type": "function"
    },
    {
      "inputs": [
        {
          "internalType": "address",
          "name": "spender",
          "type": "address"
        },
        {
          "internalType": "uint256",
          "name": "subtractedValue",
          "type": "uint256"
        }
      ],
      "name": "decreaseAllowance",
      "outputs": [
        {
          "internalType": "bool",
          "name": "",
          "type": "bool"
        }
      ],
      "stateMutability": "nonpayable",
      "type": "function"
    },
    {
      "inputs": [
        {
          "internalType": "address",
          "name": "_address",
          "type": "address"
        }
      ],
      "name": "disallow",
      "outputs": [],
      "stateMutability": "nonpayable",
      "type": "function"
    },
    {
      "inputs": [],
      "name": "getCurrentDay",
      "outputs": [
        {
          "internalType": "uint32",
          "name": "day",
          "type": "uint32"
        }
      ],
      "stateMutability": "view",
      "type": "function"
    },
    {
      "inputs": [],
      "name": "getNextDayTimestamp",
      "outputs": [
        {
          "internalType": "uint256",
          "name": "timestamp",
          "type": "uint256"
        }
      ],
      "stateMutability": "view",
      "type": "function"
    },
    {
      "inputs": [
        {
          "internalType": "bytes32",
          "name": "role",
          "type": "bytes32"
        }
      ],
      "name": "getRoleAdmin",
      "outputs": [
        {
          "internalType": "bytes32",
          "name": "",
          "type": "bytes32"
        }
      ],
      "stateMutability": "view",
      "type": "function"
    },
    {
      "inputs": [],
      "name": "globalDailySellLimit",
      "outputs": [
        {
          "internalType": "uint256",
          "name": "",
          "type": "uint256"
        }
      ],
      "stateMutability": "view",
      "type": "function"
    },
    {
      "inputs": [
        {
          "internalType": "bytes32",
          "name": "role",
          "type": "bytes32"
        },
        {
          "internalType": "address",
          "name": "account",
          "type": "address"
        }
      ],
      "name": "grantRole",
      "outputs": [],
      "stateMutability": "nonpayable",
      "type": "function"
    },
    {
      "inputs": [
        {
          "internalType": "bytes32",
          "name": "role",
          "type": "bytes32"
        },
        {
          "internalType": "address",
          "name": "account",
          "type": "address"
        }
      ],
      "name": "hasRole",
      "outputs": [
        {
          "internalType": "bool",
          "name": "",
          "type": "bool"
        }
      ],
      "stateMutability": "view",
      "type": "function"
    },
    {
      "inputs": [
        {
          "internalType": "address",
          "name": "spender",
          "type": "address"
        },
        {
          "internalType": "uint256",
          "name": "addedValue",
          "type": "uint256"
        }
      ],
      "name": "increaseAllowance",
      "outputs": [
        {
          "internalType": "bool",
          "name": "",
          "type": "bool"
        }
      ],
      "stateMutability": "nonpayable",
      "type": "function"
    },
    {
      "inputs": [],
      "name": "initialTimestamp",
      "outputs": [
        {
          "internalType": "uint256",
          "name": "",
          "type": "uint256"
        }
      ],
      "stateMutability": "view",
      "type": "function"
    },
    {
      "inputs": [
        {
          "internalType": "address",
          "name": "",
          "type": "address"
        }
      ],
      "name": "isAllowed",
      "outputs": [
        {
          "internalType": "bool",
          "name": "",
          "type": "bool"
        }
      ],
      "stateMutability": "view",
      "type": "function"
    },
    {
      "inputs": [],
      "name": "isBlockLimited",
      "outputs": [
        {
          "internalType": "bool",
          "name": "",
          "type": "bool"
        }
      ],
      "stateMutability": "view",
      "type": "function"
    },
    {
      "inputs": [
        {
          "internalType": "address",
          "name": "",
          "type": "address"
        }
      ],
      "name": "isBlocked",
      "outputs": [
        {
          "internalType": "bool",
          "name": "",
          "type": "bool"
        }
      ],
      "stateMutability": "view",
      "type": "function"
    },
    {
      "inputs": [
        {
          "internalType": "address",
          "name": "",
          "type": "address"
        }
      ],
      "name": "isPool",
      "outputs": [
        {
          "internalType": "bool",
          "name": "",
          "type": "bool"
        }
      ],
      "stateMutability": "view",
      "type": "function"
    },
    {
      "inputs": [
        {
          "internalType": "address",
          "name": "",
          "type": "address"
        }
      ],
      "name": "lastPurchase",
      "outputs": [
        {
          "internalType": "uint256",
          "name": "",
          "type": "uint256"
        }
      ],
      "stateMutability": "view",
      "type": "function"
    },
    {
      "inputs": [],
      "name": "maxxVault",
      "outputs": [
        {
          "internalType": "address",
          "name": "",
          "type": "address"
        }
      ],
      "stateMutability": "view",
      "type": "function"
    },
    {
      "inputs": [
        {
          "internalType": "address",
          "name": "_to",
          "type": "address"
        },
        {
          "internalType": "uint256",
          "name": "_amount",
          "type": "uint256"
        }
      ],
      "name": "mint",
      "outputs": [],
      "stateMutability": "nonpayable",
      "type": "function"
    },
    {
      "inputs": [],
      "name": "name",
      "outputs": [
        {
          "internalType": "string",
          "name": "",
          "type": "string"
        }
      ],
      "stateMutability": "view",
      "type": "function"
    },
    {
      "inputs": [],
      "name": "pause",
      "outputs": [],
      "stateMutability": "nonpayable",
      "type": "function"
    },
    {
      "inputs": [],
      "name": "paused",
      "outputs": [
        {
          "internalType": "bool",
          "name": "",
          "type": "bool"
        }
      ],
      "stateMutability": "view",
      "type": "function"
    },
    {
      "inputs": [
        {
          "internalType": "bytes32",
          "name": "role",
          "type": "bytes32"
        },
        {
          "internalType": "address",
          "name": "account",
          "type": "address"
        }
      ],
      "name": "renounceRole",
      "outputs": [],
      "stateMutability": "nonpayable",
      "type": "function"
    },
    {
      "inputs": [
        {
          "internalType": "bytes32",
          "name": "role",
          "type": "bytes32"
        },
        {
          "internalType": "address",
          "name": "account",
          "type": "address"
        }
      ],
      "name": "revokeRole",
      "outputs": [],
      "stateMutability": "nonpayable",
      "type": "function"
    },
    {
      "inputs": [
        {
          "internalType": "uint256",
          "name": "_blocksBetweenTransfers",
          "type": "uint256"
        }
      ],
      "name": "setBlocksBetweenTransfers",
      "outputs": [],
      "stateMutability": "nonpayable",
      "type": "function"
    },
    {
      "inputs": [
        {
          "internalType": "uint256",
          "name": "_globalDailySellLimit",
          "type": "uint256"
        }
      ],
      "name": "setGlobalDailySellLimit",
      "outputs": [],
      "stateMutability": "nonpayable",
      "type": "function"
    },
    {
      "inputs": [
        {
          "internalType": "uint16",
          "name": "_transferTax",
          "type": "uint16"
        }
      ],
      "name": "setTransferTax",
      "outputs": [],
      "stateMutability": "nonpayable",
      "type": "function"
    },
    {
      "inputs": [
        {
          "internalType": "uint256",
          "name": "_whaleLimit",
          "type": "uint256"
        }
      ],
      "name": "setWhaleLimit",
      "outputs": [],
      "stateMutability": "nonpayable",
      "type": "function"
    },
    {
      "inputs": [
        {
          "internalType": "bytes4",
          "name": "interfaceId",
          "type": "bytes4"
        }
      ],
      "name": "supportsInterface",
      "outputs": [
        {
          "internalType": "bool",
          "name": "",
          "type": "bool"
        }
      ],
      "stateMutability": "view",
      "type": "function"
    },
    {
      "inputs": [],
      "name": "symbol",
      "outputs": [
        {
          "internalType": "string",
          "name": "",
          "type": "string"
        }
      ],
      "stateMutability": "view",
      "type": "function"
    },
    {
      "inputs": [],
      "name": "totalSupply",
      "outputs": [
        {
          "internalType": "uint256",
          "name": "",
          "type": "uint256"
        }
      ],
      "stateMutability": "view",
      "type": "function"
    },
    {
      "inputs": [
        {
          "internalType": "address",
          "name": "_to",
          "type": "address"
        },
        {
          "internalType": "uint256",
          "name": "_amount",
          "type": "uint256"
        }
      ],
      "name": "transfer",
      "outputs": [
        {
          "internalType": "bool",
          "name": "",
          "type": "bool"
        }
      ],
      "stateMutability": "nonpayable",
      "type": "function"
    },
    {
      "inputs": [
        {
          "internalType": "address",
          "name": "_from",
          "type": "address"
        },
        {
          "internalType": "address",
          "name": "_to",
          "type": "address"
        },
        {
          "internalType": "uint256",
          "name": "_amount",
          "type": "uint256"
        }
      ],
      "name": "transferFrom",
      "outputs": [
        {
          "internalType": "bool",
          "name": "",
          "type": "bool"
        }
      ],
      "stateMutability": "nonpayable",
      "type": "function"
    },
    {
      "inputs": [],
      "name": "transferTax",
      "outputs": [
        {
          "internalType": "uint16",
          "name": "",
          "type": "uint16"
        }
      ],
      "stateMutability": "view",
      "type": "function"
    },
    {
      "inputs": [
        {
          "internalType": "address",
          "name": "_address",
          "type": "address"
        }
      ],
      "name": "unblock",
      "outputs": [],
      "stateMutability": "nonpayable",
      "type": "function"
    },
    {
      "inputs": [],
      "name": "unpause",
      "outputs": [],
      "stateMutability": "nonpayable",
      "type": "function"
    },
    {
      "inputs": [
        {
          "internalType": "bool",
          "name": "_blockLimited",
          "type": "bool"
        }
      ],
      "name": "updateBlockLimited",
      "outputs": [],
      "stateMutability": "nonpayable",
      "type": "function"
    },
    {
      "inputs": [],
      "name": "whaleLimit",
      "outputs": [
        {
          "internalType": "uint256",
          "name": "",
          "type": "uint256"
        }
      ],
      "stateMutability": "view",
      "type": "function"
    }
  ],
  "bytecode": "0x60a06040523480156200001157600080fd5b5060405162002ee438038062002ee483398101604081905262000034916200086d565b6040518060400160405280600c81526020016b4d6178782046696e616e636560a01b8152506040518060400160405280600481526020016309a82b0b60e31b81525081600390816200008791906200096f565b5060046200009682826200096f565b50506006805460ff1916905550620000b06000336200012f565b42608052600880546001600160a01b0319166001600160a01b0386169081179091556200010490620000e0601290565b620000ed90600a62000b4e565b620000fe9064174876e80062000b5f565b620001ba565b6200010f83620002b1565b6200011a82620002ff565b620001258162000352565b5050505062000ce6565b6200013b8282620003a6565b620001b65760008281526005602090815260408083206001600160a01b03851684529091529020805460ff19166001179055620001753390565b6001600160a01b0316816001600160a01b0316837f2f8788117e7eff1d82e926ec794901d17c78024a50270940304540a733656f0d60405160405180910390a45b5050565b6001600160a01b038216620002165760405162461bcd60e51b815260206004820152601f60248201527f45524332303a206d696e7420746f20746865207a65726f20616464726573730060448201526064015b60405180910390fd5b6200022460008383620003d3565b806002600082825462000238919062000b81565b90915550506001600160a01b038216600090815260208190526040812080548392906200026790849062000b81565b90915550506040518181526001600160a01b038316906000907fddf252ad1be2c89b69c2b068fc378daa952ba7f163c4a11628f55a4df523b3ef9060200160405180910390a35050565b6000620002be81620005db565b6107d08261ffff161115620002e65760405163248690e160e21b815260040160405180910390fd5b50600c805461ffff191661ffff92909216919091179055565b60006200030c81620005db565b620f4240821015620003315760405163248690e160e21b815260040160405180910390fd5b6200033f6012600a62000b4e565b6200034b908362000b5f565b600a555050565b60006200035f81620005db565b633b9aca00821015620003855760405163248690e160e21b815260040160405180910390fd5b620003936012600a62000b4e565b6200039f908362000b5f565b6009555050565b60008281526005602090815260408083206001600160a01b038516845290915290205460ff165b92915050565b6001600160a01b038084166000908152600e60209081526040808320549386168352600d90915290205460ff9182169116806200042857506001600160a01b0384166000908152600d602052604090205460ff165b8015620004325750805b156200045157604051636bc671fd60e01b815260040160405180910390fd5b6001600160a01b0383166200047a57816007600082825462000474919062000b81565b90915550505b6001600160a01b038416158015906200049b57506001600160a01b03831615155b15620005b857600a5482118015620004b1575080155b15620004d0576040516302c5833b60e61b815260040160405180910390fd5b6001600160a01b03841660009081526010602052604090205460ff161562000513576001600160a01b0383166000908152600f60205260409020439055620005b8565b6001600160a01b03831660009081526010602052604090205460ff1615620005b857600062000541620005ea565b63ffffffff81166000908152601160205260408120805492935085929091906200056d90849062000b81565b909155505060095463ffffffff821660009081526011602052604090205411801562000597575081155b15620005b6576040516305d6f43b60e01b815260040160405180910390fd5b505b620005d0848484620005d660201b62000b241760201c565b50505050565b505050565b620005e781336200062a565b50565b6000603c8060186080514262000601919062000b9c565b6200060d919062000bb6565b62000619919062000bb6565b62000625919062000bb6565b905090565b620006368282620003a6565b620001b6576200065c816001600160a01b03166014620006ad60201b620011161760201c565b6200067283602062001116620006ad821b17811c565b6040516020016200068592919062000c08565b60408051601f198184030181529082905262461bcd60e51b82526200020d9160040162000c81565b60606000620006be83600262000b5f565b620006cb90600262000b81565b6001600160401b03811115620006e557620006e5620008cb565b6040519080825280601f01601f19166020018201604052801562000710576020820181803683370190505b509050600360fc1b816000815181106200072e576200072e62000cb6565b60200101906001600160f81b031916908160001a905350600f60fb1b8160018151811062000760576200076062000cb6565b60200101906001600160f81b031916908160001a90535060006200078684600262000b5f565b6200079390600162000b81565b90505b600181111562000815576f181899199a1a9b1b9c1cb0b131b232b360811b85600f1660108110620007cb57620007cb62000cb6565b1a60f81b828281518110620007e457620007e462000cb6565b60200101906001600160f81b031916908160001a90535060049490941c936200080d8162000ccc565b905062000796565b508315620008665760405162461bcd60e51b815260206004820181905260248201527f537472696e67733a20686578206c656e67746820696e73756666696369656e7460448201526064016200020d565b9392505050565b600080600080608085870312156200088457600080fd5b84516001600160a01b03811681146200089c57600080fd5b602086015190945061ffff81168114620008b557600080fd5b6040860151606090960151949790965092505050565b634e487b7160e01b600052604160045260246000fd5b600181811c90821680620008f657607f821691505b6020821081036200091757634e487b7160e01b600052602260045260246000fd5b50919050565b601f821115620005d657600081815260208120601f850160051c81016020861015620009465750805b601f850160051c820191505b81811015620009675782815560010162000952565b505050505050565b81516001600160401b038111156200098b576200098b620008cb565b620009a3816200099c8454620008e1565b846200091d565b602080601f831160018114620009db5760008415620009c25750858301515b600019600386901b1c1916600185901b17855562000967565b600085815260208120601f198616915b8281101562000a0c57888601518255948401946001909101908401620009eb565b508582101562000a2b5787850151600019600388901b60f8161c191681555b5050505050600190811b01905550565b634e487b7160e01b600052601160045260246000fd5b600181815b8085111562000a9257816000190482111562000a765762000a7662000a3b565b8085161562000a8457918102915b93841c939080029062000a56565b509250929050565b60008262000aab57506001620003cd565b8162000aba57506000620003cd565b816001811462000ad3576002811462000ade5762000afe565b6001915050620003cd565b60ff84111562000af25762000af262000a3b565b50506001821b620003cd565b5060208310610133831016604e8410600b841016171562000b23575081810a620003cd565b62000b2f838362000a51565b806000190482111562000b465762000b4662000a3b565b029392505050565b60006200086660ff84168362000a9a565b600081600019048311821515161562000b7c5762000b7c62000a3b565b500290565b6000821982111562000b975762000b9762000a3b565b500190565b60008282101562000bb15762000bb162000a3b565b500390565b60008262000bd457634e487b7160e01b600052601260045260246000fd5b500490565b60005b8381101562000bf657818101518382015260200162000bdc565b83811115620005d05750506000910152565b7f416363657373436f6e74726f6c3a206163636f756e742000000000000000000081526000835162000c4281601785016020880162000bd9565b7001034b99036b4b9b9b4b733903937b6329607d1b601791840191820152835162000c7581602884016020880162000bd9565b01602801949350505050565b602081526000825180602084015262000ca281604085016020870162000bd9565b601f01601f19169190910160400192915050565b634e487b7160e01b600052603260045260246000fd5b60008162000cde5762000cde62000a3b565b506000190190565b6080516121d462000d106000396000818161072b01528181610ad50152610c5601526121d46000f3fe608060405234801561001057600080fd5b506004361061035c5760003560e01c806370a08231116101d3578063a9ed9cb811610104578063d6d14171116100a2578063e3b225b31161007c578063e3b225b314610773578063fbac39511461077d578063fd1c24ed146107a0578063ff9913e8146107cb57600080fd5b8063d6d1417114610726578063d914cd4b1461074d578063dd62ed3e1461076057600080fd5b8063babcc539116100de578063babcc539146106c0578063cff3ef37146106e3578063d5391393146106ec578063d547741f1461071357600080fd5b8063a9ed9cb814610684578063b30a392214610697578063b811b4ae146106a057600080fd5b806391d1485411610171578063a085b4cf1161014b578063a085b4cf1461064d578063a217fddf14610656578063a457c2d71461065e578063a9059cbb1461067157600080fd5b806391d148541461061f57806392aeb1cb1461063257806395d89b411461064557600080fd5b80638124f7ac116101ad5780638124f7ac146105e35780638456cb59146106045780638b8270951461060c5780638fce2b711461061457600080fd5b806370a082311461059e57806379cc6790146105c75780637dfedef9146105da57600080fd5b806336568abe116102ad57806342966c681161024b5780635b16ebb7116102255780635b16ebb71461054a5780635c975abb1461056d5780635fff49041461057857806367b220a51461058b57600080fd5b806342966c681461051b57806350e15fdd1461052e57806354fab3e21461053757600080fd5b80633e6968b6116102875780633e6968b6146104c35780633f4ba83a146104e057806340c10f19146104e8578063421da68a146104fb57600080fd5b806336568abe1461048a578063395093511461049d5780633da01325146104b057600080fd5b806323b872dd1161031a5780632f2ff15d116102f45780632f2ff15d1461042a5780632ff2e9dc1461043d578063313ce56714610462578063350b93791461047757600080fd5b806323b872dd146103ec578063248a9ca3146103ff57806326cdd6ec1461042257600080fd5b80629fb61a1461036157806301ffc9a71461038a57806306fdde031461039d578063095ea7b3146103b257806309dcb7b0146103c557806318160ddd146103da575b600080fd5b60085461037590600160a01b900460ff1681565b60405190151581526020015b60405180910390f35b610375610398366004611ce7565b6107de565b6103a5610815565b6040516103819190611d3d565b6103756103c0366004611d8c565b6108a7565b6103d86103d3366004611db6565b6108bf565b005b6002545b604051908152602001610381565b6103756103fa366004611dda565b61090a565b6103de61040d366004611e16565b60009081526005602052604090206001015490565b6103de610aa4565b6103d8610438366004611e2f565b610aff565b61044964174876e80081565b60405167ffffffffffffffff9091168152602001610381565b60125b60405160ff9091168152602001610381565b6103d8610485366004611e16565b610b29565b6103d8610498366004611e2f565b610b75565b6103756104ab366004611d8c565b610bf8565b6103d86104be366004611e5b565b610c1a565b6104cb610c4a565b60405163ffffffff9091168152602001610381565b6103d8610c9e565b6103d86104f6366004611d8c565b610cb4565b6103de610509366004611e5b565b600f6020526000908152604090205481565b6103d8610529366004611e16565b610cf0565b6103de60075481565b6103d8610545366004611e16565b610cfa565b610375610558366004611e5b565b60106020526000908152604090205460ff1681565b60065460ff16610375565b6103d8610586366004611e16565b610d2d565b6103d8610599366004611e5b565b610d7a565b6103de6105ac366004611e5b565b6001600160a01b031660009081526020819052604090205490565b6103d86105d5366004611d8c565b610da7565b6103de600b5481565b600c546105f19061ffff1681565b60405161ffff9091168152602001610381565b6103d8610dbc565b610465600581565b610449633b9aca0081565b61037561062d366004611e2f565b610dcf565b6103d8610640366004611e76565b610dfa565b6103a5610e24565b6105f161271081565b6103de600081565b61037561066c366004611d8c565b610e33565b61037561067f366004611d8c565b610eb9565b6103d8610692366004611e5b565b611021565b6103de600a5481565b6103de6106ae366004611e98565b60116020526000908152604090205481565b6103756106ce366004611e5b565b600e6020526000908152604090205460ff1681565b6103de60095481565b6103de7f9f2df0fed2c77648de5860a4cc508cd0818c85b8b8a1ab4ceeef8d981c8956a681565b6103d8610721366004611e2f565b61104e565b6103de7f000000000000000000000000000000000000000000000000000000000000000081565b6103d861075b366004611e5b565b611073565b6103de61076e366004611ebe565b6110bb565b610449620f424081565b61037561078b366004611e5b565b600d6020526000908152604090205460ff1681565b6008546107b3906001600160a01b031681565b6040516001600160a01b039091168152602001610381565b6103d86107d9366004611e5b565b6110e6565b60006001600160e01b03198216637965db0b60e01b148061080f57506301ffc9a760e01b6001600160e01b03198316145b92915050565b60606003805461082490611ee8565b80601f016020809104026020016040519081016040528092919081815260200182805461085090611ee8565b801561089d5780601f106108725761010080835404028352916020019161089d565b820191906000526020600020905b81548152906001019060200180831161088057829003601f168201915b5050505050905090565b6000336108b58185856112b2565b5060019392505050565b60006108ca816113d6565b6107d08261ffff1611156108f15760405163248690e160e21b815260040160405180910390fd5b50600c805461ffff191661ffff92909216919091179055565b60006109146113e0565b600854600160a01b900460ff16801561094557506001600160a01b03831660009081526010602052604090205460ff165b801561096a57506001600160a01b0384166000908152600e602052604090205460ff16155b801561099a5750600b5461097e9043611f38565b6001600160a01b0385166000908152600f602052604090205410155b156109c857506001600160a01b0383166000908152600d60205260408120805460ff19166001179055610a9d565b6001600160a01b03841660009081526010602052604090205460ff1680610a0757506001600160a01b03831660009081526010602052604090205460ff165b15610a8f57600c5460009061271090610a249061ffff1682611f4f565b610a329061ffff1685611f72565b610a3c9190611f91565b90506000610a4a8285611f38565b6008549294508492909150610a749033906001600160a01b0316610a6f600285611f91565b611428565b610a7d57600080fd5b610a8c336105d5600284611f91565b50505b610a9a848484611428565b90505b9392505050565b600080610aaf610c4a565b610aba906001611fb3565b63ffffffff169050610acf8162015180611f72565b610af9907f0000000000000000000000000000000000000000000000000000000000000000611fdb565b91505090565b600082815260056020526040902060010154610b1a816113d6565b610b248383611441565b505050565b6000610b34816113d6565b620f4240821015610b585760405163248690e160e21b815260040160405180910390fd5b610b646012600a6120d7565b610b6e9083611f72565b600a555050565b6001600160a01b0381163314610bea5760405162461bcd60e51b815260206004820152602f60248201527f416363657373436f6e74726f6c3a2063616e206f6e6c792072656e6f756e636560448201526e103937b632b9903337b91039b2b63360891b60648201526084015b60405180910390fd5b610bf482826114c7565b5050565b6000336108b5818585610c0b83836110bb565b610c159190611fdb565b6112b2565b6000610c25816113d6565b506001600160a01b03166000908152600d60205260409020805460ff19166001179055565b6000603c806018610c7b7f000000000000000000000000000000000000000000000000000000000000000042611f38565b610c859190611f91565b610c8f9190611f91565b610c999190611f91565b905090565b6000610ca9816113d6565b610cb161152e565b50565b610cbc6113e0565b7f9f2df0fed2c77648de5860a4cc508cd0818c85b8b8a1ab4ceeef8d981c8956a6610ce6816113d6565b610b248383611580565b610cb1338261166b565b6000610d05816113d6565b6005821115610d275760405163248690e160e21b815260040160405180910390fd5b50600b55565b6000610d38816113d6565b633b9aca00821015610d5d5760405163248690e160e21b815260040160405180910390fd5b610d696012600a6120d7565b610d739083611f72565b6009555050565b6000610d85816113d6565b506001600160a01b03166000908152600d60205260409020805460ff19169055565b610db28233836117c5565b610bf4828261166b565b6000610dc7816113d6565b610cb161183f565b60009182526005602090815260408084206001600160a01b0393909316845291905290205460ff1690565b6000610e05816113d6565b5060088054911515600160a01b0260ff60a01b19909216919091179055565b60606004805461082490611ee8565b60003381610e4182866110bb565b905083811015610ea15760405162461bcd60e51b815260206004820152602560248201527f45524332303a2064656372656173656420616c6c6f77616e63652062656c6f77604482015264207a65726f60d81b6064820152608401610be1565b610eae82868684036112b2565b506001949350505050565b6000610ec36113e0565b600854600160a01b900460ff168015610ef457506001600160a01b03831660009081526010602052604090205460ff165b8015610f105750336000908152600e602052604090205460ff16155b8015610f375750600b54610f249043611f38565b336000908152600f602052604090205410155b15610f5c5750336000908152600d60205260408120805460ff1916600117905561080f565b6001600160a01b03831660009081526010602052604090205460ff1680610f9257503360009081526010602052604090205460ff165b1561101757600c5460009061271090610faf9061ffff1682611f4f565b610fbd9061ffff1685611f72565b610fc79190611f91565b90506000610fd58285611f38565b6008549294508492909150610ffd906001600160a01b0316610ff8600284611f91565b61187c565b61100657600080fd5b611014610529600283611f91565b50505b610a9d838361187c565b600061102c816113d6565b506001600160a01b03166000908152600e60205260409020805460ff19169055565b600082815260056020526040902060010154611069816113d6565b610b2483836114c7565b600061107e816113d6565b506001600160a01b031660009081526010602090815260408083208054600160ff199182168117909255600e909352922080549091169091179055565b6001600160a01b03918216600090815260016020908152604080832093909416825291909152205490565b60006110f1816113d6565b506001600160a01b03166000908152600e60205260409020805460ff19166001179055565b60606000611125836002611f72565b611130906002611fdb565b67ffffffffffffffff811115611148576111486120e6565b6040519080825280601f01601f191660200182016040528015611172576020820181803683370190505b509050600360fc1b8160008151811061118d5761118d6120fc565b60200101906001600160f81b031916908160001a905350600f60fb1b816001815181106111bc576111bc6120fc565b60200101906001600160f81b031916908160001a90535060006111e0846002611f72565b6111eb906001611fdb565b90505b6001811115611263576f181899199a1a9b1b9c1cb0b131b232b360811b85600f166010811061121f5761121f6120fc565b1a60f81b828281518110611235576112356120fc565b60200101906001600160f81b031916908160001a90535060049490941c9361125c81612112565b90506111ee565b508315610a9d5760405162461bcd60e51b815260206004820181905260248201527f537472696e67733a20686578206c656e67746820696e73756666696369656e746044820152606401610be1565b6001600160a01b0383166113145760405162461bcd60e51b8152602060048201526024808201527f45524332303a20617070726f76652066726f6d20746865207a65726f206164646044820152637265737360e01b6064820152608401610be1565b6001600160a01b0382166113755760405162461bcd60e51b815260206004820152602260248201527f45524332303a20617070726f766520746f20746865207a65726f206164647265604482015261737360f01b6064820152608401610be1565b6001600160a01b0383811660008181526001602090815260408083209487168084529482529182902085905590518481527f8c5be1e5ebec7d5bd14f71427d1e84f3dd0314c0f7b2291e5b200ac8c7c3b925910160405180910390a3505050565b610cb1813361188a565b60065460ff16156114265760405162461bcd60e51b815260206004820152601060248201526f14185d5cd8589b194e881c185d5cd95960821b6044820152606401610be1565b565b6000336114368582856117c5565b610eae8585856118ee565b61144b8282610dcf565b610bf45760008281526005602090815260408083206001600160a01b03851684529091529020805460ff191660011790556114833390565b6001600160a01b0316816001600160a01b0316837f2f8788117e7eff1d82e926ec794901d17c78024a50270940304540a733656f0d60405160405180910390a45050565b6114d18282610dcf565b15610bf45760008281526005602090815260408083206001600160a01b0385168085529252808320805460ff1916905551339285917ff6391f5c32d9c69d2a47ea670b442974b53935d1edc7fd64eb21e047a839171b9190a45050565b611536611ac7565b6006805460ff191690557f5db9ee0a495bf2e6ff9c91a7834c1ba4fdd244a5e8aa4e537bd38aeae4b073aa335b6040516001600160a01b03909116815260200160405180910390a1565b6001600160a01b0382166115d65760405162461bcd60e51b815260206004820152601f60248201527f45524332303a206d696e7420746f20746865207a65726f2061646472657373006044820152606401610be1565b6115e260008383611b10565b80600260008282546115f49190611fdb565b90915550506001600160a01b03821660009081526020819052604081208054839290611621908490611fdb565b90915550506040518181526001600160a01b038316906000907fddf252ad1be2c89b69c2b068fc378daa952ba7f163c4a11628f55a4df523b3ef9060200160405180910390a35050565b6001600160a01b0382166116cb5760405162461bcd60e51b815260206004820152602160248201527f45524332303a206275726e2066726f6d20746865207a65726f206164647265736044820152607360f81b6064820152608401610be1565b6116d782600083611b10565b6001600160a01b0382166000908152602081905260409020548181101561174b5760405162461bcd60e51b815260206004820152602260248201527f45524332303a206275726e20616d6f756e7420657863656564732062616c616e604482015261636560f01b6064820152608401610be1565b6001600160a01b038316600090815260208190526040812083830390556002805484929061177a908490611f38565b90915550506040518281526000906001600160a01b038516907fddf252ad1be2c89b69c2b068fc378daa952ba7f163c4a11628f55a4df523b3ef9060200160405180910390a3505050565b60006117d184846110bb565b90506000198114611839578181101561182c5760405162461bcd60e51b815260206004820152601d60248201527f45524332303a20696e73756666696369656e7420616c6c6f77616e63650000006044820152606401610be1565b61183984848484036112b2565b50505050565b6118476113e0565b6006805460ff191660011790557f62e78cea01bee320cd4e420270b5ea74000d11b0c9f74754ebdbfc544b05a2586115633390565b6000336108b58185856118ee565b6118948282610dcf565b610bf4576118ac816001600160a01b03166014611116565b6118b7836020611116565b6040516020016118c8929190612129565b60408051601f198184030181529082905262461bcd60e51b8252610be191600401611d3d565b6001600160a01b0383166119525760405162461bcd60e51b815260206004820152602560248201527f45524332303a207472616e736665722066726f6d20746865207a65726f206164604482015264647265737360d81b6064820152608401610be1565b6001600160a01b0382166119b45760405162461bcd60e51b815260206004820152602360248201527f45524332303a207472616e7366657220746f20746865207a65726f206164647260448201526265737360e81b6064820152608401610be1565b6119bf838383611b10565b6001600160a01b03831660009081526020819052604090205481811015611a375760405162461bcd60e51b815260206004820152602660248201527f45524332303a207472616e7366657220616d6f756e7420657863656564732062604482015265616c616e636560d01b6064820152608401610be1565b6001600160a01b03808516600090815260208190526040808220858503905591851681529081208054849290611a6e908490611fdb565b92505081905550826001600160a01b0316846001600160a01b03167fddf252ad1be2c89b69c2b068fc378daa952ba7f163c4a11628f55a4df523b3ef84604051611aba91815260200190565b60405180910390a3611839565b60065460ff166114265760405162461bcd60e51b815260206004820152601460248201527314185d5cd8589b194e881b9bdd081c185d5cd95960621b6044820152606401610be1565b6001600160a01b038084166000908152600e60209081526040808320549386168352600d90915290205460ff918216911680611b6457506001600160a01b0384166000908152600d602052604090205460ff165b8015611b6d5750805b15611b8b57604051636bc671fd60e01b815260040160405180910390fd5b6001600160a01b038316611bb1578160076000828254611bab9190611fdb565b90915550505b6001600160a01b03841615801590611bd157506001600160a01b03831615155b15611ce257600a5482118015611be5575080155b15611c03576040516302c5833b60e61b815260040160405180910390fd5b6001600160a01b03841660009081526010602052604090205460ff1615611c44576001600160a01b0383166000908152600f60205260409020439055611839565b6001600160a01b03831660009081526010602052604090205460ff1615611ce2576000611c6f610c4a565b63ffffffff8116600090815260116020526040812080549293508592909190611c99908490611fdb565b909155505060095463ffffffff8216600090815260116020526040902054118015611cc2575081155b15611ce0576040516305d6f43b60e01b815260040160405180910390fd5b505b611839565b600060208284031215611cf957600080fd5b81356001600160e01b031981168114610a9d57600080fd5b60005b83811015611d2c578181015183820152602001611d14565b838111156118395750506000910152565b6020815260008251806020840152611d5c816040850160208701611d11565b601f01601f19169190910160400192915050565b80356001600160a01b0381168114611d8757600080fd5b919050565b60008060408385031215611d9f57600080fd5b611da883611d70565b946020939093013593505050565b600060208284031215611dc857600080fd5b813561ffff81168114610a9d57600080fd5b600080600060608486031215611def57600080fd5b611df884611d70565b9250611e0660208501611d70565b9150604084013590509250925092565b600060208284031215611e2857600080fd5b5035919050565b60008060408385031215611e4257600080fd5b82359150611e5260208401611d70565b90509250929050565b600060208284031215611e6d57600080fd5b610a9d82611d70565b600060208284031215611e8857600080fd5b81358015158114610a9d57600080fd5b600060208284031215611eaa57600080fd5b813563ffffffff81168114610a9d57600080fd5b60008060408385031215611ed157600080fd5b611eda83611d70565b9150611e5260208401611d70565b600181811c90821680611efc57607f821691505b602082108103611f1c57634e487b7160e01b600052602260045260246000fd5b50919050565b634e487b7160e01b600052601160045260246000fd5b600082821015611f4a57611f4a611f22565b500390565b600061ffff83811690831681811015611f6a57611f6a611f22565b039392505050565b6000816000190483118215151615611f8c57611f8c611f22565b500290565b600082611fae57634e487b7160e01b600052601260045260246000fd5b500490565b600063ffffffff808316818516808303821115611fd257611fd2611f22565b01949350505050565b60008219821115611fee57611fee611f22565b500190565b600181815b8085111561202e57816000190482111561201457612014611f22565b8085161561202157918102915b93841c9390800290611ff8565b509250929050565b6000826120455750600161080f565b816120525750600061080f565b816001811461206857600281146120725761208e565b600191505061080f565b60ff84111561208357612083611f22565b50506001821b61080f565b5060208310610133831016604e8410600b84101617156120b1575081810a61080f565b6120bb8383611ff3565b80600019048211156120cf576120cf611f22565b029392505050565b6000610a9d60ff841683612036565b634e487b7160e01b600052604160045260246000fd5b634e487b7160e01b600052603260045260246000fd5b60008161212157612121611f22565b506000190190565b7f416363657373436f6e74726f6c3a206163636f756e7420000000000000000000815260008351612161816017850160208801611d11565b7001034b99036b4b9b9b4b733903937b6329607d1b6017918401918201528351612192816028840160208801611d11565b0160280194935050505056fea264697066735822122059053e05d3efd9ec838fe9d166090108f3073c20a2706f0b48580273c9bb0a7164736f6c634300080f0033",
  "linkReferences": {},
  "deployedLinkReferences": {}
}